{
  "contractName": "AccessControlContract",
  "abi": [
    {
      "inputs": [
        {
          "internalType": "string",
          "name": "",
          "type": "string"
        },
        {
          "internalType": "string",
          "name": "",
          "type": "string"
        }
      ],
      "name": "hasPermissionsMap",
      "outputs": [
        {
          "internalType": "bool",
          "name": "",
          "type": "bool"
        }
      ],
      "stateMutability": "view",
      "type": "function",
      "constant": true
    },
    {
      "inputs": [
        {
          "internalType": "string",
          "name": "cid",
          "type": "string"
        },
        {
          "internalType": "string",
          "name": "userAddress",
          "type": "string"
        }
      ],
      "name": "doesUserHavePermission",
      "outputs": [
        {
          "internalType": "bool",
          "name": "",
          "type": "bool"
        }
      ],
      "stateMutability": "view",
      "type": "function",
      "constant": true
    },
    {
      "inputs": [
        {
          "internalType": "string",
          "name": "cid",
          "type": "string"
        },
        {
          "internalType": "string",
          "name": "userAddress",
          "type": "string"
        }
      ],
      "name": "addPermission",
      "outputs": [],
      "stateMutability": "nonpayable",
      "type": "function"
    },
    {
      "inputs": [
        {
          "internalType": "string",
          "name": "cid",
          "type": "string"
        },
        {
          "internalType": "string",
          "name": "userAddress",
          "type": "string"
        }
      ],
      "name": "removePermission",
      "outputs": [],
      "stateMutability": "nonpayable",
      "type": "function"
    }
  ],
  "bytecode": "0x608060405234801561001057600080fd5b50610511806100206000396000f3fe608060405234801561001057600080fd5b506004361061004c5760003560e01c80635861d1ea1461005157806392f514261461006d578063cd59aa051461009d578063f17af635146100b9575b600080fd5b61006b600480360381019061006691906102b2565b6100e9565b005b610087600480360381019061008291906102b2565b61013f565b6040516100949190610381565b60405180910390f35b6100b760048036038101906100b291906102b2565b610190565b005b6100d360048036038101906100ce91906102b2565b6101e7565b6040516100e09190610381565b60405180910390f35b600080836040516100fa919061036a565b908152602001604051809103902082604051610116919061036a565b908152602001604051809103902060006101000a81548160ff0219169083151502179055505050565b60008083604051610150919061036a565b90815260200160405180910390208260405161016c919061036a565b908152602001604051809103902060009054906101000a900460ff16905092915050565b60016000836040516101a2919061036a565b9081526020016040518091039020826040516101be919061036a565b908152602001604051809103902060006101000a81548160ff0219169083151502179055505050565b600082805160208101820180518482526020830160208501208183528095505050505050818051602081018201805184825260208301602085012081835280955050505050506000915091509054906101000a900460ff1681565b6000610255610250846103c1565b61039c565b905082815260208101848484011115610271576102706104bb565b5b61027c848285610414565b509392505050565b600082601f830112610299576102986104b6565b5b81356102a9848260208601610242565b91505092915050565b600080604083850312156102c9576102c86104c5565b5b600083013567ffffffffffffffff8111156102e7576102e66104c0565b5b6102f385828601610284565b925050602083013567ffffffffffffffff811115610314576103136104c0565b5b61032085828601610284565b9150509250929050565b61033381610408565b82525050565b6000610344826103f2565b61034e81856103fd565b935061035e818560208601610423565b80840191505092915050565b60006103768284610339565b915081905092915050565b6000602082019050610396600083018461032a565b92915050565b60006103a66103b7565b90506103b28282610456565b919050565b6000604051905090565b600067ffffffffffffffff8211156103dc576103db610487565b5b6103e5826104ca565b9050602081019050919050565b600081519050919050565b600081905092915050565b60008115159050919050565b82818337600083830152505050565b60005b83811015610441578082015181840152602081019050610426565b83811115610450576000848401525b50505050565b61045f826104ca565b810181811067ffffffffffffffff8211171561047e5761047d610487565b5b80604052505050565b7f4e487b7100000000000000000000000000000000000000000000000000000000600052604160045260246000fd5b600080fd5b600080fd5b600080fd5b600080fd5b6000601f19601f830116905091905056fea2646970667358221220fbbde7d6936a8c890b162f3bf479fb352a6938053b43ca3ab80f2d1062024a1664736f6c63430008060033",
  "immutableReferences": {},
  "source": "// // SPDX-License-Identifier: MIT\npragma solidity >=0.4.22 <0.9.0;\ncontract AccessControlContract \n{\n\n  mapping(string=>mapping(string=>bool)) public hasPermissionsMap;\n\n    function doesUserHavePermission(string memory cid,string memory userAddress)\n        public\n        view\n        returns (bool)\n    {\n        return hasPermissionsMap[cid][userAddress];\n    }\n\n    function addPermission(string memory cid,string memory userAddress)\n        public\n    {\n        hasPermissionsMap[cid][userAddress]=true;\n    }\n\n    function removePermission(string memory cid,string memory userAddress)\n        public\n    {\n        hasPermissionsMap[cid][userAddress]=false;\n    }\n}",
  "sourcePath": "/home/harshvardhan/Documents/Major_Project/smart-contract/contracts/AccessControlContract.sol",
  "compiler": {
    "name": "solc",
    "version": "0.8.6+commit.11564f7e.Emscripten.clang"
  },
  "schemaVersion": "3.4.5",
  "updatedAt": "2022-03-21T20:20:27.555Z",
  "networkType": "ethereum",
  "devdoc": {
    "kind": "dev",
    "methods": {},
    "version": 1
  },
  "userdoc": {
    "kind": "user",
    "methods": {},
    "version": 1
  }
}