{
  "contractName": "Forwarder",
  "abi": [
    {
      "inputs": [],
      "stateMutability": "nonpayable",
      "type": "constructor"
    },
    {
      "anonymous": false,
      "inputs": [
        {
          "indexed": true,
          "internalType": "bytes32",
          "name": "domainSeparator",
          "type": "bytes32"
        },
        {
          "indexed": false,
          "internalType": "bytes",
          "name": "domainValue",
          "type": "bytes"
        }
      ],
      "name": "DomainRegistered",
      "type": "event"
    },
    {
      "anonymous": false,
      "inputs": [
        {
          "indexed": true,
          "internalType": "bytes32",
          "name": "typeHash",
          "type": "bytes32"
        },
        {
          "indexed": false,
          "internalType": "string",
          "name": "typeStr",
          "type": "string"
        }
      ],
      "name": "RequestTypeRegistered",
      "type": "event"
    },
    {
      "inputs": [],
      "name": "EIP712_DOMAIN_TYPE",
      "outputs": [
        {
          "internalType": "string",
          "name": "",
          "type": "string"
        }
      ],
      "stateMutability": "view",
      "type": "function"
    },
    {
      "inputs": [],
      "name": "GENERIC_PARAMS",
      "outputs": [
        {
          "internalType": "string",
          "name": "",
          "type": "string"
        }
      ],
      "stateMutability": "view",
      "type": "function"
    },
    {
      "inputs": [
        {
          "internalType": "bytes32",
          "name": "",
          "type": "bytes32"
        }
      ],
      "name": "domains",
      "outputs": [
        {
          "internalType": "bool",
          "name": "",
          "type": "bool"
        }
      ],
      "stateMutability": "view",
      "type": "function"
    },
    {
      "inputs": [
        {
          "internalType": "bytes32",
          "name": "",
          "type": "bytes32"
        }
      ],
      "name": "typeHashes",
      "outputs": [
        {
          "internalType": "bool",
          "name": "",
          "type": "bool"
        }
      ],
      "stateMutability": "view",
      "type": "function"
    },
    {
      "stateMutability": "payable",
      "type": "receive"
    },
    {
      "inputs": [
        {
          "internalType": "address",
          "name": "from",
          "type": "address"
        }
      ],
      "name": "getNonce",
      "outputs": [
        {
          "internalType": "uint256",
          "name": "",
          "type": "uint256"
        }
      ],
      "stateMutability": "view",
      "type": "function"
    },
    {
      "inputs": [
        {
          "components": [
            {
              "internalType": "address",
              "name": "from",
              "type": "address"
            },
            {
              "internalType": "address",
              "name": "to",
              "type": "address"
            },
            {
              "internalType": "uint256",
              "name": "value",
              "type": "uint256"
            },
            {
              "internalType": "uint256",
              "name": "gas",
              "type": "uint256"
            },
            {
              "internalType": "uint256",
              "name": "nonce",
              "type": "uint256"
            },
            {
              "internalType": "bytes",
              "name": "data",
              "type": "bytes"
            },
            {
              "internalType": "uint256",
              "name": "validUntil",
              "type": "uint256"
            }
          ],
          "internalType": "struct IForwarder.ForwardRequest",
          "name": "req",
          "type": "tuple"
        },
        {
          "internalType": "bytes32",
          "name": "domainSeparator",
          "type": "bytes32"
        },
        {
          "internalType": "bytes32",
          "name": "requestTypeHash",
          "type": "bytes32"
        },
        {
          "internalType": "bytes",
          "name": "suffixData",
          "type": "bytes"
        },
        {
          "internalType": "bytes",
          "name": "sig",
          "type": "bytes"
        }
      ],
      "name": "verify",
      "outputs": [],
      "stateMutability": "view",
      "type": "function"
    },
    {
      "inputs": [
        {
          "components": [
            {
              "internalType": "address",
              "name": "from",
              "type": "address"
            },
            {
              "internalType": "address",
              "name": "to",
              "type": "address"
            },
            {
              "internalType": "uint256",
              "name": "value",
              "type": "uint256"
            },
            {
              "internalType": "uint256",
              "name": "gas",
              "type": "uint256"
            },
            {
              "internalType": "uint256",
              "name": "nonce",
              "type": "uint256"
            },
            {
              "internalType": "bytes",
              "name": "data",
              "type": "bytes"
            },
            {
              "internalType": "uint256",
              "name": "validUntil",
              "type": "uint256"
            }
          ],
          "internalType": "struct IForwarder.ForwardRequest",
          "name": "req",
          "type": "tuple"
        },
        {
          "internalType": "bytes32",
          "name": "domainSeparator",
          "type": "bytes32"
        },
        {
          "internalType": "bytes32",
          "name": "requestTypeHash",
          "type": "bytes32"
        },
        {
          "internalType": "bytes",
          "name": "suffixData",
          "type": "bytes"
        },
        {
          "internalType": "bytes",
          "name": "sig",
          "type": "bytes"
        }
      ],
      "name": "execute",
      "outputs": [
        {
          "internalType": "bool",
          "name": "success",
          "type": "bool"
        },
        {
          "internalType": "bytes",
          "name": "ret",
          "type": "bytes"
        }
      ],
      "stateMutability": "payable",
      "type": "function"
    },
    {
      "inputs": [
        {
          "internalType": "string",
          "name": "typeName",
          "type": "string"
        },
        {
          "internalType": "string",
          "name": "typeSuffix",
          "type": "string"
        }
      ],
      "name": "registerRequestType",
      "outputs": [],
      "stateMutability": "nonpayable",
      "type": "function"
    },
    {
      "inputs": [
        {
          "internalType": "string",
          "name": "name",
          "type": "string"
        },
        {
          "internalType": "string",
          "name": "version",
          "type": "string"
        }
      ],
      "name": "registerDomainSeparator",
      "outputs": [],
      "stateMutability": "nonpayable",
      "type": "function"
    },
    {
      "inputs": [
        {
          "components": [
            {
              "internalType": "address",
              "name": "from",
              "type": "address"
            },
            {
              "internalType": "address",
              "name": "to",
              "type": "address"
            },
            {
              "internalType": "uint256",
              "name": "value",
              "type": "uint256"
            },
            {
              "internalType": "uint256",
              "name": "gas",
              "type": "uint256"
            },
            {
              "internalType": "uint256",
              "name": "nonce",
              "type": "uint256"
            },
            {
              "internalType": "bytes",
              "name": "data",
              "type": "bytes"
            },
            {
              "internalType": "uint256",
              "name": "validUntil",
              "type": "uint256"
            }
          ],
          "internalType": "struct IForwarder.ForwardRequest",
          "name": "req",
          "type": "tuple"
        },
        {
          "internalType": "bytes32",
          "name": "requestTypeHash",
          "type": "bytes32"
        },
        {
          "internalType": "bytes",
          "name": "suffixData",
          "type": "bytes"
        }
      ],
      "name": "_getEncoded",
      "outputs": [
        {
          "internalType": "bytes",
          "name": "",
          "type": "bytes"
        }
      ],
      "stateMutability": "pure",
      "type": "function"
    }
  ],
  "bytecode": "0x60806040523480156200001157600080fd5b5060006040518060800160405280605d815260200162002578605d9139604051602001620000409190620001a4565b604051602081830303815290604052905062000062816200006960201b60201c565b50620002bb565b600081805190602001209050600160008083815260200190815260200160002060006101000a81548160ff021916908315150217905550807f64d6bce64323458c44643c51fe45113efc882082f7b7fd5f09f0d69d2eedb20283604051620000d29190620001d7565b60405180910390a25050565b6000620000eb82620001fb565b620000f7818562000206565b93506200010981856020860162000222565b620001148162000258565b840191505092915050565b60006200012c82620001fb565b62000138818562000217565b93506200014a81856020860162000222565b80840191505092915050565b600062000165600f8362000217565b9150620001728262000269565b600f82019050919050565b60006200018c60018362000217565b9150620001998262000292565b600182019050919050565b6000620001b18262000156565b9150620001bf82846200011f565b9150620001cc826200017d565b915081905092915050565b60006020820190508181036000830152620001f38184620000de565b905092915050565b600081519050919050565b600082825260208201905092915050565b600081905092915050565b60005b838110156200024257808201518184015260208101905062000225565b8381111562000252576000848401525b50505050565b6000601f19601f8301169050919050565b7f466f727761726452657175657374280000000000000000000000000000000000600082015250565b7f2900000000000000000000000000000000000000000000000000000000000000600082015250565b6122ad80620002cb6000396000f3fe6080604052600436106100955760003560e01c8063c3f28abd11610059578063c3f28abd14610198578063c722f177146101c3578063d9210be514610200578063e024dc7f14610229578063e2b62f2d1461025a5761009c565b8063066a310c146100a157806321fe98df146100cc5780632d0335ab146101095780639c7b459214610146578063ad9f99c71461016f5761009c565b3661009c57005b600080fd5b3480156100ad57600080fd5b506100b6610297565b6040516100c391906119b8565b60405180910390f35b3480156100d857600080fd5b506100f360048036038101906100ee9190611188565b6102b3565b60405161010091906118b3565b60405180910390f35b34801561011557600080fd5b50610130600480360381019061012b919061115b565b6102d3565b60405161013d9190611b3a565b60405180910390f35b34801561015257600080fd5b5061016d600480360381019061016891906111b5565b61031c565b005b34801561017b57600080fd5b5061019660048036038101906101919190611236565b610412565b005b3480156101a457600080fd5b506101ad610433565b6040516101ba91906119b8565b60405180910390f35b3480156101cf57600080fd5b506101ea60048036038101906101e59190611188565b61044f565b6040516101f791906118b3565b60405180910390f35b34801561020c57600080fd5b50610227600480360381019061022291906111b5565b61046f565b005b610243600480360381019061023e9190611236565b6105da565b6040516102519291906118ce565b60405180910390f35b34801561026657600080fd5b50610281600480360381019061027c919061130e565b61081f565b60405161028e9190611996565b60405180910390f35b6040518060800160405280605d81526020016121c9605d913981565b60006020528060005260406000206000915054906101000a900460ff1681565b6000600260008373ffffffffffffffffffffffffffffffffffffffff1673ffffffffffffffffffffffffffffffffffffffff168152602001908152602001600020549050919050565b60004690506000604051806080016040528060528152602001612226605291398051906020012086866040516103539291906117d7565b6040518091039020858560405161036b9291906117d7565b604051809103902084306040516020016103899594939291906118fe565b6040516020818303038152906040529050600081805190602001209050600180600083815260200190815260200160002060006101000a81548160ff021916908315150217905550807f4bc68689cbe89a4a6333a3ab0a70093874da3e5bfb71e93102027f3f073687d8836040516104019190611996565b60405180910390a250505050505050565b61041b876108e2565b61042a8787878787878761097c565b50505050505050565b6040518060800160405280605281526020016122266052913981565b60016020528060005260406000206000915054906101000a900460ff1681565b60005b8484905081101561058557600085858381811061049257610491611e96565b5b9050013560f81c60f81b90507f2800000000000000000000000000000000000000000000000000000000000000817effffffffffffffffffffffffffffffffffffffffffffffffffffffffffffff19161415801561053257507f2900000000000000000000000000000000000000000000000000000000000000817effffffffffffffffffffffffffffffffffffffffffffffffffffffffffffff191614155b610571576040517f08c379a000000000000000000000000000000000000000000000000000000000815260040161056890611afa565b60405180910390fd5b50808061057d90611d88565b915050610472565b50600084846040518060800160405280605d81526020016121c9605d913985856040516020016105b9959493929190611831565b60405160208183030381529060405290506105d381610b5a565b5050505050565b600060606105ed8989898989898961097c565b6105f689610bcd565b60008960c00135148061060c5750438960c00135115b61064b576040517f08c379a000000000000000000000000000000000000000000000000000000000815260040161064290611aba565b60405180910390fd5b6000808a604001351461065e57619c4090505b60008a8060a001906106709190611b55565b8c6000016020810190610683919061115b565b604051602001610695939291906117f0565b6040516020818303038152906040529050818b606001356106b69190611c06565b6040603f5a6106c59190611c8d565b6106cf9190611c5c565b1015610710576040517f08c379a000000000000000000000000000000000000000000000000000000000815260040161070790611a9a565b60405180910390fd5b8a6020016020810190610723919061115b565b73ffffffffffffffffffffffffffffffffffffffff168b606001358c6040013583604051610751919061181a565b600060405180830381858888f193505050503d806000811461078f576040519150601f19603f3d011682016040523d82523d6000602084013e610794565b606091505b50809450819550505060008b60400135141580156107b25750600047115b15610811578a60000160208101906107ca919061115b565b73ffffffffffffffffffffffffffffffffffffffff166108fc479081150290604051600060405180830381858888f1935050505015801561080f573d6000803e3d6000fd5b505b505097509795505050505050565b606083856000016020810190610835919061115b565b73ffffffffffffffffffffffffffffffffffffffff1686602001602081019061085e919061115b565b73ffffffffffffffffffffffffffffffffffffffff168760400135886060013589608001358a8060a001906108939190611b55565b6040516108a19291906117d7565b60405180910390208b60c001358a8a6040516020016108c99a99989796959493929190611736565b6040516020818303038152906040529050949350505050565b8060800135600260008360000160208101906108fe919061115b565b73ffffffffffffffffffffffffffffffffffffffff1673ffffffffffffffffffffffffffffffffffffffff1681526020019081526020016000205414610979576040517f08c379a000000000000000000000000000000000000000000000000000000000815260040161097090611a7a565b60405180910390fd5b50565b6001600087815260200190815260200160002060009054906101000a900460ff166109dc576040517f08c379a00000000000000000000000000000000000000000000000000000000081526004016109d390611ada565b60405180910390fd5b60008086815260200190815260200160002060009054906101000a900460ff16610a3b576040517f08c379a0000000000000000000000000000000000000000000000000000000008152600401610a3290611b1a565b60405180910390fd5b600086610a4a8988888861081f565b80519060200120604051602001610a6292919061187c565b604051602081830303815290604052805190602001209050876000016020810190610a8d919061115b565b73ffffffffffffffffffffffffffffffffffffffff16610afa84848080601f016020809104026020016040519081016040528093929190818152602001838380828437600081840152601f19601f8201169050808301925050505050505083610c7b90919063ffffffff16565b73ffffffffffffffffffffffffffffffffffffffff1614610b50576040517f08c379a0000000000000000000000000000000000000000000000000000000008152600401610b4790611a5a565b60405180910390fd5b5050505050505050565b600081805190602001209050600160008083815260200190815260200160002060006101000a81548160ff021916908315150217905550807f64d6bce64323458c44643c51fe45113efc882082f7b7fd5f09f0d69d2eedb20283604051610bc191906119b8565b60405180910390a25050565b806080013560026000836000016020810190610be9919061115b565b73ffffffffffffffffffffffffffffffffffffffff1673ffffffffffffffffffffffffffffffffffffffff1681526020019081526020016000206000815480929190610c3490611d88565b9190505514610c78576040517f08c379a0000000000000000000000000000000000000000000000000000000008152600401610c6f90611a7a565b60405180910390fd5b50565b6000806000610c8a8585610ca2565b91509150610c9781610d25565b819250505092915050565b600080604183511415610ce45760008060006020860151925060408601519150606086015160001a9050610cd887828585610efa565b94509450505050610d1e565b604083511415610d15576000806020850151915060408501519050610d0a868383611007565b935093505050610d1e565b60006002915091505b9250929050565b60006004811115610d3957610d38611e67565b5b816004811115610d4c57610d4b611e67565b5b1415610d5757610ef7565b60016004811115610d6b57610d6a611e67565b5b816004811115610d7e57610d7d611e67565b5b1415610dbf576040517f08c379a0000000000000000000000000000000000000000000000000000000008152600401610db6906119da565b60405180910390fd5b60026004811115610dd357610dd2611e67565b5b816004811115610de657610de5611e67565b5b1415610e27576040517f08c379a0000000000000000000000000000000000000000000000000000000008152600401610e1e906119fa565b60405180910390fd5b60036004811115610e3b57610e3a611e67565b5b816004811115610e4e57610e4d611e67565b5b1415610e8f576040517f08c379a0000000000000000000000000000000000000000000000000000000008152600401610e8690611a1a565b60405180910390fd5b600480811115610ea257610ea1611e67565b5b816004811115610eb557610eb4611e67565b5b1415610ef6576040517f08c379a0000000000000000000000000000000000000000000000000000000008152600401610eed90611a3a565b60405180910390fd5b5b50565b6000807f7fffffffffffffffffffffffffffffff5d576e7357a4501ddfe92f46681b20a08360001c1115610f35576000600391509150610ffe565b601b8560ff1614158015610f4d5750601c8560ff1614155b15610f5f576000600491509150610ffe565b600060018787878760405160008152602001604052604051610f849493929190611951565b6020604051602081039080840390855afa158015610fa6573d6000803e3d6000fd5b505050602060405103519050600073ffffffffffffffffffffffffffffffffffffffff168173ffffffffffffffffffffffffffffffffffffffff161415610ff557600060019250925050610ffe565b80600092509250505b94509492505050565b60008060007f7fffffffffffffffffffffffffffffffffffffffffffffffffffffffffffffff60001b841690506000601b60ff8660001c901c61104a9190611c06565b905061105887828885610efa565b935093505050935093915050565b6000813590506110758161219a565b92915050565b60008135905061108a816121b1565b92915050565b60008083601f8401126110a6576110a5611eca565b5b8235905067ffffffffffffffff8111156110c3576110c2611ec5565b5b6020830191508360018202830111156110df576110de611ede565b5b9250929050565b60008083601f8401126110fc576110fb611eca565b5b8235905067ffffffffffffffff81111561111957611118611ec5565b5b60208301915083600182028301111561113557611134611ede565b5b9250929050565b600060e0828403121561115257611151611ed4565b5b81905092915050565b60006020828403121561117157611170611eed565b5b600061117f84828501611066565b91505092915050565b60006020828403121561119e5761119d611eed565b5b60006111ac8482850161107b565b91505092915050565b600080600080604085870312156111cf576111ce611eed565b5b600085013567ffffffffffffffff8111156111ed576111ec611ee8565b5b6111f9878288016110e6565b9450945050602085013567ffffffffffffffff81111561121c5761121b611ee8565b5b611228878288016110e6565b925092505092959194509250565b600080600080600080600060a0888a03121561125557611254611eed565b5b600088013567ffffffffffffffff81111561127357611272611ee8565b5b61127f8a828b0161113c565b97505060206112908a828b0161107b565b96505060406112a18a828b0161107b565b955050606088013567ffffffffffffffff8111156112c2576112c1611ee8565b5b6112ce8a828b01611090565b9450945050608088013567ffffffffffffffff8111156112f1576112f0611ee8565b5b6112fd8a828b01611090565b925092505092959891949750929550565b6000806000806060858703121561132857611327611eed565b5b600085013567ffffffffffffffff81111561134657611345611ee8565b5b6113528782880161113c565b94505060206113638782880161107b565b935050604085013567ffffffffffffffff81111561138457611383611ee8565b5b61139087828801611090565b925092505092959194509250565b6113a781611ce7565b82525050565b6113be6113b982611ce7565b611dd1565b82525050565b6113cd81611cf9565b82525050565b6113dc81611d05565b82525050565b6113f36113ee82611d05565b611de3565b82525050565b60006114058385611bdf565b9350611412838584611d46565b82840190509392505050565b600061142982611bb8565b6114338185611bce565b9350611443818560208601611d55565b61144c81611ef2565b840191505092915050565b600061146282611bb8565b61146c8185611bdf565b935061147c818560208601611d55565b80840191505092915050565b60006114948385611bfb565b93506114a1838584611d46565b82840190509392505050565b60006114b882611bc3565b6114c28185611bea565b93506114d2818560208601611d55565b6114db81611ef2565b840191505092915050565b60006114f182611bc3565b6114fb8185611bfb565b935061150b818560208601611d55565b80840191505092915050565b6000611524601883611bea565b915061152f82611f10565b602082019050919050565b6000611547601f83611bea565b915061155282611f39565b602082019050919050565b600061156a600283611bfb565b915061157582611f62565b600282019050919050565b600061158d600183611bfb565b915061159882611f8b565b600182019050919050565b60006115b0600183611bfb565b91506115bb82611fb4565b600182019050919050565b60006115d3602283611bea565b91506115de82611fdd565b604082019050919050565b60006115f6602283611bea565b91506116018261202c565b604082019050919050565b6000611619601783611bea565b91506116248261207b565b602082019050919050565b600061163c601383611bea565b9150611647826120a4565b602082019050919050565b600061165f601583611bea565b915061166a826120cd565b602082019050919050565b6000611682601483611bea565b915061168d826120f6565b602082019050919050565b60006116a5601d83611bea565b91506116b08261211f565b602082019050919050565b60006116c8601583611bea565b91506116d382612148565b602082019050919050565b60006116eb601a83611bea565b91506116f682612171565b602082019050919050565b61170a81611d2f565b82525050565b61172161171c82611d2f565b611dff565b82525050565b61173081611d39565b82525050565b6000611742828d6113e2565b602082019150611752828c611710565b602082019150611762828b611710565b602082019150611772828a611710565b6020820191506117828289611710565b6020820191506117928288611710565b6020820191506117a282876113e2565b6020820191506117b28286611710565b6020820191506117c38284866113f9565b91508190509b9a5050505050505050505050565b60006117e48284866113f9565b91508190509392505050565b60006117fd8285876113f9565b915061180982846113ad565b601482019150819050949350505050565b60006118268284611457565b915081905092915050565b600061183e828789611488565b9150611849826115a3565b915061185582866114e6565b915061186082611580565b915061186d828486611488565b91508190509695505050505050565b60006118878261155d565b915061189382856113e2565b6020820191506118a382846113e2565b6020820191508190509392505050565b60006020820190506118c860008301846113c4565b92915050565b60006040820190506118e360008301856113c4565b81810360208301526118f5818461141e565b90509392505050565b600060a08201905061191360008301886113d3565b61192060208301876113d3565b61192d60408301866113d3565b61193a6060830185611701565b611947608083018461139e565b9695505050505050565b600060808201905061196660008301876113d3565b6119736020830186611727565b61198060408301856113d3565b61198d60608301846113d3565b95945050505050565b600060208201905081810360008301526119b0818461141e565b905092915050565b600060208201905081810360008301526119d281846114ad565b905092915050565b600060208201905081810360008301526119f381611517565b9050919050565b60006020820190508181036000830152611a138161153a565b9050919050565b60006020820190508181036000830152611a33816115c6565b9050919050565b60006020820190508181036000830152611a53816115e9565b9050919050565b60006020820190508181036000830152611a738161160c565b9050919050565b60006020820190508181036000830152611a938161162f565b9050919050565b60006020820190508181036000830152611ab381611652565b9050919050565b60006020820190508181036000830152611ad381611675565b9050919050565b60006020820190508181036000830152611af381611698565b9050919050565b60006020820190508181036000830152611b13816116bb565b9050919050565b60006020820190508181036000830152611b33816116de565b9050919050565b6000602082019050611b4f6000830184611701565b92915050565b60008083356001602003843603038112611b7257611b71611ed9565b5b80840192508235915067ffffffffffffffff821115611b9457611b93611ecf565b5b602083019250600182023603831315611bb057611baf611ee3565b5b509250929050565b600081519050919050565b600081519050919050565b600082825260208201905092915050565b600081905092915050565b600082825260208201905092915050565b600081905092915050565b6000611c1182611d2f565b9150611c1c83611d2f565b9250827fffffffffffffffffffffffffffffffffffffffffffffffffffffffffffffffff03821115611c5157611c50611e09565b5b828201905092915050565b6000611c6782611d2f565b9150611c7283611d2f565b925082611c8257611c81611e38565b5b828204905092915050565b6000611c9882611d2f565b9150611ca383611d2f565b9250817fffffffffffffffffffffffffffffffffffffffffffffffffffffffffffffffff0483118215151615611cdc57611cdb611e09565b5b828202905092915050565b6000611cf282611d0f565b9050919050565b60008115159050919050565b6000819050919050565b600073ffffffffffffffffffffffffffffffffffffffff82169050919050565b6000819050919050565b600060ff82169050919050565b82818337600083830152505050565b60005b83811015611d73578082015181840152602081019050611d58565b83811115611d82576000848401525b50505050565b6000611d9382611d2f565b91507fffffffffffffffffffffffffffffffffffffffffffffffffffffffffffffffff821415611dc657611dc5611e09565b5b600182019050919050565b6000611ddc82611ded565b9050919050565b6000819050919050565b6000611df882611f03565b9050919050565b6000819050919050565b7f4e487b7100000000000000000000000000000000000000000000000000000000600052601160045260246000fd5b7f4e487b7100000000000000000000000000000000000000000000000000000000600052601260045260246000fd5b7f4e487b7100000000000000000000000000000000000000000000000000000000600052602160045260246000fd5b7f4e487b7100000000000000000000000000000000000000000000000000000000600052603260045260246000fd5b600080fd5b600080fd5b600080fd5b600080fd5b600080fd5b600080fd5b600080fd5b600080fd5b600080fd5b6000601f19601f8301169050919050565b60008160601b9050919050565b7f45434453413a20696e76616c6964207369676e61747572650000000000000000600082015250565b7f45434453413a20696e76616c6964207369676e6174757265206c656e67746800600082015250565b7f1901000000000000000000000000000000000000000000000000000000000000600082015250565b7f2c00000000000000000000000000000000000000000000000000000000000000600082015250565b7f2800000000000000000000000000000000000000000000000000000000000000600082015250565b7f45434453413a20696e76616c6964207369676e6174757265202773272076616c60008201527f7565000000000000000000000000000000000000000000000000000000000000602082015250565b7f45434453413a20696e76616c6964207369676e6174757265202776272076616c60008201527f7565000000000000000000000000000000000000000000000000000000000000602082015250565b7f4657443a207369676e6174757265206d69736d61746368000000000000000000600082015250565b7f4657443a206e6f6e6365206d69736d6174636800000000000000000000000000600082015250565b7f4657443a20696e73756666696369656e74206761730000000000000000000000600082015250565b7f4657443a20726571756573742065787069726564000000000000000000000000600082015250565b7f4657443a20756e7265676973746572656420646f6d61696e207365702e000000600082015250565b7f4657443a20696e76616c696420747970656e616d650000000000000000000000600082015250565b7f4657443a20756e72656769737465726564207479706568617368000000000000600082015250565b6121a381611ce7565b81146121ae57600080fd5b50565b6121ba81611d05565b81146121c557600080fd5b5056fe616464726573732066726f6d2c6164647265737320746f2c75696e743235362076616c75652c75696e74323536206761732c75696e74323536206e6f6e63652c627974657320646174612c75696e743235362076616c6964556e74696c454950373132446f6d61696e28737472696e67206e616d652c737472696e672076657273696f6e2c75696e7432353620636861696e49642c6164647265737320766572696679696e67436f6e747261637429a2646970667358221220b6eb5f15729c6673148d7ee8909ae2e7d7e6ef5ec1e771ccd3ebc8a621ccc26264736f6c63430008060033616464726573732066726f6d2c6164647265737320746f2c75696e743235362076616c75652c75696e74323536206761732c75696e74323536206e6f6e63652c627974657320646174612c75696e743235362076616c6964556e74696c",
  "immutableReferences": {},
  "source": "// SPDX-License-Identifier: GPL-3.0-only\npragma solidity ^0.8.0;\npragma abicoder v2;\n\nimport \"@openzeppelin/contracts/utils/cryptography/ECDSA.sol\";\nimport \"./IForwarder.sol\";\n\ncontract Forwarder is IForwarder {\n    using ECDSA for bytes32;\n\n    string public constant GENERIC_PARAMS = \"address from,address to,uint256 value,uint256 gas,uint256 nonce,bytes data,uint256 validUntil\";\n\n    string public constant EIP712_DOMAIN_TYPE = \"EIP712Domain(string name,string version,uint256 chainId,address verifyingContract)\";\n\n    mapping(bytes32 => bool) public typeHashes;\n    mapping(bytes32 => bool) public domains;\n\n    // Nonces of senders, used to prevent replay attacks\n    mapping(address => uint256) private nonces;\n\n    // solhint-disable-next-line no-empty-blocks\n    receive() external payable {}\n\n    function getNonce(address from)\n    public view override\n    returns (uint256) {\n        return nonces[from];\n    }\n\n    constructor() {\n\n        string memory requestType = string(abi.encodePacked(\"ForwardRequest(\", GENERIC_PARAMS, \")\"));\n        registerRequestTypeInternal(requestType);\n    }\n\n    function verify(\n        ForwardRequest calldata req,\n        bytes32 domainSeparator,\n        bytes32 requestTypeHash,\n        bytes calldata suffixData,\n        bytes calldata sig)\n    external override view {\n\n        _verifyNonce(req);\n        _verifySig(req, domainSeparator, requestTypeHash, suffixData, sig);\n    }\n\n    function execute(\n        ForwardRequest calldata req,\n        bytes32 domainSeparator,\n        bytes32 requestTypeHash,\n        bytes calldata suffixData,\n        bytes calldata sig\n    )\n    external payable\n    override\n    returns (bool success, bytes memory ret) {\n        _verifySig(req, domainSeparator, requestTypeHash, suffixData, sig);\n        _verifyAndUpdateNonce(req);\n\n        require(req.validUntil == 0 || req.validUntil > block.number, \"FWD: request expired\");\n\n        uint gasForTransfer = 0;\n        if ( req.value != 0 ) {\n            gasForTransfer = 40000; //buffer in case we need to move eth after the transaction.\n        }\n        bytes memory callData = abi.encodePacked(req.data, req.from);\n        require(gasleft()*63/64 >= req.gas + gasForTransfer, \"FWD: insufficient gas\");\n        // solhint-disable-next-line avoid-low-level-calls\n        (success,ret) = req.to.call{gas : req.gas, value : req.value}(callData);\n        if ( req.value != 0 && address(this).balance>0 ) {\n            // can't fail: req.from signed (off-chain) the request, so it must be an EOA...\n            payable(req.from).transfer(address(this).balance);\n        }\n\n        return (success,ret);\n    }\n\n\n    function _verifyNonce(ForwardRequest calldata req) internal view {\n        require(nonces[req.from] == req.nonce, \"FWD: nonce mismatch\");\n    }\n\n    function _verifyAndUpdateNonce(ForwardRequest calldata req) internal {\n        require(nonces[req.from]++ == req.nonce, \"FWD: nonce mismatch\");\n    }\n\n    function registerRequestType(string calldata typeName, string calldata typeSuffix) external override {\n\n        for (uint i = 0; i < bytes(typeName).length; i++) {\n            bytes1 c = bytes(typeName)[i];\n            require(c != \"(\" && c != \")\", \"FWD: invalid typename\");\n        }\n\n        string memory requestType = string(abi.encodePacked(typeName, \"(\", GENERIC_PARAMS, \",\", typeSuffix));\n        registerRequestTypeInternal(requestType);\n    }\n\n    function registerDomainSeparator(string calldata name, string calldata version) external override {\n        uint256 chainId;\n        /* solhint-disable-next-line no-inline-assembly */\n        assembly { chainId := chainid() }\n\n        bytes memory domainValue = abi.encode(\n            keccak256(bytes(EIP712_DOMAIN_TYPE)),\n            keccak256(bytes(name)),\n            keccak256(bytes(version)),\n            chainId,\n            address(this));\n\n        bytes32 domainHash = keccak256(domainValue);\n\n        domains[domainHash] = true;\n        emit DomainRegistered(domainHash, domainValue);\n    }\n\n    function registerRequestTypeInternal(string memory requestType) internal {\n\n        bytes32 requestTypehash = keccak256(bytes(requestType));\n        typeHashes[requestTypehash] = true;\n        emit RequestTypeRegistered(requestTypehash, requestType);\n    }\n\n    function _verifySig(\n        ForwardRequest calldata req,\n        bytes32 domainSeparator,\n        bytes32 requestTypeHash,\n        bytes calldata suffixData,\n        bytes calldata sig)\n    internal\n    view\n    {\n        require(domains[domainSeparator], \"FWD: unregistered domain sep.\");\n        require(typeHashes[requestTypeHash], \"FWD: unregistered typehash\");\n        bytes32 digest = keccak256(abi.encodePacked(\n                \"\\x19\\x01\", domainSeparator,\n                keccak256(_getEncoded(req, requestTypeHash, suffixData))\n            ));\n        require(digest.recover(sig) == req.from, \"FWD: signature mismatch\");\n    }\n\n    function _getEncoded(\n        ForwardRequest calldata req,\n        bytes32 requestTypeHash,\n        bytes calldata suffixData\n    )\n    public\n    pure\n    returns (\n        bytes memory\n    ) {\n        // we use encodePacked since we append suffixData as-is, not as dynamic param.\n        // still, we must make sure all first params are encoded as abi.encode()\n        // would encode them - as 256-bit-wide params.\n        return abi.encodePacked(\n            requestTypeHash,\n            uint256(uint160(req.from)),\n            uint256(uint160(req.to)),\n            req.value,\n            req.gas,\n            req.nonce,\n            keccak256(req.data),\n            req.validUntil,\n            suffixData\n        );\n    }\n}\n",
  "sourcePath": "@opengsn/contracts/src/forwarder/Forwarder.sol",
  "compiler": {
    "name": "solc",
    "version": "0.8.6+commit.11564f7e.Emscripten.clang"
  },
  "schemaVersion": "3.4.5",
  "updatedAt": "2022-02-27T09:04:03.363Z",
  "networkType": "ethereum",
  "devdoc": {
    "kind": "dev",
    "methods": {
      "registerDomainSeparator(string,string)": {
        "params": {
          "name": "the domain's display name",
          "version": "the domain/protocol version"
        }
      },
      "registerRequestType(string,string)": {
        "params": {
          "typeName": "- the name of the request type.",
          "typeSuffix": "- any extra data after the generic params.  (must add at least one param. The generic ForwardRequest type is always registered by the constructor)"
        }
      }
    },
    "version": 1
  },
  "userdoc": {
    "kind": "user",
    "methods": {
      "registerDomainSeparator(string,string)": {
        "notice": "Register a new domain separator. The domain separator must have the following fields: name,version,chainId, verifyingContract. the chainId is the current network's chainId, and the verifyingContract is this forwarder. This method is given the domain name and version to create and register the domain separator value."
      },
      "registerRequestType(string,string)": {
        "notice": "Register a new Request typehash."
      }
    },
    "version": 1
  }
}