{
  "contractName": "JaccardsSimilarity",
  "abi": [
    {
      "constant": true,
      "inputs": [
        {
          "internalType": "string",
          "name": "a",
          "type": "string"
        },
        {
          "internalType": "string",
          "name": "b",
          "type": "string"
        }
      ],
      "name": "compareStrings",
      "outputs": [
        {
          "internalType": "bool",
          "name": "",
          "type": "bool"
        }
      ],
      "payable": false,
      "stateMutability": "pure",
      "type": "function"
    },
    {
      "constant": true,
      "inputs": [
        {
          "internalType": "string[]",
          "name": "list1",
          "type": "string[]"
        },
        {
          "internalType": "string[]",
          "name": "list2",
          "type": "string[]"
        }
      ],
      "name": "getCommonElementsCount",
      "outputs": [
        {
          "internalType": "uint256",
          "name": "",
          "type": "uint256"
        }
      ],
      "payable": false,
      "stateMutability": "view",
      "type": "function"
    },
    {
      "constant": false,
      "inputs": [
        {
          "internalType": "string[]",
          "name": "l1",
          "type": "string[]"
        },
        {
          "internalType": "string[]",
          "name": "l2",
          "type": "string[]"
        }
      ],
      "name": "calculateSimilarityScore",
      "outputs": [
        {
          "internalType": "uint256",
          "name": "",
          "type": "uint256"
        }
      ],
      "payable": false,
      "stateMutability": "nonpayable",
      "type": "function"
    }
  ],
  "bytecode": "0x608060405234801561001057600080fd5b506112b2806100206000396000f3fe608060405234801561001057600080fd5b50600436106100415760003560e01c80631320b2e514610046578063a89959a414610076578063bed34bba146100a6575b600080fd5b610060600480360361005b91908101906106cf565b6100d6565b60405161006d9190610883565b60405180910390f35b610090600480360361008b91908101906106cf565b6103ac565b60405161009d9190610883565b60405180910390f35b6100c060048036036100bb919081019061073b565b610444565b6040516100cd9190610846565b60405180910390f35b6000806040516100e59061049d565b604051809103906000f080158015610101573d6000803e3d6000fd5b50905060008090505b845181101561019e578173ffffffffffffffffffffffffffffffffffffffff1663b0c8f9dc86838151811061013b57fe5b60200260200101516040518263ffffffff1660e01b815260040161015f9190610861565b600060405180830381600087803b15801561017957600080fd5b505af115801561018d573d6000803e3d6000fd5b50505050808060010191505061010a565b5060006040516101ad9061049d565b604051809103906000f0801580156101c9573d6000803e3d6000fd5b50905060008090505b8451811015610266578173ffffffffffffffffffffffffffffffffffffffff1663b0c8f9dc86838151811061020357fe5b60200260200101516040518263ffffffff1660e01b81526004016102279190610861565b600060405180830381600087803b15801561024157600080fd5b505af1158015610255573d6000803e3d6000fd5b5050505080806001019150506101d2565b5060608273ffffffffffffffffffffffffffffffffffffffff1663410d59cc6040518163ffffffff1660e01b815260040160006040518083038186803b1580156102af57600080fd5b505afa1580156102c3573d6000803e3d6000fd5b505050506040513d6000823e3d601f19601f820116820180604052506102ec919081019061068e565b905060608273ffffffffffffffffffffffffffffffffffffffff1663410d59cc6040518163ffffffff1660e01b815260040160006040518083038186803b15801561033657600080fd5b505afa15801561034a573d6000803e3d6000fd5b505050506040513d6000823e3d601f19601f82011682018060405250610373919081019061068e565b9050600061038183836103ac565b90506000818451855101039050600081838161039957fe5b0490508097505050505050505092915050565b60008083519050600083519050600080905060008090505b838110156104375760008090505b838110156104295761040a8883815181106103e957fe5b60200260200101518883815181106103fd57fe5b6020026020010151610444565b1561041c578280600101935050610429565b80806001019150506103d2565b5080806001019150506103c4565b5080935050505092915050565b600081604051602001610457919061082f565b604051602081830303815290604052805190602001208360405160200161047e919061082f565b6040516020818303038152906040528051906020012014905092915050565b610889806109e783390190565b600082601f8301126104bb57600080fd5b81356104ce6104c9826108cb565b61089e565b9150818183526020840193506020810190508360005b8381101561051457813586016104fa8882610592565b8452602084019350602083019250506001810190506104e4565b5050505092915050565b600082601f83011261052f57600080fd5b815161054261053d826108cb565b61089e565b9150818183526020840193506020810190508360005b83811015610588578151860161056e88826105e6565b845260208401935060208301925050600181019050610558565b5050505092915050565b600082601f8301126105a357600080fd5b81356105b66105b1826108f3565b61089e565b915080825260208301602083018583830111156105d257600080fd5b6105dd838284610993565b50505092915050565b600082601f8301126105f757600080fd5b815161060a610605826108f3565b61089e565b9150808252602083016020830185838301111561062657600080fd5b6106318382846109a2565b50505092915050565b600082601f83011261064b57600080fd5b813561065e6106598261091f565b61089e565b9150808252602083016020830185838301111561067a57600080fd5b610685838284610993565b50505092915050565b6000602082840312156106a057600080fd5b600082015167ffffffffffffffff8111156106ba57600080fd5b6106c68482850161051e565b91505092915050565b600080604083850312156106e257600080fd5b600083013567ffffffffffffffff8111156106fc57600080fd5b610708858286016104aa565b925050602083013567ffffffffffffffff81111561072557600080fd5b610731858286016104aa565b9150509250929050565b6000806040838503121561074e57600080fd5b600083013567ffffffffffffffff81111561076857600080fd5b6107748582860161063a565b925050602083013567ffffffffffffffff81111561079157600080fd5b61079d8582860161063a565b9150509250929050565b6107b08161097d565b82525050565b60006107c182610956565b6107cb8185610972565b93506107db8185602086016109a2565b80840191505092915050565b60006107f28261094b565b6107fc8185610961565b935061080c8185602086016109a2565b610815816109d5565b840191505092915050565b61082981610989565b82525050565b600061083b82846107b6565b915081905092915050565b600060208201905061085b60008301846107a7565b92915050565b6000602082019050818103600083015261087b81846107e7565b905092915050565b60006020820190506108986000830184610820565b92915050565b6000604051905081810181811067ffffffffffffffff821117156108c157600080fd5b8060405250919050565b600067ffffffffffffffff8211156108e257600080fd5b602082029050602081019050919050565b600067ffffffffffffffff82111561090a57600080fd5b601f19601f8301169050602081019050919050565b600067ffffffffffffffff82111561093657600080fd5b601f19601f8301169050602081019050919050565b600081519050919050565b600081519050919050565b600082825260208201905092915050565b600081905092915050565b60008115159050919050565b6000819050919050565b82818337600083830152505050565b60005b838110156109c05780820151818401526020810190506109a5565b838111156109cf576000848401525b50505050565b6000601f19601f830116905091905056fe608060405234801561001057600080fd5b50610869806100206000396000f3fe608060405234801561001057600080fd5b50600436106100575760003560e01c806306661abd1461005c578063410d59cc1461007a5780636833d54f14610098578063b0c8f9dc146100c8578063bfb231d2146100e4575b600080fd5b610064610114565b60405161007191906106b6565b60405180910390f35b610082610120565b60405161008f9190610657565b60405180910390f35b6100b260048036036100ad919081019061048c565b610209565b6040516100bf9190610679565b60405180910390f35b6100e260048036036100dd919081019061048c565b610233565b005b6100fe60048036036100f991908101906104cd565b6102c5565b60405161010b9190610694565b60405180910390f35b60008080549050905090565b60606000805480602002602001604051908101604052809291908181526020016000905b82821015610200578382906000526020600020018054600181600116156101000203166002900480601f0160208091040260200160405190810160405280929190818152602001828054600181600116156101000203166002900480156101ec5780601f106101c1576101008083540402835291602001916101ec565b820191906000526020600020905b8154815290600101906020018083116101cf57829003601f168201915b505050505081526020019060010190610144565b50505050905090565b60008060018360405161021c9190610640565b908152602001604051809103902054119050919050565b60006001826040516102459190610640565b90815260200160405180910390205414156102c257600081908060018154018082558091505090600182039060005260206000200160009091929091909150908051906020019061029792919061037e565b50506000805490506001826040516102af9190610640565b9081526020016040518091039020819055505b50565b600081815481106102d257fe5b906000526020600020016000915090508054600181600116156101000203166002900480601f0160208091040260200160405190810160405280929190818152602001828054600181600116156101000203166002900480156103765780601f1061034b57610100808354040283529160200191610376565b820191906000526020600020905b81548152906001019060200180831161035957829003601f168201915b505050505081565b828054600181600116156101000203166002900490600052602060002090601f016020900481019282601f106103bf57805160ff19168380011785556103ed565b828001600101855582156103ed579182015b828111156103ec5782518255916020019190600101906103d1565b5b5090506103fa91906103fe565b5090565b61042091905b8082111561041c576000816000905550600101610404565b5090565b90565b600082601f83011261043457600080fd5b8135610447610442826106fe565b6106d1565b9150808252602083016020830185838301111561046357600080fd5b61046e8382846107bc565b50505092915050565b6000813590506104868161080f565b92915050565b60006020828403121561049e57600080fd5b600082013567ffffffffffffffff8111156104b857600080fd5b6104c484828501610423565b91505092915050565b6000602082840312156104df57600080fd5b60006104ed84828501610477565b91505092915050565b600061050283836105bf565b905092915050565b60006105158261073a565b61051f8185610768565b9350836020820285016105318561072a565b8060005b8581101561056d578484038952815161054e85826104f6565b94506105598361075b565b925060208a01995050600181019050610535565b50829750879550505050505092915050565b610588816107a6565b82525050565b600061059982610750565b6105a3818561079b565b93506105b38185602086016107cb565b80840191505092915050565b60006105ca82610745565b6105d48185610779565b93506105e48185602086016107cb565b6105ed816107fe565b840191505092915050565b600061060382610745565b61060d818561078a565b935061061d8185602086016107cb565b610626816107fe565b840191505092915050565b61063a816107b2565b82525050565b600061064c828461058e565b915081905092915050565b60006020820190508181036000830152610671818461050a565b905092915050565b600060208201905061068e600083018461057f565b92915050565b600060208201905081810360008301526106ae81846105f8565b905092915050565b60006020820190506106cb6000830184610631565b92915050565b6000604051905081810181811067ffffffffffffffff821117156106f457600080fd5b8060405250919050565b600067ffffffffffffffff82111561071557600080fd5b601f19601f8301169050602081019050919050565b6000819050602082019050919050565b600081519050919050565b600081519050919050565b600081519050919050565b6000602082019050919050565b600082825260208201905092915050565b600082825260208201905092915050565b600082825260208201905092915050565b600081905092915050565b60008115159050919050565b6000819050919050565b82818337600083830152505050565b60005b838110156107e95780820151818401526020810190506107ce565b838111156107f8576000848401525b50505050565b6000601f19601f8301169050919050565b610818816107b2565b811461082357600080fd5b5056fea365627a7a723158204550a76023dff88d409340bf5295a504f4e010da921bf1d071182ad8565378c96c6578706572696d656e74616cf564736f6c63430005100040a365627a7a72315820a5bced76a54187283549fc5a3c707fb901b1da15692f05b86ae539ea493115cf6c6578706572696d656e74616cf564736f6c63430005100040",
  "source": "\npragma solidity >=0.4.22 <0.9.0;\npragma experimental ABIEncoderV2;\n\nimport \"./Set.sol\";\ncontract JaccardsSimilarity {\n    \n    function compareStrings(string memory a, string memory b) public pure returns (bool) {\n        return (keccak256(abi.encodePacked((a))) == keccak256(abi.encodePacked((b))));\n    }\n    function getCommonElementsCount(string[] memory list1, string[] memory list2) public view returns (uint){\n        uint nl1=list1.length;\n        uint nl2=list2.length;\n        uint commonElementsCount=0;\n        for(uint i=0;i<nl1;i++){\n            for(uint j=0;j<nl2;j++){\n                if(compareStrings(list1[i],list2[j])){\n                    commonElementsCount++;\n                    break;\n                }\n            }\n        }\n        return commonElementsCount;\n    }\n    function calculateSimilarityScore(string[] memory l1, string[] memory l2) public returns(uint){\n        Set s1=new Set();\n        for(uint i=0;i<l1.length;i++){\n            s1.add(l1[i]);\n        }\n        Set s2=new Set();\n        for(uint i=0;i<l2.length;i++){\n            s2.add(l2[i]);\n        }\n\n        string[] memory list1=s1.getItems();\n        string[] memory list2=s2.getItems();\n\n        uint commonElementsCount = getCommonElementsCount(list1,list2);\n        uint unionCount=list1.length+list1.length-commonElementsCount;\n        uint ans= commonElementsCount/unionCount;\n        return ans;\n    }\n\n\n}\n",
  "sourcePath": "/home/harshvardhan/Documents/Major Project/smart-contract/contracts/JaccardsSimilarity.sol",
  "compiler": {
    "name": "solc",
    "version": "0.5.16+commit.9c3226ce.Emscripten.clang"
  },
  "schemaVersion": "3.4.3",
  "updatedAt": "2021-12-30T17:50:22.107Z",
  "devdoc": {
    "methods": {}
  },
  "userdoc": {
    "methods": {}
  }
}