{
  "contractName": "JaccardsSimilarity",
  "abi": [
    {
      "constant": true,
      "inputs": [
        {
          "internalType": "string",
          "name": "a",
          "type": "string"
        },
        {
          "internalType": "string",
          "name": "b",
          "type": "string"
        }
      ],
      "name": "compareStrings",
      "outputs": [
        {
          "internalType": "bool",
          "name": "",
          "type": "bool"
        }
      ],
      "payable": false,
      "stateMutability": "pure",
      "type": "function"
    },
    {
      "constant": true,
      "inputs": [
        {
          "internalType": "string[]",
          "name": "list1",
          "type": "string[]"
        },
        {
          "internalType": "string[]",
          "name": "list2",
          "type": "string[]"
        },
        {
          "internalType": "uint256",
          "name": "setLength1",
          "type": "uint256"
        },
        {
          "internalType": "uint256",
          "name": "setLength2",
          "type": "uint256"
        }
      ],
      "name": "getCommonElementsCount",
      "outputs": [
        {
          "internalType": "uint256",
          "name": "",
          "type": "uint256"
        }
      ],
      "payable": false,
      "stateMutability": "pure",
      "type": "function"
    },
    {
      "constant": true,
      "inputs": [
        {
          "internalType": "string[]",
          "name": "l1",
          "type": "string[]"
        },
        {
          "internalType": "string[]",
          "name": "l2",
          "type": "string[]"
        }
      ],
      "name": "calculateSimilarityScore",
      "outputs": [
        {
          "internalType": "uint256",
          "name": "",
          "type": "uint256"
        }
      ],
      "payable": false,
      "stateMutability": "pure",
      "type": "function"
    }
  ],
  "bytecode": "0x608060405234801561001057600080fd5b50610856806100206000396000f3fe608060405234801561001057600080fd5b50600436106100415760003560e01c80631320b2e514610046578063790ad0db14610076578063bed34bba146100a6575b600080fd5b610060600480360361005b91908101906104da565b6100d6565b60405161006d91906106c6565b60405180910390f35b610090600480360361008b9190810190610546565b61026d565b60405161009d91906106c6565b60405180910390f35b6100c060048036036100bb91908101906105d9565b6102fa565b6040516100cd91906106ab565b60405180910390f35b60006060835160405190808252806020026020018201604052801561010f57816020015b60608152602001906001900390816100fa5790505b5090506060835160405190808252806020026020018201604052801561014957816020015b60608152602001906001900390816101345790505b5090506000809050600080905060008090505b87518110156101c7576101828589838151811061017557fe5b6020026020010151610353565b6101ba5787818151811061019257fe5b60200260200101518584815181106101a657fe5b602002602001018190525082806001019350505b808060010191505061015c565b5060008090505b8651811015610239576101f4848883815181106101e757fe5b6020026020010151610353565b61022c5786818151811061020457fe5b602002602001015184838151811061021857fe5b602002602001018190525081806001019250505b80806001019150506101ce565b5060006102488586858561026d565b905060008188518a510103905080828161025e57fe5b04965050505050505092915050565b6000806000905060008090505b848110156102ed5760008090505b848110156102df576102c088838151811061029f57fe5b60200260200101518883815181106102b357fe5b60200260200101516102fa565b156102d25782806001019350506102df565b8080600101915050610288565b50808060010191505061027a565b5080915050949350505050565b60008160405160200161030d9190610694565b60405160208183030381529060405280519060200120836040516020016103349190610694565b6040516020818303038152906040528051906020012014905092915050565b600080600090505b835181101561039d5761038184828151811061037357fe5b6020026020010151846102fa565b156103905760019150506103a3565b808060010191505061035b565b50600090505b92915050565b600082601f8301126103ba57600080fd5b81356103cd6103c88261070e565b6106e1565b9150818183526020840193506020810190508360005b8381101561041357813586016103f9888261041d565b8452602084019350602083019250506001810190506103e3565b5050505092915050565b600082601f83011261042e57600080fd5b813561044161043c82610736565b6106e1565b9150808252602083016020830185838301111561045d57600080fd5b6104688382846107ba565b50505092915050565b600082601f83011261048257600080fd5b813561049561049082610762565b6106e1565b915080825260208301602083018583830111156104b157600080fd5b6104bc8382846107ba565b50505092915050565b6000813590506104d4816107fc565b92915050565b600080604083850312156104ed57600080fd5b600083013567ffffffffffffffff81111561050757600080fd5b610513858286016103a9565b925050602083013567ffffffffffffffff81111561053057600080fd5b61053c858286016103a9565b9150509250929050565b6000806000806080858703121561055c57600080fd5b600085013567ffffffffffffffff81111561057657600080fd5b610582878288016103a9565b945050602085013567ffffffffffffffff81111561059f57600080fd5b6105ab878288016103a9565b93505060406105bc878288016104c5565b92505060606105cd878288016104c5565b91505092959194509250565b600080604083850312156105ec57600080fd5b600083013567ffffffffffffffff81111561060657600080fd5b61061285828601610471565b925050602083013567ffffffffffffffff81111561062f57600080fd5b61063b85828601610471565b9150509250929050565b61064e816107a4565b82525050565b600061065f8261078e565b6106698185610799565b93506106798185602086016107c9565b80840191505092915050565b61068e816107b0565b82525050565b60006106a08284610654565b915081905092915050565b60006020820190506106c06000830184610645565b92915050565b60006020820190506106db6000830184610685565b92915050565b6000604051905081810181811067ffffffffffffffff8211171561070457600080fd5b8060405250919050565b600067ffffffffffffffff82111561072557600080fd5b602082029050602081019050919050565b600067ffffffffffffffff82111561074d57600080fd5b601f19601f8301169050602081019050919050565b600067ffffffffffffffff82111561077957600080fd5b601f19601f8301169050602081019050919050565b600081519050919050565b600081905092915050565b60008115159050919050565b6000819050919050565b82818337600083830152505050565b60005b838110156107e75780820151818401526020810190506107cc565b838111156107f6576000848401525b50505050565b610805816107b0565b811461081057600080fd5b5056fea365627a7a723158205a1a416606634299aee0c9d6ad40287ce34071cd2f4b06649ddee1b94333d43b6c6578706572696d656e74616cf564736f6c63430005100040",
  "source": "\npragma solidity >=0.4.22 <0.9.0;\npragma experimental ABIEncoderV2;\n\nimport \"./Set.sol\";\ncontract JaccardsSimilarity {\n    \n   \n    function compareStrings(string memory a, string memory b) public pure returns (bool) {\n        return (keccak256(abi.encodePacked((a))) == keccak256(abi.encodePacked((b))));\n    }\n\n    function getCommonElementsCount(string[] memory list1, string[] memory list2,uint setLength1,uint setLength2) public pure returns (uint){\n        uint commonElementsCount=0;\n        for(uint i=0;i< setLength1;i++){\n            for(uint j=0;j<setLength2;j++){\n                if(compareStrings(list1[i],list2[j])){\n                    commonElementsCount++;\n                    break;\n                }\n            }\n        }\n        return commonElementsCount;\n    }\n\n    function isPresent(string[] memory l1,string memory ele)private pure returns (bool){\n        for(uint i=0;i<l1.length;i++){\n          if(compareStrings(l1[i],ele)){\n            return true;\n          }\n        }\n        return false;\n    }\n    function calculateSimilarityScore(string[] memory l1, string[] memory l2) public pure returns(uint){\n\n      string[] memory list1 = new string[](l1.length);   \n      string[] memory list2 = new string[](l2.length);   \n\n      uint setLength1=0;\n      uint setLength2=0;\n\n        for(uint i=0;i<l1.length;i++){\n            if (!isPresent(list1,l1[i])) {\n              list1[setLength1]=l1[i];\n              setLength1++;\n            }\n        } \n  \n        for(uint i=0;i<l2.length;i++){\n            if (!isPresent(list2,l2[i])) {\n              list2[setLength2]=l2[i];\n              setLength2++;\n            }\n        } \n\n        uint commonElementsCount = getCommonElementsCount(list1,list1,setLength1,setLength2);\n        uint unionCount=l1.length+l2.length-commonElementsCount;        \n        \n        return commonElementsCount/unionCount;\n    } \n\n\n}\n",
  "sourcePath": "/home/harshvardhan/Documents/Major_Project/smart-contract/contracts/unused/JaccardsSimilarity.sol",
  "compiler": {
    "name": "solc",
    "version": "0.5.16+commit.9c3226ce.Emscripten.clang"
  },
  "schemaVersion": "3.4.3",
  "updatedAt": "2022-01-26T05:00:11.499Z",
  "devdoc": {
    "methods": {}
  },
  "userdoc": {
    "methods": {}
  }
}