{
  "contractName": "NaivePaymaster",
  "abi": [
    {
      "anonymous": false,
      "inputs": [
        {
          "indexed": true,
          "internalType": "address",
          "name": "previousOwner",
          "type": "address"
        },
        {
          "indexed": true,
          "internalType": "address",
          "name": "newOwner",
          "type": "address"
        }
      ],
      "name": "OwnershipTransferred",
      "type": "event"
    },
    {
      "anonymous": false,
      "inputs": [
        {
          "indexed": false,
          "internalType": "uint256",
          "name": "",
          "type": "uint256"
        }
      ],
      "name": "PostRelayed",
      "type": "event"
    },
    {
      "anonymous": false,
      "inputs": [
        {
          "indexed": false,
          "internalType": "uint256",
          "name": "",
          "type": "uint256"
        }
      ],
      "name": "PreRelayed",
      "type": "event"
    },
    {
      "anonymous": false,
      "inputs": [
        {
          "indexed": false,
          "internalType": "address",
          "name": "target",
          "type": "address"
        }
      ],
      "name": "TargetSet",
      "type": "event"
    },
    {
      "inputs": [],
      "name": "CALLDATA_SIZE_LIMIT",
      "outputs": [
        {
          "internalType": "uint256",
          "name": "",
          "type": "uint256"
        }
      ],
      "stateMutability": "view",
      "type": "function",
      "constant": true
    },
    {
      "inputs": [],
      "name": "FORWARDER_HUB_OVERHEAD",
      "outputs": [
        {
          "internalType": "uint256",
          "name": "",
          "type": "uint256"
        }
      ],
      "stateMutability": "view",
      "type": "function",
      "constant": true
    },
    {
      "inputs": [],
      "name": "PAYMASTER_ACCEPTANCE_BUDGET",
      "outputs": [
        {
          "internalType": "uint256",
          "name": "",
          "type": "uint256"
        }
      ],
      "stateMutability": "view",
      "type": "function",
      "constant": true
    },
    {
      "inputs": [],
      "name": "POST_RELAYED_CALL_GAS_LIMIT",
      "outputs": [
        {
          "internalType": "uint256",
          "name": "",
          "type": "uint256"
        }
      ],
      "stateMutability": "view",
      "type": "function",
      "constant": true
    },
    {
      "inputs": [],
      "name": "PRE_RELAYED_CALL_GAS_LIMIT",
      "outputs": [
        {
          "internalType": "uint256",
          "name": "",
          "type": "uint256"
        }
      ],
      "stateMutability": "view",
      "type": "function",
      "constant": true
    },
    {
      "inputs": [
        {
          "components": [
            {
              "components": [
                {
                  "internalType": "address",
                  "name": "from",
                  "type": "address"
                },
                {
                  "internalType": "address",
                  "name": "to",
                  "type": "address"
                },
                {
                  "internalType": "uint256",
                  "name": "value",
                  "type": "uint256"
                },
                {
                  "internalType": "uint256",
                  "name": "gas",
                  "type": "uint256"
                },
                {
                  "internalType": "uint256",
                  "name": "nonce",
                  "type": "uint256"
                },
                {
                  "internalType": "bytes",
                  "name": "data",
                  "type": "bytes"
                },
                {
                  "internalType": "uint256",
                  "name": "validUntil",
                  "type": "uint256"
                }
              ],
              "internalType": "struct IForwarder.ForwardRequest",
              "name": "request",
              "type": "tuple"
            },
            {
              "components": [
                {
                  "internalType": "uint256",
                  "name": "gasPrice",
                  "type": "uint256"
                },
                {
                  "internalType": "uint256",
                  "name": "pctRelayFee",
                  "type": "uint256"
                },
                {
                  "internalType": "uint256",
                  "name": "baseRelayFee",
                  "type": "uint256"
                },
                {
                  "internalType": "address",
                  "name": "relayWorker",
                  "type": "address"
                },
                {
                  "internalType": "address",
                  "name": "paymaster",
                  "type": "address"
                },
                {
                  "internalType": "address",
                  "name": "forwarder",
                  "type": "address"
                },
                {
                  "internalType": "bytes",
                  "name": "paymasterData",
                  "type": "bytes"
                },
                {
                  "internalType": "uint256",
                  "name": "clientId",
                  "type": "uint256"
                }
              ],
              "internalType": "struct GsnTypes.RelayData",
              "name": "relayData",
              "type": "tuple"
            }
          ],
          "internalType": "struct GsnTypes.RelayRequest",
          "name": "relayRequest",
          "type": "tuple"
        }
      ],
      "name": "_verifyForwarder",
      "outputs": [],
      "stateMutability": "view",
      "type": "function",
      "constant": true
    },
    {
      "inputs": [],
      "name": "getGasAndDataLimits",
      "outputs": [
        {
          "components": [
            {
              "internalType": "uint256",
              "name": "acceptanceBudget",
              "type": "uint256"
            },
            {
              "internalType": "uint256",
              "name": "preRelayedCallGasLimit",
              "type": "uint256"
            },
            {
              "internalType": "uint256",
              "name": "postRelayedCallGasLimit",
              "type": "uint256"
            },
            {
              "internalType": "uint256",
              "name": "calldataSizeLimit",
              "type": "uint256"
            }
          ],
          "internalType": "struct IPaymaster.GasAndDataLimits",
          "name": "limits",
          "type": "tuple"
        }
      ],
      "stateMutability": "view",
      "type": "function",
      "constant": true
    },
    {
      "inputs": [],
      "name": "getHubAddr",
      "outputs": [
        {
          "internalType": "address",
          "name": "",
          "type": "address"
        }
      ],
      "stateMutability": "view",
      "type": "function",
      "constant": true
    },
    {
      "inputs": [],
      "name": "getRelayHubDeposit",
      "outputs": [
        {
          "internalType": "uint256",
          "name": "",
          "type": "uint256"
        }
      ],
      "stateMutability": "view",
      "type": "function",
      "constant": true
    },
    {
      "inputs": [],
      "name": "ourTarget",
      "outputs": [
        {
          "internalType": "address",
          "name": "",
          "type": "address"
        }
      ],
      "stateMutability": "view",
      "type": "function",
      "constant": true
    },
    {
      "inputs": [],
      "name": "owner",
      "outputs": [
        {
          "internalType": "address",
          "name": "",
          "type": "address"
        }
      ],
      "stateMutability": "view",
      "type": "function",
      "constant": true
    },
    {
      "inputs": [],
      "name": "renounceOwnership",
      "outputs": [],
      "stateMutability": "nonpayable",
      "type": "function"
    },
    {
      "inputs": [
        {
          "internalType": "contract IRelayHub",
          "name": "hub",
          "type": "address"
        }
      ],
      "name": "setRelayHub",
      "outputs": [],
      "stateMutability": "nonpayable",
      "type": "function"
    },
    {
      "inputs": [
        {
          "internalType": "address",
          "name": "forwarder",
          "type": "address"
        }
      ],
      "name": "setTrustedForwarder",
      "outputs": [],
      "stateMutability": "nonpayable",
      "type": "function"
    },
    {
      "inputs": [
        {
          "internalType": "address",
          "name": "newOwner",
          "type": "address"
        }
      ],
      "name": "transferOwnership",
      "outputs": [],
      "stateMutability": "nonpayable",
      "type": "function"
    },
    {
      "inputs": [],
      "name": "trustedForwarder",
      "outputs": [
        {
          "internalType": "address",
          "name": "",
          "type": "address"
        }
      ],
      "stateMutability": "view",
      "type": "function",
      "constant": true
    },
    {
      "inputs": [
        {
          "internalType": "uint256",
          "name": "amount",
          "type": "uint256"
        },
        {
          "internalType": "address payable",
          "name": "target",
          "type": "address"
        }
      ],
      "name": "withdrawRelayHubDepositTo",
      "outputs": [],
      "stateMutability": "nonpayable",
      "type": "function"
    },
    {
      "stateMutability": "payable",
      "type": "receive",
      "payable": true
    },
    {
      "inputs": [
        {
          "internalType": "address",
          "name": "target",
          "type": "address"
        }
      ],
      "name": "setTarget",
      "outputs": [],
      "stateMutability": "nonpayable",
      "type": "function"
    },
    {
      "inputs": [
        {
          "components": [
            {
              "components": [
                {
                  "internalType": "address",
                  "name": "from",
                  "type": "address"
                },
                {
                  "internalType": "address",
                  "name": "to",
                  "type": "address"
                },
                {
                  "internalType": "uint256",
                  "name": "value",
                  "type": "uint256"
                },
                {
                  "internalType": "uint256",
                  "name": "gas",
                  "type": "uint256"
                },
                {
                  "internalType": "uint256",
                  "name": "nonce",
                  "type": "uint256"
                },
                {
                  "internalType": "bytes",
                  "name": "data",
                  "type": "bytes"
                },
                {
                  "internalType": "uint256",
                  "name": "validUntil",
                  "type": "uint256"
                }
              ],
              "internalType": "struct IForwarder.ForwardRequest",
              "name": "request",
              "type": "tuple"
            },
            {
              "components": [
                {
                  "internalType": "uint256",
                  "name": "gasPrice",
                  "type": "uint256"
                },
                {
                  "internalType": "uint256",
                  "name": "pctRelayFee",
                  "type": "uint256"
                },
                {
                  "internalType": "uint256",
                  "name": "baseRelayFee",
                  "type": "uint256"
                },
                {
                  "internalType": "address",
                  "name": "relayWorker",
                  "type": "address"
                },
                {
                  "internalType": "address",
                  "name": "paymaster",
                  "type": "address"
                },
                {
                  "internalType": "address",
                  "name": "forwarder",
                  "type": "address"
                },
                {
                  "internalType": "bytes",
                  "name": "paymasterData",
                  "type": "bytes"
                },
                {
                  "internalType": "uint256",
                  "name": "clientId",
                  "type": "uint256"
                }
              ],
              "internalType": "struct GsnTypes.RelayData",
              "name": "relayData",
              "type": "tuple"
            }
          ],
          "internalType": "struct GsnTypes.RelayRequest",
          "name": "relayRequest",
          "type": "tuple"
        },
        {
          "internalType": "bytes",
          "name": "signature",
          "type": "bytes"
        },
        {
          "internalType": "bytes",
          "name": "approvalData",
          "type": "bytes"
        },
        {
          "internalType": "uint256",
          "name": "maxPossibleGas",
          "type": "uint256"
        }
      ],
      "name": "preRelayedCall",
      "outputs": [
        {
          "internalType": "bytes",
          "name": "context",
          "type": "bytes"
        },
        {
          "internalType": "bool",
          "name": "",
          "type": "bool"
        }
      ],
      "stateMutability": "nonpayable",
      "type": "function"
    },
    {
      "inputs": [
        {
          "internalType": "bytes",
          "name": "context",
          "type": "bytes"
        },
        {
          "internalType": "bool",
          "name": "success",
          "type": "bool"
        },
        {
          "internalType": "uint256",
          "name": "gasUseWithoutPost",
          "type": "uint256"
        },
        {
          "components": [
            {
              "internalType": "uint256",
              "name": "gasPrice",
              "type": "uint256"
            },
            {
              "internalType": "uint256",
              "name": "pctRelayFee",
              "type": "uint256"
            },
            {
              "internalType": "uint256",
              "name": "baseRelayFee",
              "type": "uint256"
            },
            {
              "internalType": "address",
              "name": "relayWorker",
              "type": "address"
            },
            {
              "internalType": "address",
              "name": "paymaster",
              "type": "address"
            },
            {
              "internalType": "address",
              "name": "forwarder",
              "type": "address"
            },
            {
              "internalType": "bytes",
              "name": "paymasterData",
              "type": "bytes"
            },
            {
              "internalType": "uint256",
              "name": "clientId",
              "type": "uint256"
            }
          ],
          "internalType": "struct GsnTypes.RelayData",
          "name": "relayData",
          "type": "tuple"
        }
      ],
      "name": "postRelayedCall",
      "outputs": [],
      "stateMutability": "nonpayable",
      "type": "function"
    },
    {
      "inputs": [],
      "name": "versionPaymaster",
      "outputs": [
        {
          "internalType": "string",
          "name": "",
          "type": "string"
        }
      ],
      "stateMutability": "view",
      "type": "function",
      "constant": true
    }
  ],
  "bytecode": "0x608060405234801561001057600080fd5b5061002d61002261003260201b60201c565b61003a60201b60201c565b6100fe565b600033905090565b60008060009054906101000a900473ffffffffffffffffffffffffffffffffffffffff169050816000806101000a81548173ffffffffffffffffffffffffffffffffffffffff021916908373ffffffffffffffffffffffffffffffffffffffff1602179055508173ffffffffffffffffffffffffffffffffffffffff168173ffffffffffffffffffffffffffffffffffffffff167f8be0079c531659141344cd1fd0a4f28419497f9722a3daafe3b4186f6b6457e060405160405180910390a35050565b611d978061010d6000396000f3fe60806040526004361061012d5760003560e01c806380d324f1116100ab578063b90b41cf1161006f578063b90b41cf146104d3578063bbdaa3c9146104fe578063da74222814610529578063df463a6614610552578063f2fde38b1461057d578063f9c002f7146105a657610254565b806380d324f1146103fe5780638da5cb5b14610429578063921276ea14610454578063a5dcd07b1461047f578063b039a88f146104a857610254565b806374e861d6116100f257806374e861d61461032d57806376fa01c314610358578063776d1a01146103815780637bb05264146103aa5780637da0a877146103d357610254565b8062be5dd4146102595780632afe31c1146102975780632d14c4b7146102c25780635c5e3db1146102eb578063715018a61461031657610254565b3661025457600073ffffffffffffffffffffffffffffffffffffffff16600160009054906101000a900473ffffffffffffffffffffffffffffffffffffffff1673ffffffffffffffffffffffffffffffffffffffff1614156101c4576040517f08c379a00000000000000000000000000000000000000000000000000000000081526004016101bb906118de565b60405180910390fd5b600160009054906101000a900473ffffffffffffffffffffffffffffffffffffffff1673ffffffffffffffffffffffffffffffffffffffff1663aa67c91934306040518363ffffffff1660e01b81526004016102209190611811565b6000604051808303818588803b15801561023957600080fd5b505af115801561024d573d6000803e3d6000fd5b5050505050005b600080fd5b34801561026557600080fd5b50610280600480360381019061027b9190611465565b6105d1565b60405161028e92919061182c565b60405180910390f35b3480156102a357600080fd5b506102ac6106c1565b6040516102b99190611979565b60405180910390f35b3480156102ce57600080fd5b506102e960048036038101906102e49190611582565b610773565b005b3480156102f757600080fd5b50610300610881565b60405161030d9190611979565b60405180910390f35b34801561032257600080fd5b5061032b610887565b005b34801561033957600080fd5b5061034261090f565b60405161034f9190611811565b60405180910390f35b34801561036457600080fd5b5061037f600480360381019061037a919061134b565b610939565b005b34801561038d57600080fd5b506103a860048036038101906103a391906112f1565b610985565b005b3480156103b657600080fd5b506103d160048036038101906103cc91906113ef565b610a7c565b005b3480156103df57600080fd5b506103e8610b3c565b6040516103f59190611811565b60405180910390f35b34801561040a57600080fd5b50610413610b66565b6040516104209190611811565b60405180910390f35b34801561043557600080fd5b5061043e610b8c565b60405161044b9190611811565b60405180910390f35b34801561046057600080fd5b50610469610bb5565b604051610476919061185c565b60405180910390f35b34801561048b57600080fd5b506104a660048036038101906104a1919061141c565b610bf2565b005b3480156104b457600080fd5b506104bd610caf565b6040516104ca919061195e565b60405180910390f35b3480156104df57600080fd5b506104e8610cf5565b6040516104f59190611979565b60405180910390f35b34801561050a57600080fd5b50610513610cfb565b6040516105209190611979565b60405180910390f35b34801561053557600080fd5b50610550600480360381019061054b91906112f1565b610d02565b005b34801561055e57600080fd5b50610567610dc2565b6040516105749190611979565b60405180910390f35b34801561058957600080fd5b506105a4600480360381019061059f91906112f1565b610dd6565b005b3480156105b257600080fd5b506105bb610ece565b6040516105c89190611979565b60405180910390f35b606060006105de88610bf2565b600360009054906101000a900473ffffffffffffffffffffffffffffffffffffffff1673ffffffffffffffffffffffffffffffffffffffff1688806000019061062791906119bd565b602001602081019061063991906112f1565b73ffffffffffffffffffffffffffffffffffffffff161461065957600080fd5b7f1fab8d24eefec3578055fc7f1c7cce1b10153c6731e0b5ca8147e8916d884b45426040516106889190611979565b60405180910390a1426040516020016106a19190611979565b604051602081830303815290604052600091509150965096945050505050565b6000600160009054906101000a900473ffffffffffffffffffffffffffffffffffffffff1673ffffffffffffffffffffffffffffffffffffffff166370a08231306040518263ffffffff1660e01b815260040161071e9190611811565b60206040518083038186803b15801561073657600080fd5b505afa15801561074a573d6000803e3d6000fd5b505050506040513d601f19601f8201168201806040525081019061076e9190611555565b905090565b61077b610ed5565b73ffffffffffffffffffffffffffffffffffffffff16610799610b8c565b73ffffffffffffffffffffffffffffffffffffffff16146107ef576040517f08c379a00000000000000000000000000000000000000000000000000000000081526004016107e69061193e565b60405180910390fd5b600160009054906101000a900473ffffffffffffffffffffffffffffffffffffffff1673ffffffffffffffffffffffffffffffffffffffff1662f714ce83836040518363ffffffff1660e01b815260040161084b929190611994565b600060405180830381600087803b15801561086557600080fd5b505af1158015610879573d6000803e3d6000fd5b505050505050565b61290481565b61088f610ed5565b73ffffffffffffffffffffffffffffffffffffffff166108ad610b8c565b73ffffffffffffffffffffffffffffffffffffffff1614610903576040517f08c379a00000000000000000000000000000000000000000000000000000000081526004016108fa9061193e565b60405180910390fd5b61090d6000610edd565b565b6000600160009054906101000a900473ffffffffffffffffffffffffffffffffffffffff16905090565b7f142c6d2c03c5b3fcbb162bc0e230bbaae8c9032eb624a8fd44658e00efa63c9085858101906109699190611528565b6040516109769190611979565b60405180910390a15050505050565b61098d610ed5565b73ffffffffffffffffffffffffffffffffffffffff166109ab610b8c565b73ffffffffffffffffffffffffffffffffffffffff1614610a01576040517f08c379a00000000000000000000000000000000000000000000000000000000081526004016109f89061193e565b60405180910390fd5b80600360006101000a81548173ffffffffffffffffffffffffffffffffffffffff021916908373ffffffffffffffffffffffffffffffffffffffff1602179055507f3bfb4bbf112628248058745a3c57e35b13369386e474b8e56c552f3063a4a19681604051610a719190611811565b60405180910390a150565b610a84610ed5565b73ffffffffffffffffffffffffffffffffffffffff16610aa2610b8c565b73ffffffffffffffffffffffffffffffffffffffff1614610af8576040517f08c379a0000000000000000000000000000000000000000000000000000000008152600401610aef9061193e565b60405180910390fd5b80600160006101000a81548173ffffffffffffffffffffffffffffffffffffffff021916908373ffffffffffffffffffffffffffffffffffffffff16021790555050565b6000600260009054906101000a900473ffffffffffffffffffffffffffffffffffffffff16905090565b600360009054906101000a900473ffffffffffffffffffffffffffffffffffffffff1681565b60008060009054906101000a900473ffffffffffffffffffffffffffffffffffffffff16905090565b60606040518060400160405280600581526020017f322e302e33000000000000000000000000000000000000000000000000000000815250905090565b808060200190610c0291906119e5565b60a0016020810190610c1491906112f1565b73ffffffffffffffffffffffffffffffffffffffff16600260009054906101000a900473ffffffffffffffffffffffffffffffffffffffff1673ffffffffffffffffffffffffffffffffffffffff1614610ca3576040517f08c379a0000000000000000000000000000000000000000000000000000000008152600401610c9a906118fe565b60405180910390fd5b610cac81610fa1565b50565b610cb76111a1565b604051806080016040528061c350620186a0610cd39190611a51565b8152602001620186a081526020016201adb08152602001612904815250905090565b61c35081565b6201adb081565b610d0a610ed5565b73ffffffffffffffffffffffffffffffffffffffff16610d28610b8c565b73ffffffffffffffffffffffffffffffffffffffff1614610d7e576040517f08c379a0000000000000000000000000000000000000000000000000000000008152600401610d759061193e565b60405180910390fd5b80600260006101000a81548173ffffffffffffffffffffffffffffffffffffffff021916908373ffffffffffffffffffffffffffffffffffffffff16021790555050565b61c350620186a0610dd39190611a51565b81565b610dde610ed5565b73ffffffffffffffffffffffffffffffffffffffff16610dfc610b8c565b73ffffffffffffffffffffffffffffffffffffffff1614610e52576040517f08c379a0000000000000000000000000000000000000000000000000000000008152600401610e499061193e565b60405180910390fd5b600073ffffffffffffffffffffffffffffffffffffffff168173ffffffffffffffffffffffffffffffffffffffff161415610ec2576040517f08c379a0000000000000000000000000000000000000000000000000000000008152600401610eb99061189e565b60405180910390fd5b610ecb81610edd565b50565b620186a081565b600033905090565b60008060009054906101000a900473ffffffffffffffffffffffffffffffffffffffff169050816000806101000a81548173ffffffffffffffffffffffffffffffffffffffff021916908373ffffffffffffffffffffffffffffffffffffffff1602179055508173ffffffffffffffffffffffffffffffffffffffff168173ffffffffffffffffffffffffffffffffffffffff167f8be0079c531659141344cd1fd0a4f28419497f9722a3daafe3b4186f6b6457e060405160405180910390a35050565b600080828060000190610fb491906119bd565b6020016020810190610fc691906112f1565b73ffffffffffffffffffffffffffffffffffffffff1663572b6c0560e01b848060200190610ff491906119e5565b60a001602081019061100691906112f1565b6040516024016110169190611811565b604051602081830303815290604052907bffffffffffffffffffffffffffffffffffffffffffffffffffffffff19166020820180517bffffffffffffffffffffffffffffffffffffffffffffffffffffffff838183161783525050505060405161108091906117fa565b600060405180830381855afa9150503d80600081146110bb576040519150601f19603f3d011682016040523d82523d6000602084013e6110c0565b606091505b509150915081611105576040517f08c379a00000000000000000000000000000000000000000000000000000000081526004016110fc906118be565b60405180910390fd5b6020815114611149576040517f08c379a00000000000000000000000000000000000000000000000000000000081526004016111409061191e565b60405180910390fd5b8080602001905181019061115d919061131e565b61119c576040517f08c379a00000000000000000000000000000000000000000000000000000000081526004016111939061187e565b60405180910390fd5b505050565b6040518060800160405280600081526020016000815260200160008152602001600081525090565b6000813590506111d881611cee565b92915050565b6000813590506111ed81611d05565b92915050565b60008135905061120281611d1c565b92915050565b60008151905061121781611d1c565b92915050565b60008083601f84011261123357611232611b7a565b5b8235905067ffffffffffffffff8111156112505761124f611b75565b5b60208301915083600182028301111561126c5761126b611b89565b5b9250929050565b60008135905061128281611d33565b92915050565b6000610100828403121561129f5761129e611b7f565b5b81905092915050565b6000604082840312156112be576112bd611b7f565b5b81905092915050565b6000813590506112d681611d4a565b92915050565b6000815190506112eb81611d4a565b92915050565b60006020828403121561130757611306611b93565b5b6000611315848285016111c9565b91505092915050565b60006020828403121561133457611333611b93565b5b600061134284828501611208565b91505092915050565b60008060008060006080868803121561136757611366611b93565b5b600086013567ffffffffffffffff81111561138557611384611b8e565b5b6113918882890161121d565b955095505060206113a4888289016111f3565b93505060406113b5888289016112c7565b925050606086013567ffffffffffffffff8111156113d6576113d5611b8e565b5b6113e288828901611288565b9150509295509295909350565b60006020828403121561140557611404611b93565b5b600061141384828501611273565b91505092915050565b60006020828403121561143257611431611b93565b5b600082013567ffffffffffffffff8111156114505761144f611b8e565b5b61145c848285016112a8565b91505092915050565b6000806000806000806080878903121561148257611481611b93565b5b600087013567ffffffffffffffff8111156114a05761149f611b8e565b5b6114ac89828a016112a8565b965050602087013567ffffffffffffffff8111156114cd576114cc611b8e565b5b6114d989828a0161121d565b9550955050604087013567ffffffffffffffff8111156114fc576114fb611b8e565b5b61150889828a0161121d565b9350935050606061151b89828a016112c7565b9150509295509295509295565b60006020828403121561153e5761153d611b93565b5b600061154c848285016112c7565b91505092915050565b60006020828403121561156b5761156a611b93565b5b6000611579848285016112dc565b91505092915050565b6000806040838503121561159957611598611b93565b5b60006115a7858286016112c7565b92505060206115b8858286016111de565b9150509250929050565b6115cb81611ab9565b82525050565b6115da81611aa7565b82525050565b6115e981611acb565b82525050565b60006115fa82611a0e565b6116048185611a24565b9350611614818560208601611b13565b61161d81611b98565b840191505092915050565b600061163382611a0e565b61163d8185611a35565b935061164d818560208601611b13565b80840191505092915050565b600061166482611a19565b61166e8185611a40565b935061167e818560208601611b13565b61168781611b98565b840191505092915050565b600061169f601f83611a40565b91506116aa82611ba9565b602082019050919050565b60006116c2602683611a40565b91506116cd82611bd2565b604082019050919050565b60006116e5601c83611a40565b91506116f082611c21565b602082019050919050565b6000611708601983611a40565b915061171382611c4a565b602082019050919050565b600061172b601883611a40565b915061173682611c73565b602082019050919050565b600061174e602083611a40565b915061175982611c9c565b602082019050919050565b6000611771602083611a40565b915061177c82611cc5565b602082019050919050565b60808201600082015161179d60008501826117dc565b5060208201516117b060208501826117dc565b5060408201516117c360408501826117dc565b5060608201516117d660608501826117dc565b50505050565b6117e581611b09565b82525050565b6117f481611b09565b82525050565b60006118068284611628565b915081905092915050565b600060208201905061182660008301846115d1565b92915050565b6000604082019050818103600083015261184681856115ef565b905061185560208301846115e0565b9392505050565b600060208201905081810360008301526118768184611659565b905092915050565b6000602082019050818103600083015261189781611692565b9050919050565b600060208201905081810360008301526118b7816116b5565b9050919050565b600060208201905081810360008301526118d7816116d8565b9050919050565b600060208201905081810360008301526118f7816116fb565b9050919050565b600060208201905081810360008301526119178161171e565b9050919050565b6000602082019050818103600083015261193781611741565b9050919050565b6000602082019050818103600083015261195781611764565b9050919050565b60006080820190506119736000830184611787565b92915050565b600060208201905061198e60008301846117eb565b92915050565b60006040820190506119a960008301856117eb565b6119b660208301846115c2565b9392505050565b60008235600160e0038336030381126119d9576119d8611b84565b5b80830191505092915050565b60008235600161010003833603038112611a0257611a01611b84565b5b80830191505092915050565b600081519050919050565b600081519050919050565b600082825260208201905092915050565b600081905092915050565b600082825260208201905092915050565b6000611a5c82611b09565b9150611a6783611b09565b9250827fffffffffffffffffffffffffffffffffffffffffffffffffffffffffffffffff03821115611a9c57611a9b611b46565b5b828201905092915050565b6000611ab282611ae9565b9050919050565b6000611ac482611ae9565b9050919050565b60008115159050919050565b6000611ae282611aa7565b9050919050565b600073ffffffffffffffffffffffffffffffffffffffff82169050919050565b6000819050919050565b60005b83811015611b31578082015181840152602081019050611b16565b83811115611b40576000848401525b50505050565b7f4e487b7100000000000000000000000000000000000000000000000000000000600052601160045260246000fd5b600080fd5b600080fd5b600080fd5b600080fd5b600080fd5b600080fd5b600080fd5b6000601f19601f8301169050919050565b7f696e76616c696420666f7277617264657220666f7220726563697069656e7400600082015250565b7f4f776e61626c653a206e6577206f776e657220697320746865207a65726f206160008201527f6464726573730000000000000000000000000000000000000000000000000000602082015250565b7f697354727573746564466f727761726465723a20726576657274656400000000600082015250565b7f72656c6179206875622061646472657373206e6f742073657400000000000000600082015250565b7f466f72776172646572206973206e6f7420747275737465640000000000000000600082015250565b7f697354727573746564466f727761726465723a2062616420726573706f6e7365600082015250565b7f4f776e61626c653a2063616c6c6572206973206e6f7420746865206f776e6572600082015250565b611cf781611aa7565b8114611d0257600080fd5b50565b611d0e81611ab9565b8114611d1957600080fd5b50565b611d2581611acb565b8114611d3057600080fd5b50565b611d3c81611ad7565b8114611d4757600080fd5b50565b611d5381611b09565b8114611d5e57600080fd5b5056fea2646970667358221220f73a410efc41a504e76223357aa82e32900049defb6b103b19f4989b8716aeca64736f6c63430008060033",
  "immutableReferences": {},
  "source": "pragma solidity ^0.8.6;\n\n// SPDX-License-Identifier: MIT OR Apache-2.0\n\nimport \"@opengsn/contracts/src/forwarder/IForwarder.sol\";\nimport \"@opengsn/contracts/src/BasePaymaster.sol\";\n\n\n\ncontract NaivePaymaster is BasePaymaster {\n\taddress public ourTarget;   // The target contract we are willing to pay for\n\n\t// allow the owner to set ourTarget\n\tevent TargetSet(address target);\n\tfunction setTarget(address target) external onlyOwner {\n\t\tourTarget = target;\n\t\temit TargetSet(target);\n\t}\n\n\tevent PreRelayed(uint);\n\tevent PostRelayed(uint);\n\n\n\tfunction preRelayedCall(\n\t\tGsnTypes.RelayRequest calldata relayRequest,\n\t\tbytes calldata signature,\n\t\tbytes calldata approvalData,\n\t\tuint256 maxPossibleGas\n\t) external override virtual\n\treturns (bytes memory context, bool) {\n\t\t_verifyForwarder(relayRequest);\n\t\t(signature, approvalData, maxPossibleGas);\n\t\t\n\t\trequire(relayRequest.request.to == ourTarget);\n\t\temit PreRelayed(block.timestamp);\n                return (abi.encode(block.timestamp), false);\n\t}\n\n\tfunction postRelayedCall(\n\t\tbytes calldata context,\n\t\tbool success,\n\t\tuint256 gasUseWithoutPost,\n\t\tGsnTypes.RelayData calldata relayData\n\t) external override virtual {\n                (context, success, gasUseWithoutPost, relayData);\n\t\temit PostRelayed(abi.decode(context, (uint)));\n\t}\n\n  function versionPaymaster() external virtual view override returns (string memory) {\n    return \"2.0.3\";\n  }\n\n}",
  "sourcePath": "/home/harshvardhan/Documents/Major_Project/smart-contract/contracts/NaivePaymaster.sol",
  "compiler": {
    "name": "solc",
    "version": "0.8.6+commit.11564f7e.Emscripten.clang"
  },
  "schemaVersion": "3.4.3",
  "updatedAt": "2022-02-21T14:20:40.238Z",
  "networkType": "ethereum",
  "devdoc": {
    "kind": "dev",
    "methods": {
      "owner()": {
        "details": "Returns the address of the current owner."
      },
      "postRelayedCall(bytes,bool,uint256,(uint256,uint256,uint256,address,address,address,bytes,uint256))": {
        "params": {
          "context": "- the call context, as returned by the preRelayedCall",
          "gasUseWithoutPost": "- the actual amount of gas used by the entire transaction, EXCEPT        the gas used by the postRelayedCall itself.",
          "relayData": "- the relay params of the request. can be used by relayHub.calculateCharge() Revert in this functions causes a revert of the client's relayed call (and preRelayedCall(), but the Paymaster is still committed to pay the relay for the entire transaction.",
          "success": "- true if the relayed call succeeded, false if it reverted"
        }
      },
      "preRelayedCall(((address,address,uint256,uint256,uint256,bytes,uint256),(uint256,uint256,uint256,address,address,address,bytes,uint256)),bytes,bytes,uint256)": {
        "params": {
          "approvalData": "- extra dapp-specific data (e.g. signature from trusted party)",
          "maxPossibleGas": "- based on values returned from {@link getGasAndDataLimits},         the RelayHub will calculate the maximum possible amount of gas the user may be charged for.         In order to convert this value to wei, the Paymaster has to call \"relayHub.calculateCharge()\"  return:      a context to be passed to postRelayedCall      rejectOnRecipientRevert - TRUE if paymaster want to reject the TX if the recipient reverts.          FALSE means that rejects by the recipient will be completed on chain, and paid by the paymaster.          (note that in the latter case, the preRelayedCall and postRelayedCall are not reverted).",
          "relayRequest": "- the full relay request structure",
          "signature": "- user's EIP712-compatible signature of the {@link relayRequest}.              Note that in most cases the paymaster shouldn't try use it at all. It is always checked              by the forwarder immediately after preRelayedCall returns."
        }
      },
      "renounceOwnership()": {
        "details": "Leaves the contract without owner. It will not be possible to call `onlyOwner` functions anymore. Can only be called by the current owner. NOTE: Renouncing ownership will leave the contract without an owner, thereby removing any functionality that is only available to the owner."
      },
      "transferOwnership(address)": {
        "details": "Transfers ownership of the contract to a new account (`newOwner`). Can only be called by the current owner."
      }
    },
    "version": 1
  },
  "userdoc": {
    "kind": "user",
    "methods": {
      "getGasAndDataLimits()": {
        "notice": "Return the Gas Limits and msg.data max size constants used by the Paymaster."
      },
      "getHubAddr()": {
        "notice": "return the relayHub of this contract."
      },
      "getRelayHubDeposit()": {
        "notice": "check current deposit on relay hub."
      },
      "postRelayedCall(bytes,bool,uint256,(uint256,uint256,uint256,address,address,address,bytes,uint256))": {
        "notice": "This method is called after the actual relayed function call. It may be used to record the transaction (e.g. charge the caller by some contract logic) for this call. MUST be protected with relayHubOnly() in case it modifies state."
      },
      "preRelayedCall(((address,address,uint256,uint256,uint256,bytes,uint256),(uint256,uint256,uint256,address,address,address,bytes,uint256)),bytes,bytes,uint256)": {
        "notice": "Called by Relay (and RelayHub), to validate if the paymaster agrees to pay for this call. MUST be protected with relayHubOnly() in case it modifies state. The Paymaster rejects by the following \"revert\" operations  - preRelayedCall() method reverts  - the forwarder reverts because of nonce or signature error  - the paymaster returned \"rejectOnRecipientRevert\", and the recipient contract reverted. In any of the above cases, all paymaster calls (and recipient call) are reverted. In any other case, the paymaster agrees to pay for the gas cost of the transaction (note  that this includes also postRelayedCall revert) The rejectOnRecipientRevert flag means the Paymaster \"delegate\" the rejection to the recipient  code.  It also means the Paymaster trust the recipient to reject fast: both preRelayedCall,  forwarder check and receipient checks must fit into the GasLimits.acceptanceBudget,  otherwise the TX is paid by the Paymaster."
      },
      "withdrawRelayHubDepositTo(uint256,address)": {
        "notice": "withdraw deposit from relayHub"
      }
    },
    "version": 1
  }
}