{
  "contractName": "PlagiarismContract",
  "abi": [
    {
      "inputs": [],
      "payable": false,
      "stateMutability": "nonpayable",
      "type": "constructor"
    },
    {
      "anonymous": false,
      "inputs": [
        {
          "indexed": false,
          "internalType": "uint256",
          "name": "fileId",
          "type": "uint256"
        },
        {
          "indexed": false,
          "internalType": "uint256",
          "name": "fileSize",
          "type": "uint256"
        },
        {
          "indexed": false,
          "internalType": "string",
          "name": "fileIPFSHash",
          "type": "string"
        },
        {
          "indexed": false,
          "internalType": "string",
          "name": "fileName",
          "type": "string"
        },
        {
          "indexed": false,
          "internalType": "string",
          "name": "fileDescription",
          "type": "string"
        },
        {
          "indexed": false,
          "internalType": "address",
          "name": "codeAuthor",
          "type": "address"
        },
        {
          "indexed": false,
          "internalType": "uint256",
          "name": "timeUploaded",
          "type": "uint256"
        },
        {
          "indexed": false,
          "internalType": "string",
          "name": "codeFingerPrint",
          "type": "string"
        },
        {
          "indexed": false,
          "internalType": "string[]",
          "name": "hashSet",
          "type": "string[]"
        }
      ],
      "name": "CodeFileUploadEvent",
      "type": "event"
    },
    {
      "constant": true,
      "inputs": [],
      "name": "fileCount",
      "outputs": [
        {
          "internalType": "uint256",
          "name": "",
          "type": "uint256"
        }
      ],
      "payable": false,
      "stateMutability": "view",
      "type": "function"
    },
    {
      "constant": true,
      "inputs": [
        {
          "internalType": "uint256",
          "name": "",
          "type": "uint256"
        }
      ],
      "name": "filesMap",
      "outputs": [
        {
          "internalType": "uint256",
          "name": "fileId",
          "type": "uint256"
        },
        {
          "internalType": "uint256",
          "name": "fileSize",
          "type": "uint256"
        },
        {
          "internalType": "string",
          "name": "fileIPFSHash",
          "type": "string"
        },
        {
          "internalType": "string",
          "name": "fileName",
          "type": "string"
        },
        {
          "internalType": "string",
          "name": "fileDescription",
          "type": "string"
        },
        {
          "internalType": "address",
          "name": "codeAuthor",
          "type": "address"
        },
        {
          "internalType": "uint256",
          "name": "timeUploaded",
          "type": "uint256"
        },
        {
          "internalType": "string",
          "name": "codeFingerPrint",
          "type": "string"
        }
      ],
      "payable": false,
      "stateMutability": "view",
      "type": "function"
    },
    {
      "constant": false,
      "inputs": [
        {
          "internalType": "uint256",
          "name": "_fileSize",
          "type": "uint256"
        },
        {
          "internalType": "string",
          "name": "_fileIPFSHash",
          "type": "string"
        },
        {
          "internalType": "string",
          "name": "_fileName",
          "type": "string"
        },
        {
          "internalType": "string",
          "name": "_fileDescription",
          "type": "string"
        },
        {
          "internalType": "string",
          "name": "_codeFingerPrint",
          "type": "string"
        },
        {
          "internalType": "string[]",
          "name": "_hashSet",
          "type": "string[]"
        }
      ],
      "name": "uploadFile",
      "outputs": [],
      "payable": false,
      "stateMutability": "nonpayable",
      "type": "function"
    },
    {
      "constant": true,
      "inputs": [
        {
          "internalType": "uint256",
          "name": "_fileIndex",
          "type": "uint256"
        }
      ],
      "name": "getFiles",
      "outputs": [
        {
          "components": [
            {
              "internalType": "uint256",
              "name": "fileId",
              "type": "uint256"
            },
            {
              "internalType": "uint256",
              "name": "fileSize",
              "type": "uint256"
            },
            {
              "internalType": "string",
              "name": "fileIPFSHash",
              "type": "string"
            },
            {
              "internalType": "string",
              "name": "fileName",
              "type": "string"
            },
            {
              "internalType": "string",
              "name": "fileDescription",
              "type": "string"
            },
            {
              "internalType": "address",
              "name": "codeAuthor",
              "type": "address"
            },
            {
              "internalType": "uint256",
              "name": "timeUploaded",
              "type": "uint256"
            },
            {
              "internalType": "string",
              "name": "codeFingerPrint",
              "type": "string"
            },
            {
              "internalType": "string[]",
              "name": "hashSet",
              "type": "string[]"
            }
          ],
          "internalType": "struct PlagiarismContract.CodeFile",
          "name": "records",
          "type": "tuple"
        }
      ],
      "payable": false,
      "stateMutability": "view",
      "type": "function"
    }
  ],
  "bytecode": "0x60806040526000805534801561001457600080fd5b50611732806100246000396000f3fe608060405234801561001057600080fd5b506004361061004c5760003560e01c806312506f4d14610051578063254f7d2d14610081578063439535191461009d578063c93bcd91146100bb575b600080fd5b61006b60048036036100669190810190610db6565b6100f2565b6040516100789190611335565b60405180910390f35b61009b60048036036100969190810190610ddf565b610505565b005b6100a56107dc565b6040516100b29190611357565b60405180910390f35b6100d560048036036100d09190810190610db6565b6107e2565b6040516100e9989796959493929190611422565b60405180910390f35b6100fa610aaa565b60016000838152602001908152602001600020604051806101200160405290816000820154815260200160018201548152602001600282018054600181600116156101000203166002900480601f0160208091040260200160405190810160405280929190818152602001828054600181600116156101000203166002900480156101c65780601f1061019b576101008083540402835291602001916101c6565b820191906000526020600020905b8154815290600101906020018083116101a957829003601f168201915b50505050508152602001600382018054600181600116156101000203166002900480601f0160208091040260200160405190810160405280929190818152602001828054600181600116156101000203166002900480156102685780601f1061023d57610100808354040283529160200191610268565b820191906000526020600020905b81548152906001019060200180831161024b57829003601f168201915b50505050508152602001600482018054600181600116156101000203166002900480601f01602080910402602001604051908101604052809291908181526020018280546001816001161561010002031660029004801561030a5780601f106102df5761010080835404028352916020019161030a565b820191906000526020600020905b8154815290600101906020018083116102ed57829003601f168201915b505050505081526020016005820160009054906101000a900473ffffffffffffffffffffffffffffffffffffffff1673ffffffffffffffffffffffffffffffffffffffff1673ffffffffffffffffffffffffffffffffffffffff16815260200160068201548152602001600782018054600181600116156101000203166002900480601f01602080910402602001604051908101604052809291908181526020018280546001816001161561010002031660029004801561040c5780601f106103e15761010080835404028352916020019161040c565b820191906000526020600020905b8154815290600101906020018083116103ef57829003601f168201915b5050505050815260200160088201805480602002602001604051908101604052809291908181526020016000905b828210156104f6578382906000526020600020018054600181600116156101000203166002900480601f0160208091040260200160405190810160405280929190818152602001828054600181600116156101000203166002900480156104e25780601f106104b7576101008083540402835291602001916104e2565b820191906000526020600020905b8154815290600101906020018083116104c557829003601f168201915b50505050508152602001906001019061043a565b50505050815250509050919050565b6000855111610549576040517f08c379a0000000000000000000000000000000000000000000000000000000008152600401610540906112d5565b60405180910390fd5b600083511161058d576040517f08c379a000000000000000000000000000000000000000000000000000000000815260040161058490611315565b60405180910390fd5b60008451116105d1576040517f08c379a00000000000000000000000000000000000000000000000000000000081526004016105c8906112f5565b60405180910390fd5b60008611610614576040517f08c379a000000000000000000000000000000000000000000000000000000000815260040161060b906112b5565b60405180910390fd5b600080815480929190600101919050555060405180610120016040528060005481526020018781526020018681526020018581526020018481526020013373ffffffffffffffffffffffffffffffffffffffff168152602001428152602001838152602001828152506001600080548152602001908152602001600020600082015181600001556020820151816001015560408201518160020190805190602001906106c1929190610b0c565b5060608201518160030190805190602001906106de929190610b0c565b5060808201518160040190805190602001906106fb929190610b0c565b5060a08201518160050160006101000a81548173ffffffffffffffffffffffffffffffffffffffff021916908373ffffffffffffffffffffffffffffffffffffffff16021790555060c0820151816006015560e0820151816007019080519060200190610769929190610b0c565b50610100820151816008019080519060200190610787929190610b8c565b509050507f13a353a011afea10f3f02988cf68745c8d65c39e4d9ba5ed33ea73114c76d85b60005487878787334289896040516107cc99989796959493929190611372565b60405180910390a1505050505050565b60005481565b6001602052806000526040600020600091509050806000015490806001015490806002018054600181600116156101000203166002900480601f01602080910402602001604051908101604052809291908181526020018280546001816001161561010002031660029004801561089a5780601f1061086f5761010080835404028352916020019161089a565b820191906000526020600020905b81548152906001019060200180831161087d57829003601f168201915b505050505090806003018054600181600116156101000203166002900480601f0160208091040260200160405190810160405280929190818152602001828054600181600116156101000203166002900480156109385780601f1061090d57610100808354040283529160200191610938565b820191906000526020600020905b81548152906001019060200180831161091b57829003601f168201915b505050505090806004018054600181600116156101000203166002900480601f0160208091040260200160405190810160405280929190818152602001828054600181600116156101000203166002900480156109d65780601f106109ab576101008083540402835291602001916109d6565b820191906000526020600020905b8154815290600101906020018083116109b957829003601f168201915b5050505050908060050160009054906101000a900473ffffffffffffffffffffffffffffffffffffffff1690806006015490806007018054600181600116156101000203166002900480601f016020809104026020016040519081016040528092919081815260200182805460018160011615610100020316600290048015610aa05780601f10610a7557610100808354040283529160200191610aa0565b820191906000526020600020905b815481529060010190602001808311610a8357829003601f168201915b5050505050905088565b6040518061012001604052806000815260200160008152602001606081526020016060815260200160608152602001600073ffffffffffffffffffffffffffffffffffffffff1681526020016000815260200160608152602001606081525090565b828054600181600116156101000203166002900490600052602060002090601f016020900481019282601f10610b4d57805160ff1916838001178555610b7b565b82800160010185558215610b7b579182015b82811115610b7a578251825591602001919060010190610b5f565b5b509050610b889190610bec565b5090565b828054828255906000526020600020908101928215610bdb579160200282015b82811115610bda578251829080519060200190610bca929190610b0c565b5091602001919060010190610bac565b5b509050610be89190610c11565b5090565b610c0e91905b80821115610c0a576000816000905550600101610bf2565b5090565b90565b610c3a91905b80821115610c365760008181610c2d9190610c3d565b50600101610c17565b5090565b90565b50805460018160011615610100020316600290046000825580601f10610c635750610c82565b601f016020900490600052602060002090810190610c819190610bec565b5b50565b600082601f830112610c9657600080fd5b8135610ca9610ca4826114e9565b6114bc565b9150818183526020840193506020810190508360005b83811015610cef5781358601610cd58882610cf9565b845260208401935060208301925050600181019050610cbf565b5050505092915050565b600082601f830112610d0a57600080fd5b8135610d1d610d1882611511565b6114bc565b91508082526020830160208301858383011115610d3957600080fd5b610d44838284611685565b50505092915050565b600082601f830112610d5e57600080fd5b8135610d71610d6c8261153d565b6114bc565b91508082526020830160208301858383011115610d8d57600080fd5b610d98838284611685565b50505092915050565b600081359050610db0816116d8565b92915050565b600060208284031215610dc857600080fd5b6000610dd684828501610da1565b91505092915050565b60008060008060008060c08789031215610df857600080fd5b6000610e0689828a01610da1565b965050602087013567ffffffffffffffff811115610e2357600080fd5b610e2f89828a01610d4d565b955050604087013567ffffffffffffffff811115610e4c57600080fd5b610e5889828a01610d4d565b945050606087013567ffffffffffffffff811115610e7557600080fd5b610e8189828a01610d4d565b935050608087013567ffffffffffffffff811115610e9e57600080fd5b610eaa89828a01610d4d565b92505060a087013567ffffffffffffffff811115610ec757600080fd5b610ed389828a01610c85565b9150509295509295509295565b6000610eec8383611044565b905092915050565b610efd8161164f565b82525050565b610f0c81611613565b82525050565b610f1b81611613565b82525050565b6000610f2c82611594565b610f3681856115e0565b935083602082028501610f4885611579565b8060005b85811015610f845784840389528151610f658582610ee0565b9450610f70836115c2565b925060208a01995050600181019050610f4c565b50829750879550505050505092915050565b6000610fa182611589565b610fab81856115cf565b935083602082028501610fbd85611569565b8060005b85811015610ff95784840389528151610fda8582610ee0565b9450610fe5836115b5565b925060208a01995050600181019050610fc1565b50829750879550505050505092915050565b6000611016826115aa565b6110208185611602565b9350611030818560208601611694565b611039816116c7565b840191505092915050565b600061104f8261159f565b61105981856115f1565b9350611069818560208601611694565b611072816116c7565b840191505092915050565b60006110888261159f565b6110928185611602565b93506110a2818560208601611694565b6110ab816116c7565b840191505092915050565b60006110c3601283611602565b91507f436f646546696c652073697a65206973203000000000000000000000000000006000830152602082019050919050565b6000611103601683611602565b91507f436f646546696c65204861736820697320656d707479000000000000000000006000830152602082019050919050565b6000611143601683611602565b91507f436f646546696c65206e616d6520697320656d707479000000000000000000006000830152602082019050919050565b6000611183601d83611602565b91507f436f646546696c65206465736372697074696f6e20697320656d7074790000006000830152602082019050919050565b6000610120830160008301516111cf6000860182611297565b5060208301516111e26020860182611297565b50604083015184820360408601526111fa8282611044565b915050606083015184820360608601526112148282611044565b9150506080830151848203608086015261122e8282611044565b91505060a083015161124360a0860182610f03565b5060c083015161125660c0860182611297565b5060e083015184820360e086015261126e8282611044565b91505061010083015184820361010086015261128a8282610f96565b9150508091505092915050565b6112a081611645565b82525050565b6112af81611645565b82525050565b600060208201905081810360008301526112ce816110b6565b9050919050565b600060208201905081810360008301526112ee816110f6565b9050919050565b6000602082019050818103600083015261130e81611136565b9050919050565b6000602082019050818103600083015261132e81611176565b9050919050565b6000602082019050818103600083015261134f81846111b6565b905092915050565b600060208201905061136c60008301846112a6565b92915050565b600061012082019050611388600083018c6112a6565b611395602083018b6112a6565b81810360408301526113a7818a61100b565b905081810360608301526113bb818961100b565b905081810360808301526113cf818861100b565b90506113de60a0830187610ef4565b6113eb60c08301866112a6565b81810360e08301526113fd818561100b565b90508181036101008301526114128184610f21565b90509a9950505050505050505050565b600061010082019050611438600083018b6112a6565b611445602083018a6112a6565b8181036040830152611457818961107d565b9050818103606083015261146b818861107d565b9050818103608083015261147f818761107d565b905061148e60a0830186610f12565b61149b60c08301856112a6565b81810360e08301526114ad818461107d565b90509998505050505050505050565b6000604051905081810181811067ffffffffffffffff821117156114df57600080fd5b8060405250919050565b600067ffffffffffffffff82111561150057600080fd5b602082029050602081019050919050565b600067ffffffffffffffff82111561152857600080fd5b601f19601f8301169050602081019050919050565b600067ffffffffffffffff82111561155457600080fd5b601f19601f8301169050602081019050919050565b6000819050602082019050919050565b6000819050602082019050919050565b600081519050919050565b600081519050919050565b600081519050919050565b600081519050919050565b6000602082019050919050565b6000602082019050919050565b600082825260208201905092915050565b600082825260208201905092915050565b600082825260208201905092915050565b600082825260208201905092915050565b600061161e82611625565b9050919050565b600073ffffffffffffffffffffffffffffffffffffffff82169050919050565b6000819050919050565b600061165a82611661565b9050919050565b600061166c82611673565b9050919050565b600061167e82611625565b9050919050565b82818337600083830152505050565b60005b838110156116b2578082015181840152602081019050611697565b838111156116c1576000848401525b50505050565b6000601f19601f8301169050919050565b6116e181611645565b81146116ec57600080fd5b5056fea365627a7a72315820a34841faf6e20713c016f109ddca5a5a549ef5540f70c336f44906f0ee754aad6c6578706572696d656e74616cf564736f6c63430005100040",
  "source": "// SPDX-License-Identifier: MIT\npragma solidity >=0.4.22 <0.9.0;\npragma experimental ABIEncoderV2;\n\n// import \"@openzeppelin/contracts-ethereum-package/contracts/GSN/GSNRecipient.sol\";\n\n\ncontract PlagiarismContract  {\n\n  struct CodeFile{\n    uint fileId;\n    uint fileSize;\n    string fileIPFSHash;\n    string fileName;\n    string fileDescription;\n    address codeAuthor;\n    uint timeUploaded;    \n    string codeFingerPrint;\n    string [] hashSet;\n  }\n\n  uint public fileCount = 0;\n  mapping(uint=>CodeFile) public filesMap;\n\n\n  event CodeFileUploadEvent(\n    uint fileId,\n    uint fileSize,\n    string fileIPFSHash,\n    string fileName,\n    string fileDescription,\n    address codeAuthor,\n    uint timeUploaded ,\n    string codeFingerPrint,\n    string [] hashSet\n  ) ;\n\n  constructor() public {\n  }\n\n  function uploadFile(uint _fileSize, string memory _fileIPFSHash, string memory _fileName,string memory _fileDescription, string memory _codeFingerPrint, string [] memory _hashSet) public {\n    require(bytes(_fileIPFSHash).length > 0, \"CodeFile Hash is empty\");\n\n    require(bytes(_fileDescription).length > 0, \"CodeFile description is empty\");\n\n    require(bytes(_fileName).length > 0, \"CodeFile name is empty\");\n\n    require(_fileSize>0, \"CodeFile size is 0\");\n\n    fileCount++;\n\n    filesMap[fileCount] = CodeFile(fileCount,_fileSize,_fileIPFSHash, _fileName, _fileDescription,msg.sender,block.timestamp,_codeFingerPrint,_hashSet);\n\n    emit CodeFileUploadEvent(fileCount,_fileSize,_fileIPFSHash, _fileName, _fileDescription,msg.sender,block.timestamp,_codeFingerPrint,_hashSet);\n  }\n\n    function getFiles(uint _fileIndex)\n        public\n        view\n        returns (CodeFile memory records)\n    {\n        return filesMap[_fileIndex];\n    }\n\n// function increase() public {\n//         value += 1;\n//     }\n\n//     function acceptRelayedCall(\n//         address relay,\n//         address from,\n//         bytes calldata encodedFunction,\n//         uint256 transactionFee,\n//         uint256 gasPrice,\n//         uint256 gasLimit,\n//         uint256 nonce,\n//         bytes calldata approvalData,\n//         uint256 maxPossibleCharge\n//     ) external view returns (uint256, bytes memory) {\n//         return _approveRelayedCall();\n//     }\n\n\n}",
  "sourcePath": "/home/harshvardhan/Documents/Major Project/smart-contract/contracts/PlagiarismContract.sol",
  "compiler": {
    "name": "solc",
    "version": "0.5.16+commit.9c3226ce.Emscripten.clang"
  },
  "schemaVersion": "3.4.3",
  "updatedAt": "2021-12-27T05:22:38.753Z",
  "networkType": "ethereum",
  "devdoc": {
    "methods": {}
  },
  "userdoc": {
    "methods": {}
  }
}