{
  "contractName": "PlagiarismContract",
  "abi": [
    {
      "anonymous": false,
      "inputs": [
        {
          "indexed": false,
          "internalType": "uint256",
          "name": "timeUploaded",
          "type": "uint256"
        },
        {
          "indexed": false,
          "internalType": "string",
          "name": "fileName",
          "type": "string"
        },
        {
          "indexed": false,
          "internalType": "uint256",
          "name": "language",
          "type": "uint256"
        }
      ],
      "name": "CheckingPlagiarism",
      "type": "event"
    },
    {
      "anonymous": false,
      "inputs": [
        {
          "indexed": false,
          "internalType": "uint256",
          "name": "fileId",
          "type": "uint256"
        },
        {
          "indexed": false,
          "internalType": "uint256",
          "name": "fileSize",
          "type": "uint256"
        },
        {
          "indexed": false,
          "internalType": "string",
          "name": "fileIPFSCID",
          "type": "string"
        },
        {
          "indexed": false,
          "internalType": "string",
          "name": "fileName",
          "type": "string"
        },
        {
          "indexed": false,
          "internalType": "string",
          "name": "fileDescription",
          "type": "string"
        },
        {
          "indexed": false,
          "internalType": "address",
          "name": "codeAuthor",
          "type": "address"
        },
        {
          "indexed": false,
          "internalType": "uint256",
          "name": "timeUploaded",
          "type": "uint256"
        },
        {
          "indexed": false,
          "internalType": "string",
          "name": "codeFingerPrint",
          "type": "string"
        },
        {
          "indexed": false,
          "internalType": "bytes16[]",
          "name": "hashSet",
          "type": "bytes16[]"
        },
        {
          "indexed": false,
          "internalType": "uint256",
          "name": "hashSetLength",
          "type": "uint256"
        },
        {
          "indexed": false,
          "internalType": "uint256",
          "name": "language",
          "type": "uint256"
        }
      ],
      "name": "CodeFileUploadEvent",
      "type": "event"
    },
    {
      "anonymous": false,
      "inputs": [
        {
          "indexed": false,
          "internalType": "uint256",
          "name": "timeUploaded",
          "type": "uint256"
        },
        {
          "indexed": false,
          "internalType": "string",
          "name": "fileName",
          "type": "string"
        },
        {
          "indexed": false,
          "internalType": "uint256",
          "name": "language",
          "type": "uint256"
        }
      ],
      "name": "CodeSubmitted",
      "type": "event"
    },
    {
      "anonymous": false,
      "inputs": [
        {
          "components": [
            {
              "internalType": "uint256",
              "name": "fileId",
              "type": "uint256"
            },
            {
              "internalType": "uint256",
              "name": "fileSize",
              "type": "uint256"
            },
            {
              "internalType": "string",
              "name": "fileIPFSCID",
              "type": "string"
            },
            {
              "internalType": "string",
              "name": "fileName",
              "type": "string"
            },
            {
              "internalType": "string",
              "name": "fileDescription",
              "type": "string"
            },
            {
              "internalType": "address",
              "name": "codeAuthor",
              "type": "address"
            },
            {
              "internalType": "uint256",
              "name": "timeUploaded",
              "type": "uint256"
            },
            {
              "internalType": "string",
              "name": "codeFingerPrint",
              "type": "string"
            },
            {
              "internalType": "bytes16[]",
              "name": "hashSet",
              "type": "bytes16[]"
            },
            {
              "internalType": "uint256",
              "name": "hashSetLength",
              "type": "uint256"
            },
            {
              "internalType": "uint256",
              "name": "language",
              "type": "uint256"
            }
          ],
          "indexed": false,
          "internalType": "struct PlagiarismContract.CodeFile[]",
          "name": "codefiles",
          "type": "tuple[]"
        }
      ],
      "name": "GetFilesEvent",
      "type": "event"
    },
    {
      "anonymous": false,
      "inputs": [
        {
          "indexed": false,
          "internalType": "string",
          "name": "fileName",
          "type": "string"
        },
        {
          "indexed": false,
          "internalType": "uint256",
          "name": "similarity",
          "type": "uint256"
        },
        {
          "indexed": false,
          "internalType": "string",
          "name": "fileIPFSCID",
          "type": "string"
        }
      ],
      "name": "PlagiarismReport",
      "type": "event"
    },
    {
      "anonymous": false,
      "inputs": [
        {
          "indexed": false,
          "internalType": "bool",
          "name": "plagiarisedResult",
          "type": "bool"
        },
        {
          "indexed": false,
          "internalType": "uint256",
          "name": "timeUploaded",
          "type": "uint256"
        }
      ],
      "name": "PlagiarismResult",
      "type": "event"
    },
    {
      "inputs": [
        {
          "internalType": "uint256",
          "name": "",
          "type": "uint256"
        }
      ],
      "name": "fileCountByLanguage",
      "outputs": [
        {
          "internalType": "uint256",
          "name": "",
          "type": "uint256"
        }
      ],
      "stateMutability": "view",
      "type": "function",
      "constant": true
    },
    {
      "inputs": [
        {
          "internalType": "uint256",
          "name": "",
          "type": "uint256"
        },
        {
          "internalType": "uint256",
          "name": "",
          "type": "uint256"
        }
      ],
      "name": "filesMapByLanguage",
      "outputs": [
        {
          "internalType": "uint256",
          "name": "fileId",
          "type": "uint256"
        },
        {
          "internalType": "uint256",
          "name": "fileSize",
          "type": "uint256"
        },
        {
          "internalType": "string",
          "name": "fileIPFSCID",
          "type": "string"
        },
        {
          "internalType": "string",
          "name": "fileName",
          "type": "string"
        },
        {
          "internalType": "string",
          "name": "fileDescription",
          "type": "string"
        },
        {
          "internalType": "address",
          "name": "codeAuthor",
          "type": "address"
        },
        {
          "internalType": "uint256",
          "name": "timeUploaded",
          "type": "uint256"
        },
        {
          "internalType": "string",
          "name": "codeFingerPrint",
          "type": "string"
        },
        {
          "internalType": "uint256",
          "name": "hashSetLength",
          "type": "uint256"
        },
        {
          "internalType": "uint256",
          "name": "language",
          "type": "uint256"
        }
      ],
      "stateMutability": "view",
      "type": "function",
      "constant": true
    },
    {
      "inputs": [
        {
          "internalType": "string",
          "name": "",
          "type": "string"
        },
        {
          "internalType": "address",
          "name": "",
          "type": "address"
        }
      ],
      "name": "hasPermissionsMap",
      "outputs": [
        {
          "internalType": "bool",
          "name": "",
          "type": "bool"
        }
      ],
      "stateMutability": "view",
      "type": "function",
      "constant": true
    },
    {
      "inputs": [
        {
          "internalType": "uint256",
          "name": "",
          "type": "uint256"
        }
      ],
      "name": "threshold",
      "outputs": [
        {
          "internalType": "uint256",
          "name": "",
          "type": "uint256"
        }
      ],
      "stateMutability": "view",
      "type": "function",
      "constant": true
    },
    {
      "inputs": [],
      "name": "totalFileCount",
      "outputs": [
        {
          "internalType": "uint256",
          "name": "",
          "type": "uint256"
        }
      ],
      "stateMutability": "view",
      "type": "function",
      "constant": true
    },
    {
      "inputs": [
        {
          "internalType": "address",
          "name": "",
          "type": "address"
        },
        {
          "internalType": "uint256",
          "name": "",
          "type": "uint256"
        },
        {
          "internalType": "uint256",
          "name": "",
          "type": "uint256"
        }
      ],
      "name": "userFilesIndexByLanguage",
      "outputs": [
        {
          "internalType": "uint256",
          "name": "",
          "type": "uint256"
        }
      ],
      "stateMutability": "view",
      "type": "function",
      "constant": true
    },
    {
      "inputs": [
        {
          "internalType": "string",
          "name": "cid",
          "type": "string"
        },
        {
          "internalType": "address",
          "name": "userAddress",
          "type": "address"
        }
      ],
      "name": "doesUserHavePermission",
      "outputs": [
        {
          "internalType": "bool",
          "name": "",
          "type": "bool"
        }
      ],
      "stateMutability": "view",
      "type": "function",
      "constant": true
    },
    {
      "inputs": [
        {
          "internalType": "string",
          "name": "cid",
          "type": "string"
        }
      ],
      "name": "addPermission",
      "outputs": [],
      "stateMutability": "nonpayable",
      "type": "function"
    },
    {
      "inputs": [
        {
          "internalType": "string",
          "name": "cid",
          "type": "string"
        }
      ],
      "name": "removePermission",
      "outputs": [],
      "stateMutability": "nonpayable",
      "type": "function"
    },
    {
      "inputs": [],
      "name": "getFileCount",
      "outputs": [
        {
          "internalType": "uint256",
          "name": "",
          "type": "uint256"
        }
      ],
      "stateMutability": "view",
      "type": "function",
      "constant": true
    },
    {
      "inputs": [],
      "name": "getFilesUploadedByUser",
      "outputs": [
        {
          "components": [
            {
              "internalType": "uint256",
              "name": "fileId",
              "type": "uint256"
            },
            {
              "internalType": "uint256",
              "name": "fileSize",
              "type": "uint256"
            },
            {
              "internalType": "string",
              "name": "fileIPFSCID",
              "type": "string"
            },
            {
              "internalType": "string",
              "name": "fileName",
              "type": "string"
            },
            {
              "internalType": "string",
              "name": "fileDescription",
              "type": "string"
            },
            {
              "internalType": "address",
              "name": "codeAuthor",
              "type": "address"
            },
            {
              "internalType": "uint256",
              "name": "timeUploaded",
              "type": "uint256"
            },
            {
              "internalType": "string",
              "name": "codeFingerPrint",
              "type": "string"
            },
            {
              "internalType": "bytes16[]",
              "name": "hashSet",
              "type": "bytes16[]"
            },
            {
              "internalType": "uint256",
              "name": "hashSetLength",
              "type": "uint256"
            },
            {
              "internalType": "uint256",
              "name": "language",
              "type": "uint256"
            }
          ],
          "internalType": "struct PlagiarismContract.CodeFile[]",
          "name": "",
          "type": "tuple[]"
        }
      ],
      "stateMutability": "view",
      "type": "function",
      "constant": true
    },
    {
      "inputs": [
        {
          "internalType": "string",
          "name": "_fileIPFSCID",
          "type": "string"
        }
      ],
      "name": "fileInIPFS",
      "outputs": [
        {
          "internalType": "bool",
          "name": "",
          "type": "bool"
        }
      ],
      "stateMutability": "view",
      "type": "function",
      "constant": true
    },
    {
      "inputs": [
        {
          "internalType": "uint256",
          "name": "_fileSize",
          "type": "uint256"
        },
        {
          "internalType": "string",
          "name": "_fileIPFSCID",
          "type": "string"
        },
        {
          "internalType": "string",
          "name": "_fileName",
          "type": "string"
        },
        {
          "internalType": "string",
          "name": "_fileDescription",
          "type": "string"
        },
        {
          "internalType": "string",
          "name": "_codeFingerPrint",
          "type": "string"
        },
        {
          "internalType": "bytes16[]",
          "name": "_hashSet",
          "type": "bytes16[]"
        },
        {
          "internalType": "uint256",
          "name": "hashSetLength",
          "type": "uint256"
        },
        {
          "internalType": "uint256",
          "name": "language",
          "type": "uint256"
        }
      ],
      "name": "uploadFile",
      "outputs": [],
      "stateMutability": "nonpayable",
      "type": "function"
    },
    {
      "inputs": [
        {
          "internalType": "uint256",
          "name": "_fileIndex",
          "type": "uint256"
        },
        {
          "internalType": "uint256",
          "name": "language",
          "type": "uint256"
        }
      ],
      "name": "getFileByIndex",
      "outputs": [
        {
          "components": [
            {
              "internalType": "uint256",
              "name": "fileId",
              "type": "uint256"
            },
            {
              "internalType": "uint256",
              "name": "fileSize",
              "type": "uint256"
            },
            {
              "internalType": "string",
              "name": "fileIPFSCID",
              "type": "string"
            },
            {
              "internalType": "string",
              "name": "fileName",
              "type": "string"
            },
            {
              "internalType": "string",
              "name": "fileDescription",
              "type": "string"
            },
            {
              "internalType": "address",
              "name": "codeAuthor",
              "type": "address"
            },
            {
              "internalType": "uint256",
              "name": "timeUploaded",
              "type": "uint256"
            },
            {
              "internalType": "string",
              "name": "codeFingerPrint",
              "type": "string"
            },
            {
              "internalType": "bytes16[]",
              "name": "hashSet",
              "type": "bytes16[]"
            },
            {
              "internalType": "uint256",
              "name": "hashSetLength",
              "type": "uint256"
            },
            {
              "internalType": "uint256",
              "name": "language",
              "type": "uint256"
            }
          ],
          "internalType": "struct PlagiarismContract.CodeFile",
          "name": "records",
          "type": "tuple"
        }
      ],
      "stateMutability": "view",
      "type": "function",
      "constant": true
    },
    {
      "inputs": [
        {
          "internalType": "string",
          "name": "_fileName",
          "type": "string"
        },
        {
          "internalType": "bytes16[]",
          "name": "_hashSet",
          "type": "bytes16[]"
        },
        {
          "internalType": "uint256",
          "name": "hashSetLength",
          "type": "uint256"
        },
        {
          "internalType": "uint256",
          "name": "language",
          "type": "uint256"
        }
      ],
      "name": "checkIfPlagiarised",
      "outputs": [
        {
          "internalType": "bool",
          "name": "",
          "type": "bool"
        }
      ],
      "stateMutability": "nonpayable",
      "type": "function"
    },
    {
      "inputs": [
        {
          "internalType": "bytes16[]",
          "name": "list1",
          "type": "bytes16[]"
        },
        {
          "internalType": "bytes16[]",
          "name": "list2",
          "type": "bytes16[]"
        },
        {
          "internalType": "uint256",
          "name": "setLength1",
          "type": "uint256"
        },
        {
          "internalType": "uint256",
          "name": "setLength2",
          "type": "uint256"
        }
      ],
      "name": "getCommonElementsCount",
      "outputs": [
        {
          "internalType": "uint256",
          "name": "",
          "type": "uint256"
        }
      ],
      "stateMutability": "pure",
      "type": "function",
      "constant": true
    },
    {
      "inputs": [
        {
          "internalType": "bytes16[]",
          "name": "l1",
          "type": "bytes16[]"
        },
        {
          "internalType": "bytes16[]",
          "name": "l2",
          "type": "bytes16[]"
        },
        {
          "internalType": "uint256",
          "name": "l1OriLength",
          "type": "uint256"
        },
        {
          "internalType": "uint256",
          "name": "l2OriLength",
          "type": "uint256"
        }
      ],
      "name": "calculateSimilarityScore",
      "outputs": [
        {
          "internalType": "uint256",
          "name": "",
          "type": "uint256"
        }
      ],
      "stateMutability": "pure",
      "type": "function",
      "constant": true
    }
  ],
  "bytecode": "0x60806040526040518060600160405280600060ff168152602001600060ff168152602001600060ff1681525060009060036200003d92919062000091565b5060006001556040518060600160405280601e60ff168152602001602560ff168152602001601e60ff1681525060029060036200007c92919062000091565b503480156200008a57600080fd5b5062000107565b828054828255906000526020600020908101928215620000d5579160200282015b82811115620000d4578251829060ff16905591602001919060010190620000b2565b5b509050620000e49190620000e8565b5090565b5b8082111562000103576000816000905550600101620000e9565b5090565b612adf80620001176000396000f3fe608060405234801561001057600080fd5b506004361061010b5760003560e01c806397f42b1a116100a2578063a988080211610071578063a98808021461030d578063bab50cc91461033d578063ca749bec1461035b578063d11e44d614610377578063ee7e64f7146103a75761010b565b806397f42b1a1461024d5780639e1995661461027d5780639ecefadc146102ad578063a89796cc146102dd5761010b565b806351887b71116100de57806351887b71146101bc5780635836e03d146101da57806360ff2aac146101f65780637f9d4b4a1461022f5761010b565b80630641e449146101105780630d665ad11461014057806331eb7a1a146101705780634217649f146101a0575b600080fd5b61012a60048036038101906101259190611cb9565b6103d7565b60405161013791906123bc565b60405180910390f35b61015a60048036038101906101559190611ad6565b6103fb565b60405161016791906123bc565b60405180910390f35b61018a60048036038101906101859190611cb9565b61044d565b60405161019791906123bc565b60405180910390f35b6101ba60048036038101906101b59190611b75565b610471565b005b6101c46104e8565b6040516101d191906122ef565b60405180910390f35b6101f460048036038101906101ef9190611b75565b6108b6565b005b610210600480360381019061020b9190611e28565b61092d565b6040516102269a999897969594939291906124e3565b60405180910390f35b610237610bce565b60405161024491906123bc565b60405180910390f35b61026760048036038101906102629190611a83565b610bd4565b60405161027491906123bc565b60405180910390f35b61029760048036038101906102929190611bbe565b610c12565b6040516102a49190612311565b60405180910390f35b6102c760048036038101906102c29190611ad6565b610c57565b6040516102d491906123bc565b60405180910390f35b6102f760048036038101906102f29190611bbe565b610d1d565b6040516103049190612311565b60405180910390f35b61032760048036038101906103229190611b75565b610d90565b6040516103349190612311565b60405180910390f35b610345610dc5565b60405161035291906123bc565b60405180910390f35b61037560048036038101906103709190611ce6565b610dcf565b005b610391600480360381019061038c9190611c1a565b611188565b60405161039e9190612311565b60405180910390f35b6103c160048036038101906103bc9190611e28565b6112d8565b6040516103ce919061239a565b60405180910390f35b600081815481106103e757600080fd5b906000526020600020016000915090505481565b60008061040c868688518851610c57565b9050600081848661041d91906126d8565b61042791906127b9565b905080606483610437919061275f565b610441919061272e565b92505050949350505050565b6002818154811061045d57600080fd5b906000526020600020016000915090505481565b600060068260405161048391906122d8565b908152602001604051809103902060003373ffffffffffffffffffffffffffffffffffffffff1673ffffffffffffffffffffffffffffffffffffffff16815260200190815260200160002060006101000a81548160ff02191690831515021790555050565b60606000600460003373ffffffffffffffffffffffffffffffffffffffff1673ffffffffffffffffffffffffffffffffffffffff16815260200190815260200160002060008081526020019081526020016000208054905090506000600460003373ffffffffffffffffffffffffffffffffffffffff1673ffffffffffffffffffffffffffffffffffffffff1681526020019081526020016000206000600181526020019081526020016000208054905090506000600460003373ffffffffffffffffffffffffffffffffffffffff1673ffffffffffffffffffffffffffffffffffffffff168152602001908152602001600020600060028152602001908152602001600020805490509050600081848461060391906126d8565b61060d91906126d8565b67ffffffffffffffff81111561062657610625612a0b565b5b60405190808252806020026020018201604052801561065f57816020015b61064c61175e565b8152602001906001900390816106445790505b5090506000805b85811015610724576106e5600460003373ffffffffffffffffffffffffffffffffffffffff1673ffffffffffffffffffffffffffffffffffffffff168152602001908152602001600020600080815260200190815260200160002082815481106106d3576106d26129dc565b5b906000526020600020015460006112d8565b8383815181106106f8576106f76129dc565b5b6020026020010181905250818061070e90612906565b925050808061071c90612906565b915050610666565b5060005b848110156107e7576107a8600460003373ffffffffffffffffffffffffffffffffffffffff1673ffffffffffffffffffffffffffffffffffffffff1681526020019081526020016000206000600181526020019081526020016000208281548110610796576107956129dc565b5b906000526020600020015460016112d8565b8383815181106107bb576107ba6129dc565b5b602002602001018190525081806107d190612906565b92505080806107df90612906565b915050610728565b5060005b838110156108aa5761086b600460003373ffffffffffffffffffffffffffffffffffffffff1673ffffffffffffffffffffffffffffffffffffffff1681526020019081526020016000206000600281526020019081526020016000208281548110610859576108586129dc565b5b906000526020600020015460026112d8565b83838151811061087e5761087d6129dc565b5b6020026020010181905250818061089490612906565b92505080806108a290612906565b9150506107eb565b50819550505050505090565b60016006826040516108c891906122d8565b908152602001604051809103902060003373ffffffffffffffffffffffffffffffffffffffff1673ffffffffffffffffffffffffffffffffffffffff16815260200190815260200160002060006101000a81548160ff02191690831515021790555050565b600360205281600052604060002060205280600052604060002060009150915050806000015490806001015490806002018054610969906128a3565b80601f0160208091040260200160405190810160405280929190818152602001828054610995906128a3565b80156109e25780601f106109b7576101008083540402835291602001916109e2565b820191906000526020600020905b8154815290600101906020018083116109c557829003601f168201915b5050505050908060030180546109f7906128a3565b80601f0160208091040260200160405190810160405280929190818152602001828054610a23906128a3565b8015610a705780601f10610a4557610100808354040283529160200191610a70565b820191906000526020600020905b815481529060010190602001808311610a5357829003601f168201915b505050505090806004018054610a85906128a3565b80601f0160208091040260200160405190810160405280929190818152602001828054610ab1906128a3565b8015610afe5780601f10610ad357610100808354040283529160200191610afe565b820191906000526020600020905b815481529060010190602001808311610ae157829003601f168201915b5050505050908060050160009054906101000a900473ffffffffffffffffffffffffffffffffffffffff1690806006015490806007018054610b3f906128a3565b80601f0160208091040260200160405190810160405280929190818152602001828054610b6b906128a3565b8015610bb85780601f10610b8d57610100808354040283529160200191610bb8565b820191906000526020600020905b815481529060010190602001808311610b9b57829003601f168201915b50505050509080600901549080600a015490508a565b60015481565b60046020528260005260406000206020528160005260406000208181548110610bfc57600080fd5b9060005260206000200160009250925050505481565b6006828051602081018201805184825260208301602085012081835280955050505050506020528060005260406000206000915091509054906101000a900460ff1681565b6000806000905060005b84811015610d105760005b84811015610cfc57868181518110610c8757610c866129dc565b5b60200260200101516fffffffffffffffffffffffffffffffff1916888381518110610cb557610cb46129dc565b5b60200260200101516fffffffffffffffffffffffffffffffff19161415610ce9578280610ce190612906565b935050610cfc565b8080610cf490612906565b915050610c6c565b508080610d0890612906565b915050610c61565b5080915050949350505050565b6000600683604051610d2f91906122d8565b908152602001604051809103902060008373ffffffffffffffffffffffffffffffffffffffff1673ffffffffffffffffffffffffffffffffffffffff16815260200190815260200160002060009054906101000a900460ff16905092915050565b6000600582604051610da291906122d8565b908152602001604051809103902060009054906101000a900460ff169050919050565b6000600154905090565b7f90a4de5c450d2bbdd8a9564fb9646ea0df44cf5dbb8e4bed1c6f806b7b37e57e428783604051610e02939291906123d7565b60405180910390a1610e1686848484611188565b15610e5a577f33baf730752a6c778112e3ee4c2e8bd128e07d02117675aa7c7feec6dd8b51db600142604051610e4d92919061232c565b60405180910390a161117e565b610e63876108b6565b60008181548110610e7757610e766129dc565b5b906000526020600020016000815480929190610e9290612906565b919050555060016000815480929190610eaa90612906565b91905055506001600588604051610ec191906122d8565b908152602001604051809103902060006101000a81548160ff02191690831515021790555060405180610160016040528060015481526020018981526020018881526020018781526020018681526020013373ffffffffffffffffffffffffffffffffffffffff16815260200142815260200185815260200184815260200183815260200182815250600360008381526020019081526020016000206000808481548110610f7257610f716129dc565b5b9060005260206000200154815260200190815260200160002060008201518160000155602082015181600101556040820151816002019080519060200190610fbb9291906117ce565b506060820151816003019080519060200190610fd89291906117ce565b506080820151816004019080519060200190610ff59291906117ce565b5060a08201518160050160006101000a81548173ffffffffffffffffffffffffffffffffffffffff021916908373ffffffffffffffffffffffffffffffffffffffff16021790555060c0820151816006015560e08201518160070190805190602001906110639291906117ce565b50610100820151816008019080519060200190611081929190611854565b50610120820151816009015561014082015181600a0155905050600460003373ffffffffffffffffffffffffffffffffffffffff1673ffffffffffffffffffffffffffffffffffffffff1681526020019081526020016000206000828152602001908152602001600020600082815481106110ff576110fe6129dc565b5b906000526020600020015490806001815401808255809150506001900390600052602060002001600090919091909150557f3f57d78cc64cf92f6e3395a2500653142d55d8ccce3c2822cc104fc2f7aa7fbb6001548989898933428b8b8b8b6040516111759b9a99989796959493929190612415565b60405180910390a15b5050505050505050565b6000806000905060007f07ecc4d2c84ccebeededec1ffd783fb95395d34ea2aec93c939cd704166d409b4288866040516111c4939291906123d7565b60405180910390a16000600190505b600085815481106111e7576111e66129dc565b5b906000526020600020015481116112b45760006112048287611676565b90506000611212838861172c565b905061122089838a846103fb565b945060028781548110611236576112356129dc565b5b906000526020600020015485111561129f57600061125484896112d8565b90507f26286c29038090672da1b9316179073034472dcdace7de43a986717de067048a816060015187836040015160405161129193929190612355565b60405180910390a160019450505b505080806112ac90612906565b9150506111d3565b5060018114156112c9576001925050506112d0565b6000925050505b949350505050565b6112e061175e565b600360008381526020019081526020016000206000848152602001908152602001600020604051806101600160405290816000820154815260200160018201548152602001600282018054611334906128a3565b80601f0160208091040260200160405190810160405280929190818152602001828054611360906128a3565b80156113ad5780601f10611382576101008083540402835291602001916113ad565b820191906000526020600020905b81548152906001019060200180831161139057829003601f168201915b505050505081526020016003820180546113c6906128a3565b80601f01602080910402602001604051908101604052809291908181526020018280546113f2906128a3565b801561143f5780601f106114145761010080835404028352916020019161143f565b820191906000526020600020905b81548152906001019060200180831161142257829003601f168201915b50505050508152602001600482018054611458906128a3565b80601f0160208091040260200160405190810160405280929190818152602001828054611484906128a3565b80156114d15780601f106114a6576101008083540402835291602001916114d1565b820191906000526020600020905b8154815290600101906020018083116114b457829003601f168201915b505050505081526020016005820160009054906101000a900473ffffffffffffffffffffffffffffffffffffffff1673ffffffffffffffffffffffffffffffffffffffff1673ffffffffffffffffffffffffffffffffffffffff1681526020016006820154815260200160078201805461154a906128a3565b80601f0160208091040260200160405190810160405280929190818152602001828054611576906128a3565b80156115c35780601f10611598576101008083540402835291602001916115c3565b820191906000526020600020905b8154815290600101906020018083116115a657829003601f168201915b505050505081526020016008820180548060200260200160405190810160405280929190818152602001828054801561165157602002820191906000526020600020906000905b82829054906101000a900460801b6fffffffffffffffffffffffffffffffff191681526020019060100190602082600f0104928301926001038202915080841161160a5790505b5050505050815260200160098201548152602001600a82015481525050905092915050565b606060036000838152602001908152602001600020600084815260200190815260200160002060080180548060200260200160405190810160405280929190818152602001828054801561171f57602002820191906000526020600020906000905b82829054906101000a900460801b6fffffffffffffffffffffffffffffffff191681526020019060100190602082600f010492830192600103820291508084116116d85790505b5050505050905092915050565b600060036000838152602001908152602001600020600084815260200190815260200160002060090154905092915050565b6040518061016001604052806000815260200160008152602001606081526020016060815260200160608152602001600073ffffffffffffffffffffffffffffffffffffffff16815260200160008152602001606081526020016060815260200160008152602001600081525090565b8280546117da906128a3565b90600052602060002090601f0160209004810192826117fc5760008555611843565b82601f1061181557805160ff1916838001178555611843565b82800160010185558215611843579182015b82811115611842578251825591602001919060010190611827565b5b5090506118509190611919565b5090565b828054828255906000526020600020906001016002900481019282156119085791602002820160005b838211156118ca57835183826101000a8154816fffffffffffffffffffffffffffffffff021916908360801c02179055509260200192601001602081600f0104928301926001030261187d565b80156119065782816101000a8154906fffffffffffffffffffffffffffffffff0219169055601001602081600f010492830192600103026118ca565b505b5090506119159190611919565b5090565b5b8082111561193257600081600090555060010161191a565b5090565b6000611949611944846125c0565b61259b565b9050808382526020820190508285602086028201111561196c5761196b612a3f565b5b60005b8581101561199c57816119828882611a2b565b84526020840193506020830192505060018101905061196f565b5050509392505050565b60006119b96119b4846125ec565b61259b565b9050828152602081018484840111156119d5576119d4612a44565b5b6119e0848285612861565b509392505050565b6000813590506119f781612a64565b92915050565b600082601f830112611a1257611a11612a3a565b5b8135611a22848260208601611936565b91505092915050565b600081359050611a3a81612a7b565b92915050565b600082601f830112611a5557611a54612a3a565b5b8135611a658482602086016119a6565b91505092915050565b600081359050611a7d81612a92565b92915050565b600080600060608486031215611a9c57611a9b612a4e565b5b6000611aaa868287016119e8565b9350506020611abb86828701611a6e565b9250506040611acc86828701611a6e565b9150509250925092565b60008060008060808587031215611af057611aef612a4e565b5b600085013567ffffffffffffffff811115611b0e57611b0d612a49565b5b611b1a878288016119fd565b945050602085013567ffffffffffffffff811115611b3b57611b3a612a49565b5b611b47878288016119fd565b9350506040611b5887828801611a6e565b9250506060611b6987828801611a6e565b91505092959194509250565b600060208284031215611b8b57611b8a612a4e565b5b600082013567ffffffffffffffff811115611ba957611ba8612a49565b5b611bb584828501611a40565b91505092915050565b60008060408385031215611bd557611bd4612a4e565b5b600083013567ffffffffffffffff811115611bf357611bf2612a49565b5b611bff85828601611a40565b9250506020611c10858286016119e8565b9150509250929050565b60008060008060808587031215611c3457611c33612a4e565b5b600085013567ffffffffffffffff811115611c5257611c51612a49565b5b611c5e87828801611a40565b945050602085013567ffffffffffffffff811115611c7f57611c7e612a49565b5b611c8b878288016119fd565b9350506040611c9c87828801611a6e565b9250506060611cad87828801611a6e565b91505092959194509250565b600060208284031215611ccf57611cce612a4e565b5b6000611cdd84828501611a6e565b91505092915050565b600080600080600080600080610100898b031215611d0757611d06612a4e565b5b6000611d158b828c01611a6e565b985050602089013567ffffffffffffffff811115611d3657611d35612a49565b5b611d428b828c01611a40565b975050604089013567ffffffffffffffff811115611d6357611d62612a49565b5b611d6f8b828c01611a40565b965050606089013567ffffffffffffffff811115611d9057611d8f612a49565b5b611d9c8b828c01611a40565b955050608089013567ffffffffffffffff811115611dbd57611dbc612a49565b5b611dc98b828c01611a40565b94505060a089013567ffffffffffffffff811115611dea57611de9612a49565b5b611df68b828c016119fd565b93505060c0611e078b828c01611a6e565b92505060e0611e188b828c01611a6e565b9150509295985092959890939650565b60008060408385031215611e3f57611e3e612a4e565b5b6000611e4d85828601611a6e565b9250506020611e5e85828601611a6e565b9150509250929050565b6000611e748383611ff2565b60208301905092915050565b6000611e8c83836120a4565b905092915050565b611e9d816127ed565b82525050565b611eac816127ed565b82525050565b6000611ebd8261263d565b611ec78185612678565b9350611ed28361261d565b8060005b83811015611f03578151611eea8882611e68565b9750611ef58361265e565b925050600181019050611ed6565b5085935050505092915050565b6000611f1b8261263d565b611f258185612689565b9350611f308361261d565b8060005b83811015611f61578151611f488882611e68565b9750611f538361265e565b925050600181019050611f34565b5085935050505092915050565b6000611f7982612648565b611f83818561269a565b935083602082028501611f958561262d565b8060005b85811015611fd15784840389528151611fb28582611e80565b9450611fbd8361266b565b925060208a01995050600181019050611f99565b50829750879550505050505092915050565b611fec816127ff565b82525050565b611ffb8161280b565b82525050565b600061200c82612653565b61201681856126ab565b9350612026818560208601612870565b61202f81612a53565b840191505092915050565b600061204582612653565b61204f81856126bc565b935061205f818560208601612870565b61206881612a53565b840191505092915050565b600061207e82612653565b61208881856126cd565b9350612098818560208601612870565b80840191505092915050565b6000610160830160008301516120bd60008601826122ba565b5060208301516120d060208601826122ba565b50604083015184820360408601526120e88282612001565b915050606083015184820360608601526121028282612001565b9150506080830151848203608086015261211c8282612001565b91505060a083015161213160a0860182611e94565b5060c083015161214460c08601826122ba565b5060e083015184820360e086015261215c8282612001565b9150506101008301518482036101008601526121788282611eb2565b91505061012083015161218f6101208601826122ba565b506101408301516121a46101408601826122ba565b508091505092915050565b6000610160830160008301516121c860008601826122ba565b5060208301516121db60208601826122ba565b50604083015184820360408601526121f38282612001565b9150506060830151848203606086015261220d8282612001565b915050608083015184820360808601526122278282612001565b91505060a083015161223c60a0860182611e94565b5060c083015161224f60c08601826122ba565b5060e083015184820360e08601526122678282612001565b9150506101008301518482036101008601526122838282611eb2565b91505061012083015161229a6101208601826122ba565b506101408301516122af6101408601826122ba565b508091505092915050565b6122c381612857565b82525050565b6122d281612857565b82525050565b60006122e48284612073565b915081905092915050565b600060208201905081810360008301526123098184611f6e565b905092915050565b60006020820190506123266000830184611fe3565b92915050565b60006040820190506123416000830185611fe3565b61234e60208301846122c9565b9392505050565b6000606082019050818103600083015261236f818661203a565b905061237e60208301856122c9565b8181036040830152612390818461203a565b9050949350505050565b600060208201905081810360008301526123b481846121af565b905092915050565b60006020820190506123d160008301846122c9565b92915050565b60006060820190506123ec60008301866122c9565b81810360208301526123fe818561203a565b905061240d60408301846122c9565b949350505050565b60006101608201905061242b600083018e6122c9565b612438602083018d6122c9565b818103604083015261244a818c61203a565b9050818103606083015261245e818b61203a565b90508181036080830152612472818a61203a565b905061248160a0830189611ea3565b61248e60c08301886122c9565b81810360e08301526124a0818761203a565b90508181036101008301526124b58186611f10565b90506124c56101208301856122c9565b6124d36101408301846122c9565b9c9b505050505050505050505050565b6000610140820190506124f9600083018d6122c9565b612506602083018c6122c9565b8181036040830152612518818b61203a565b9050818103606083015261252c818a61203a565b90508181036080830152612540818961203a565b905061254f60a0830188611ea3565b61255c60c08301876122c9565b81810360e083015261256e818661203a565b905061257e6101008301856122c9565b61258c6101208301846122c9565b9b9a5050505050505050505050565b60006125a56125b6565b90506125b182826128d5565b919050565b6000604051905090565b600067ffffffffffffffff8211156125db576125da612a0b565b5b602082029050602081019050919050565b600067ffffffffffffffff82111561260757612606612a0b565b5b61261082612a53565b9050602081019050919050565b6000819050602082019050919050565b6000819050602082019050919050565b600081519050919050565b600081519050919050565b600081519050919050565b6000602082019050919050565b6000602082019050919050565b600082825260208201905092915050565b600082825260208201905092915050565b600082825260208201905092915050565b600082825260208201905092915050565b600082825260208201905092915050565b600081905092915050565b60006126e382612857565b91506126ee83612857565b9250827fffffffffffffffffffffffffffffffffffffffffffffffffffffffffffffffff038211156127235761272261294f565b5b828201905092915050565b600061273982612857565b915061274483612857565b9250826127545761275361297e565b5b828204905092915050565b600061276a82612857565b915061277583612857565b9250817fffffffffffffffffffffffffffffffffffffffffffffffffffffffffffffffff04831182151516156127ae576127ad61294f565b5b828202905092915050565b60006127c482612857565b91506127cf83612857565b9250828210156127e2576127e161294f565b5b828203905092915050565b60006127f882612837565b9050919050565b60008115159050919050565b60007fffffffffffffffffffffffffffffffff0000000000000000000000000000000082169050919050565b600073ffffffffffffffffffffffffffffffffffffffff82169050919050565b6000819050919050565b82818337600083830152505050565b60005b8381101561288e578082015181840152602081019050612873565b8381111561289d576000848401525b50505050565b600060028204905060018216806128bb57607f821691505b602082108114156128cf576128ce6129ad565b5b50919050565b6128de82612a53565b810181811067ffffffffffffffff821117156128fd576128fc612a0b565b5b80604052505050565b600061291182612857565b91507fffffffffffffffffffffffffffffffffffffffffffffffffffffffffffffffff8214156129445761294361294f565b5b600182019050919050565b7f4e487b7100000000000000000000000000000000000000000000000000000000600052601160045260246000fd5b7f4e487b7100000000000000000000000000000000000000000000000000000000600052601260045260246000fd5b7f4e487b7100000000000000000000000000000000000000000000000000000000600052602260045260246000fd5b7f4e487b7100000000000000000000000000000000000000000000000000000000600052603260045260246000fd5b7f4e487b7100000000000000000000000000000000000000000000000000000000600052604160045260246000fd5b600080fd5b600080fd5b600080fd5b600080fd5b600080fd5b6000601f19601f8301169050919050565b612a6d816127ed565b8114612a7857600080fd5b50565b612a848161280b565b8114612a8f57600080fd5b50565b612a9b81612857565b8114612aa657600080fd5b5056fea264697066735822122011b183248b52c73570ed8690b7cfa661e4f4843033bd783fac7e4f732b5859fb64736f6c63430008060033",
  "immutableReferences": {},
  "source": "// SPDX-License-Identifier: MIT\npragma solidity >=0.4.22 <0.9.0;\n\n\n\n\ncontract PlagiarismContract \n{\n/**\nlanguages\n0: CPP\n1: Java\n2: JavaScript\n */\n\n  struct CodeFile{\n    uint fileId;\n    uint fileSize;\n    string fileIPFSCID;\n    string fileName;\n    string fileDescription;\n    address codeAuthor;\n    uint timeUploaded;    \n    string codeFingerPrint;\n    bytes16 [] hashSet;\n    uint hashSetLength;\n    uint language;\n  }\n  uint[] public fileCountByLanguage = [0,0,0];\n  uint public totalFileCount=0;\n\n\n  //TODO: Use actual threshold\n  uint[] public threshold=[30,37,30];\n\n\n  mapping(uint=>mapping(uint=>CodeFile)) public filesMapByLanguage;\n\n  mapping(address=>mapping(uint=>uint[])) public userFilesIndexByLanguage;\n\n  mapping(string=>bool)IPFSCIDsMap;\n\n  event CodeSubmitted(\n    uint timeUploaded ,\n    string fileName,\n    uint language\n  ) ;\n\n\n  event CodeFileUploadEvent(\n    uint fileId,\n    uint fileSize,\n    string fileIPFSCID,\n    string fileName,\n    string fileDescription,\n    address codeAuthor,\n    uint timeUploaded ,\n    string codeFingerPrint,\n    bytes16 [] hashSet,\n    uint hashSetLength,\n    uint language\n  ) ;\n\n  event PlagiarismReport(\n    string fileName,\n    uint similarity,\n    string fileIPFSCID\n    );\n\n\n  event GetFilesEvent(\n    CodeFile[] codefiles\n  );\n\n  event PlagiarismResult(\n    bool plagiarisedResult,\n    uint timeUploaded\n  );\n\n   event CheckingPlagiarism(\n  \n    uint timeUploaded,\n  string fileName,\n    uint language\n  );\n\n  mapping(string=>mapping(address=>bool)) public hasPermissionsMap;\n\n    function doesUserHavePermission(string memory cid, address userAddress)\n        public\n        view\n        returns (bool)\n    {\n        return hasPermissionsMap[cid][userAddress];\n    }\n\n    function addPermission(string memory cid)\n        public\n    {\n        hasPermissionsMap[cid][msg.sender]=true;\n    }\n\n    function removePermission(string memory cid)\n        public\n    {\n        hasPermissionsMap[cid][msg.sender]=false;\n    }\n\n//getUploaded files\n// different maps for different langiages\n// map to check if same file\n//reject if any file has higher similarity score than threshold\n\n  function getFileCount()public view returns(uint){\n    return totalFileCount;\n  }\n\n  function getFilesUploadedByUser()public view returns (CodeFile[] memory){\n    uint javaFileCount=userFilesIndexByLanguage[msg.sender][0].length;\n    uint cppFileCount=userFilesIndexByLanguage[msg.sender][1].length;\n    uint javaScriptFileCount=userFilesIndexByLanguage[msg.sender][2].length;\n\n    CodeFile[] memory listOfFiles = new CodeFile[](cppFileCount+javaFileCount+javaScriptFileCount);   \n\n    uint currentCount=0;\n    for(uint i=0;i<javaFileCount;i++){\n      listOfFiles[currentCount]=getFileByIndex(userFilesIndexByLanguage[msg.sender][0][i],0);\n      currentCount++;\n    }\n    for(uint i=0;i<cppFileCount;i++){\n      listOfFiles[currentCount]=getFileByIndex(userFilesIndexByLanguage[msg.sender][1][i],1);\n      currentCount++;\n    }    \n    for(uint i=0;i<javaScriptFileCount;i++){\n      listOfFiles[currentCount]=getFileByIndex(userFilesIndexByLanguage[msg.sender][2][i],2);\n      currentCount++;\n    }\n    return listOfFiles;\n\n  }\n\n  function fileInIPFS(string memory _fileIPFSCID) public view returns(bool){\n      return IPFSCIDsMap[_fileIPFSCID];\n  }\n\n  function uploadFile(uint _fileSize, string memory  _fileIPFSCID, string memory  _fileName,string memory  _fileDescription, string memory  _codeFingerPrint, bytes16 [] memory _hashSet, uint hashSetLength, uint language) public {\n\n    // Returns if same file is uploaded\n    emit CodeSubmitted(block.timestamp,_fileName,language);\n    if(checkIfPlagiarised(_fileName,_hashSet,hashSetLength,language)){\n      emit PlagiarismResult(true,block.timestamp);\n    }\n    else\n    {\n      addPermission(_fileIPFSCID);\n      fileCountByLanguage[language]++;\n      totalFileCount++;\n      IPFSCIDsMap[_fileIPFSCID]=true;\n      filesMapByLanguage[language][fileCountByLanguage[language]] = CodeFile(totalFileCount,_fileSize,_fileIPFSCID, _fileName, _fileDescription,msg.sender,block.timestamp,_codeFingerPrint,_hashSet,hashSetLength,language);\n      userFilesIndexByLanguage[msg.sender][language].push(fileCountByLanguage[language]);\n      emit CodeFileUploadEvent(totalFileCount,_fileSize,_fileIPFSCID, _fileName, _fileDescription,msg.sender,block.timestamp,_codeFingerPrint,_hashSet,hashSetLength,language);\n    }\n  }\n\n    function getFileByIndex(uint _fileIndex,uint language)\n        public\n        view\n        returns (CodeFile memory records)\n    {\n        return filesMapByLanguage[language][_fileIndex];\n    }\n\n    function getFileHashSet(uint _fileIndex, uint language) private\n        view\n        returns (bytes16 [] memory )\n    {\n        return filesMapByLanguage[language][_fileIndex].hashSet;\n    }\n\n    function getFileHashSetLength(uint _fileIndex,uint language) private\n        view\n        returns (uint )\n    {\n        return filesMapByLanguage[language][_fileIndex].hashSetLength;\n    }\n    function checkIfPlagiarised( string memory  _fileName, bytes16 [] memory _hashSet, uint hashSetLength,uint language)public returns(bool){\n\n      uint similarity=0;\n      uint flag=0;\n    emit CheckingPlagiarism(block.timestamp,_fileName,language);\n      for(uint i=1;i<=fileCountByLanguage[language];i++){\n        bytes16 [] memory existingFilehashSet=getFileHashSet(i,language);\n        uint existingFilehashSetLength=getFileHashSetLength(i,language);\n        similarity=calculateSimilarityScore(_hashSet,existingFilehashSet,hashSetLength,existingFilehashSetLength);\n        if(similarity>threshold[language]){\n          CodeFile memory file=getFileByIndex(i, language);\n          emit PlagiarismReport(file.fileName,similarity,file.fileIPFSCID);\n          flag=1;\n        }\n      }\n        if(flag==1){\n          return true;\n        }\n\n      \n      return false;\n    }\n\n    // function getMaximumSimilarityScore( bytes16 [] memory _hashSet, uint oriHashSetLength,uint language) public view returns (uint){\n    //   uint similarity=0;\n\n    //   for(uint i=1;i<=fileCountByLanguage[language];i++){\n    //     bytes16 [] memory existingFilehashSet=getFileHashSet(i,language);\n    //     uint existingFilehashSetLength=getFileHashSetLength(i,language);\n    //     similarity=calculateSimilarityScore(_hashSet,existingFilehashSet,oriHashSetLength,existingFilehashSetLength);\n    //     if(similarity>threshold){\n    //       break;\n    //     }\n    //   }\n    //   return similarity;\n    // }\n\n \n    \n    function getCommonElementsCount(bytes16[] memory list1, bytes16[] memory list2,uint setLength1,uint setLength2) public pure returns (uint){\n\n        uint commonElementsCount=0;\n        for(uint i=0;i< setLength1;i++){\n            for(uint j=0;j<setLength2;j++){\n                if(list1[i]==list2[j]){\n                    commonElementsCount++;\n                    break;\n                }\n            }\n        }\n        return commonElementsCount;\n    }\n\n    function calculateSimilarityScore(bytes16[] memory l1, bytes16[] memory l2, uint l1OriLength, uint l2OriLength) public pure returns(uint){\n\n      uint commonElementsCount = getCommonElementsCount(l1,l2,l1.length,l2.length);\n      uint unionCount=l1OriLength+l2OriLength-commonElementsCount;        \n      \n      return commonElementsCount*100/unionCount;\n    } \n}",
  "sourcePath": "/home/harshvardhan/Documents/Major_Project/smart-contract/contracts/PlagiarismContract.sol",
  "compiler": {
    "name": "solc",
    "version": "0.8.6+commit.11564f7e.Emscripten.clang"
  },
  "schemaVersion": "3.4.5",
  "updatedAt": "2022-04-06T03:38:24.916Z",
  "networkType": "ethereum",
  "devdoc": {
    "kind": "dev",
    "methods": {},
    "version": 1
  },
  "userdoc": {
    "kind": "user",
    "methods": {},
    "version": 1
  }
}