{
  "contractName": "PlagiarismContract",
  "abi": [
    {
      "inputs": [],
      "payable": false,
      "stateMutability": "nonpayable",
      "type": "constructor"
    },
    {
      "anonymous": false,
      "inputs": [
        {
          "indexed": false,
          "internalType": "uint256",
          "name": "fileId",
          "type": "uint256"
        },
        {
          "indexed": false,
          "internalType": "uint256",
          "name": "fileSize",
          "type": "uint256"
        },
        {
          "indexed": false,
          "internalType": "string",
          "name": "fileIPFSHash",
          "type": "string"
        },
        {
          "indexed": false,
          "internalType": "string",
          "name": "fileName",
          "type": "string"
        },
        {
          "indexed": false,
          "internalType": "string",
          "name": "fileDescription",
          "type": "string"
        },
        {
          "indexed": false,
          "internalType": "address",
          "name": "codeAuthor",
          "type": "address"
        },
        {
          "indexed": false,
          "internalType": "uint256",
          "name": "timeUploaded",
          "type": "uint256"
        },
        {
          "indexed": false,
          "internalType": "string",
          "name": "codeFingerPrint",
          "type": "string"
        },
        {
          "indexed": false,
          "internalType": "string[]",
          "name": "hashSet",
          "type": "string[]"
        }
      ],
      "name": "CodeFileUploadEvent",
      "type": "event"
    },
    {
      "anonymous": false,
      "inputs": [
        {
          "indexed": false,
          "internalType": "bool",
          "name": "plagiarisedResult",
          "type": "bool"
        }
      ],
      "name": "PlagiarismResult",
      "type": "event"
    },
    {
      "constant": true,
      "inputs": [],
      "name": "fileCount",
      "outputs": [
        {
          "internalType": "uint256",
          "name": "",
          "type": "uint256"
        }
      ],
      "payable": false,
      "stateMutability": "view",
      "type": "function"
    },
    {
      "constant": true,
      "inputs": [
        {
          "internalType": "uint256",
          "name": "",
          "type": "uint256"
        }
      ],
      "name": "filesMap",
      "outputs": [
        {
          "internalType": "uint256",
          "name": "fileId",
          "type": "uint256"
        },
        {
          "internalType": "uint256",
          "name": "fileSize",
          "type": "uint256"
        },
        {
          "internalType": "string",
          "name": "fileIPFSHash",
          "type": "string"
        },
        {
          "internalType": "string",
          "name": "fileName",
          "type": "string"
        },
        {
          "internalType": "string",
          "name": "fileDescription",
          "type": "string"
        },
        {
          "internalType": "address",
          "name": "codeAuthor",
          "type": "address"
        },
        {
          "internalType": "uint256",
          "name": "timeUploaded",
          "type": "uint256"
        },
        {
          "internalType": "string",
          "name": "codeFingerPrint",
          "type": "string"
        }
      ],
      "payable": false,
      "stateMutability": "view",
      "type": "function"
    },
    {
      "constant": false,
      "inputs": [
        {
          "internalType": "uint256",
          "name": "_fileSize",
          "type": "uint256"
        },
        {
          "internalType": "string",
          "name": "_fileIPFSHash",
          "type": "string"
        },
        {
          "internalType": "string",
          "name": "_fileName",
          "type": "string"
        },
        {
          "internalType": "string",
          "name": "_fileDescription",
          "type": "string"
        },
        {
          "internalType": "string",
          "name": "_codeFingerPrint",
          "type": "string"
        },
        {
          "internalType": "string[]",
          "name": "_hashSet",
          "type": "string[]"
        }
      ],
      "name": "uploadFile",
      "outputs": [],
      "payable": false,
      "stateMutability": "nonpayable",
      "type": "function"
    },
    {
      "constant": true,
      "inputs": [
        {
          "internalType": "uint256",
          "name": "_fileIndex",
          "type": "uint256"
        }
      ],
      "name": "getFileByIndex",
      "outputs": [
        {
          "components": [
            {
              "internalType": "uint256",
              "name": "fileId",
              "type": "uint256"
            },
            {
              "internalType": "uint256",
              "name": "fileSize",
              "type": "uint256"
            },
            {
              "internalType": "string",
              "name": "fileIPFSHash",
              "type": "string"
            },
            {
              "internalType": "string",
              "name": "fileName",
              "type": "string"
            },
            {
              "internalType": "string",
              "name": "fileDescription",
              "type": "string"
            },
            {
              "internalType": "address",
              "name": "codeAuthor",
              "type": "address"
            },
            {
              "internalType": "uint256",
              "name": "timeUploaded",
              "type": "uint256"
            },
            {
              "internalType": "string",
              "name": "codeFingerPrint",
              "type": "string"
            },
            {
              "internalType": "string[]",
              "name": "hashSet",
              "type": "string[]"
            }
          ],
          "internalType": "struct PlagiarismContract.CodeFile",
          "name": "records",
          "type": "tuple"
        }
      ],
      "payable": false,
      "stateMutability": "view",
      "type": "function"
    }
  ],
  "bytecode": "0x60806040526000805534801561001457600080fd5b50611950806100246000396000f3fe608060405234801561001057600080fd5b506004361061004c5760003560e01c8063097694e114610051578063254f7d2d14610081578063439535191461009d578063c93bcd91146100bb575b600080fd5b61006b60048036036100669190810190610f9e565b6100f2565b6040516100789190611547565b60405180910390f35b61009b60048036036100969190810190610fc7565b610505565b005b6100a5610828565b6040516100b29190611569565b60405180910390f35b6100d560048036036100d09190810190610f9e565b61082e565b6040516100e9989796959493929190611634565b60405180910390f35b6100fa610c92565b60016000838152602001908152602001600020604051806101200160405290816000820154815260200160018201548152602001600282018054600181600116156101000203166002900480601f0160208091040260200160405190810160405280929190818152602001828054600181600116156101000203166002900480156101c65780601f1061019b576101008083540402835291602001916101c6565b820191906000526020600020905b8154815290600101906020018083116101a957829003601f168201915b50505050508152602001600382018054600181600116156101000203166002900480601f0160208091040260200160405190810160405280929190818152602001828054600181600116156101000203166002900480156102685780601f1061023d57610100808354040283529160200191610268565b820191906000526020600020905b81548152906001019060200180831161024b57829003601f168201915b50505050508152602001600482018054600181600116156101000203166002900480601f01602080910402602001604051908101604052809291908181526020018280546001816001161561010002031660029004801561030a5780601f106102df5761010080835404028352916020019161030a565b820191906000526020600020905b8154815290600101906020018083116102ed57829003601f168201915b505050505081526020016005820160009054906101000a900473ffffffffffffffffffffffffffffffffffffffff1673ffffffffffffffffffffffffffffffffffffffff1673ffffffffffffffffffffffffffffffffffffffff16815260200160068201548152602001600782018054600181600116156101000203166002900480601f01602080910402602001604051908101604052809291908181526020018280546001816001161561010002031660029004801561040c5780601f106103e15761010080835404028352916020019161040c565b820191906000526020600020905b8154815290600101906020018083116103ef57829003601f168201915b5050505050815260200160088201805480602002602001604051908101604052809291908181526020016000905b828210156104f6578382906000526020600020018054600181600116156101000203166002900480601f0160208091040260200160405190810160405280929190818152602001828054600181600116156101000203166002900480156104e25780601f106104b7576101008083540402835291602001916104e2565b820191906000526020600020905b8154815290600101906020018083116104c557829003601f168201915b50505050508152602001906001019061043a565b50505050815250509050919050565b6000855111610549576040517f08c379a0000000000000000000000000000000000000000000000000000000008152600401610540906114e7565b60405180910390fd5b600083511161058d576040517f08c379a000000000000000000000000000000000000000000000000000000000815260040161058490611527565b60405180910390fd5b60008451116105d1576040517f08c379a00000000000000000000000000000000000000000000000000000000081526004016105c890611507565b60405180910390fd5b60008611610614576040517f08c379a000000000000000000000000000000000000000000000000000000000815260040161060b906114c7565b60405180910390fd5b61061d81610af6565b1561065f577f711784307b11c5f98f3bc25170dfd6d229d797a0891cb2dd54b1fd406e60fc6d600160405161065291906114ac565b60405180910390a1610820565b600080815480929190600101919050555060405180610120016040528060005481526020018781526020018681526020018581526020018481526020013373ffffffffffffffffffffffffffffffffffffffff1681526020014281526020018381526020018281525060016000805481526020019081526020016000206000820151816000015560208201518160010155604082015181600201908051906020019061070c929190610cf4565b506060820151816003019080519060200190610729929190610cf4565b506080820151816004019080519060200190610746929190610cf4565b5060a08201518160050160006101000a81548173ffffffffffffffffffffffffffffffffffffffff021916908373ffffffffffffffffffffffffffffffffffffffff16021790555060c0820151816006015560e08201518160070190805190602001906107b4929190610cf4565b506101008201518160080190805190602001906107d2929190610d74565b509050507f13a353a011afea10f3f02988cf68745c8d65c39e4d9ba5ed33ea73114c76d85b600054878787873342898960405161081799989796959493929190611584565b60405180910390a15b505050505050565b60005481565b6001602052806000526040600020600091509050806000015490806001015490806002018054600181600116156101000203166002900480601f0160208091040260200160405190810160405280929190818152602001828054600181600116156101000203166002900480156108e65780601f106108bb576101008083540402835291602001916108e6565b820191906000526020600020905b8154815290600101906020018083116108c957829003601f168201915b505050505090806003018054600181600116156101000203166002900480601f0160208091040260200160405190810160405280929190818152602001828054600181600116156101000203166002900480156109845780601f1061095957610100808354040283529160200191610984565b820191906000526020600020905b81548152906001019060200180831161096757829003601f168201915b505050505090806004018054600181600116156101000203166002900480601f016020809104026020016040519081016040528092919081815260200182805460018160011615610100020316600290048015610a225780601f106109f757610100808354040283529160200191610a22565b820191906000526020600020905b815481529060010190602001808311610a0557829003601f168201915b5050505050908060050160009054906101000a900473ffffffffffffffffffffffffffffffffffffffff1690806006015490806007018054600181600116156101000203166002900480601f016020809104026020016040519081016040528092919081815260200182805460018160011615610100020316600290048015610aec5780601f10610ac157610100808354040283529160200191610aec565b820191906000526020600020905b815481529060010190602001808311610acf57829003601f168201915b5050505050905088565b600080610b0283610b28565b9050600080905080821115610b1c57600192505050610b23565b6000925050505b919050565b6000806000905060008090506000600190505b6000548111610b88576060610b4f82610b93565b90506000600190505b81518111610b795784841115610b6c578394505b8080600101915050610b58565b50508080600101915050610b3b565b508192505050919050565b606060016000838152602001908152602001600020600801805480602002602001604051908101604052809291908181526020016000905b82821015610c87578382906000526020600020018054600181600116156101000203166002900480601f016020809104026020016040519081016040528092919081815260200182805460018160011615610100020316600290048015610c735780601f10610c4857610100808354040283529160200191610c73565b820191906000526020600020905b815481529060010190602001808311610c5657829003601f168201915b505050505081526020019060010190610bcb565b505050509050919050565b6040518061012001604052806000815260200160008152602001606081526020016060815260200160608152602001600073ffffffffffffffffffffffffffffffffffffffff1681526020016000815260200160608152602001606081525090565b828054600181600116156101000203166002900490600052602060002090601f016020900481019282601f10610d3557805160ff1916838001178555610d63565b82800160010185558215610d63579182015b82811115610d62578251825591602001919060010190610d47565b5b509050610d709190610dd4565b5090565b828054828255906000526020600020908101928215610dc3579160200282015b82811115610dc2578251829080519060200190610db2929190610cf4565b5091602001919060010190610d94565b5b509050610dd09190610df9565b5090565b610df691905b80821115610df2576000816000905550600101610dda565b5090565b90565b610e2291905b80821115610e1e5760008181610e159190610e25565b50600101610dff565b5090565b90565b50805460018160011615610100020316600290046000825580601f10610e4b5750610e6a565b601f016020900490600052602060002090810190610e699190610dd4565b5b50565b600082601f830112610e7e57600080fd5b8135610e91610e8c826116fb565b6116ce565b9150818183526020840193506020810190508360005b83811015610ed75781358601610ebd8882610ee1565b845260208401935060208301925050600181019050610ea7565b5050505092915050565b600082601f830112610ef257600080fd5b8135610f05610f0082611723565b6116ce565b91508082526020830160208301858383011115610f2157600080fd5b610f2c8382846118a3565b50505092915050565b600082601f830112610f4657600080fd5b8135610f59610f548261174f565b6116ce565b91508082526020830160208301858383011115610f7557600080fd5b610f808382846118a3565b50505092915050565b600081359050610f98816118f6565b92915050565b600060208284031215610fb057600080fd5b6000610fbe84828501610f89565b91505092915050565b60008060008060008060c08789031215610fe057600080fd5b6000610fee89828a01610f89565b965050602087013567ffffffffffffffff81111561100b57600080fd5b61101789828a01610f35565b955050604087013567ffffffffffffffff81111561103457600080fd5b61104089828a01610f35565b945050606087013567ffffffffffffffff81111561105d57600080fd5b61106989828a01610f35565b935050608087013567ffffffffffffffff81111561108657600080fd5b61109289828a01610f35565b92505060a087013567ffffffffffffffff8111156110af57600080fd5b6110bb89828a01610e6d565b9150509295509295509295565b60006110d4838361123b565b905092915050565b6110e58161186d565b82525050565b6110f481611825565b82525050565b61110381611825565b82525050565b6000611114826117a6565b61111e81856117f2565b9350836020820285016111308561178b565b8060005b8581101561116c578484038952815161114d85826110c8565b9450611158836117d4565b925060208a01995050600181019050611134565b50829750879550505050505092915050565b60006111898261179b565b61119381856117e1565b9350836020820285016111a58561177b565b8060005b858110156111e157848403895281516111c285826110c8565b94506111cd836117c7565b925060208a019950506001810190506111a9565b50829750879550505050505092915050565b6111fc81611837565b82525050565b600061120d826117bc565b6112178185611814565b93506112278185602086016118b2565b611230816118e5565b840191505092915050565b6000611246826117b1565b6112508185611803565b93506112608185602086016118b2565b611269816118e5565b840191505092915050565b600061127f826117b1565b6112898185611814565b93506112998185602086016118b2565b6112a2816118e5565b840191505092915050565b60006112ba601283611814565b91507f436f646546696c652073697a65206973203000000000000000000000000000006000830152602082019050919050565b60006112fa601683611814565b91507f436f646546696c65204861736820697320656d707479000000000000000000006000830152602082019050919050565b600061133a601683611814565b91507f436f646546696c65206e616d6520697320656d707479000000000000000000006000830152602082019050919050565b600061137a601d83611814565b91507f436f646546696c65206465736372697074696f6e20697320656d7074790000006000830152602082019050919050565b6000610120830160008301516113c6600086018261148e565b5060208301516113d9602086018261148e565b50604083015184820360408601526113f1828261123b565b9150506060830151848203606086015261140b828261123b565b91505060808301518482036080860152611425828261123b565b91505060a083015161143a60a08601826110eb565b5060c083015161144d60c086018261148e565b5060e083015184820360e0860152611465828261123b565b915050610100830151848203610100860152611481828261117e565b9150508091505092915050565b61149781611863565b82525050565b6114a681611863565b82525050565b60006020820190506114c160008301846111f3565b92915050565b600060208201905081810360008301526114e0816112ad565b9050919050565b60006020820190508181036000830152611500816112ed565b9050919050565b600060208201905081810360008301526115208161132d565b9050919050565b600060208201905081810360008301526115408161136d565b9050919050565b6000602082019050818103600083015261156181846113ad565b905092915050565b600060208201905061157e600083018461149d565b92915050565b60006101208201905061159a600083018c61149d565b6115a7602083018b61149d565b81810360408301526115b9818a611202565b905081810360608301526115cd8189611202565b905081810360808301526115e18188611202565b90506115f060a08301876110dc565b6115fd60c083018661149d565b81810360e083015261160f8185611202565b90508181036101008301526116248184611109565b90509a9950505050505050505050565b60006101008201905061164a600083018b61149d565b611657602083018a61149d565b81810360408301526116698189611274565b9050818103606083015261167d8188611274565b905081810360808301526116918187611274565b90506116a060a08301866110fa565b6116ad60c083018561149d565b81810360e08301526116bf8184611274565b90509998505050505050505050565b6000604051905081810181811067ffffffffffffffff821117156116f157600080fd5b8060405250919050565b600067ffffffffffffffff82111561171257600080fd5b602082029050602081019050919050565b600067ffffffffffffffff82111561173a57600080fd5b601f19601f8301169050602081019050919050565b600067ffffffffffffffff82111561176657600080fd5b601f19601f8301169050602081019050919050565b6000819050602082019050919050565b6000819050602082019050919050565b600081519050919050565b600081519050919050565b600081519050919050565b600081519050919050565b6000602082019050919050565b6000602082019050919050565b600082825260208201905092915050565b600082825260208201905092915050565b600082825260208201905092915050565b600082825260208201905092915050565b600061183082611843565b9050919050565b60008115159050919050565b600073ffffffffffffffffffffffffffffffffffffffff82169050919050565b6000819050919050565b60006118788261187f565b9050919050565b600061188a82611891565b9050919050565b600061189c82611843565b9050919050565b82818337600083830152505050565b60005b838110156118d05780820151818401526020810190506118b5565b838111156118df576000848401525b50505050565b6000601f19601f8301169050919050565b6118ff81611863565b811461190a57600080fd5b5056fea365627a7a7231582090045bc5c24d9592b5db2e055b8e120a47ba6608c562e3bc09672d74b3a55f5e6c6578706572696d656e74616cf564736f6c63430005100040",
  "source": "// SPDX-License-Identifier: MIT\npragma solidity >=0.4.22 <0.9.0;\npragma experimental ABIEncoderV2;\n\n// import \"@openzeppelin/contracts-ethereum-package/contracts/GSN/GSNRecipient.sol\";\n\n\ncontract PlagiarismContract  {\n\n  struct CodeFile{\n    uint fileId;\n    uint fileSize;\n    string fileIPFSHash;\n    string fileName;\n    string fileDescription;\n    address codeAuthor;\n    uint timeUploaded;    \n    string codeFingerPrint;\n    string [] hashSet;\n  }\n\n  uint public fileCount = 0;\n  mapping(uint=>CodeFile) public filesMap;\n\n\n  event CodeFileUploadEvent(\n    uint fileId,\n    uint fileSize,\n    string fileIPFSHash,\n    string fileName,\n    string fileDescription,\n    address codeAuthor,\n    uint timeUploaded ,\n    string codeFingerPrint,\n    string [] hashSet\n  ) ;\n\n  event PlagiarismResult(\n    bool plagiarisedResult\n  );\n  constructor() public {\n  }\n\n  function uploadFile(uint _fileSize, string memory _fileIPFSHash, string memory _fileName,string memory _fileDescription, string memory _codeFingerPrint, string [] memory _hashSet) public {\n    require(bytes(_fileIPFSHash).length > 0, \"CodeFile Hash is empty\");\n\n    require(bytes(_fileDescription).length > 0, \"CodeFile description is empty\");\n\n    require(bytes(_fileName).length > 0, \"CodeFile name is empty\");\n\n    require(_fileSize>0, \"CodeFile size is 0\");\n\n    if(checkIfPlagiarised(_hashSet)){\n      emit PlagiarismResult(true);\n    }\n    else{\n      fileCount++;\n\n      filesMap[fileCount] = CodeFile(fileCount,_fileSize,_fileIPFSHash, _fileName, _fileDescription,msg.sender,block.timestamp,_codeFingerPrint,_hashSet);\n\n      emit CodeFileUploadEvent(fileCount,_fileSize,_fileIPFSHash, _fileName, _fileDescription,msg.sender,block.timestamp,_codeFingerPrint,_hashSet);\n    }\n  }\n\n    function getFileByIndex(uint _fileIndex)\n        public\n        view\n        returns (CodeFile memory records)\n    {\n        return filesMap[_fileIndex];\n    }\n\n    function getFileHashSet(uint _fileIndex) private\n        view\n        returns (string [] memory )\n    {\n        return filesMap[_fileIndex].hashSet;\n    }\n\n    function checkIfPlagiarised( string [] memory _hashSet)private  returns(bool){\n      uint similarityScore = getMaximumSimilarityScore(_hashSet);\n\n      uint thresholdSimilarity=0;\n      if(similarityScore>thresholdSimilarity)\n        return true;\n      else\n        return false;\n    }\n\n    function getMaximumSimilarityScore( string [] memory _hashSet) private returns (uint){\n      uint maxSimilarity=0;\n      uint similarity=0;\n      for(uint i=1;i<=fileCount;i++){\n        string [] memory existingFilehashSet=getFileHashSet(i);\n        for(uint j=1;j<=existingFilehashSet.length;j++){\n          //TODO\n          // uint similarity=getSimilarity();\n          if(similarity>maxSimilarity){\n            maxSimilarity=similarity;\n          }\n        }\n      }\n      return maxSimilarity;\n    }\n\n    \n\n// function increase() public {\n//         value += 1;\n//     }\n\n//     function acceptRelayedCall(\n//         address relay,\n//         address from,\n//         bytes calldata encodedFunction,\n//         uint256 transactionFee,\n//         uint256 gasPrice,\n//         uint256 gasLimit,\n//         uint256 nonce,\n//         bytes calldata approvalData,\n//         uint256 maxPossibleCharge\n//     ) external view returns (uint256, bytes memory) {\n//         return _approveRelayedCall();\n//     }\n\n\n}",
  "sourcePath": "/home/harshvardhan/Documents/Major Project/smart-contract/contracts/PlagiarismContract.sol",
  "compiler": {
    "name": "solc",
    "version": "0.5.16+commit.9c3226ce.Emscripten.clang"
  },
  "schemaVersion": "3.4.3",
  "updatedAt": "2021-12-28T16:45:44.831Z",
  "devdoc": {
    "methods": {}
  },
  "userdoc": {
    "methods": {}
  }
}