{
  "contractName": "PlagiarismContract",
  "abi": [
    {
      "anonymous": false,
      "inputs": [
        {
          "indexed": false,
          "internalType": "uint256",
          "name": "fileId",
          "type": "uint256"
        },
        {
          "indexed": false,
          "internalType": "uint256",
          "name": "fileSize",
          "type": "uint256"
        },
        {
          "indexed": false,
          "internalType": "string",
          "name": "fileIPFSCID",
          "type": "string"
        },
        {
          "indexed": false,
          "internalType": "string",
          "name": "fileName",
          "type": "string"
        },
        {
          "indexed": false,
          "internalType": "string",
          "name": "fileDescription",
          "type": "string"
        },
        {
          "indexed": false,
          "internalType": "address",
          "name": "codeAuthor",
          "type": "address"
        },
        {
          "indexed": false,
          "internalType": "uint256",
          "name": "timeUploaded",
          "type": "uint256"
        },
        {
          "indexed": false,
          "internalType": "string",
          "name": "codeFingerPrint",
          "type": "string"
        },
        {
          "indexed": false,
          "internalType": "bytes16[]",
          "name": "hashSet",
          "type": "bytes16[]"
        },
        {
          "indexed": false,
          "internalType": "uint256",
          "name": "hashSetLength",
          "type": "uint256"
        },
        {
          "indexed": false,
          "internalType": "uint256",
          "name": "language",
          "type": "uint256"
        }
      ],
      "name": "CodeFileUploadEvent",
      "type": "event"
    },
    {
      "anonymous": false,
      "inputs": [
        {
          "components": [
            {
              "internalType": "uint256",
              "name": "fileId",
              "type": "uint256"
            },
            {
              "internalType": "uint256",
              "name": "fileSize",
              "type": "uint256"
            },
            {
              "internalType": "string",
              "name": "fileIPFSCID",
              "type": "string"
            },
            {
              "internalType": "string",
              "name": "fileName",
              "type": "string"
            },
            {
              "internalType": "string",
              "name": "fileDescription",
              "type": "string"
            },
            {
              "internalType": "address",
              "name": "codeAuthor",
              "type": "address"
            },
            {
              "internalType": "uint256",
              "name": "timeUploaded",
              "type": "uint256"
            },
            {
              "internalType": "string",
              "name": "codeFingerPrint",
              "type": "string"
            },
            {
              "internalType": "bytes16[]",
              "name": "hashSet",
              "type": "bytes16[]"
            },
            {
              "internalType": "uint256",
              "name": "hashSetLength",
              "type": "uint256"
            },
            {
              "internalType": "uint256",
              "name": "language",
              "type": "uint256"
            }
          ],
          "indexed": false,
          "internalType": "struct PlagiarismContract.CodeFile[]",
          "name": "codefiles",
          "type": "tuple[]"
        }
      ],
      "name": "GetFilesEvent",
      "type": "event"
    },
    {
      "anonymous": false,
      "inputs": [
        {
          "indexed": false,
          "internalType": "bool",
          "name": "plagiarisedResult",
          "type": "bool"
        }
      ],
      "name": "PlagiarismResult",
      "type": "event"
    },
    {
      "inputs": [
        {
          "internalType": "uint256",
          "name": "",
          "type": "uint256"
        }
      ],
      "name": "fileCountByLanguage",
      "outputs": [
        {
          "internalType": "uint256",
          "name": "",
          "type": "uint256"
        }
      ],
      "stateMutability": "view",
      "type": "function",
      "constant": true
    },
    {
      "inputs": [
        {
          "internalType": "uint256",
          "name": "",
          "type": "uint256"
        },
        {
          "internalType": "uint256",
          "name": "",
          "type": "uint256"
        }
      ],
      "name": "filesMapByLanguage",
      "outputs": [
        {
          "internalType": "uint256",
          "name": "fileId",
          "type": "uint256"
        },
        {
          "internalType": "uint256",
          "name": "fileSize",
          "type": "uint256"
        },
        {
          "internalType": "string",
          "name": "fileIPFSCID",
          "type": "string"
        },
        {
          "internalType": "string",
          "name": "fileName",
          "type": "string"
        },
        {
          "internalType": "string",
          "name": "fileDescription",
          "type": "string"
        },
        {
          "internalType": "address",
          "name": "codeAuthor",
          "type": "address"
        },
        {
          "internalType": "uint256",
          "name": "timeUploaded",
          "type": "uint256"
        },
        {
          "internalType": "string",
          "name": "codeFingerPrint",
          "type": "string"
        },
        {
          "internalType": "uint256",
          "name": "hashSetLength",
          "type": "uint256"
        },
        {
          "internalType": "uint256",
          "name": "language",
          "type": "uint256"
        }
      ],
      "stateMutability": "view",
      "type": "function",
      "constant": true
    },
    {
      "inputs": [
        {
          "internalType": "uint256",
          "name": "",
          "type": "uint256"
        }
      ],
      "name": "threshold",
      "outputs": [
        {
          "internalType": "uint256",
          "name": "",
          "type": "uint256"
        }
      ],
      "stateMutability": "view",
      "type": "function",
      "constant": true
    },
    {
      "inputs": [],
      "name": "totalFileCount",
      "outputs": [
        {
          "internalType": "uint256",
          "name": "",
          "type": "uint256"
        }
      ],
      "stateMutability": "view",
      "type": "function",
      "constant": true
    },
    {
      "inputs": [
        {
          "internalType": "address",
          "name": "",
          "type": "address"
        },
        {
          "internalType": "uint256",
          "name": "",
          "type": "uint256"
        },
        {
          "internalType": "uint256",
          "name": "",
          "type": "uint256"
        }
      ],
      "name": "userFilesIndexByLanguage",
      "outputs": [
        {
          "internalType": "uint256",
          "name": "",
          "type": "uint256"
        }
      ],
      "stateMutability": "view",
      "type": "function",
      "constant": true
    },
    {
      "inputs": [],
      "name": "getFilesUploadedByUser",
      "outputs": [
        {
          "components": [
            {
              "internalType": "uint256",
              "name": "fileId",
              "type": "uint256"
            },
            {
              "internalType": "uint256",
              "name": "fileSize",
              "type": "uint256"
            },
            {
              "internalType": "string",
              "name": "fileIPFSCID",
              "type": "string"
            },
            {
              "internalType": "string",
              "name": "fileName",
              "type": "string"
            },
            {
              "internalType": "string",
              "name": "fileDescription",
              "type": "string"
            },
            {
              "internalType": "address",
              "name": "codeAuthor",
              "type": "address"
            },
            {
              "internalType": "uint256",
              "name": "timeUploaded",
              "type": "uint256"
            },
            {
              "internalType": "string",
              "name": "codeFingerPrint",
              "type": "string"
            },
            {
              "internalType": "bytes16[]",
              "name": "hashSet",
              "type": "bytes16[]"
            },
            {
              "internalType": "uint256",
              "name": "hashSetLength",
              "type": "uint256"
            },
            {
              "internalType": "uint256",
              "name": "language",
              "type": "uint256"
            }
          ],
          "internalType": "struct PlagiarismContract.CodeFile[]",
          "name": "",
          "type": "tuple[]"
        }
      ],
      "stateMutability": "view",
      "type": "function",
      "constant": true
    },
    {
      "inputs": [
        {
          "internalType": "uint256",
          "name": "_fileSize",
          "type": "uint256"
        },
        {
          "internalType": "string",
          "name": "_fileIPFSCID",
          "type": "string"
        },
        {
          "internalType": "string",
          "name": "_fileName",
          "type": "string"
        },
        {
          "internalType": "string",
          "name": "_fileDescription",
          "type": "string"
        },
        {
          "internalType": "string",
          "name": "_codeFingerPrint",
          "type": "string"
        },
        {
          "internalType": "bytes16[]",
          "name": "_hashSet",
          "type": "bytes16[]"
        },
        {
          "internalType": "uint256",
          "name": "hashSetLength",
          "type": "uint256"
        },
        {
          "internalType": "uint256",
          "name": "language",
          "type": "uint256"
        }
      ],
      "name": "uploadFile",
      "outputs": [],
      "stateMutability": "nonpayable",
      "type": "function"
    },
    {
      "inputs": [
        {
          "internalType": "uint256",
          "name": "_fileIndex",
          "type": "uint256"
        },
        {
          "internalType": "uint256",
          "name": "language",
          "type": "uint256"
        }
      ],
      "name": "getFileByIndex",
      "outputs": [
        {
          "components": [
            {
              "internalType": "uint256",
              "name": "fileId",
              "type": "uint256"
            },
            {
              "internalType": "uint256",
              "name": "fileSize",
              "type": "uint256"
            },
            {
              "internalType": "string",
              "name": "fileIPFSCID",
              "type": "string"
            },
            {
              "internalType": "string",
              "name": "fileName",
              "type": "string"
            },
            {
              "internalType": "string",
              "name": "fileDescription",
              "type": "string"
            },
            {
              "internalType": "address",
              "name": "codeAuthor",
              "type": "address"
            },
            {
              "internalType": "uint256",
              "name": "timeUploaded",
              "type": "uint256"
            },
            {
              "internalType": "string",
              "name": "codeFingerPrint",
              "type": "string"
            },
            {
              "internalType": "bytes16[]",
              "name": "hashSet",
              "type": "bytes16[]"
            },
            {
              "internalType": "uint256",
              "name": "hashSetLength",
              "type": "uint256"
            },
            {
              "internalType": "uint256",
              "name": "language",
              "type": "uint256"
            }
          ],
          "internalType": "struct PlagiarismContract.CodeFile",
          "name": "records",
          "type": "tuple"
        }
      ],
      "stateMutability": "view",
      "type": "function",
      "constant": true
    },
    {
      "inputs": [
        {
          "internalType": "bytes16[]",
          "name": "_hashSet",
          "type": "bytes16[]"
        },
        {
          "internalType": "uint256",
          "name": "hashSetLength",
          "type": "uint256"
        },
        {
          "internalType": "uint256",
          "name": "language",
          "type": "uint256"
        }
      ],
      "name": "checkIfPlagiarised",
      "outputs": [
        {
          "internalType": "bool",
          "name": "",
          "type": "bool"
        }
      ],
      "stateMutability": "view",
      "type": "function",
      "constant": true
    },
    {
      "inputs": [
        {
          "internalType": "bytes16[]",
          "name": "list1",
          "type": "bytes16[]"
        },
        {
          "internalType": "bytes16[]",
          "name": "list2",
          "type": "bytes16[]"
        },
        {
          "internalType": "uint256",
          "name": "setLength1",
          "type": "uint256"
        },
        {
          "internalType": "uint256",
          "name": "setLength2",
          "type": "uint256"
        }
      ],
      "name": "getCommonElementsCount",
      "outputs": [
        {
          "internalType": "uint256",
          "name": "",
          "type": "uint256"
        }
      ],
      "stateMutability": "pure",
      "type": "function",
      "constant": true
    },
    {
      "inputs": [
        {
          "internalType": "bytes16[]",
          "name": "l1",
          "type": "bytes16[]"
        },
        {
          "internalType": "bytes16[]",
          "name": "l2",
          "type": "bytes16[]"
        },
        {
          "internalType": "uint256",
          "name": "l1OriLength",
          "type": "uint256"
        },
        {
          "internalType": "uint256",
          "name": "l2OriLength",
          "type": "uint256"
        }
      ],
      "name": "calculateSimilarityScore",
      "outputs": [
        {
          "internalType": "uint256",
          "name": "",
          "type": "uint256"
        }
      ],
      "stateMutability": "pure",
      "type": "function",
      "constant": true
    }
  ],
  "bytecode": "0x60806040526040518060600160405280600060ff168152602001600060ff168152602001600060ff1681525060009060036200003d92919062000091565b5060006001556040518060600160405280601e60ff168152602001601e60ff168152602001601e60ff1681525060029060036200007c92919062000091565b503480156200008a57600080fd5b5062000107565b828054828255906000526020600020908101928215620000d5579160200282015b82811115620000d4578251829060ff16905591602001919060010190620000b2565b5b509050620000e49190620000e8565b5090565b5b8082111562000103576000816000905550600101620000e9565b5090565b6125bb80620001176000396000f3fe608060405234801561001057600080fd5b50600436106100a95760003560e01c8063637ffb7711610071578063637ffb77146101955780637f9d4b4a146101c557806397f42b1a146101e35780639ecefadc14610213578063ca749bec14610243578063ee7e64f71461025f576100a9565b80630641e449146100ae5780630d665ad1146100de57806331eb7a1a1461010e57806351887b711461013e57806360ff2aac1461015c575b600080fd5b6100c860048036038101906100c39190611841565b61028f565b6040516100d59190611ed6565b60405180910390f35b6100f860048036038101906100f39190611733565b6102b3565b6040516101059190611ed6565b60405180910390f35b61012860048036038101906101239190611841565b610305565b6040516101359190611ed6565b60405180910390f35b610146610329565b6040516101539190611e77565b60405180910390f35b610176600480360381019061017191906119b0565b6106f7565b60405161018c9a99989796959493929190611fbf565b60405180910390f35b6101af60048036038101906101aa91906117d2565b610998565b6040516101bc9190611e99565b60405180910390f35b6101cd610a4b565b6040516101da9190611ed6565b60405180910390f35b6101fd60048036038101906101f891906116e0565b610a51565b60405161020a9190611ed6565b60405180910390f35b61022d60048036038101906102289190611733565b610a8f565b60405161023a9190611ed6565b60405180910390f35b61025d6004803603810190610258919061186e565b610b55565b005b610279600480360381019061027491906119b0565b610f35565b6040516102869190611eb4565b60405180910390f35b6000818154811061029f57600080fd5b906000526020600020016000915090505481565b6000806102c4868688518851610a8f565b905060008184866102d591906121b4565b6102df9190612295565b9050806064836102ef919061223b565b6102f9919061220a565b92505050949350505050565b6002818154811061031557600080fd5b906000526020600020016000915090505481565b60606000600460003373ffffffffffffffffffffffffffffffffffffffff1673ffffffffffffffffffffffffffffffffffffffff16815260200190815260200160002060008081526020019081526020016000208054905090506000600460003373ffffffffffffffffffffffffffffffffffffffff1673ffffffffffffffffffffffffffffffffffffffff1681526020019081526020016000206000600181526020019081526020016000208054905090506000600460003373ffffffffffffffffffffffffffffffffffffffff1673ffffffffffffffffffffffffffffffffffffffff168152602001908152602001600020600060028152602001908152602001600020805490509050600081838561044491906121b4565b61044e91906121b4565b67ffffffffffffffff811115610467576104666124e7565b5b6040519080825280602002602001820160405280156104a057816020015b61048d6113bb565b8152602001906001900390816104855790505b5090506000805b8581101561056557610526600460003373ffffffffffffffffffffffffffffffffffffffff1673ffffffffffffffffffffffffffffffffffffffff16815260200190815260200160002060008081526020019081526020016000208281548110610514576105136124b8565b5b90600052602060002001546000610f35565b838381518110610539576105386124b8565b5b6020026020010181905250818061054f906123e2565b925050808061055d906123e2565b9150506104a7565b5060005b84811015610628576105e9600460003373ffffffffffffffffffffffffffffffffffffffff1673ffffffffffffffffffffffffffffffffffffffff16815260200190815260200160002060006001815260200190815260200160002082815481106105d7576105d66124b8565b5b90600052602060002001546001610f35565b8383815181106105fc576105fb6124b8565b5b60200260200101819052508180610612906123e2565b9250508080610620906123e2565b915050610569565b5060005b838110156106eb576106ac600460003373ffffffffffffffffffffffffffffffffffffffff1673ffffffffffffffffffffffffffffffffffffffff168152602001908152602001600020600060028152602001908152602001600020828154811061069a576106996124b8565b5b90600052602060002001546002610f35565b8383815181106106bf576106be6124b8565b5b602002602001018190525081806106d5906123e2565b92505080806106e3906123e2565b91505061062c565b50819550505050505090565b6003602052816000526040600020602052806000526040600020600091509150508060000154908060010154908060020180546107339061237f565b80601f016020809104026020016040519081016040528092919081815260200182805461075f9061237f565b80156107ac5780601f10610781576101008083540402835291602001916107ac565b820191906000526020600020905b81548152906001019060200180831161078f57829003601f168201915b5050505050908060030180546107c19061237f565b80601f01602080910402602001604051908101604052809291908181526020018280546107ed9061237f565b801561083a5780601f1061080f5761010080835404028352916020019161083a565b820191906000526020600020905b81548152906001019060200180831161081d57829003601f168201915b50505050509080600401805461084f9061237f565b80601f016020809104026020016040519081016040528092919081815260200182805461087b9061237f565b80156108c85780601f1061089d576101008083540402835291602001916108c8565b820191906000526020600020905b8154815290600101906020018083116108ab57829003601f168201915b5050505050908060050160009054906101000a900473ffffffffffffffffffffffffffffffffffffffff16908060060154908060070180546109099061237f565b80601f01602080910402602001604051908101604052809291908181526020018280546109359061237f565b80156109825780601f1061095757610100808354040283529160200191610982565b820191906000526020600020905b81548152906001019060200180831161096557829003601f168201915b50505050509080600901549080600a015490508a565b600080600090506000600190505b600084815481106109ba576109b96124b8565b5b90600052602060002001548111610a3d5760006109d782866112d3565b905060006109e58387611389565b90506109f3888389846102b3565b935060028681548110610a0957610a086124b8565b5b9060005260206000200154841115610a28576001945050505050610a44565b50508080610a35906123e2565b9150506109a6565b5060009150505b9392505050565b60015481565b60046020528260005260406000206020528160005260406000208181548110610a7957600080fd5b9060005260206000200160009250925050505481565b6000806000905060005b84811015610b485760005b84811015610b3457868181518110610abf57610abe6124b8565b5b60200260200101516fffffffffffffffffffffffffffffffff1916888381518110610aed57610aec6124b8565b5b60200260200101516fffffffffffffffffffffffffffffffff19161415610b21578280610b19906123e2565b935050610b34565b8080610b2c906123e2565b915050610aa4565b508080610b40906123e2565b915050610a99565b5080915050949350505050565b60011515600588604051610b699190611e60565b908152602001604051809103902060009054906101000a900460ff1615151415610bca577f711784307b11c5f98f3bc25170dfd6d229d797a0891cb2dd54b1fd406e60fc6d6001604051610bbd9190611e99565b60405180910390a1610f2b565b610bd5838383610998565b15610c17577f711784307b11c5f98f3bc25170dfd6d229d797a0891cb2dd54b1fd406e60fc6d6001604051610c0a9190611e99565b60405180910390a1610f2a565b60008181548110610c2b57610c2a6124b8565b5b906000526020600020016000815480929190610c46906123e2565b919050555060016000815480929190610c5e906123e2565b919050555060011515600588604051610c779190611e60565b908152602001604051809103902060009054906101000a9050505060405180610160016040528060015481526020018981526020018881526020018781526020018681526020013373ffffffffffffffffffffffffffffffffffffffff16815260200142815260200185815260200184815260200183815260200182815250600360008381526020019081526020016000206000808481548110610d1e57610d1d6124b8565b5b9060005260206000200154815260200190815260200160002060008201518160000155602082015181600101556040820151816002019080519060200190610d6792919061142b565b506060820151816003019080519060200190610d8492919061142b565b506080820151816004019080519060200190610da192919061142b565b5060a08201518160050160006101000a81548173ffffffffffffffffffffffffffffffffffffffff021916908373ffffffffffffffffffffffffffffffffffffffff16021790555060c0820151816006015560e0820151816007019080519060200190610e0f92919061142b565b50610100820151816008019080519060200190610e2d9291906114b1565b50610120820151816009015561014082015181600a0155905050600460003373ffffffffffffffffffffffffffffffffffffffff1673ffffffffffffffffffffffffffffffffffffffff168152602001908152602001600020600082815260200190815260200160002060008281548110610eab57610eaa6124b8565b5b906000526020600020015490806001815401808255809150506001900390600052602060002001600090919091909150557f3f57d78cc64cf92f6e3395a2500653142d55d8ccce3c2822cc104fc2f7aa7fbb6001548989898933428b8b8b8b604051610f219b9a99989796959493929190611ef1565b60405180910390a15b5b5050505050505050565b610f3d6113bb565b600360008381526020019081526020016000206000848152602001908152602001600020604051806101600160405290816000820154815260200160018201548152602001600282018054610f919061237f565b80601f0160208091040260200160405190810160405280929190818152602001828054610fbd9061237f565b801561100a5780601f10610fdf5761010080835404028352916020019161100a565b820191906000526020600020905b815481529060010190602001808311610fed57829003601f168201915b505050505081526020016003820180546110239061237f565b80601f016020809104026020016040519081016040528092919081815260200182805461104f9061237f565b801561109c5780601f106110715761010080835404028352916020019161109c565b820191906000526020600020905b81548152906001019060200180831161107f57829003601f168201915b505050505081526020016004820180546110b59061237f565b80601f01602080910402602001604051908101604052809291908181526020018280546110e19061237f565b801561112e5780601f106111035761010080835404028352916020019161112e565b820191906000526020600020905b81548152906001019060200180831161111157829003601f168201915b505050505081526020016005820160009054906101000a900473ffffffffffffffffffffffffffffffffffffffff1673ffffffffffffffffffffffffffffffffffffffff1673ffffffffffffffffffffffffffffffffffffffff168152602001600682015481526020016007820180546111a79061237f565b80601f01602080910402602001604051908101604052809291908181526020018280546111d39061237f565b80156112205780601f106111f557610100808354040283529160200191611220565b820191906000526020600020905b81548152906001019060200180831161120357829003601f168201915b50505050508152602001600882018054806020026020016040519081016040528092919081815260200182805480156112ae57602002820191906000526020600020906000905b82829054906101000a900460801b6fffffffffffffffffffffffffffffffff191681526020019060100190602082600f010492830192600103820291508084116112675790505b5050505050815260200160098201548152602001600a82015481525050905092915050565b606060036000838152602001908152602001600020600084815260200190815260200160002060080180548060200260200160405190810160405280929190818152602001828054801561137c57602002820191906000526020600020906000905b82829054906101000a900460801b6fffffffffffffffffffffffffffffffff191681526020019060100190602082600f010492830192600103820291508084116113355790505b5050505050905092915050565b600060036000838152602001908152602001600020600084815260200190815260200160002060090154905092915050565b6040518061016001604052806000815260200160008152602001606081526020016060815260200160608152602001600073ffffffffffffffffffffffffffffffffffffffff16815260200160008152602001606081526020016060815260200160008152602001600081525090565b8280546114379061237f565b90600052602060002090601f01602090048101928261145957600085556114a0565b82601f1061147257805160ff19168380011785556114a0565b828001600101855582156114a0579182015b8281111561149f578251825591602001919060010190611484565b5b5090506114ad9190611576565b5090565b828054828255906000526020600020906001016002900481019282156115655791602002820160005b8382111561152757835183826101000a8154816fffffffffffffffffffffffffffffffff021916908360801c02179055509260200192601001602081600f010492830192600103026114da565b80156115635782816101000a8154906fffffffffffffffffffffffffffffffff0219169055601001602081600f01049283019260010302611527565b505b5090506115729190611576565b5090565b5b8082111561158f576000816000905550600101611577565b5090565b60006115a66115a18461209c565b612077565b905080838252602082019050828560208602820111156115c9576115c861251b565b5b60005b858110156115f957816115df8882611688565b8452602084019350602083019250506001810190506115cc565b5050509392505050565b6000611616611611846120c8565b612077565b90508281526020810184848401111561163257611631612520565b5b61163d84828561233d565b509392505050565b60008135905061165481612540565b92915050565b600082601f83011261166f5761166e612516565b5b813561167f848260208601611593565b91505092915050565b60008135905061169781612557565b92915050565b600082601f8301126116b2576116b1612516565b5b81356116c2848260208601611603565b91505092915050565b6000813590506116da8161256e565b92915050565b6000806000606084860312156116f9576116f861252a565b5b600061170786828701611645565b9350506020611718868287016116cb565b9250506040611729868287016116cb565b9150509250925092565b6000806000806080858703121561174d5761174c61252a565b5b600085013567ffffffffffffffff81111561176b5761176a612525565b5b6117778782880161165a565b945050602085013567ffffffffffffffff81111561179857611797612525565b5b6117a48782880161165a565b93505060406117b5878288016116cb565b92505060606117c6878288016116cb565b91505092959194509250565b6000806000606084860312156117eb576117ea61252a565b5b600084013567ffffffffffffffff81111561180957611808612525565b5b6118158682870161165a565b9350506020611826868287016116cb565b9250506040611837868287016116cb565b9150509250925092565b6000602082840312156118575761185661252a565b5b6000611865848285016116cb565b91505092915050565b600080600080600080600080610100898b03121561188f5761188e61252a565b5b600061189d8b828c016116cb565b985050602089013567ffffffffffffffff8111156118be576118bd612525565b5b6118ca8b828c0161169d565b975050604089013567ffffffffffffffff8111156118eb576118ea612525565b5b6118f78b828c0161169d565b965050606089013567ffffffffffffffff81111561191857611917612525565b5b6119248b828c0161169d565b955050608089013567ffffffffffffffff81111561194557611944612525565b5b6119518b828c0161169d565b94505060a089013567ffffffffffffffff81111561197257611971612525565b5b61197e8b828c0161165a565b93505060c061198f8b828c016116cb565b92505060e06119a08b828c016116cb565b9150509295985092959890939650565b600080604083850312156119c7576119c661252a565b5b60006119d5858286016116cb565b92505060206119e6858286016116cb565b9150509250929050565b60006119fc8383611b7a565b60208301905092915050565b6000611a148383611c2c565b905092915050565b611a25816122c9565b82525050565b611a34816122c9565b82525050565b6000611a4582612119565b611a4f8185612154565b9350611a5a836120f9565b8060005b83811015611a8b578151611a7288826119f0565b9750611a7d8361213a565b925050600181019050611a5e565b5085935050505092915050565b6000611aa382612119565b611aad8185612165565b9350611ab8836120f9565b8060005b83811015611ae9578151611ad088826119f0565b9750611adb8361213a565b925050600181019050611abc565b5085935050505092915050565b6000611b0182612124565b611b0b8185612176565b935083602082028501611b1d85612109565b8060005b85811015611b595784840389528151611b3a8582611a08565b9450611b4583612147565b925060208a01995050600181019050611b21565b50829750879550505050505092915050565b611b74816122db565b82525050565b611b83816122e7565b82525050565b6000611b948261212f565b611b9e8185612187565b9350611bae81856020860161234c565b611bb78161252f565b840191505092915050565b6000611bcd8261212f565b611bd78185612198565b9350611be781856020860161234c565b611bf08161252f565b840191505092915050565b6000611c068261212f565b611c1081856121a9565b9350611c2081856020860161234c565b80840191505092915050565b600061016083016000830151611c456000860182611e42565b506020830151611c586020860182611e42565b5060408301518482036040860152611c708282611b89565b91505060608301518482036060860152611c8a8282611b89565b91505060808301518482036080860152611ca48282611b89565b91505060a0830151611cb960a0860182611a1c565b5060c0830151611ccc60c0860182611e42565b5060e083015184820360e0860152611ce48282611b89565b915050610100830151848203610100860152611d008282611a3a565b915050610120830151611d17610120860182611e42565b50610140830151611d2c610140860182611e42565b508091505092915050565b600061016083016000830151611d506000860182611e42565b506020830151611d636020860182611e42565b5060408301518482036040860152611d7b8282611b89565b91505060608301518482036060860152611d958282611b89565b91505060808301518482036080860152611daf8282611b89565b91505060a0830151611dc460a0860182611a1c565b5060c0830151611dd760c0860182611e42565b5060e083015184820360e0860152611def8282611b89565b915050610100830151848203610100860152611e0b8282611a3a565b915050610120830151611e22610120860182611e42565b50610140830151611e37610140860182611e42565b508091505092915050565b611e4b81612333565b82525050565b611e5a81612333565b82525050565b6000611e6c8284611bfb565b915081905092915050565b60006020820190508181036000830152611e918184611af6565b905092915050565b6000602082019050611eae6000830184611b6b565b92915050565b60006020820190508181036000830152611ece8184611d37565b905092915050565b6000602082019050611eeb6000830184611e51565b92915050565b600061016082019050611f07600083018e611e51565b611f14602083018d611e51565b8181036040830152611f26818c611bc2565b90508181036060830152611f3a818b611bc2565b90508181036080830152611f4e818a611bc2565b9050611f5d60a0830189611a2b565b611f6a60c0830188611e51565b81810360e0830152611f7c8187611bc2565b9050818103610100830152611f918186611a98565b9050611fa1610120830185611e51565b611faf610140830184611e51565b9c9b505050505050505050505050565b600061014082019050611fd5600083018d611e51565b611fe2602083018c611e51565b8181036040830152611ff4818b611bc2565b90508181036060830152612008818a611bc2565b9050818103608083015261201c8189611bc2565b905061202b60a0830188611a2b565b61203860c0830187611e51565b81810360e083015261204a8186611bc2565b905061205a610100830185611e51565b612068610120830184611e51565b9b9a5050505050505050505050565b6000612081612092565b905061208d82826123b1565b919050565b6000604051905090565b600067ffffffffffffffff8211156120b7576120b66124e7565b5b602082029050602081019050919050565b600067ffffffffffffffff8211156120e3576120e26124e7565b5b6120ec8261252f565b9050602081019050919050565b6000819050602082019050919050565b6000819050602082019050919050565b600081519050919050565b600081519050919050565b600081519050919050565b6000602082019050919050565b6000602082019050919050565b600082825260208201905092915050565b600082825260208201905092915050565b600082825260208201905092915050565b600082825260208201905092915050565b600082825260208201905092915050565b600081905092915050565b60006121bf82612333565b91506121ca83612333565b9250827fffffffffffffffffffffffffffffffffffffffffffffffffffffffffffffffff038211156121ff576121fe61242b565b5b828201905092915050565b600061221582612333565b915061222083612333565b9250826122305761222f61245a565b5b828204905092915050565b600061224682612333565b915061225183612333565b9250817fffffffffffffffffffffffffffffffffffffffffffffffffffffffffffffffff048311821515161561228a5761228961242b565b5b828202905092915050565b60006122a082612333565b91506122ab83612333565b9250828210156122be576122bd61242b565b5b828203905092915050565b60006122d482612313565b9050919050565b60008115159050919050565b60007fffffffffffffffffffffffffffffffff0000000000000000000000000000000082169050919050565b600073ffffffffffffffffffffffffffffffffffffffff82169050919050565b6000819050919050565b82818337600083830152505050565b60005b8381101561236a57808201518184015260208101905061234f565b83811115612379576000848401525b50505050565b6000600282049050600182168061239757607f821691505b602082108114156123ab576123aa612489565b5b50919050565b6123ba8261252f565b810181811067ffffffffffffffff821117156123d9576123d86124e7565b5b80604052505050565b60006123ed82612333565b91507fffffffffffffffffffffffffffffffffffffffffffffffffffffffffffffffff8214156124205761241f61242b565b5b600182019050919050565b7f4e487b7100000000000000000000000000000000000000000000000000000000600052601160045260246000fd5b7f4e487b7100000000000000000000000000000000000000000000000000000000600052601260045260246000fd5b7f4e487b7100000000000000000000000000000000000000000000000000000000600052602260045260246000fd5b7f4e487b7100000000000000000000000000000000000000000000000000000000600052603260045260246000fd5b7f4e487b7100000000000000000000000000000000000000000000000000000000600052604160045260246000fd5b600080fd5b600080fd5b600080fd5b600080fd5b600080fd5b6000601f19601f8301169050919050565b612549816122c9565b811461255457600080fd5b50565b612560816122e7565b811461256b57600080fd5b50565b61257781612333565b811461258257600080fd5b5056fea264697066735822122024aafa9fb652792e085cb48f062959dd75dafcec2f44bf52c713c0729c2d445764736f6c63430008060033",
  "immutableReferences": {},
  "source": "// SPDX-License-Identifier: MIT\npragma solidity >=0.4.22 <0.9.0;\n\n\n\n\ncontract PlagiarismContract \n{\n/**\nlanguages\n0: CPP\n1: Java\n2: JavaScript\n */\n\n  struct CodeFile{\n    uint fileId;\n    uint fileSize;\n    string fileIPFSCID;\n    string fileName;\n    string fileDescription;\n    address codeAuthor;\n    uint timeUploaded;    \n    string codeFingerPrint;\n    bytes16 [] hashSet;\n    uint hashSetLength;\n    uint language;\n  }\n  uint[] public fileCountByLanguage = [0,0,0];\n  uint public totalFileCount=0;\n\n\n  //TODO: Use actual threshold\n  uint[] public threshold=[30,30,30];\n\n\n  mapping(uint=>mapping(uint=>CodeFile)) public filesMapByLanguage;\n\n  mapping(address=>mapping(uint=>uint[])) public userFilesIndexByLanguage;\n\n  mapping(string=>bool)IPFSCIDsMap;\n\n\n  event CodeFileUploadEvent(\n    uint fileId,\n    uint fileSize,\n    string fileIPFSCID,\n    string fileName,\n    string fileDescription,\n    address codeAuthor,\n    uint timeUploaded ,\n    string codeFingerPrint,\n    bytes16 [] hashSet,\n    uint hashSetLength,\n    uint language\n  ) ;\n\n  event GetFilesEvent(\n    CodeFile[] codefiles\n  );\n\n  event PlagiarismResult(\n    bool plagiarisedResult\n  );\n\n\n//getUploaded files\n// different maps for different langiages\n// map to check if same file\n//reject if any file has higher similarity score than threshold\n\n\n  function getFilesUploadedByUser()public view returns (CodeFile[] memory){\n    uint cppFileCount=userFilesIndexByLanguage[msg.sender][0].length;\n    uint javaFileCount=userFilesIndexByLanguage[msg.sender][1].length;\n    uint javaScriptFileCount=userFilesIndexByLanguage[msg.sender][2].length;\n\n    CodeFile[] memory listOfFiles = new CodeFile[](cppFileCount+javaFileCount+javaScriptFileCount);   \n\n    uint currentCount=0;\n    for(uint i=0;i<cppFileCount;i++){\n      listOfFiles[currentCount]=getFileByIndex(userFilesIndexByLanguage[msg.sender][0][i],0);\n      currentCount++;\n    }    \n    for(uint i=0;i<javaFileCount;i++){\n      listOfFiles[currentCount]=getFileByIndex(userFilesIndexByLanguage[msg.sender][1][i],1);\n      currentCount++;\n    }\n    for(uint i=0;i<javaScriptFileCount;i++){\n      listOfFiles[currentCount]=getFileByIndex(userFilesIndexByLanguage[msg.sender][2][i],2);\n      currentCount++;\n    }\n    return listOfFiles;\n\n  }\n  function uploadFile(uint _fileSize, string memory  _fileIPFSCID, string memory  _fileName,string memory  _fileDescription, string memory  _codeFingerPrint, bytes16 [] memory _hashSet, uint hashSetLength, uint language) public {\n\n    // Returns if same file is uploaded\n    if(IPFSCIDsMap[_fileIPFSCID]==true){\n      emit PlagiarismResult(true);\n    }\n    else if(checkIfPlagiarised(_hashSet,hashSetLength,language)){\n      emit PlagiarismResult(true);\n    }\n    else{\n      fileCountByLanguage[language]++;\n      totalFileCount++;\n      IPFSCIDsMap[_fileIPFSCID]==true;\n      filesMapByLanguage[language][fileCountByLanguage[language]] = CodeFile(totalFileCount,_fileSize,_fileIPFSCID, _fileName, _fileDescription,msg.sender,block.timestamp,_codeFingerPrint,_hashSet,hashSetLength,language);\n      userFilesIndexByLanguage[msg.sender][language].push(fileCountByLanguage[language]);\n      emit CodeFileUploadEvent(totalFileCount,_fileSize,_fileIPFSCID, _fileName, _fileDescription,msg.sender,block.timestamp,_codeFingerPrint,_hashSet,hashSetLength,language);\n    }\n  }\n\n    function getFileByIndex(uint _fileIndex,uint language)\n        public\n        view\n        returns (CodeFile memory records)\n    {\n        return filesMapByLanguage[language][_fileIndex];\n    }\n\n    function getFileHashSet(uint _fileIndex, uint language) private\n        view\n        returns (bytes16 [] memory )\n    {\n        return filesMapByLanguage[language][_fileIndex].hashSet;\n    }\n\n    function getFileHashSetLength(uint _fileIndex,uint language) private\n        view\n        returns (uint )\n    {\n        return filesMapByLanguage[language][_fileIndex].hashSetLength;\n    }\n    function checkIfPlagiarised( bytes16 [] memory _hashSet, uint hashSetLength,uint language)public view returns(bool){\n\n      uint similarity=0;\n\n      for(uint i=1;i<=fileCountByLanguage[language];i++){\n        bytes16 [] memory existingFilehashSet=getFileHashSet(i,language);\n        uint existingFilehashSetLength=getFileHashSetLength(i,language);\n        similarity=calculateSimilarityScore(_hashSet,existingFilehashSet,hashSetLength,existingFilehashSetLength);\n        if(similarity>threshold[language]){\n          return true;\n        }\n      }\n      \n      return false;\n    }\n\n    // function getMaximumSimilarityScore( bytes16 [] memory _hashSet, uint oriHashSetLength,uint language) public view returns (uint){\n    //   uint similarity=0;\n\n    //   for(uint i=1;i<=fileCountByLanguage[language];i++){\n    //     bytes16 [] memory existingFilehashSet=getFileHashSet(i,language);\n    //     uint existingFilehashSetLength=getFileHashSetLength(i,language);\n    //     similarity=calculateSimilarityScore(_hashSet,existingFilehashSet,oriHashSetLength,existingFilehashSetLength);\n    //     if(similarity>threshold){\n    //       break;\n    //     }\n    //   }\n    //   return similarity;\n    // }\n\n \n    \n    function getCommonElementsCount(bytes16[] memory list1, bytes16[] memory list2,uint setLength1,uint setLength2) public pure returns (uint){\n\n        uint commonElementsCount=0;\n        for(uint i=0;i< setLength1;i++){\n            for(uint j=0;j<setLength2;j++){\n                if(list1[i]==list2[j]){\n                    commonElementsCount++;\n                    break;\n                }\n            }\n        }\n        return commonElementsCount;\n    }\n\n    function calculateSimilarityScore(bytes16[] memory l1, bytes16[] memory l2, uint l1OriLength, uint l2OriLength) public pure returns(uint){\n\n      uint commonElementsCount = getCommonElementsCount(l1,l2,l1.length,l2.length);\n      uint unionCount=l1OriLength+l2OriLength-commonElementsCount;        \n      \n      return commonElementsCount*100/unionCount;\n    } \n}",
  "sourcePath": "/home/harshvardhan/Documents/Major_Project/smart-contract/contracts/PlagiarismContract.sol",
  "compiler": {
    "name": "solc",
    "version": "0.8.6+commit.11564f7e.Emscripten.clang"
  },
  "schemaVersion": "3.4.5",
  "updatedAt": "2022-03-21T19:46:04.558Z",
  "networkType": "ethereum",
  "devdoc": {
    "kind": "dev",
    "methods": {},
    "version": 1
  },
  "userdoc": {
    "kind": "user",
    "methods": {},
    "version": 1
  }
}