{
  "contractName": "PlagiarismContract",
  "abi": [
    {
      "anonymous": false,
      "inputs": [
        {
          "indexed": false,
          "internalType": "uint256",
          "name": "fileId",
          "type": "uint256"
        },
        {
          "indexed": false,
          "internalType": "uint256",
          "name": "fileSize",
          "type": "uint256"
        },
        {
          "indexed": false,
          "internalType": "string",
          "name": "fileIPFSHash",
          "type": "string"
        },
        {
          "indexed": false,
          "internalType": "string",
          "name": "fileName",
          "type": "string"
        },
        {
          "indexed": false,
          "internalType": "string",
          "name": "fileDescription",
          "type": "string"
        },
        {
          "indexed": false,
          "internalType": "address",
          "name": "codeAuthor",
          "type": "address"
        },
        {
          "indexed": false,
          "internalType": "uint256",
          "name": "timeUploaded",
          "type": "uint256"
        },
        {
          "indexed": false,
          "internalType": "string",
          "name": "codeFingerPrint",
          "type": "string"
        },
        {
          "indexed": false,
          "internalType": "string[]",
          "name": "hashSet",
          "type": "string[]"
        }
      ],
      "name": "CodeFileUploadEvent",
      "type": "event"
    },
    {
      "anonymous": false,
      "inputs": [
        {
          "indexed": false,
          "internalType": "bool",
          "name": "plagiarisedResult",
          "type": "bool"
        }
      ],
      "name": "PlagiarismResult",
      "type": "event"
    },
    {
      "inputs": [],
      "name": "fileCount",
      "outputs": [
        {
          "internalType": "uint256",
          "name": "",
          "type": "uint256"
        }
      ],
      "stateMutability": "view",
      "type": "function",
      "constant": true
    },
    {
      "inputs": [
        {
          "internalType": "uint256",
          "name": "",
          "type": "uint256"
        }
      ],
      "name": "filesMap",
      "outputs": [
        {
          "internalType": "uint256",
          "name": "fileId",
          "type": "uint256"
        },
        {
          "internalType": "uint256",
          "name": "fileSize",
          "type": "uint256"
        },
        {
          "internalType": "string",
          "name": "fileIPFSHash",
          "type": "string"
        },
        {
          "internalType": "string",
          "name": "fileName",
          "type": "string"
        },
        {
          "internalType": "string",
          "name": "fileDescription",
          "type": "string"
        },
        {
          "internalType": "address",
          "name": "codeAuthor",
          "type": "address"
        },
        {
          "internalType": "uint256",
          "name": "timeUploaded",
          "type": "uint256"
        },
        {
          "internalType": "string",
          "name": "codeFingerPrint",
          "type": "string"
        }
      ],
      "stateMutability": "view",
      "type": "function",
      "constant": true
    },
    {
      "inputs": [
        {
          "internalType": "address",
          "name": "forwarder",
          "type": "address"
        }
      ],
      "name": "isTrustedForwarder",
      "outputs": [
        {
          "internalType": "bool",
          "name": "",
          "type": "bool"
        }
      ],
      "stateMutability": "view",
      "type": "function",
      "constant": true
    },
    {
      "inputs": [],
      "name": "trustedForwarder",
      "outputs": [
        {
          "internalType": "address",
          "name": "",
          "type": "address"
        }
      ],
      "stateMutability": "view",
      "type": "function",
      "constant": true
    },
    {
      "inputs": [],
      "name": "versionRecipient",
      "outputs": [
        {
          "internalType": "string",
          "name": "",
          "type": "string"
        }
      ],
      "stateMutability": "view",
      "type": "function",
      "constant": true
    },
    {
      "inputs": [
        {
          "internalType": "uint256",
          "name": "_fileSize",
          "type": "uint256"
        },
        {
          "internalType": "string",
          "name": "_fileIPFSHash",
          "type": "string"
        },
        {
          "internalType": "string",
          "name": "_fileName",
          "type": "string"
        },
        {
          "internalType": "string",
          "name": "_fileDescription",
          "type": "string"
        },
        {
          "internalType": "string",
          "name": "_codeFingerPrint",
          "type": "string"
        },
        {
          "internalType": "string[]",
          "name": "_hashSet",
          "type": "string[]"
        }
      ],
      "name": "uploadFile",
      "outputs": [],
      "stateMutability": "nonpayable",
      "type": "function"
    },
    {
      "inputs": [
        {
          "internalType": "uint256",
          "name": "_fileIndex",
          "type": "uint256"
        }
      ],
      "name": "getFileByIndex",
      "outputs": [
        {
          "components": [
            {
              "internalType": "uint256",
              "name": "fileId",
              "type": "uint256"
            },
            {
              "internalType": "uint256",
              "name": "fileSize",
              "type": "uint256"
            },
            {
              "internalType": "string",
              "name": "fileIPFSHash",
              "type": "string"
            },
            {
              "internalType": "string",
              "name": "fileName",
              "type": "string"
            },
            {
              "internalType": "string",
              "name": "fileDescription",
              "type": "string"
            },
            {
              "internalType": "address",
              "name": "codeAuthor",
              "type": "address"
            },
            {
              "internalType": "uint256",
              "name": "timeUploaded",
              "type": "uint256"
            },
            {
              "internalType": "string",
              "name": "codeFingerPrint",
              "type": "string"
            },
            {
              "internalType": "string[]",
              "name": "hashSet",
              "type": "string[]"
            }
          ],
          "internalType": "struct PlagiarismContract.CodeFile",
          "name": "records",
          "type": "tuple"
        }
      ],
      "stateMutability": "view",
      "type": "function",
      "constant": true
    },
    {
      "inputs": [
        {
          "internalType": "string[]",
          "name": "_hashSet",
          "type": "string[]"
        }
      ],
      "name": "getMaximumSimilarityScore",
      "outputs": [
        {
          "internalType": "uint256",
          "name": "",
          "type": "uint256"
        }
      ],
      "stateMutability": "view",
      "type": "function",
      "constant": true
    },
    {
      "inputs": [
        {
          "internalType": "string[]",
          "name": "list1",
          "type": "string[]"
        },
        {
          "internalType": "string[]",
          "name": "list2",
          "type": "string[]"
        },
        {
          "internalType": "uint256",
          "name": "setLength1",
          "type": "uint256"
        },
        {
          "internalType": "uint256",
          "name": "setLength2",
          "type": "uint256"
        }
      ],
      "name": "getCommonElementsCount",
      "outputs": [
        {
          "internalType": "uint256",
          "name": "",
          "type": "uint256"
        }
      ],
      "stateMutability": "pure",
      "type": "function",
      "constant": true
    },
    {
      "inputs": [
        {
          "internalType": "string[]",
          "name": "l1",
          "type": "string[]"
        },
        {
          "internalType": "string[]",
          "name": "l2",
          "type": "string[]"
        }
      ],
      "name": "calculateSimilarityScore",
      "outputs": [
        {
          "internalType": "uint256",
          "name": "",
          "type": "uint256"
        }
      ],
      "stateMutability": "pure",
      "type": "function",
      "constant": true
    }
  ],
  "bytecode": "0x60806040526040518060400160405280600581526020017f322e302e3000000000000000000000000000000000000000000000000000000081525060019080519060200190620000519291906200006b565b5060006002553480156200006457600080fd5b5062000180565b82805462000079906200011b565b90600052602060002090601f0160209004810192826200009d5760008555620000e9565b82601f10620000b857805160ff1916838001178555620000e9565b82800160010185558215620000e9579182015b82811115620000e8578251825591602001919060010190620000cb565b5b509050620000f89190620000fc565b5090565b5b8082111562000117576000816000905550600101620000fd565b5090565b600060028204905060018216806200013457607f821691505b602082108114156200014b576200014a62000151565b5b50919050565b7f4e487b7100000000000000000000000000000000000000000000000000000000600052602260045260246000fd5b61235c80620001906000396000f3fe608060405234801561001057600080fd5b506004361061009e5760003560e01c8063572b6c0511610066578063572b6c051461015b578063790ad0db1461018b5780637da0a877146101bb5780639b73aa9a146101d9578063c93bcd91146102095761009e565b8063097694e1146100a35780631320b2e5146100d3578063254f7d2d14610103578063439535191461011f578063486ff0cd1461013d575b600080fd5b6100bd60048036038101906100b891906116db565b610240565b6040516100ca9190611c69565b60405180910390f35b6100ed60048036038101906100e891906115c4565b610603565b6040516100fa9190611c8b565b60405180910390f35b61011d60048036038101906101189190611708565b610820565b005b610127610b59565b6040516101349190611c8b565b60405180910390f35b610145610b5f565b6040516101529190611bc7565b60405180910390f35b6101756004803603810190610170919061154e565b610bed565b6040516101829190611bac565b60405180910390f35b6101a560048036038101906101a0919061163c565b610c46565b6040516101b29190611c8b565b60405180910390f35b6101c3610ced565b6040516101d09190611b91565b60405180910390f35b6101f360048036038101906101ee919061157b565b610d16565b6040516102009190611c8b565b60405180910390f35b610223600480360381019061021e91906116db565b610d96565b604051610237989796959493929190611ca6565b60405180910390f35b61024861122f565b6003600083815260200190815260200160002060405180610120016040529081600082015481526020016001820154815260200160028201805461028b90612093565b80601f01602080910402602001604051908101604052809291908181526020018280546102b790612093565b80156103045780601f106102d957610100808354040283529160200191610304565b820191906000526020600020905b8154815290600101906020018083116102e757829003601f168201915b5050505050815260200160038201805461031d90612093565b80601f016020809104026020016040519081016040528092919081815260200182805461034990612093565b80156103965780601f1061036b57610100808354040283529160200191610396565b820191906000526020600020905b81548152906001019060200180831161037957829003601f168201915b505050505081526020016004820180546103af90612093565b80601f01602080910402602001604051908101604052809291908181526020018280546103db90612093565b80156104285780601f106103fd57610100808354040283529160200191610428565b820191906000526020600020905b81548152906001019060200180831161040b57829003601f168201915b505050505081526020016005820160009054906101000a900473ffffffffffffffffffffffffffffffffffffffff1673ffffffffffffffffffffffffffffffffffffffff1673ffffffffffffffffffffffffffffffffffffffff168152602001600682015481526020016007820180546104a190612093565b80601f01602080910402602001604051908101604052809291908181526020018280546104cd90612093565b801561051a5780601f106104ef5761010080835404028352916020019161051a565b820191906000526020600020905b8154815290600101906020018083116104fd57829003601f168201915b5050505050815260200160088201805480602002602001604051908101604052809291908181526020016000905b828210156105f457838290600052602060002001805461056790612093565b80601f016020809104026020016040519081016040528092919081815260200182805461059390612093565b80156105e05780601f106105b5576101008083540402835291602001916105e0565b820191906000526020600020905b8154815290600101906020018083116105c357829003601f168201915b505050505081526020019060010190610548565b50505050815250509050919050565b600080835167ffffffffffffffff811115610621576106206121fb565b5b60405190808252806020026020018201604052801561065457816020015b606081526020019060019003908161063f5790505b5090506000835167ffffffffffffffff811115610674576106736121fb565b5b6040519080825280602002602001820160405280156106a757816020015b60608152602001906001900390816106925790505b50905060008060005b875181101561073c576106dd858983815181106106d0576106cf6121cc565b5b602002602001015161101e565b610729578781815181106106f4576106f36121cc565b5b602002602001015185848151811061070f5761070e6121cc565b5b60200260200101819052508280610725906120f6565b9350505b8080610734906120f6565b9150506106b0565b5060005b86518110156107cc5761076d848883815181106107605761075f6121cc565b5b602002602001015161101e565b6107b957868181518110610784576107836121cc565b5b602002602001015184838151811061079f5761079e6121cc565b5b602002602001018190525081806107b5906120f6565b9250505b80806107c4906120f6565b915050610740565b5060006107db85868585610c46565b905060008188518a516107ee9190611ef4565b6107f89190611fd5565b9050806064836108089190611f7b565b6108129190611f4a565b965050505050505092915050565b6000855111610864576040517f08c379a000000000000000000000000000000000000000000000000000000000815260040161085b90611c09565b60405180910390fd5b60008351116108a8576040517f08c379a000000000000000000000000000000000000000000000000000000000815260040161089f90611c49565b60405180910390fd5b60008451116108ec576040517f08c379a00000000000000000000000000000000000000000000000000000000081526004016108e390611c29565b60405180910390fd5b6000861161092f576040517f08c379a000000000000000000000000000000000000000000000000000000000815260040161092690611be9565b60405180910390fd5b61093881611081565b1561097a577f711784307b11c5f98f3bc25170dfd6d229d797a0891cb2dd54b1fd406e60fc6d600160405161096d9190611bac565b60405180910390a1610b51565b6002600081548092919061098d906120f6565b919050555060405180610120016040528060025481526020018781526020018681526020018581526020018481526020016109c66110b0565b73ffffffffffffffffffffffffffffffffffffffff1681526020014281526020018381526020018281525060036000600254815260200190815260200160002060008201518160000155602082015181600101556040820151816002019080519060200190610a36929190611291565b506060820151816003019080519060200190610a53929190611291565b506080820151816004019080519060200190610a70929190611291565b5060a08201518160050160006101000a81548173ffffffffffffffffffffffffffffffffffffffff021916908373ffffffffffffffffffffffffffffffffffffffff16021790555060c0820151816006015560e0820151816007019080519060200190610ade929190611291565b50610100820151816008019080519060200190610afc929190611317565b509050507f13a353a011afea10f3f02988cf68745c8d65c39e4d9ba5ed33ea73114c76d85b60025487878787610b306110b0565b428989604051610b4899989796959493929190611d40565b60405180910390a15b505050505050565b60025481565b60018054610b6c90612093565b80601f0160208091040260200160405190810160405280929190818152602001828054610b9890612093565b8015610be55780601f10610bba57610100808354040283529160200191610be5565b820191906000526020600020905b815481529060010190602001808311610bc857829003601f168201915b505050505081565b60008060009054906101000a900473ffffffffffffffffffffffffffffffffffffffff1673ffffffffffffffffffffffffffffffffffffffff168273ffffffffffffffffffffffffffffffffffffffff16149050919050565b6000806000905060005b84811015610ce05760005b84811015610ccc57610ca1888381518110610c7957610c786121cc565b5b6020026020010151888381518110610c9457610c936121cc565b5b60200260200101516110e7565b15610cb9578280610cb1906120f6565b935050610ccc565b8080610cc4906120f6565b915050610c5b565b508080610cd8906120f6565b915050610c50565b5080915050949350505050565b60008060009054906101000a900473ffffffffffffffffffffffffffffffffffffffff16905090565b600080600090506000610d298485610603565b90506000600190505b6002548111610d8b576000610d4682611140565b90506000600190505b81518111610d765784841115610d63578394505b8080610d6e906120f6565b915050610d4f565b50508080610d83906120f6565b915050610d32565b508192505050919050565b6003602052806000526040600020600091509050806000015490806001015490806002018054610dc590612093565b80601f0160208091040260200160405190810160405280929190818152602001828054610df190612093565b8015610e3e5780601f10610e1357610100808354040283529160200191610e3e565b820191906000526020600020905b815481529060010190602001808311610e2157829003601f168201915b505050505090806003018054610e5390612093565b80601f0160208091040260200160405190810160405280929190818152602001828054610e7f90612093565b8015610ecc5780601f10610ea157610100808354040283529160200191610ecc565b820191906000526020600020905b815481529060010190602001808311610eaf57829003601f168201915b505050505090806004018054610ee190612093565b80601f0160208091040260200160405190810160405280929190818152602001828054610f0d90612093565b8015610f5a5780601f10610f2f57610100808354040283529160200191610f5a565b820191906000526020600020905b815481529060010190602001808311610f3d57829003601f168201915b5050505050908060050160009054906101000a900473ffffffffffffffffffffffffffffffffffffffff1690806006015490806007018054610f9b90612093565b80601f0160208091040260200160405190810160405280929190818152602001828054610fc790612093565b80156110145780601f10610fe957610100808354040283529160200191611014565b820191906000526020600020905b815481529060010190602001808311610ff757829003601f168201915b5050505050905088565b600080600090505b835181101561107557611053848281518110611045576110446121cc565b5b6020026020010151846110e7565b1561106257600191505061107b565b808061106d906120f6565b915050611026565b50600090505b92915050565b60008061108d83610d16565b90506000808211156110a4576001925050506110ab565b6000925050505b919050565b600060146000369050101580156110cc57506110cb33610bed565b5b156110e057601436033560601c90506110e4565b3390505b90565b6000816040516020016110fa9190611b7a565b60405160208183030381529060405280519060200120836040516020016111219190611b7a565b6040516020818303038152906040528051906020012014905092915050565b606060036000838152602001908152602001600020600801805480602002602001604051908101604052809291908181526020016000905b8282101561122457838290600052602060002001805461119790612093565b80601f01602080910402602001604051908101604052809291908181526020018280546111c390612093565b80156112105780601f106111e557610100808354040283529160200191611210565b820191906000526020600020905b8154815290600101906020018083116111f357829003601f168201915b505050505081526020019060010190611178565b505050509050919050565b6040518061012001604052806000815260200160008152602001606081526020016060815260200160608152602001600073ffffffffffffffffffffffffffffffffffffffff1681526020016000815260200160608152602001606081525090565b82805461129d90612093565b90600052602060002090601f0160209004810192826112bf5760008555611306565b82601f106112d857805160ff1916838001178555611306565b82800160010185558215611306579182015b828111156113055782518255916020019190600101906112ea565b5b5090506113139190611377565b5090565b828054828255906000526020600020908101928215611366579160200282015b82811115611365578251829080519060200190611355929190611291565b5091602001919060010190611337565b5b5090506113739190611394565b5090565b5b80821115611390576000816000905550600101611378565b5090565b5b808211156113b457600081816113ab91906113b8565b50600101611395565b5090565b5080546113c490612093565b6000825580601f106113d657506113f5565b601f0160209004906000526020600020908101906113f49190611377565b5b50565b600061140b61140684611e15565b611df0565b9050808382526020820190508285602086028201111561142e5761142d61222f565b5b60005b8581101561147c57813567ffffffffffffffff8111156114545761145361222a565b5b808601611461898261150b565b85526020850194506020840193505050600181019050611431565b5050509392505050565b600061149961149484611e41565b611df0565b9050828152602081018484840111156114b5576114b4612234565b5b6114c0848285612051565b509392505050565b6000813590506114d7816122f8565b92915050565b600082601f8301126114f2576114f161222a565b5b81356115028482602086016113f8565b91505092915050565b600082601f8301126115205761151f61222a565b5b8135611530848260208601611486565b91505092915050565b6000813590506115488161230f565b92915050565b6000602082840312156115645761156361223e565b5b6000611572848285016114c8565b91505092915050565b6000602082840312156115915761159061223e565b5b600082013567ffffffffffffffff8111156115af576115ae612239565b5b6115bb848285016114dd565b91505092915050565b600080604083850312156115db576115da61223e565b5b600083013567ffffffffffffffff8111156115f9576115f8612239565b5b611605858286016114dd565b925050602083013567ffffffffffffffff81111561162657611625612239565b5b611632858286016114dd565b9150509250929050565b600080600080608085870312156116565761165561223e565b5b600085013567ffffffffffffffff81111561167457611673612239565b5b611680878288016114dd565b945050602085013567ffffffffffffffff8111156116a1576116a0612239565b5b6116ad878288016114dd565b93505060406116be87828801611539565b92505060606116cf87828801611539565b91505092959194509250565b6000602082840312156116f1576116f061223e565b5b60006116ff84828501611539565b91505092915050565b60008060008060008060c087890312156117255761172461223e565b5b600061173389828a01611539565b965050602087013567ffffffffffffffff81111561175457611753612239565b5b61176089828a0161150b565b955050604087013567ffffffffffffffff81111561178157611780612239565b5b61178d89828a0161150b565b945050606087013567ffffffffffffffff8111156117ae576117ad612239565b5b6117ba89828a0161150b565b935050608087013567ffffffffffffffff8111156117db576117da612239565b5b6117e789828a0161150b565b92505060a087013567ffffffffffffffff81111561180857611807612239565b5b61181489828a016114dd565b9150509295509295509295565b600061182d838361194c565b905092915050565b61183e81612009565b82525050565b61184d81612009565b82525050565b600061185e82611e82565b6118688185611ea5565b93508360208202850161187a85611e72565b8060005b858110156118b657848403895281516118978582611821565b94506118a283611e98565b925060208a0199505060018101905061187e565b50829750879550505050505092915050565b60006118d382611e82565b6118dd8185611eb6565b9350836020820285016118ef85611e72565b8060005b8581101561192b578484038952815161190c8582611821565b945061191783611e98565b925060208a019950506001810190506118f3565b50829750879550505050505092915050565b6119468161201b565b82525050565b600061195782611e8d565b6119618185611ec7565b9350611971818560208601612060565b61197a81612243565b840191505092915050565b600061199082611e8d565b61199a8185611ed8565b93506119aa818560208601612060565b6119b381612243565b840191505092915050565b60006119c982611e8d565b6119d38185611ee9565b93506119e3818560208601612060565b80840191505092915050565b60006119fc601283611ed8565b9150611a0782612254565b602082019050919050565b6000611a1f601683611ed8565b9150611a2a8261227d565b602082019050919050565b6000611a42601683611ed8565b9150611a4d826122a6565b602082019050919050565b6000611a65601d83611ed8565b9150611a70826122cf565b602082019050919050565b600061012083016000830151611a946000860182611b5c565b506020830151611aa76020860182611b5c565b5060408301518482036040860152611abf828261194c565b91505060608301518482036060860152611ad9828261194c565b91505060808301518482036080860152611af3828261194c565b91505060a0830151611b0860a0860182611835565b5060c0830151611b1b60c0860182611b5c565b5060e083015184820360e0860152611b33828261194c565b915050610100830151848203610100860152611b4f8282611853565b9150508091505092915050565b611b6581612047565b82525050565b611b7481612047565b82525050565b6000611b8682846119be565b915081905092915050565b6000602082019050611ba66000830184611844565b92915050565b6000602082019050611bc1600083018461193d565b92915050565b60006020820190508181036000830152611be18184611985565b905092915050565b60006020820190508181036000830152611c02816119ef565b9050919050565b60006020820190508181036000830152611c2281611a12565b9050919050565b60006020820190508181036000830152611c4281611a35565b9050919050565b60006020820190508181036000830152611c6281611a58565b9050919050565b60006020820190508181036000830152611c838184611a7b565b905092915050565b6000602082019050611ca06000830184611b6b565b92915050565b600061010082019050611cbc600083018b611b6b565b611cc9602083018a611b6b565b8181036040830152611cdb8189611985565b90508181036060830152611cef8188611985565b90508181036080830152611d038187611985565b9050611d1260a0830186611844565b611d1f60c0830185611b6b565b81810360e0830152611d318184611985565b90509998505050505050505050565b600061012082019050611d56600083018c611b6b565b611d63602083018b611b6b565b8181036040830152611d75818a611985565b90508181036060830152611d898189611985565b90508181036080830152611d9d8188611985565b9050611dac60a0830187611844565b611db960c0830186611b6b565b81810360e0830152611dcb8185611985565b9050818103610100830152611de081846118c8565b90509a9950505050505050505050565b6000611dfa611e0b565b9050611e0682826120c5565b919050565b6000604051905090565b600067ffffffffffffffff821115611e3057611e2f6121fb565b5b602082029050602081019050919050565b600067ffffffffffffffff821115611e5c57611e5b6121fb565b5b611e6582612243565b9050602081019050919050565b6000819050602082019050919050565b600081519050919050565b600081519050919050565b6000602082019050919050565b600082825260208201905092915050565b600082825260208201905092915050565b600082825260208201905092915050565b600082825260208201905092915050565b600081905092915050565b6000611eff82612047565b9150611f0a83612047565b9250827fffffffffffffffffffffffffffffffffffffffffffffffffffffffffffffffff03821115611f3f57611f3e61213f565b5b828201905092915050565b6000611f5582612047565b9150611f6083612047565b925082611f7057611f6f61216e565b5b828204905092915050565b6000611f8682612047565b9150611f9183612047565b9250817fffffffffffffffffffffffffffffffffffffffffffffffffffffffffffffffff0483118215151615611fca57611fc961213f565b5b828202905092915050565b6000611fe082612047565b9150611feb83612047565b925082821015611ffe57611ffd61213f565b5b828203905092915050565b600061201482612027565b9050919050565b60008115159050919050565b600073ffffffffffffffffffffffffffffffffffffffff82169050919050565b6000819050919050565b82818337600083830152505050565b60005b8381101561207e578082015181840152602081019050612063565b8381111561208d576000848401525b50505050565b600060028204905060018216806120ab57607f821691505b602082108114156120bf576120be61219d565b5b50919050565b6120ce82612243565b810181811067ffffffffffffffff821117156120ed576120ec6121fb565b5b80604052505050565b600061210182612047565b91507fffffffffffffffffffffffffffffffffffffffffffffffffffffffffffffffff8214156121345761213361213f565b5b600182019050919050565b7f4e487b7100000000000000000000000000000000000000000000000000000000600052601160045260246000fd5b7f4e487b7100000000000000000000000000000000000000000000000000000000600052601260045260246000fd5b7f4e487b7100000000000000000000000000000000000000000000000000000000600052602260045260246000fd5b7f4e487b7100000000000000000000000000000000000000000000000000000000600052603260045260246000fd5b7f4e487b7100000000000000000000000000000000000000000000000000000000600052604160045260246000fd5b600080fd5b600080fd5b600080fd5b600080fd5b600080fd5b6000601f19601f8301169050919050565b7f436f646546696c652073697a6520697320300000000000000000000000000000600082015250565b7f436f646546696c65204861736820697320656d70747900000000000000000000600082015250565b7f436f646546696c65206e616d6520697320656d70747900000000000000000000600082015250565b7f436f646546696c65206465736372697074696f6e20697320656d707479000000600082015250565b61230181612009565b811461230c57600080fd5b50565b61231881612047565b811461232357600080fd5b5056fea26469706673582212200cbf409c4b03fd4f0edfa0056f50c648ca29276a71346c7197249ae6cb572ceb64736f6c63430008060033",
  "immutableReferences": {},
  "source": "// SPDX-License-Identifier: MIT\npragma solidity >=0.4.22 <0.9.0;\nimport \"@opengsn/contracts/src/BaseRelayRecipient.sol\";\n\n\n// import \"@openzeppelin/contracts-ethereum-package/contracts/GSN/GSNRecipient.sol\";\n\n\ncontract PlagiarismContract is BaseRelayRecipient \n{\n\tstring public override versionRecipient = \"2.0.0\";\n\n  struct CodeFile{\n    uint fileId;\n    uint fileSize;\n    string fileIPFSHash;\n    string fileName;\n    string fileDescription;\n    address codeAuthor;\n    uint timeUploaded;    \n    string codeFingerPrint;\n    string [] hashSet;\n  }\n\n  uint public fileCount = 0;\n  mapping(uint=>CodeFile) public filesMap;\n\n\n  event CodeFileUploadEvent(\n    uint fileId,\n    uint fileSize,\n    string fileIPFSHash,\n    string fileName,\n    string fileDescription,\n    address codeAuthor,\n    uint timeUploaded ,\n    string codeFingerPrint,\n    string [] hashSet\n  ) ;\n\n  event PlagiarismResult(\n    bool plagiarisedResult\n  );\n\n    // function acceptRelayedCall(\n    //     address relay,\n    //     address from,\n    //     bytes calldata encodedFunction,\n    //     uint256 transactionFee,\n    //     uint256 gasPrice,\n    //     uint256 gasLimit,\n    //     uint256 nonce,\n    //     bytes calldata approvalData,\n    //     uint256 maxPossibleCharge\n    // ) external view returns (uint256, bytes memory) {\n    //     return _approveRelayedCall();\n    // }\n\n    \n  function uploadFile(uint _fileSize, string memory _fileIPFSHash, string memory _fileName,string memory _fileDescription, string memory _codeFingerPrint, string [] memory _hashSet) public {\n    require(bytes(_fileIPFSHash).length > 0, \"CodeFile Hash is empty\");\n\n    require(bytes(_fileDescription).length > 0, \"CodeFile description is empty\");\n\n    require(bytes(_fileName).length > 0, \"CodeFile name is empty\");\n\n    require(_fileSize>0, \"CodeFile size is 0\");\n\n    if(checkIfPlagiarised(_hashSet)){\n      emit PlagiarismResult(true);\n    }\n    else{\n      fileCount++;\n\n      filesMap[fileCount] = CodeFile(fileCount,_fileSize,_fileIPFSHash, _fileName, _fileDescription,_msgSender(),block.timestamp,_codeFingerPrint,_hashSet);\n\n      emit CodeFileUploadEvent(fileCount,_fileSize,_fileIPFSHash, _fileName, _fileDescription,_msgSender(),block.timestamp,_codeFingerPrint,_hashSet);\n    }\n  }\n\n    function getFileByIndex(uint _fileIndex)\n        public\n        view\n        returns (CodeFile memory records)\n    {\n        return filesMap[_fileIndex];\n    }\n\n    function getFileHashSet(uint _fileIndex) private\n        view\n        returns (string [] memory )\n    {\n        return filesMap[_fileIndex].hashSet;\n    }\n\n    function checkIfPlagiarised( string [] memory _hashSet)private view returns(bool){\n      uint similarityScore = getMaximumSimilarityScore(_hashSet);\n\n      uint thresholdSimilarity=0;\n      if(similarityScore>thresholdSimilarity)\n        return true;\n      else\n        return false;\n    }\n\n    function getMaximumSimilarityScore( string [] memory _hashSet) public view returns (uint){\n      uint maxSimilarity=0;\n      uint similarity=0;\n                similarity=calculateSimilarityScore(_hashSet,_hashSet);\n\n      for(uint i=1;i<=fileCount;i++){\n        string [] memory existingFilehashSet=getFileHashSet(i);\n        for(uint j=1;j<=existingFilehashSet.length;j++){\n          // similarity=calculateSimilarityScore(_hashSet,_hashSet);\n          if(similarity>maxSimilarity){\n            maxSimilarity=similarity;\n          }\n        }\n      }\n      return maxSimilarity;\n    }\n\n \n    \n\n// function increase() public {\n//         value += 1;\n//     }\n\n//     function acceptRelayedCall(\n//         address relay,\n//         address from,\n//         bytes calldata encodedFunction,\n//         uint256 transactionFee,\n//         uint256 gasPrice,\n//         uint256 gasLimit,\n//         uint256 nonce,\n//         bytes calldata approvalData,\n//         uint256 maxPossibleCharge\n//     ) external view returns (uint256, bytes memory) {\n//         return _approveRelayedCall();\n//     }\n\n\nfunction compareStrings(string memory a, string memory b) private pure returns (bool) {\n        return (keccak256(abi.encodePacked((a))) == keccak256(abi.encodePacked((b))));\n    }\n    function getCommonElementsCount(string[] memory list1, string[] memory list2,uint setLength1,uint setLength2) public pure returns (uint){\n\n        uint commonElementsCount=0;\n        for(uint i=0;i< setLength1;i++){\n            for(uint j=0;j<setLength2;j++){\n                if(compareStrings(list1[i],list2[j])){\n                    commonElementsCount++;\n                    break;\n                }\n            }\n        }\n        return commonElementsCount;\n    }\n\n    function isPresent(string[] memory l1,string memory ele)private pure returns (bool){\n        for(uint i=0;i<l1.length;i++){\n          if(compareStrings(l1[i],ele)){\n            return true;\n          }\n        }\n        return false;\n    }\n    function calculateSimilarityScore(string[] memory l1, string[] memory l2) public pure returns(uint){\n\n\n      string[] memory list1 = new string[](l1.length);   \n      string[] memory list2 = new string[](l2.length);   \n\n      uint setLength1=0;\n      uint setLength2=0;\n\n        for(uint i=0;i<l1.length;i++){\n            if (!isPresent(list1,l1[i])) {\n              list1[setLength1]=l1[i];\n              setLength1++;\n            }\n        } \n  \n        for(uint i=0;i<l2.length;i++){\n            if (!isPresent(list2,l2[i])) {\n              list2[setLength2]=l2[i];\n              setLength2++;\n            }\n        } \n\n        uint commonElementsCount = getCommonElementsCount(list1,list1,setLength1,setLength2);\n        uint unionCount=l1.length+l2.length-commonElementsCount;        \n        \n        return commonElementsCount*100/unionCount;\n    } \n}",
  "sourcePath": "/home/harshvardhan/Documents/Major_Project/smart-contract/contracts/PlagiarismContract.sol",
  "compiler": {
    "name": "solc",
    "version": "0.8.6+commit.11564f7e.Emscripten.clang"
  },
  "schemaVersion": "3.4.3",
  "updatedAt": "2022-02-21T14:20:40.211Z",
  "networkType": "ethereum",
  "devdoc": {
    "kind": "dev",
    "methods": {},
    "version": 1
  },
  "userdoc": {
    "kind": "user",
    "methods": {
      "isTrustedForwarder(address)": {
        "notice": "return if the forwarder is trusted to forward relayed transactions to us. the forwarder is required to verify the sender's signature, and verify the call is not a replay."
      }
    },
    "version": 1
  }
}