{
  "contractName": "PlagiarismContract",
  "abi": [
    {
      "inputs": [],
      "payable": false,
      "stateMutability": "nonpayable",
      "type": "constructor"
    },
    {
      "anonymous": false,
      "inputs": [
        {
          "indexed": false,
          "internalType": "uint256",
          "name": "fileId",
          "type": "uint256"
        },
        {
          "indexed": false,
          "internalType": "uint256",
          "name": "fileSize",
          "type": "uint256"
        },
        {
          "indexed": false,
          "internalType": "string",
          "name": "fileIPFSHash",
          "type": "string"
        },
        {
          "indexed": false,
          "internalType": "string",
          "name": "fileName",
          "type": "string"
        },
        {
          "indexed": false,
          "internalType": "string",
          "name": "fileDescription",
          "type": "string"
        },
        {
          "indexed": false,
          "internalType": "address",
          "name": "codeAuthor",
          "type": "address"
        },
        {
          "indexed": false,
          "internalType": "uint256",
          "name": "timeUploaded",
          "type": "uint256"
        },
        {
          "indexed": false,
          "internalType": "string",
          "name": "codeFingerPrint",
          "type": "string"
        },
        {
          "indexed": false,
          "internalType": "string[]",
          "name": "hashSet",
          "type": "string[]"
        }
      ],
      "name": "CodeFileUploadEvent",
      "type": "event"
    },
    {
      "anonymous": false,
      "inputs": [
        {
          "indexed": false,
          "internalType": "bool",
          "name": "plagiarisedResult",
          "type": "bool"
        }
      ],
      "name": "PlagiarismResult",
      "type": "event"
    },
    {
      "constant": true,
      "inputs": [],
      "name": "fileCount",
      "outputs": [
        {
          "internalType": "uint256",
          "name": "",
          "type": "uint256"
        }
      ],
      "payable": false,
      "stateMutability": "view",
      "type": "function"
    },
    {
      "constant": true,
      "inputs": [
        {
          "internalType": "uint256",
          "name": "",
          "type": "uint256"
        }
      ],
      "name": "filesMap",
      "outputs": [
        {
          "internalType": "uint256",
          "name": "fileId",
          "type": "uint256"
        },
        {
          "internalType": "uint256",
          "name": "fileSize",
          "type": "uint256"
        },
        {
          "internalType": "string",
          "name": "fileIPFSHash",
          "type": "string"
        },
        {
          "internalType": "string",
          "name": "fileName",
          "type": "string"
        },
        {
          "internalType": "string",
          "name": "fileDescription",
          "type": "string"
        },
        {
          "internalType": "address",
          "name": "codeAuthor",
          "type": "address"
        },
        {
          "internalType": "uint256",
          "name": "timeUploaded",
          "type": "uint256"
        },
        {
          "internalType": "string",
          "name": "codeFingerPrint",
          "type": "string"
        }
      ],
      "payable": false,
      "stateMutability": "view",
      "type": "function"
    },
    {
      "constant": false,
      "inputs": [
        {
          "internalType": "uint256",
          "name": "_fileSize",
          "type": "uint256"
        },
        {
          "internalType": "string",
          "name": "_fileIPFSHash",
          "type": "string"
        },
        {
          "internalType": "string",
          "name": "_fileName",
          "type": "string"
        },
        {
          "internalType": "string",
          "name": "_fileDescription",
          "type": "string"
        },
        {
          "internalType": "string",
          "name": "_codeFingerPrint",
          "type": "string"
        },
        {
          "internalType": "string[]",
          "name": "_hashSet",
          "type": "string[]"
        }
      ],
      "name": "uploadFile",
      "outputs": [],
      "payable": false,
      "stateMutability": "nonpayable",
      "type": "function"
    },
    {
      "constant": true,
      "inputs": [
        {
          "internalType": "uint256",
          "name": "_fileIndex",
          "type": "uint256"
        }
      ],
      "name": "getFileByIndex",
      "outputs": [
        {
          "components": [
            {
              "internalType": "uint256",
              "name": "fileId",
              "type": "uint256"
            },
            {
              "internalType": "uint256",
              "name": "fileSize",
              "type": "uint256"
            },
            {
              "internalType": "string",
              "name": "fileIPFSHash",
              "type": "string"
            },
            {
              "internalType": "string",
              "name": "fileName",
              "type": "string"
            },
            {
              "internalType": "string",
              "name": "fileDescription",
              "type": "string"
            },
            {
              "internalType": "address",
              "name": "codeAuthor",
              "type": "address"
            },
            {
              "internalType": "uint256",
              "name": "timeUploaded",
              "type": "uint256"
            },
            {
              "internalType": "string",
              "name": "codeFingerPrint",
              "type": "string"
            },
            {
              "internalType": "string[]",
              "name": "hashSet",
              "type": "string[]"
            }
          ],
          "internalType": "struct PlagiarismContract.CodeFile",
          "name": "records",
          "type": "tuple"
        }
      ],
      "payable": false,
      "stateMutability": "view",
      "type": "function"
    },
    {
      "constant": false,
      "inputs": [
        {
          "internalType": "string[]",
          "name": "_hashSet1",
          "type": "string[]"
        },
        {
          "internalType": "string[]",
          "name": "_hashSet2",
          "type": "string[]"
        }
      ],
      "name": "testJaccards",
      "outputs": [
        {
          "internalType": "uint256",
          "name": "",
          "type": "uint256"
        }
      ],
      "payable": false,
      "stateMutability": "nonpayable",
      "type": "function"
    },
    {
      "constant": true,
      "inputs": [
        {
          "internalType": "string",
          "name": "a",
          "type": "string"
        },
        {
          "internalType": "string",
          "name": "b",
          "type": "string"
        }
      ],
      "name": "compareStrings",
      "outputs": [
        {
          "internalType": "bool",
          "name": "",
          "type": "bool"
        }
      ],
      "payable": false,
      "stateMutability": "pure",
      "type": "function"
    },
    {
      "constant": true,
      "inputs": [
        {
          "internalType": "string[]",
          "name": "list1",
          "type": "string[]"
        },
        {
          "internalType": "string[]",
          "name": "list2",
          "type": "string[]"
        },
        {
          "internalType": "uint256",
          "name": "setLength1",
          "type": "uint256"
        },
        {
          "internalType": "uint256",
          "name": "setLength2",
          "type": "uint256"
        }
      ],
      "name": "getCommonElementsCount",
      "outputs": [
        {
          "internalType": "uint256",
          "name": "",
          "type": "uint256"
        }
      ],
      "payable": false,
      "stateMutability": "pure",
      "type": "function"
    },
    {
      "constant": true,
      "inputs": [
        {
          "internalType": "string[]",
          "name": "l1",
          "type": "string[]"
        },
        {
          "internalType": "string[]",
          "name": "l2",
          "type": "string[]"
        }
      ],
      "name": "calculateSimilarityScore",
      "outputs": [
        {
          "internalType": "uint256",
          "name": "",
          "type": "uint256"
        }
      ],
      "payable": false,
      "stateMutability": "pure",
      "type": "function"
    }
  ],
  "bytecode": "0x60806040526000805534801561001457600080fd5b50611d37806100246000396000f3fe608060405234801561001057600080fd5b50600436106100885760003560e01c80634ed620091161005b5780634ed6200914610127578063790ad0db14610157578063bed34bba14610187578063c93bcd91146101b757610088565b8063097694e11461008d5780631320b2e5146100bd578063254f7d2d146100ed5780634395351914610109575b600080fd5b6100a760048036036100a29190810190611332565b6101ee565b6040516100b49190611923565b60405180910390f35b6100d760048036036100d291908101906111c7565b610601565b6040516100e49190611945565b60405180910390f35b6101076004803603610102919081019061135b565b61062f565b005b610111610952565b60405161011e9190611945565b60405180910390f35b610141600480360361013c91908101906111c7565b610958565b60405161014e9190611945565b60405180910390f35b610171600480360361016c9190810190611233565b610971565b60405161017e9190611945565b60405180910390f35b6101a1600480360361019c91908101906112c6565b6109fe565b6040516101ae9190611888565b60405180910390f35b6101d160048036036101cc9190810190611332565b610a57565b6040516101e5989796959493929190611a10565b60405180910390f35b6101f6610ebb565b60016000838152602001908152602001600020604051806101200160405290816000820154815260200160018201548152602001600282018054600181600116156101000203166002900480601f0160208091040260200160405190810160405280929190818152602001828054600181600116156101000203166002900480156102c25780601f10610297576101008083540402835291602001916102c2565b820191906000526020600020905b8154815290600101906020018083116102a557829003601f168201915b50505050508152602001600382018054600181600116156101000203166002900480601f0160208091040260200160405190810160405280929190818152602001828054600181600116156101000203166002900480156103645780601f1061033957610100808354040283529160200191610364565b820191906000526020600020905b81548152906001019060200180831161034757829003601f168201915b50505050508152602001600482018054600181600116156101000203166002900480601f0160208091040260200160405190810160405280929190818152602001828054600181600116156101000203166002900480156104065780601f106103db57610100808354040283529160200191610406565b820191906000526020600020905b8154815290600101906020018083116103e957829003601f168201915b505050505081526020016005820160009054906101000a900473ffffffffffffffffffffffffffffffffffffffff1673ffffffffffffffffffffffffffffffffffffffff1673ffffffffffffffffffffffffffffffffffffffff16815260200160068201548152602001600782018054600181600116156101000203166002900480601f0160208091040260200160405190810160405280929190818152602001828054600181600116156101000203166002900480156105085780601f106104dd57610100808354040283529160200191610508565b820191906000526020600020905b8154815290600101906020018083116104eb57829003601f168201915b5050505050815260200160088201805480602002602001604051908101604052809291908181526020016000905b828210156105f2578382906000526020600020018054600181600116156101000203166002900480601f0160208091040260200160405190810160405280929190818152602001828054600181600116156101000203166002900480156105de5780601f106105b3576101008083540402835291602001916105de565b820191906000526020600020905b8154815290600101906020018083116105c157829003601f168201915b505050505081526020019060010190610536565b50505050815250509050919050565b6000806106118484600d80610971565b9050600081601a03905080828161062457fe5b049250505092915050565b6000855111610673576040517f08c379a000000000000000000000000000000000000000000000000000000000815260040161066a906118c3565b60405180910390fd5b60008351116106b7576040517f08c379a00000000000000000000000000000000000000000000000000000000081526004016106ae90611903565b60405180910390fd5b60008451116106fb576040517f08c379a00000000000000000000000000000000000000000000000000000000081526004016106f2906118e3565b60405180910390fd5b6000861161073e576040517f08c379a0000000000000000000000000000000000000000000000000000000008152600401610735906118a3565b60405180910390fd5b61074781610d1f565b15610789577f711784307b11c5f98f3bc25170dfd6d229d797a0891cb2dd54b1fd406e60fc6d600160405161077c9190611888565b60405180910390a161094a565b600080815480929190600101919050555060405180610120016040528060005481526020018781526020018681526020018581526020018481526020013373ffffffffffffffffffffffffffffffffffffffff16815260200142815260200183815260200182815250600160008054815260200190815260200160002060008201518160000155602082015181600101556040820151816002019080519060200190610836929190610f1d565b506060820151816003019080519060200190610853929190610f1d565b506080820151816004019080519060200190610870929190610f1d565b5060a08201518160050160006101000a81548173ffffffffffffffffffffffffffffffffffffffff021916908373ffffffffffffffffffffffffffffffffffffffff16021790555060c0820151816006015560e08201518160070190805190602001906108de929190610f1d565b506101008201518160080190805190602001906108fc929190610f9d565b509050507f13a353a011afea10f3f02988cf68745c8d65c39e4d9ba5ed33ea73114c76d85b600054878787873342898960405161094199989796959493929190611960565b60405180910390a15b505050505050565b60005481565b6000806109658484610601565b90508091505092915050565b6000806000905060008090505b848110156109f15760008090505b848110156109e3576109c48883815181106109a357fe5b60200260200101518883815181106109b757fe5b60200260200101516109fe565b156109d65782806001019350506109e3565b808060010191505061098c565b50808060010191505061097e565b5080915050949350505050565b600081604051602001610a119190611871565b6040516020818303038152906040528051906020012083604051602001610a389190611871565b6040516020818303038152906040528051906020012014905092915050565b6001602052806000526040600020600091509050806000015490806001015490806002018054600181600116156101000203166002900480601f016020809104026020016040519081016040528092919081815260200182805460018160011615610100020316600290048015610b0f5780601f10610ae457610100808354040283529160200191610b0f565b820191906000526020600020905b815481529060010190602001808311610af257829003601f168201915b505050505090806003018054600181600116156101000203166002900480601f016020809104026020016040519081016040528092919081815260200182805460018160011615610100020316600290048015610bad5780601f10610b8257610100808354040283529160200191610bad565b820191906000526020600020905b815481529060010190602001808311610b9057829003601f168201915b505050505090806004018054600181600116156101000203166002900480601f016020809104026020016040519081016040528092919081815260200182805460018160011615610100020316600290048015610c4b5780601f10610c2057610100808354040283529160200191610c4b565b820191906000526020600020905b815481529060010190602001808311610c2e57829003601f168201915b5050505050908060050160009054906101000a900473ffffffffffffffffffffffffffffffffffffffff1690806006015490806007018054600181600116156101000203166002900480601f016020809104026020016040519081016040528092919081815260200182805460018160011615610100020316600290048015610d155780601f10610cea57610100808354040283529160200191610d15565b820191906000526020600020905b815481529060010190602001808311610cf857829003601f168201915b5050505050905088565b600080610d2b83610d51565b9050600080905080821115610d4557600192505050610d4c565b6000925050505b919050565b6000806000905060008090506000600190505b6000548111610db1576060610d7882610dbc565b90506000600190505b81518111610da25784841115610d95578394505b8080600101915050610d81565b50508080600101915050610d64565b508192505050919050565b606060016000838152602001908152602001600020600801805480602002602001604051908101604052809291908181526020016000905b82821015610eb0578382906000526020600020018054600181600116156101000203166002900480601f016020809104026020016040519081016040528092919081815260200182805460018160011615610100020316600290048015610e9c5780601f10610e7157610100808354040283529160200191610e9c565b820191906000526020600020905b815481529060010190602001808311610e7f57829003601f168201915b505050505081526020019060010190610df4565b505050509050919050565b6040518061012001604052806000815260200160008152602001606081526020016060815260200160608152602001600073ffffffffffffffffffffffffffffffffffffffff1681526020016000815260200160608152602001606081525090565b828054600181600116156101000203166002900490600052602060002090601f016020900481019282601f10610f5e57805160ff1916838001178555610f8c565b82800160010185558215610f8c579182015b82811115610f8b578251825591602001919060010190610f70565b5b509050610f999190610ffd565b5090565b828054828255906000526020600020908101928215610fec579160200282015b82811115610feb578251829080519060200190610fdb929190610f1d565b5091602001919060010190610fbd565b5b509050610ff99190611022565b5090565b61101f91905b8082111561101b576000816000905550600101611003565b5090565b90565b61104b91905b80821115611047576000818161103e919061104e565b50600101611028565b5090565b90565b50805460018160011615610100020316600290046000825580601f106110745750611093565b601f0160209004906000526020600020908101906110929190610ffd565b5b50565b600082601f8301126110a757600080fd5b81356110ba6110b582611ad7565b611aaa565b9150818183526020840193506020810190508360005b8381101561110057813586016110e6888261110a565b8452602084019350602083019250506001810190506110d0565b5050505092915050565b600082601f83011261111b57600080fd5b813561112e61112982611aff565b611aaa565b9150808252602083016020830185838301111561114a57600080fd5b611155838284611c8a565b50505092915050565b600082601f83011261116f57600080fd5b813561118261117d82611b2b565b611aaa565b9150808252602083016020830185838301111561119e57600080fd5b6111a9838284611c8a565b50505092915050565b6000813590506111c181611cdd565b92915050565b600080604083850312156111da57600080fd5b600083013567ffffffffffffffff8111156111f457600080fd5b61120085828601611096565b925050602083013567ffffffffffffffff81111561121d57600080fd5b61122985828601611096565b9150509250929050565b6000806000806080858703121561124957600080fd5b600085013567ffffffffffffffff81111561126357600080fd5b61126f87828801611096565b945050602085013567ffffffffffffffff81111561128c57600080fd5b61129887828801611096565b93505060406112a9878288016111b2565b92505060606112ba878288016111b2565b91505092959194509250565b600080604083850312156112d957600080fd5b600083013567ffffffffffffffff8111156112f357600080fd5b6112ff8582860161115e565b925050602083013567ffffffffffffffff81111561131c57600080fd5b6113288582860161115e565b9150509250929050565b60006020828403121561134457600080fd5b6000611352848285016111b2565b91505092915050565b60008060008060008060c0878903121561137457600080fd5b600061138289828a016111b2565b965050602087013567ffffffffffffffff81111561139f57600080fd5b6113ab89828a0161115e565b955050604087013567ffffffffffffffff8111156113c857600080fd5b6113d489828a0161115e565b945050606087013567ffffffffffffffff8111156113f157600080fd5b6113fd89828a0161115e565b935050608087013567ffffffffffffffff81111561141a57600080fd5b61142689828a0161115e565b92505060a087013567ffffffffffffffff81111561144357600080fd5b61144f89828a01611096565b9150509295509295509295565b60006114688383611600565b905092915050565b61147981611c54565b82525050565b61148881611c0c565b82525050565b61149781611c0c565b82525050565b60006114a882611b82565b6114b28185611bce565b9350836020820285016114c485611b67565b8060005b8581101561150057848403895281516114e1858261145c565b94506114ec83611bb0565b925060208a019950506001810190506114c8565b50829750879550505050505092915050565b600061151d82611b77565b6115278185611bbd565b93508360208202850161153985611b57565b8060005b858110156115755784840389528151611556858261145c565b945061156183611ba3565b925060208a0199505060018101905061153d565b50829750879550505050505092915050565b61159081611c1e565b82525050565b60006115a182611b98565b6115ab8185611bf0565b93506115bb818560208601611c99565b6115c481611ccc565b840191505092915050565b60006115da82611b98565b6115e48185611c01565b93506115f4818560208601611c99565b80840191505092915050565b600061160b82611b8d565b6116158185611bdf565b9350611625818560208601611c99565b61162e81611ccc565b840191505092915050565b600061164482611b8d565b61164e8185611bf0565b935061165e818560208601611c99565b61166781611ccc565b840191505092915050565b600061167f601283611bf0565b91507f436f646546696c652073697a65206973203000000000000000000000000000006000830152602082019050919050565b60006116bf601683611bf0565b91507f436f646546696c65204861736820697320656d707479000000000000000000006000830152602082019050919050565b60006116ff601683611bf0565b91507f436f646546696c65206e616d6520697320656d707479000000000000000000006000830152602082019050919050565b600061173f601d83611bf0565b91507f436f646546696c65206465736372697074696f6e20697320656d7074790000006000830152602082019050919050565b60006101208301600083015161178b6000860182611853565b50602083015161179e6020860182611853565b50604083015184820360408601526117b68282611600565b915050606083015184820360608601526117d08282611600565b915050608083015184820360808601526117ea8282611600565b91505060a08301516117ff60a086018261147f565b5060c083015161181260c0860182611853565b5060e083015184820360e086015261182a8282611600565b9150506101008301518482036101008601526118468282611512565b9150508091505092915050565b61185c81611c4a565b82525050565b61186b81611c4a565b82525050565b600061187d82846115cf565b915081905092915050565b600060208201905061189d6000830184611587565b92915050565b600060208201905081810360008301526118bc81611672565b9050919050565b600060208201905081810360008301526118dc816116b2565b9050919050565b600060208201905081810360008301526118fc816116f2565b9050919050565b6000602082019050818103600083015261191c81611732565b9050919050565b6000602082019050818103600083015261193d8184611772565b905092915050565b600060208201905061195a6000830184611862565b92915050565b600061012082019050611976600083018c611862565b611983602083018b611862565b8181036040830152611995818a611596565b905081810360608301526119a98189611596565b905081810360808301526119bd8188611596565b90506119cc60a0830187611470565b6119d960c0830186611862565b81810360e08301526119eb8185611596565b9050818103610100830152611a00818461149d565b90509a9950505050505050505050565b600061010082019050611a26600083018b611862565b611a33602083018a611862565b8181036040830152611a458189611639565b90508181036060830152611a598188611639565b90508181036080830152611a6d8187611639565b9050611a7c60a083018661148e565b611a8960c0830185611862565b81810360e0830152611a9b8184611639565b90509998505050505050505050565b6000604051905081810181811067ffffffffffffffff82111715611acd57600080fd5b8060405250919050565b600067ffffffffffffffff821115611aee57600080fd5b602082029050602081019050919050565b600067ffffffffffffffff821115611b1657600080fd5b601f19601f8301169050602081019050919050565b600067ffffffffffffffff821115611b4257600080fd5b601f19601f8301169050602081019050919050565b6000819050602082019050919050565b6000819050602082019050919050565b600081519050919050565b600081519050919050565b600081519050919050565b600081519050919050565b6000602082019050919050565b6000602082019050919050565b600082825260208201905092915050565b600082825260208201905092915050565b600082825260208201905092915050565b600082825260208201905092915050565b600081905092915050565b6000611c1782611c2a565b9050919050565b60008115159050919050565b600073ffffffffffffffffffffffffffffffffffffffff82169050919050565b6000819050919050565b6000611c5f82611c66565b9050919050565b6000611c7182611c78565b9050919050565b6000611c8382611c2a565b9050919050565b82818337600083830152505050565b60005b83811015611cb7578082015181840152602081019050611c9c565b83811115611cc6576000848401525b50505050565b6000601f19601f8301169050919050565b611ce681611c4a565b8114611cf157600080fd5b5056fea365627a7a72315820ec0851edcd602314eae634f9ee6455dd39057288b041790853f9cb97f50e2afe6c6578706572696d656e74616cf564736f6c63430005100040",
  "source": "// SPDX-License-Identifier: MIT\npragma solidity >=0.4.22 <0.9.0;\npragma experimental ABIEncoderV2;\nimport \"./JaccardsSimilarity.sol\";\nimport \"./Set.sol\";\n\n// import \"@openzeppelin/contracts-ethereum-package/contracts/GSN/GSNRecipient.sol\";\n\n\ncontract PlagiarismContract  {\n\n  struct CodeFile{\n    uint fileId;\n    uint fileSize;\n    string fileIPFSHash;\n    string fileName;\n    string fileDescription;\n    address codeAuthor;\n    uint timeUploaded;    \n    string codeFingerPrint;\n    string [] hashSet;\n  }\n\n  uint public fileCount = 0;\n  mapping(uint=>CodeFile) public filesMap;\n\n\n  event CodeFileUploadEvent(\n    uint fileId,\n    uint fileSize,\n    string fileIPFSHash,\n    string fileName,\n    string fileDescription,\n    address codeAuthor,\n    uint timeUploaded ,\n    string codeFingerPrint,\n    string [] hashSet\n  ) ;\n\n  event PlagiarismResult(\n    bool plagiarisedResult\n  );\n  constructor() public {\n  }\n\n  function uploadFile(uint _fileSize, string memory _fileIPFSHash, string memory _fileName,string memory _fileDescription, string memory _codeFingerPrint, string [] memory _hashSet) public {\n    require(bytes(_fileIPFSHash).length > 0, \"CodeFile Hash is empty\");\n\n    require(bytes(_fileDescription).length > 0, \"CodeFile description is empty\");\n\n    require(bytes(_fileName).length > 0, \"CodeFile name is empty\");\n\n    require(_fileSize>0, \"CodeFile size is 0\");\n\n    if(checkIfPlagiarised(_hashSet)){\n      emit PlagiarismResult(true);\n    }\n    else{\n      fileCount++;\n\n      filesMap[fileCount] = CodeFile(fileCount,_fileSize,_fileIPFSHash, _fileName, _fileDescription,msg.sender,block.timestamp,_codeFingerPrint,_hashSet);\n\n      emit CodeFileUploadEvent(fileCount,_fileSize,_fileIPFSHash, _fileName, _fileDescription,msg.sender,block.timestamp,_codeFingerPrint,_hashSet);\n    }\n  }\n\n    function getFileByIndex(uint _fileIndex)\n        public\n        view\n        returns (CodeFile memory records)\n    {\n        return filesMap[_fileIndex];\n    }\n\n    function getFileHashSet(uint _fileIndex) private\n        view\n        returns (string [] memory )\n    {\n        return filesMap[_fileIndex].hashSet;\n    }\n\n    function checkIfPlagiarised( string [] memory _hashSet)private  returns(bool){\n      uint similarityScore = getMaximumSimilarityScore(_hashSet);\n\n      uint thresholdSimilarity=0;\n      if(similarityScore>thresholdSimilarity)\n        return true;\n      else\n        return false;\n    }\n\n    function getMaximumSimilarityScore( string [] memory _hashSet) private view returns (uint){\n      uint maxSimilarity=0;\n      uint similarity=0;\n      for(uint i=1;i<=fileCount;i++){\n        string [] memory existingFilehashSet=getFileHashSet(i);\n        for(uint j=1;j<=existingFilehashSet.length;j++){\n          //TODO\n          // uint similarity=getSimilarity();\n          if(similarity>maxSimilarity){\n            maxSimilarity=similarity;\n          }\n        }\n      }\n      return maxSimilarity;\n    }\n\n    function testJaccards( string [] memory _hashSet1,string [] memory _hashSet2) public returns (uint){\n      // JaccardsSimilarity js= new JaccardsSimilarity();\n      uint ans= calculateSimilarityScore(_hashSet1,_hashSet2);\n      return ans;\n    }\n\n    \n\n// function increase() public {\n//         value += 1;\n//     }\n\n//     function acceptRelayedCall(\n//         address relay,\n//         address from,\n//         bytes calldata encodedFunction,\n//         uint256 transactionFee,\n//         uint256 gasPrice,\n//         uint256 gasLimit,\n//         uint256 nonce,\n//         bytes calldata approvalData,\n//         uint256 maxPossibleCharge\n//     ) external view returns (uint256, bytes memory) {\n//         return _approveRelayedCall();\n//     }\n\n\nfunction compareStrings(string memory a, string memory b) public pure returns (bool) {\n        return (keccak256(abi.encodePacked((a))) == keccak256(abi.encodePacked((b))));\n    }\n    function getCommonElementsCount(string[] memory list1, string[] memory list2,uint setLength1,uint setLength2) public pure returns (uint){\n\n        uint commonElementsCount=0;\n        for(uint i=0;i< setLength1;i++){\n            for(uint j=0;j<setLength2;j++){\n                if(compareStrings(list1[i],list2[j])){\n                    commonElementsCount++;\n                    break;\n                }\n            }\n        }\n        return commonElementsCount;\n    }\n\n    function isPresent(string[] memory l1,string memory ele)private pure returns (bool){\n        for(uint i=0;i<l1.length;i++){\n          if(compareStrings(l1[i],ele)){\n            return true;\n          }\n        }\n        return false;\n    }\n    function calculateSimilarityScore(string[] memory l1, string[] memory l2) public pure returns(uint){\n\n      // mapping(string => uint256) memory indexOf2;\n      // mapping(string => uint256) memory indexOf1;\n\n      // string[] memory list1 = new string[](13);   \n      // string[] memory list2 = new string[](13);   \n\n      // uint setLength1=0;\n      // uint setLength2=0;\n      \n      //   for(uint i=0;i<l1.length;i++){\n      //       if (isPresent(list1,l1[i])) {\n      //         list1[setLength1]=(l1[i]);\n      //         setLength1++;\n      //       }\n      //   } \n  \n      //   for(uint i=0;i<l2.length;i++){\n      //       if (isPresent(list2,l2[i])) {\n      //         list2[setLength2]=(l2[i]);\n      //         setLength2++;\n      //       }\n      //   } \n\n        // uint commonElementsCount = getCommonElementsCount(list1,list1,setLength1,setLength2);\n        // uint unionCount=setLength1+setLength2-commonElementsCount;        \n        \n        uint commonElementsCount = getCommonElementsCount(l1,l2,13,13);\n        uint unionCount=13+13-commonElementsCount;\n        return commonElementsCount/unionCount;\n    } \n}",
  "sourcePath": "/home/harshvardhan/Documents/Major Project/smart-contract/contracts/PlagiarismContract.sol",
  "compiler": {
    "name": "solc",
    "version": "0.5.16+commit.9c3226ce.Emscripten.clang"
  },
  "schemaVersion": "3.4.3",
  "updatedAt": "2021-12-30T18:04:39.568Z",
  "networkType": "ethereum",
  "devdoc": {
    "methods": {}
  },
  "userdoc": {
    "methods": {}
  }
}