{
  "contractName": "RelayHub",
  "abi": [
    {
      "inputs": [
        {
          "internalType": "contract IStakeManager",
          "name": "_stakeManager",
          "type": "address"
        },
        {
          "internalType": "address",
          "name": "_penalizer",
          "type": "address"
        },
        {
          "internalType": "uint256",
          "name": "_maxWorkerCount",
          "type": "uint256"
        },
        {
          "internalType": "uint256",
          "name": "_gasReserve",
          "type": "uint256"
        },
        {
          "internalType": "uint256",
          "name": "_postOverhead",
          "type": "uint256"
        },
        {
          "internalType": "uint256",
          "name": "_gasOverhead",
          "type": "uint256"
        },
        {
          "internalType": "uint256",
          "name": "_maximumRecipientDeposit",
          "type": "uint256"
        },
        {
          "internalType": "uint256",
          "name": "_minimumUnstakeDelay",
          "type": "uint256"
        },
        {
          "internalType": "uint256",
          "name": "_minimumStake",
          "type": "uint256"
        },
        {
          "internalType": "uint256",
          "name": "_dataGasCostPerByte",
          "type": "uint256"
        },
        {
          "internalType": "uint256",
          "name": "_externalCallDataCostOverhead",
          "type": "uint256"
        }
      ],
      "stateMutability": "nonpayable",
      "type": "constructor"
    },
    {
      "anonymous": false,
      "inputs": [
        {
          "indexed": true,
          "internalType": "address",
          "name": "paymaster",
          "type": "address"
        },
        {
          "indexed": true,
          "internalType": "address",
          "name": "from",
          "type": "address"
        },
        {
          "indexed": false,
          "internalType": "uint256",
          "name": "amount",
          "type": "uint256"
        }
      ],
      "name": "Deposited",
      "type": "event"
    },
    {
      "anonymous": false,
      "inputs": [
        {
          "indexed": false,
          "internalType": "uint256",
          "name": "fromBlock",
          "type": "uint256"
        }
      ],
      "name": "HubDeprecated",
      "type": "event"
    },
    {
      "anonymous": false,
      "inputs": [
        {
          "indexed": true,
          "internalType": "address",
          "name": "previousOwner",
          "type": "address"
        },
        {
          "indexed": true,
          "internalType": "address",
          "name": "newOwner",
          "type": "address"
        }
      ],
      "name": "OwnershipTransferred",
      "type": "event"
    },
    {
      "anonymous": false,
      "inputs": [
        {
          "components": [
            {
              "internalType": "uint256",
              "name": "maxWorkerCount",
              "type": "uint256"
            },
            {
              "internalType": "uint256",
              "name": "gasReserve",
              "type": "uint256"
            },
            {
              "internalType": "uint256",
              "name": "postOverhead",
              "type": "uint256"
            },
            {
              "internalType": "uint256",
              "name": "gasOverhead",
              "type": "uint256"
            },
            {
              "internalType": "uint256",
              "name": "maximumRecipientDeposit",
              "type": "uint256"
            },
            {
              "internalType": "uint256",
              "name": "minimumUnstakeDelay",
              "type": "uint256"
            },
            {
              "internalType": "uint256",
              "name": "minimumStake",
              "type": "uint256"
            },
            {
              "internalType": "uint256",
              "name": "dataGasCostPerByte",
              "type": "uint256"
            },
            {
              "internalType": "uint256",
              "name": "externalCallDataCostOverhead",
              "type": "uint256"
            }
          ],
          "indexed": false,
          "internalType": "struct IRelayHub.RelayHubConfig",
          "name": "config",
          "type": "tuple"
        }
      ],
      "name": "RelayHubConfigured",
      "type": "event"
    },
    {
      "anonymous": false,
      "inputs": [
        {
          "indexed": true,
          "internalType": "address",
          "name": "relayManager",
          "type": "address"
        },
        {
          "indexed": false,
          "internalType": "uint256",
          "name": "baseRelayFee",
          "type": "uint256"
        },
        {
          "indexed": false,
          "internalType": "uint256",
          "name": "pctRelayFee",
          "type": "uint256"
        },
        {
          "indexed": false,
          "internalType": "string",
          "name": "relayUrl",
          "type": "string"
        }
      ],
      "name": "RelayServerRegistered",
      "type": "event"
    },
    {
      "anonymous": false,
      "inputs": [
        {
          "indexed": true,
          "internalType": "address",
          "name": "relayManager",
          "type": "address"
        },
        {
          "indexed": false,
          "internalType": "address[]",
          "name": "newRelayWorkers",
          "type": "address[]"
        },
        {
          "indexed": false,
          "internalType": "uint256",
          "name": "workersCount",
          "type": "uint256"
        }
      ],
      "name": "RelayWorkersAdded",
      "type": "event"
    },
    {
      "anonymous": false,
      "inputs": [
        {
          "indexed": true,
          "internalType": "address",
          "name": "relayManager",
          "type": "address"
        },
        {
          "indexed": true,
          "internalType": "address",
          "name": "paymaster",
          "type": "address"
        },
        {
          "indexed": true,
          "internalType": "address",
          "name": "from",
          "type": "address"
        },
        {
          "indexed": false,
          "internalType": "address",
          "name": "to",
          "type": "address"
        },
        {
          "indexed": false,
          "internalType": "address",
          "name": "relayWorker",
          "type": "address"
        },
        {
          "indexed": false,
          "internalType": "bytes4",
          "name": "selector",
          "type": "bytes4"
        },
        {
          "indexed": false,
          "internalType": "uint256",
          "name": "innerGasUsed",
          "type": "uint256"
        },
        {
          "indexed": false,
          "internalType": "bytes",
          "name": "reason",
          "type": "bytes"
        }
      ],
      "name": "TransactionRejectedByPaymaster",
      "type": "event"
    },
    {
      "anonymous": false,
      "inputs": [
        {
          "indexed": true,
          "internalType": "address",
          "name": "relayManager",
          "type": "address"
        },
        {
          "indexed": true,
          "internalType": "address",
          "name": "relayWorker",
          "type": "address"
        },
        {
          "indexed": true,
          "internalType": "address",
          "name": "from",
          "type": "address"
        },
        {
          "indexed": false,
          "internalType": "address",
          "name": "to",
          "type": "address"
        },
        {
          "indexed": false,
          "internalType": "address",
          "name": "paymaster",
          "type": "address"
        },
        {
          "indexed": false,
          "internalType": "bytes4",
          "name": "selector",
          "type": "bytes4"
        },
        {
          "indexed": false,
          "internalType": "enum IRelayHub.RelayCallStatus",
          "name": "status",
          "type": "uint8"
        },
        {
          "indexed": false,
          "internalType": "uint256",
          "name": "charge",
          "type": "uint256"
        }
      ],
      "name": "TransactionRelayed",
      "type": "event"
    },
    {
      "anonymous": false,
      "inputs": [
        {
          "indexed": false,
          "internalType": "enum IRelayHub.RelayCallStatus",
          "name": "status",
          "type": "uint8"
        },
        {
          "indexed": false,
          "internalType": "bytes",
          "name": "returnValue",
          "type": "bytes"
        }
      ],
      "name": "TransactionResult",
      "type": "event"
    },
    {
      "anonymous": false,
      "inputs": [
        {
          "indexed": true,
          "internalType": "address",
          "name": "account",
          "type": "address"
        },
        {
          "indexed": true,
          "internalType": "address",
          "name": "dest",
          "type": "address"
        },
        {
          "indexed": false,
          "internalType": "uint256",
          "name": "amount",
          "type": "uint256"
        }
      ],
      "name": "Withdrawn",
      "type": "event"
    },
    {
      "inputs": [],
      "name": "G_NONZERO",
      "outputs": [
        {
          "internalType": "uint256",
          "name": "",
          "type": "uint256"
        }
      ],
      "stateMutability": "view",
      "type": "function"
    },
    {
      "inputs": [],
      "name": "deprecationBlock",
      "outputs": [
        {
          "internalType": "uint256",
          "name": "",
          "type": "uint256"
        }
      ],
      "stateMutability": "view",
      "type": "function"
    },
    {
      "inputs": [],
      "name": "owner",
      "outputs": [
        {
          "internalType": "address",
          "name": "",
          "type": "address"
        }
      ],
      "stateMutability": "view",
      "type": "function"
    },
    {
      "inputs": [],
      "name": "penalizer",
      "outputs": [
        {
          "internalType": "address",
          "name": "",
          "type": "address"
        }
      ],
      "stateMutability": "view",
      "type": "function"
    },
    {
      "inputs": [],
      "name": "renounceOwnership",
      "outputs": [],
      "stateMutability": "nonpayable",
      "type": "function"
    },
    {
      "inputs": [],
      "name": "stakeManager",
      "outputs": [
        {
          "internalType": "contract IStakeManager",
          "name": "",
          "type": "address"
        }
      ],
      "stateMutability": "view",
      "type": "function"
    },
    {
      "inputs": [
        {
          "internalType": "address",
          "name": "newOwner",
          "type": "address"
        }
      ],
      "name": "transferOwnership",
      "outputs": [],
      "stateMutability": "nonpayable",
      "type": "function"
    },
    {
      "inputs": [],
      "name": "versionHub",
      "outputs": [
        {
          "internalType": "string",
          "name": "",
          "type": "string"
        }
      ],
      "stateMutability": "view",
      "type": "function"
    },
    {
      "inputs": [
        {
          "internalType": "address",
          "name": "",
          "type": "address"
        }
      ],
      "name": "workerCount",
      "outputs": [
        {
          "internalType": "uint256",
          "name": "",
          "type": "uint256"
        }
      ],
      "stateMutability": "view",
      "type": "function"
    },
    {
      "inputs": [
        {
          "internalType": "address",
          "name": "",
          "type": "address"
        }
      ],
      "name": "workerToManager",
      "outputs": [
        {
          "internalType": "address",
          "name": "",
          "type": "address"
        }
      ],
      "stateMutability": "view",
      "type": "function"
    },
    {
      "inputs": [],
      "name": "getConfiguration",
      "outputs": [
        {
          "components": [
            {
              "internalType": "uint256",
              "name": "maxWorkerCount",
              "type": "uint256"
            },
            {
              "internalType": "uint256",
              "name": "gasReserve",
              "type": "uint256"
            },
            {
              "internalType": "uint256",
              "name": "postOverhead",
              "type": "uint256"
            },
            {
              "internalType": "uint256",
              "name": "gasOverhead",
              "type": "uint256"
            },
            {
              "internalType": "uint256",
              "name": "maximumRecipientDeposit",
              "type": "uint256"
            },
            {
              "internalType": "uint256",
              "name": "minimumUnstakeDelay",
              "type": "uint256"
            },
            {
              "internalType": "uint256",
              "name": "minimumStake",
              "type": "uint256"
            },
            {
              "internalType": "uint256",
              "name": "dataGasCostPerByte",
              "type": "uint256"
            },
            {
              "internalType": "uint256",
              "name": "externalCallDataCostOverhead",
              "type": "uint256"
            }
          ],
          "internalType": "struct IRelayHub.RelayHubConfig",
          "name": "",
          "type": "tuple"
        }
      ],
      "stateMutability": "view",
      "type": "function"
    },
    {
      "inputs": [
        {
          "components": [
            {
              "internalType": "uint256",
              "name": "maxWorkerCount",
              "type": "uint256"
            },
            {
              "internalType": "uint256",
              "name": "gasReserve",
              "type": "uint256"
            },
            {
              "internalType": "uint256",
              "name": "postOverhead",
              "type": "uint256"
            },
            {
              "internalType": "uint256",
              "name": "gasOverhead",
              "type": "uint256"
            },
            {
              "internalType": "uint256",
              "name": "maximumRecipientDeposit",
              "type": "uint256"
            },
            {
              "internalType": "uint256",
              "name": "minimumUnstakeDelay",
              "type": "uint256"
            },
            {
              "internalType": "uint256",
              "name": "minimumStake",
              "type": "uint256"
            },
            {
              "internalType": "uint256",
              "name": "dataGasCostPerByte",
              "type": "uint256"
            },
            {
              "internalType": "uint256",
              "name": "externalCallDataCostOverhead",
              "type": "uint256"
            }
          ],
          "internalType": "struct IRelayHub.RelayHubConfig",
          "name": "_config",
          "type": "tuple"
        }
      ],
      "name": "setConfiguration",
      "outputs": [],
      "stateMutability": "nonpayable",
      "type": "function"
    },
    {
      "inputs": [
        {
          "internalType": "uint256",
          "name": "baseRelayFee",
          "type": "uint256"
        },
        {
          "internalType": "uint256",
          "name": "pctRelayFee",
          "type": "uint256"
        },
        {
          "internalType": "string",
          "name": "url",
          "type": "string"
        }
      ],
      "name": "registerRelayServer",
      "outputs": [],
      "stateMutability": "nonpayable",
      "type": "function"
    },
    {
      "inputs": [
        {
          "internalType": "address[]",
          "name": "newRelayWorkers",
          "type": "address[]"
        }
      ],
      "name": "addRelayWorkers",
      "outputs": [],
      "stateMutability": "nonpayable",
      "type": "function"
    },
    {
      "inputs": [
        {
          "internalType": "address",
          "name": "target",
          "type": "address"
        }
      ],
      "name": "depositFor",
      "outputs": [],
      "stateMutability": "payable",
      "type": "function"
    },
    {
      "inputs": [
        {
          "internalType": "address",
          "name": "target",
          "type": "address"
        }
      ],
      "name": "balanceOf",
      "outputs": [
        {
          "internalType": "uint256",
          "name": "",
          "type": "uint256"
        }
      ],
      "stateMutability": "view",
      "type": "function"
    },
    {
      "inputs": [
        {
          "internalType": "uint256",
          "name": "amount",
          "type": "uint256"
        },
        {
          "internalType": "address payable",
          "name": "dest",
          "type": "address"
        }
      ],
      "name": "withdraw",
      "outputs": [],
      "stateMutability": "nonpayable",
      "type": "function"
    },
    {
      "inputs": [
        {
          "internalType": "uint256",
          "name": "length",
          "type": "uint256"
        }
      ],
      "name": "calldataGasCost",
      "outputs": [
        {
          "internalType": "uint256",
          "name": "",
          "type": "uint256"
        }
      ],
      "stateMutability": "view",
      "type": "function"
    },
    {
      "inputs": [
        {
          "internalType": "uint256",
          "name": "maxAcceptanceBudget",
          "type": "uint256"
        },
        {
          "components": [
            {
              "components": [
                {
                  "internalType": "address",
                  "name": "from",
                  "type": "address"
                },
                {
                  "internalType": "address",
                  "name": "to",
                  "type": "address"
                },
                {
                  "internalType": "uint256",
                  "name": "value",
                  "type": "uint256"
                },
                {
                  "internalType": "uint256",
                  "name": "gas",
                  "type": "uint256"
                },
                {
                  "internalType": "uint256",
                  "name": "nonce",
                  "type": "uint256"
                },
                {
                  "internalType": "bytes",
                  "name": "data",
                  "type": "bytes"
                },
                {
                  "internalType": "uint256",
                  "name": "validUntil",
                  "type": "uint256"
                }
              ],
              "internalType": "struct IForwarder.ForwardRequest",
              "name": "request",
              "type": "tuple"
            },
            {
              "components": [
                {
                  "internalType": "uint256",
                  "name": "gasPrice",
                  "type": "uint256"
                },
                {
                  "internalType": "uint256",
                  "name": "pctRelayFee",
                  "type": "uint256"
                },
                {
                  "internalType": "uint256",
                  "name": "baseRelayFee",
                  "type": "uint256"
                },
                {
                  "internalType": "address",
                  "name": "relayWorker",
                  "type": "address"
                },
                {
                  "internalType": "address",
                  "name": "paymaster",
                  "type": "address"
                },
                {
                  "internalType": "address",
                  "name": "forwarder",
                  "type": "address"
                },
                {
                  "internalType": "bytes",
                  "name": "paymasterData",
                  "type": "bytes"
                },
                {
                  "internalType": "uint256",
                  "name": "clientId",
                  "type": "uint256"
                }
              ],
              "internalType": "struct GsnTypes.RelayData",
              "name": "relayData",
              "type": "tuple"
            }
          ],
          "internalType": "struct GsnTypes.RelayRequest",
          "name": "relayRequest",
          "type": "tuple"
        },
        {
          "internalType": "bytes",
          "name": "signature",
          "type": "bytes"
        },
        {
          "internalType": "bytes",
          "name": "approvalData",
          "type": "bytes"
        },
        {
          "internalType": "uint256",
          "name": "externalGasLimit",
          "type": "uint256"
        }
      ],
      "name": "relayCall",
      "outputs": [
        {
          "internalType": "bool",
          "name": "paymasterAccepted",
          "type": "bool"
        },
        {
          "internalType": "bytes",
          "name": "returnValue",
          "type": "bytes"
        }
      ],
      "stateMutability": "nonpayable",
      "type": "function"
    },
    {
      "inputs": [
        {
          "components": [
            {
              "components": [
                {
                  "internalType": "address",
                  "name": "from",
                  "type": "address"
                },
                {
                  "internalType": "address",
                  "name": "to",
                  "type": "address"
                },
                {
                  "internalType": "uint256",
                  "name": "value",
                  "type": "uint256"
                },
                {
                  "internalType": "uint256",
                  "name": "gas",
                  "type": "uint256"
                },
                {
                  "internalType": "uint256",
                  "name": "nonce",
                  "type": "uint256"
                },
                {
                  "internalType": "bytes",
                  "name": "data",
                  "type": "bytes"
                },
                {
                  "internalType": "uint256",
                  "name": "validUntil",
                  "type": "uint256"
                }
              ],
              "internalType": "struct IForwarder.ForwardRequest",
              "name": "request",
              "type": "tuple"
            },
            {
              "components": [
                {
                  "internalType": "uint256",
                  "name": "gasPrice",
                  "type": "uint256"
                },
                {
                  "internalType": "uint256",
                  "name": "pctRelayFee",
                  "type": "uint256"
                },
                {
                  "internalType": "uint256",
                  "name": "baseRelayFee",
                  "type": "uint256"
                },
                {
                  "internalType": "address",
                  "name": "relayWorker",
                  "type": "address"
                },
                {
                  "internalType": "address",
                  "name": "paymaster",
                  "type": "address"
                },
                {
                  "internalType": "address",
                  "name": "forwarder",
                  "type": "address"
                },
                {
                  "internalType": "bytes",
                  "name": "paymasterData",
                  "type": "bytes"
                },
                {
                  "internalType": "uint256",
                  "name": "clientId",
                  "type": "uint256"
                }
              ],
              "internalType": "struct GsnTypes.RelayData",
              "name": "relayData",
              "type": "tuple"
            }
          ],
          "internalType": "struct GsnTypes.RelayRequest",
          "name": "relayRequest",
          "type": "tuple"
        },
        {
          "internalType": "bytes",
          "name": "signature",
          "type": "bytes"
        },
        {
          "internalType": "bytes",
          "name": "approvalData",
          "type": "bytes"
        },
        {
          "components": [
            {
              "internalType": "uint256",
              "name": "acceptanceBudget",
              "type": "uint256"
            },
            {
              "internalType": "uint256",
              "name": "preRelayedCallGasLimit",
              "type": "uint256"
            },
            {
              "internalType": "uint256",
              "name": "postRelayedCallGasLimit",
              "type": "uint256"
            },
            {
              "internalType": "uint256",
              "name": "calldataSizeLimit",
              "type": "uint256"
            }
          ],
          "internalType": "struct IPaymaster.GasAndDataLimits",
          "name": "gasAndDataLimits",
          "type": "tuple"
        },
        {
          "internalType": "uint256",
          "name": "totalInitialGas",
          "type": "uint256"
        },
        {
          "internalType": "uint256",
          "name": "maxPossibleGas",
          "type": "uint256"
        }
      ],
      "name": "innerRelayCall",
      "outputs": [
        {
          "internalType": "enum IRelayHub.RelayCallStatus",
          "name": "",
          "type": "uint8"
        },
        {
          "internalType": "bytes",
          "name": "",
          "type": "bytes"
        }
      ],
      "stateMutability": "nonpayable",
      "type": "function"
    },
    {
      "inputs": [
        {
          "internalType": "uint256",
          "name": "gasUsed",
          "type": "uint256"
        },
        {
          "components": [
            {
              "internalType": "uint256",
              "name": "gasPrice",
              "type": "uint256"
            },
            {
              "internalType": "uint256",
              "name": "pctRelayFee",
              "type": "uint256"
            },
            {
              "internalType": "uint256",
              "name": "baseRelayFee",
              "type": "uint256"
            },
            {
              "internalType": "address",
              "name": "relayWorker",
              "type": "address"
            },
            {
              "internalType": "address",
              "name": "paymaster",
              "type": "address"
            },
            {
              "internalType": "address",
              "name": "forwarder",
              "type": "address"
            },
            {
              "internalType": "bytes",
              "name": "paymasterData",
              "type": "bytes"
            },
            {
              "internalType": "uint256",
              "name": "clientId",
              "type": "uint256"
            }
          ],
          "internalType": "struct GsnTypes.RelayData",
          "name": "relayData",
          "type": "tuple"
        }
      ],
      "name": "calculateCharge",
      "outputs": [
        {
          "internalType": "uint256",
          "name": "",
          "type": "uint256"
        }
      ],
      "stateMutability": "view",
      "type": "function"
    },
    {
      "inputs": [
        {
          "internalType": "address",
          "name": "relayManager",
          "type": "address"
        }
      ],
      "name": "isRelayManagerStaked",
      "outputs": [
        {
          "internalType": "bool",
          "name": "",
          "type": "bool"
        }
      ],
      "stateMutability": "view",
      "type": "function"
    },
    {
      "inputs": [
        {
          "internalType": "uint256",
          "name": "fromBlock",
          "type": "uint256"
        }
      ],
      "name": "deprecateHub",
      "outputs": [],
      "stateMutability": "nonpayable",
      "type": "function"
    },
    {
      "inputs": [],
      "name": "isDeprecated",
      "outputs": [
        {
          "internalType": "bool",
          "name": "",
          "type": "bool"
        }
      ],
      "stateMutability": "view",
      "type": "function"
    },
    {
      "inputs": [
        {
          "internalType": "address",
          "name": "relayWorker",
          "type": "address"
        },
        {
          "internalType": "address payable",
          "name": "beneficiary",
          "type": "address"
        }
      ],
      "name": "penalize",
      "outputs": [],
      "stateMutability": "nonpayable",
      "type": "function"
    }
  ],
  "bytecode": "0x60c06040526040518060400160405280601b81526020017f322e322e332b6f70656e67736e2e6875622e6972656c617968756200000000008152506001908051906020019062000051929190620003ba565b507fffffffffffffffffffffffffffffffffffffffffffffffffffffffffffffffff600e553480156200008357600080fd5b5060405162006ab838038062006ab88339818101604052810190620000a99190620004af565b620000c9620000bd6200019860201b60201c565b620001a060201b60201c565b8a73ffffffffffffffffffffffffffffffffffffffff1660808173ffffffffffffffffffffffffffffffffffffffff1660601b815250508973ffffffffffffffffffffffffffffffffffffffff1660a08173ffffffffffffffffffffffffffffffffffffffff1660601b81525050620001876040518061012001604052808b81526020018a8152602001898152602001888152602001878152602001868152602001858152602001848152602001838152506200026460201b60201c565b5050505050505050505050620008ec565b600033905090565b60008060009054906101000a900473ffffffffffffffffffffffffffffffffffffffff169050816000806101000a81548173ffffffffffffffffffffffffffffffffffffffff021916908373ffffffffffffffffffffffffffffffffffffffff1602179055508173ffffffffffffffffffffffffffffffffffffffff168173ffffffffffffffffffffffffffffffffffffffff167f8be0079c531659141344cd1fd0a4f28419497f9722a3daafe3b4186f6b6457e060405160405180910390a35050565b620002746200019860201b60201c565b73ffffffffffffffffffffffffffffffffffffffff166200029a6200039160201b60201c565b73ffffffffffffffffffffffffffffffffffffffff1614620002f3576040517f08c379a0000000000000000000000000000000000000000000000000000000008152600401620002ea9062000733565b60405180910390fd5b806002600082015181600001556020820151816001015560408201518160020155606082015181600301556080820151816004015560a0820151816005015560c0820151816006015560e0820151816007015561010082015181600801559050507f918ee002eb112844e457f37ea6b320c5572bc73957ebb0423ffcfb03d7b939d7600260405162000386919062000755565b60405180910390a150565b60008060009054906101000a900473ffffffffffffffffffffffffffffffffffffffff16905090565b828054620003c890620007e0565b90600052602060002090601f016020900481019282620003ec576000855562000438565b82601f106200040757805160ff191683800117855562000438565b8280016001018555821562000438579182015b82811115620004375782518255916020019190600101906200041a565b5b5090506200044791906200044b565b5090565b5b80821115620004665760008160009055506001016200044c565b5090565b6000815190506200047b816200089e565b92915050565b6000815190506200049281620008b8565b92915050565b600081519050620004a981620008d2565b92915050565b60008060008060008060008060008060006101608c8e031215620004d857620004d762000863565b5b6000620004e88e828f0162000481565b9b50506020620004fb8e828f016200046a565b9a505060406200050e8e828f0162000498565b9950506060620005218e828f0162000498565b9850506080620005348e828f0162000498565b97505060a0620005478e828f0162000498565b96505060c06200055a8e828f0162000498565b95505060e06200056d8e828f0162000498565b945050610100620005818e828f0162000498565b935050610120620005958e828f0162000498565b925050610140620005a98e828f0162000498565b9150509295989b509295989b9093969950565b6000620005cb60208362000773565b9150620005d88262000875565b602082019050919050565b61012082016000808301549050620005fb8162000816565b6200060a600086018262000722565b50600183015490506200061d8162000816565b6200062c602086018262000722565b50600283015490506200063f8162000816565b6200064e604086018262000722565b5060038301549050620006618162000816565b62000670606086018262000722565b5060048301549050620006838162000816565b62000692608086018262000722565b5060058301549050620006a58162000816565b620006b460a086018262000722565b5060068301549050620006c78162000816565b620006d660c086018262000722565b5060078301549050620006e98162000816565b620006f860e086018262000722565b50600883015490506200070b8162000816565b6200071b61010086018262000722565b5050505050565b6200072d81620007d6565b82525050565b600060208201905081810360008301526200074e81620005bc565b9050919050565b6000610120820190506200076d6000830184620005e3565b92915050565b600082825260208201905092915050565b6000819050919050565b60006200079b82620007b6565b9050919050565b6000620007af826200078e565b9050919050565b600073ffffffffffffffffffffffffffffffffffffffff82169050919050565b6000819050919050565b60006002820490506001821680620007f957607f821691505b6020821081141562000810576200080f62000834565b5b50919050565b60006200082d620008278362000868565b62000784565b9050919050565b7f4e487b7100000000000000000000000000000000000000000000000000000000600052602260045260246000fd5b600080fd5b60008160001c9050919050565b7f4f776e61626c653a2063616c6c6572206973206e6f7420746865206f776e6572600082015250565b620008a9816200078e565b8114620008b557600080fd5b50565b620008c381620007a2565b8114620008cf57600080fd5b50565b620008dd81620007d6565b8114620008e957600080fd5b50565b60805160601c60a05160601c616184620009346000396000818161219c01526123ac01526000818161136a01528181611a2701528181612510015261260201526161846000f3fe6080604052600436106101655760003560e01c80638da5cb5b116100d1578063c651bce81161008a578063d6a71c0d11610064578063d6a71c0d14610556578063d904c73214610581578063ebcd31ac146105ac578063f2fde38b146105d557610165565b8063c651bce8146104c5578063c7178230146104ee578063ca998f561461051957610165565b80638da5cb5b146103c45780638e53548b146103ef578063aa67c9191461042c578063af595dfc14610448578063c2da078614610471578063c4775a681461049a57610165565b80636bd50cef116101235780636bd50cef146102b357806370a08231146102de578063715018a61461031b578063746d300c146103325780637542ff951461037057806383b718711461039b57610165565b8062f714ce1461016a5780630dd3eded1461019357806310c45431146101be578063194ac307146101fc57806326595b9d146102395780632ad311b514610276575b600080fd5b34801561017657600080fd5b50610191600480360381019061018c9190613c73565b6105fe565b005b34801561019f57600080fd5b506101a86107cb565b6040516101b591906153b9565b60405180910390f35b3480156101ca57600080fd5b506101e560048036038101906101e09190613d0f565b6107d0565b6040516101f3929190614d12565b60405180910390f35b34801561020857600080fd5b50610223600480360381019061021e91906138d6565b61132d565b60405161023091906153b9565b60405180910390f35b34801561024557600080fd5b50610260600480360381019061025b9190613c46565b611345565b60405161026d91906153b9565b60405180910390f35b34801561028257600080fd5b5061029d600480360381019061029891906138d6565b611366565b6040516102aa9190614cf7565b60405180910390f35b3480156102bf57600080fd5b506102c8611428565b6040516102d591906152a7565b60405180910390f35b3480156102ea57600080fd5b50610305600480360381019061030091906138d6565b61149d565b60405161031291906153b9565b60405180910390f35b34801561032757600080fd5b506103306114e6565b005b34801561033e57600080fd5b5061035960048036038101906103549190613b2c565b61156e565b604051610367929190614eab565b60405180910390f35b34801561037c57600080fd5b50610385611a25565b6040516103929190614e90565b60405180910390f35b3480156103a757600080fd5b506103c260048036038101906103bd9190613de7565b611a49565b005b3480156103d057600080fd5b506103d9611b73565b6040516103e69190614b81565b60405180910390f35b3480156103fb57600080fd5b5061041660048036038101906104119190613cb3565b611b9c565b60405161042391906153b9565b60405180910390f35b610446600480360381019061044191906138d6565b611c0f565b005b34801561045457600080fd5b5061046f600480360381019061046a9190613c46565b611d5a565b005b34801561047d57600080fd5b5061049860048036038101906104939190613943565b611e5b565b005b3480156104a657600080fd5b506104af61219a565b6040516104bc9190614b81565b60405180910390f35b3480156104d157600080fd5b506104ec60048036038101906104e79190613afe565b6121be565b005b3480156104fa57600080fd5b506105036122d6565b6040516105109190614cf7565b60405180910390f35b34801561052557600080fd5b50610540600480360381019061053b91906138d6565b6122e3565b60405161054d9190614b81565b60405180910390f35b34801561056257600080fd5b5061056b612316565b60405161057891906153b9565b60405180910390f35b34801561058d57600080fd5b5061059661231c565b6040516105a39190614edb565b60405180910390f35b3480156105b857600080fd5b506105d360048036038101906105ce9190613903565b6123aa565b005b3480156105e157600080fd5b506105fc60048036038101906105f791906138d6565b612699565b005b600033905082600d60008373ffffffffffffffffffffffffffffffffffffffff1673ffffffffffffffffffffffffffffffffffffffff168152602001908152602001600020541015610685576040517f08c379a000000000000000000000000000000000000000000000000000000000815260040161067c9061515d565b60405180910390fd5b6106d783600d60008473ffffffffffffffffffffffffffffffffffffffff1673ffffffffffffffffffffffffffffffffffffffff1681526020019081526020016000205461279190919063ffffffff16565b600d60008373ffffffffffffffffffffffffffffffffffffffff1673ffffffffffffffffffffffffffffffffffffffff168152602001908152602001600020819055508173ffffffffffffffffffffffffffffffffffffffff166108fc849081150290604051600060405180830381858888f19350505050158015610760573d6000803e3d6000fd5b508173ffffffffffffffffffffffffffffffffffffffff168173ffffffffffffffffffffffffffffffffffffffff167fd1c19fbcd4551a5edfb66d43d2e337c04837afda3482b42bdf569a8fccdae5fb856040516107be91906153b9565b60405180910390a3505050565b601081565b600060606107dc613334565b5a8160400181815250506107ee6122d6565b1561082e576040517f08c379a000000000000000000000000000000000000000000000000000000000815260040161082590614f1d565b60405180910390fd5b60048980600001906108409190615477565b8060a0019061084f9190615414565b9050101561086157600060e01b6108ce565b6108cd8980600001906108749190615477565b8060a001906108839190615414565b8080601f016020809104026020016040519081016040528093929190818152602001838380828437600081840152601f19601f8201169050808301925050505050505060006127a7565b5b81602001907bffffffffffffffffffffffffffffffffffffffffffffffffffffffff191690817bffffffffffffffffffffffffffffffffffffffffffffffffffffffff1916815250503273ffffffffffffffffffffffffffffffffffffffff163373ffffffffffffffffffffffffffffffffffffffff1614610985576040517f08c379a000000000000000000000000000000000000000000000000000000000815260040161097c9061505d565b60405180910390fd5b600b60003373ffffffffffffffffffffffffffffffffffffffff1673ffffffffffffffffffffffffffffffffffffffff16815260200190815260200160002060009054906101000a900473ffffffffffffffffffffffffffffffffffffffff1681610160019073ffffffffffffffffffffffffffffffffffffffff16908173ffffffffffffffffffffffffffffffffffffffff1681525050600073ffffffffffffffffffffffffffffffffffffffff1681610160015173ffffffffffffffffffffffffffffffffffffffff161415610a92576040517f08c379a0000000000000000000000000000000000000000000000000000000008152600401610a899061521d565b60405180910390fd5b3373ffffffffffffffffffffffffffffffffffffffff16898060200190610ab9919061549f565b6060016020810190610acb91906138d6565b73ffffffffffffffffffffffffffffffffffffffff1614610b21576040517f08c379a0000000000000000000000000000000000000000000000000000000008152600401610b189061519d565b60405180910390fd5b610b2f816101600151611366565b610b6e576040517f08c379a0000000000000000000000000000000000000000000000000000000008152600401610b659061503d565b60405180910390fd5b3a898060200190610b7f919061549f565b600001351115610bc4576040517f08c379a0000000000000000000000000000000000000000000000000000000008152600401610bbb90614ffd565b60405180910390fd5b45841115610c07576040517f08c379a0000000000000000000000000000000000000000000000000000000008152600401610bfe90614efd565b60405180910390fd5b610c178a8a83604001518761282d565b8260a0018361010001828152508290525050610c368989898989612bce565b60006002600101546040603f5a610c4d919061570e565b610c5791906156dd565b610c619190615768565b90505a82610120018181525050600060028001546002600301548784610c879190615687565b610c919190615687565b610c9b9190615687565b90506000803073ffffffffffffffffffffffffffffffffffffffff168463746d300c60e01b8f8f8f8f8f8c60a001515a8c610cd69190615768565b8e6101000151604051602401610cf39897969594939291906152df565b604051602081830303815290604052907bffffffffffffffffffffffffffffffffffffffffffffffffffffffff19166020820180517bffffffffffffffffffffffffffffffffffffffffffffffffffffffff8381831617835250505050604051610d5d9190614b01565b60006040518083038160008787f1925050503d8060008114610d9b576040519150601f19603f3d011682016040523d82523d6000602084013e610da0565b606091505b5091509150818560000190151590811515815250505a856101200151610dc69190615768565b8560e001818152505080806020019051810190610de39190613a75565b8660c00187608001829052826006811115610e0157610e006159e5565b5b6006811115610e1357610e126159e5565b5b815250505060008560800151511115610e68577fa1478a4242848419db824250a0dddc645dca0d6a9b12ab1fd79b00145a0ba98e8560c001518660800151604051610e5f929190614eab565b60405180910390a15b50505050610e796000369050611345565b8161018001818152505080600001516110605760026006811115610ea057610e9f6159e5565b5b8160c001516006811115610eb757610eb66159e5565b5b1480610f4d5750610ede8161018001518260a0015160000151612cf490919063ffffffff16565b8160e0015111158015610f4c575060036006811115610f0057610eff6159e5565b5b8160c001516006811115610f1757610f166159e5565b5b1480610f4b575060046006811115610f3257610f316159e5565b5b8160c001516006811115610f4957610f486159e5565b5b145b5b5b1561105f5760009250888060000190610f669190615477565b6000016020810190610f7891906138d6565b73ffffffffffffffffffffffffffffffffffffffff16898060200190610f9e919061549f565b6080016020810190610fb091906138d6565b73ffffffffffffffffffffffffffffffffffffffff1682610160015173ffffffffffffffffffffffffffffffffffffffff167fddb88484d11f800b80fe63aa67488ec56ee001d85896d528912c5d850cbcd06a8c80600001906110139190615477565b602001602081019061102591906138d6565b3386602001518760e001518860800151604051611046959493929190614c26565b60405180910390a4600081608001519250925050611321565b5b60006002600301545a866110749190615768565b61107e9190615687565b9050600061109b828c8060200190611096919061549f565b611b9c565b905061111081600d60008e80602001906110b5919061549f565b60800160208101906110c791906138d6565b73ffffffffffffffffffffffffffffffffffffffff1673ffffffffffffffffffffffffffffffffffffffff1681526020019081526020016000205461279190919063ffffffff16565b600d60008d8060200190611124919061549f565b608001602081019061113691906138d6565b73ffffffffffffffffffffffffffffffffffffffff1673ffffffffffffffffffffffffffffffffffffffff168152602001908152602001600020819055506111cb81600d600086610160015173ffffffffffffffffffffffffffffffffffffffff1673ffffffffffffffffffffffffffffffffffffffff16815260200190815260200160002054612cf490919063ffffffff16565b600d600085610160015173ffffffffffffffffffffffffffffffffffffffff1673ffffffffffffffffffffffffffffffffffffffff168152602001908152602001600020819055508a80600001906112239190615477565b600001602081019061123591906138d6565b73ffffffffffffffffffffffffffffffffffffffff163373ffffffffffffffffffffffffffffffffffffffff1684610160015173ffffffffffffffffffffffffffffffffffffffff167fc9aa709786a3d5fe2cc947abc1ba8cbb0f6decb57aa74b84eb7f558125fee4548e80600001906112af9190615477565b60200160208101906112c191906138d6565b8f80602001906112d1919061549f565b60800160208101906112e391906138d6565b88602001518960c00151886040516112ff959493929190614bd3565b60405180910390a4600160405180602001604052806000815250945094505050505b97509795505050505050565b600c6020528060005260406000206000915090505481565b600061135f82600260070154612d0a90919063ffffffff16565b9050919050565b60007f000000000000000000000000000000000000000000000000000000000000000073ffffffffffffffffffffffffffffffffffffffff16636de8dd4183306002600601546002600501546040518563ffffffff1660e01b81526004016113d19493929190614c80565b60206040518083038186803b1580156113e957600080fd5b505afa1580156113fd573d6000803e3d6000fd5b505050506040513d601f19601f820116820180604052508101906114219190613990565b9050919050565b6114306133eb565b6002604051806101200160405290816000820154815260200160018201548152602001600282015481526020016003820154815260200160048201548152602001600582015481526020016006820154815260200160078201548152602001600882015481525050905090565b6000600d60008373ffffffffffffffffffffffffffffffffffffffff1673ffffffffffffffffffffffffffffffffffffffff168152602001908152602001600020549050919050565b6114ee612d20565b73ffffffffffffffffffffffffffffffffffffffff1661150c611b73565b73ffffffffffffffffffffffffffffffffffffffff1614611562576040517f08c379a0000000000000000000000000000000000000000000000000000000008152600401611559906150dd565b60405180910390fd5b61156c6000612d28565b565b6000606061157a613437565b3073ffffffffffffffffffffffffffffffffffffffff163373ffffffffffffffffffffffffffffffffffffffff16146115e8576040517f08c379a00000000000000000000000000000000000000000000000000000000081526004016115df90614fdd565b60405180910390fd5b600d60008c80602001906115fc919061549f565b608001602081019061160e91906138d6565b73ffffffffffffffffffffffffffffffffffffffff1673ffffffffffffffffffffffffffffffffffffffff1681526020019081526020016000205481600001818152505062be5dd460e01b8b8b8b8b8b896040516024016116749695949392919061535b565b604051602081830303815290604052907bffffffffffffffffffffffffffffffffffffffffffffffffffffffff19166020820180517bffffffffffffffffffffffffffffffffffffffffffffffffffffffff83818316178352505050508160a00181905250600060608c80602001906116ed919061549f565b60800160208101906116ff91906138d6565b73ffffffffffffffffffffffffffffffffffffffff1688602001358460a0015160405161172c9190614b01565b60006040518083038160008787f1925050503d806000811461176a576040519150601f19603f3d011682016040523d82523d6000602084013e61176f565b606091505b508092508193505050816117925761178681612dec565b611791600282612dfb565b5b808060200190518101906117a69190613a19565b846080018560c00182151515158152508290525050505060006117ca8c8c8c612e34565b84604001856060018290528215151515815250829350505050806117f8576117f760038360600151612dfb565b5b8160c00151801561180b57508160400151155b156118205761181f60048360600151612dfb565b5b506376fa01c360e01b816080015182604001515a8861183f9190615768565b8e806020019061184f919061549f565b6040516024016118629493929190614e3d565b604051602081830303815290604052907bffffffffffffffffffffffffffffffffffffffffffffffffffffffff19166020820180517bffffffffffffffffffffffffffffffffffffffffffffffffffffffff83818316178352505050508160a001819052506000808c80602001906118da919061549f565b60800160208101906118ec91906138d6565b73ffffffffffffffffffffffffffffffffffffffff1688604001358460a001516040516119199190614b01565b60006040518083038160008787f1925050503d8060008114611957576040519150601f19603f3d011682016040523d82523d6000602084013e61195c565b606091505b50915091508161197257611971600582612dfb565b5b50508060000151600d60008d806020019061198d919061549f565b608001602081019061199f91906138d6565b73ffffffffffffffffffffffffffffffffffffffff1673ffffffffffffffffffffffffffffffffffffffff1681526020019081526020016000205410156119fb576119fa600660405180602001604052806000815250612dfb565b5b8060400151611a0b576001611a0e565b60005b816060015192509250509850989650505050505050565b7f000000000000000000000000000000000000000000000000000000000000000081565b6000339050611a5781611366565b611a96576040517f08c379a0000000000000000000000000000000000000000000000000000000008152600401611a8d9061503d565b60405180910390fd5b6000600c60008373ffffffffffffffffffffffffffffffffffffffff1673ffffffffffffffffffffffffffffffffffffffff1681526020019081526020016000205411611b18576040517f08c379a0000000000000000000000000000000000000000000000000000000008152600401611b0f9061507d565b60405180910390fd5b8073ffffffffffffffffffffffffffffffffffffffff167f77f2d8afec4b9d82ffa0dea525320620292bd1067f575964994d5c4501479aed86868686604051611b6494939291906153d4565b60405180910390a25050505050565b60008060009054906101000a900473ffffffffffffffffffffffffffffffffffffffff16905090565b6000611c07611bf46064611be6611bc160648760200135612cf490919063ffffffff16565b611bd8876000013589612d0a90919063ffffffff16565b612d0a90919063ffffffff16565b61307890919063ffffffff16565b8360400135612cf490919063ffffffff16565b905092915050565b6000349050600260040154811115611c5c576040517f08c379a0000000000000000000000000000000000000000000000000000000008152600401611c539061501d565b60405180910390fd5b611cae81600d60008573ffffffffffffffffffffffffffffffffffffffff1673ffffffffffffffffffffffffffffffffffffffff16815260200190815260200160002054612cf490919063ffffffff16565b600d60008473ffffffffffffffffffffffffffffffffffffffff1673ffffffffffffffffffffffffffffffffffffffff168152602001908152602001600020819055503373ffffffffffffffffffffffffffffffffffffffff168273ffffffffffffffffffffffffffffffffffffffff167f8752a472e571a816aea92eec8dae9baf628e840f4929fbcc2d155e6233ff68a783604051611d4e91906153b9565b60405180910390a35050565b611d62612d20565b73ffffffffffffffffffffffffffffffffffffffff16611d80611b73565b73ffffffffffffffffffffffffffffffffffffffff1614611dd6576040517f08c379a0000000000000000000000000000000000000000000000000000000008152600401611dcd906150dd565b60405180910390fd5b43600e5411611e1a576040517f08c379a0000000000000000000000000000000000000000000000000000000008152600401611e1190614f5d565b60405180910390fd5b80600e819055507f1c0aa0c666483fbf0cf795d9d646ea3552d1e3008162ba9ab1d6d6dfd8c6ec6b81604051611e5091906153b9565b60405180910390a150565b6000339050600083839050600c60008473ffffffffffffffffffffffffffffffffffffffff1673ffffffffffffffffffffffffffffffffffffffff16815260200190815260200160002054611eb09190615687565b905080600c60008473ffffffffffffffffffffffffffffffffffffffff1673ffffffffffffffffffffffffffffffffffffffff16815260200190815260200160002081905550600260000154811115611f3e576040517f08c379a0000000000000000000000000000000000000000000000000000000008152600401611f359061511d565b60405180910390fd5b611f4782611366565b611f86576040517f08c379a0000000000000000000000000000000000000000000000000000000008152600401611f7d9061503d565b60405180910390fd5b60005b8484905081101561214157600073ffffffffffffffffffffffffffffffffffffffff16600b6000878785818110611fc357611fc2615a43565b5b9050602002016020810190611fd891906138d6565b73ffffffffffffffffffffffffffffffffffffffff1673ffffffffffffffffffffffffffffffffffffffff16815260200190815260200160002060009054906101000a900473ffffffffffffffffffffffffffffffffffffffff1673ffffffffffffffffffffffffffffffffffffffff1614612089576040517f08c379a000000000000000000000000000000000000000000000000000000000815260040161208090614f7d565b60405180910390fd5b82600b60008787858181106120a1576120a0615a43565b5b90506020020160208101906120b691906138d6565b73ffffffffffffffffffffffffffffffffffffffff1673ffffffffffffffffffffffffffffffffffffffff16815260200190815260200160002060006101000a81548173ffffffffffffffffffffffffffffffffffffffff021916908373ffffffffffffffffffffffffffffffffffffffff16021790555080806121399061593e565b915050611f89565b508173ffffffffffffffffffffffffffffffffffffffff167febf4a9bffb39f7c5dbf3f65540183b9381ae226ac3d0a45b4cad484713bd4a2885858460405161218c93929190614cc5565b60405180910390a250505050565b7f000000000000000000000000000000000000000000000000000000000000000081565b6121c6612d20565b73ffffffffffffffffffffffffffffffffffffffff166121e4611b73565b73ffffffffffffffffffffffffffffffffffffffff161461223a576040517f08c379a0000000000000000000000000000000000000000000000000000000008152600401612231906150dd565b60405180910390fd5b806002600082015181600001556020820151816001015560408201518160020155606082015181600301556080820151816004015560a0820151816005015560c0820151816006015560e0820151816007015561010082015181600801559050507f918ee002eb112844e457f37ea6b320c5572bc73957ebb0423ffcfb03d7b939d760026040516122cb91906152c3565b60405180910390a150565b6000600e54431015905090565b600b6020528060005260406000206000915054906101000a900473ffffffffffffffffffffffffffffffffffffffff1681565b600e5481565b60018054612329906158c1565b80601f0160208091040260200160405190810160405280929190818152602001828054612355906158c1565b80156123a25780601f10612377576101008083540402835291602001916123a2565b820191906000526020600020905b81548152906001019060200180831161238557829003601f168201915b505050505081565b7f000000000000000000000000000000000000000000000000000000000000000073ffffffffffffffffffffffffffffffffffffffff163373ffffffffffffffffffffffffffffffffffffffff1614612438576040517f08c379a000000000000000000000000000000000000000000000000000000000815260040161242f906150bd565b60405180910390fd5b6000600b60008473ffffffffffffffffffffffffffffffffffffffff1673ffffffffffffffffffffffffffffffffffffffff16815260200190815260200160002060009054906101000a900473ffffffffffffffffffffffffffffffffffffffff169050600073ffffffffffffffffffffffffffffffffffffffff168173ffffffffffffffffffffffffffffffffffffffff16141561250c576040517f08c379a00000000000000000000000000000000000000000000000000000000081526004016125039061521d565b60405180910390fd5b60007f000000000000000000000000000000000000000000000000000000000000000073ffffffffffffffffffffffffffffffffffffffff1663c3453153836040518263ffffffff1660e01b81526004016125679190614b81565b60806040518083038186803b15801561257f57600080fd5b505afa158015612593573d6000803e3d6000fd5b505050506040513d601f19601f820116820180604052508101906125b79190613c19565b90506000816000015111612600576040517f08c379a00000000000000000000000000000000000000000000000000000000081526004016125f79061503d565b60405180910390fd5b7f000000000000000000000000000000000000000000000000000000000000000073ffffffffffffffffffffffffffffffffffffffff166309a08af4838584600001516040518463ffffffff1660e01b815260040161266193929190614b9c565b600060405180830381600087803b15801561267b57600080fd5b505af115801561268f573d6000803e3d6000fd5b5050505050505050565b6126a1612d20565b73ffffffffffffffffffffffffffffffffffffffff166126bf611b73565b73ffffffffffffffffffffffffffffffffffffffff1614612715576040517f08c379a000000000000000000000000000000000000000000000000000000000815260040161270c906150dd565b60405180910390fd5b600073ffffffffffffffffffffffffffffffffffffffff168173ffffffffffffffffffffffffffffffffffffffff161415612785576040517f08c379a000000000000000000000000000000000000000000000000000000000815260040161277c90614f9d565b60405180910390fd5b61278e81612d28565b50565b6000818361279f9190615768565b905092915050565b60006004826127b69190615687565b835110156127f9576040517f08c379a00000000000000000000000000000000000000000000000000000000081526004016127f0906151fd565b60405180910390fd5b6020820183015190507fffffffff000000000000000000000000000000000000000000000000000000008116905092915050565b61283561347b565b6000848060200190612847919061549f565b608001602081019061285991906138d6565b73ffffffffffffffffffffffffffffffffffffffff1663b039a88f61c3506040518263ffffffff1660e01b815260040160806040518083038187803b1580156128a157600080fd5b5086fa1580156128b5573d6000803e3d6000fd5b50505050506040513d601f19601f820116820180604052508101906128da9190613ad1565b9150816060015160003690501115612927576040517f08c379a000000000000000000000000000000000000000000000000000000000815260040161291e9061509d565b60405180910390fd5b60006129366000369050611345565b90506000600260080154868661294c9190615768565b6129569190615768565b90506000803690508261296991906156dd565b905060108111156129af576040517f08c379a00000000000000000000000000000000000000000000000000000000081526004016129a690614f3d565b60405180910390fd5b84600001518910156129f6576040517f08c379a00000000000000000000000000000000000000000000000000000000081526004016129ed9061513d565b60405180910390fd5b846020015185600001511015612a41576040517f08c379a0000000000000000000000000000000000000000000000000000000008152600401612a3890614fbd565b60405180910390fd5b612abc82612aae85612aa08c8060000190612a5c9190615477565b60600135612a928b60400151612a848d60200151600260030154612cf490919063ffffffff16565b612cf490919063ffffffff16565b612cf490919063ffffffff16565b612cf490919063ffffffff16565b612cf490919063ffffffff16565b935083861015612b01576040517f08c379a0000000000000000000000000000000000000000000000000000000008152600401612af8906150fd565b60405180910390fd5b6000612b1c858a8060200190612b17919061549f565b611b9c565b9050600d60008a8060200190612b32919061549f565b6080016020810190612b4491906138d6565b73ffffffffffffffffffffffffffffffffffffffff1673ffffffffffffffffffffffffffffffffffffffff16815260200190815260200160002054811115612bc1576040517f08c379a0000000000000000000000000000000000000000000000000000000008152600401612bb8906151bd565b60405180910390fd5b5050505094509492505050565b6000612bf7868060200190612be3919061549f565b8060c00190612bf29190615414565b61308e565b612c1e878060000190612c0a9190615477565b8060a00190612c199190615414565b61308e565b612c28858561308e565b612c32888861308e565b6102c4612c3f9190615687565b612c499190615687565b612c539190615687565b612c5d9190615687565b90506041858590501115612ca6576040517f08c379a0000000000000000000000000000000000000000000000000000000008152600401612c9d906151dd565b60405180910390fd5b60003690508114612cec576040517f08c379a0000000000000000000000000000000000000000000000000000000008152600401612ce39061517d565b60405180910390fd5b505050505050565b60008183612d029190615687565b905092915050565b60008183612d18919061570e565b905092915050565b600033905090565b60008060009054906101000a900473ffffffffffffffffffffffffffffffffffffffff169050816000806101000a81548173ffffffffffffffffffffffffffffffffffffffff021916908373ffffffffffffffffffffffffffffffffffffffff1602179055508173ffffffffffffffffffffffffffffffffffffffff168173ffffffffffffffffffffffffffffffffffffffff167f8be0079c531659141344cd1fd0a4f28419497f9722a3daafe3b4186f6b6457e060405160405180910390a35050565b612df8816104006130e2565b50565b60008282604051602001612e10929190614eab565b6040516020818303038152906040529050612e2a81612dec565b8051602082018181fd5b60008060606000612e44876130f3565b90506000612e72888060200190612e5b919061549f565b60a0016020810190612e6d91906138d6565b613133565b9050878060200190612e84919061549f565b60a0016020810190612e9691906138d6565b73ffffffffffffffffffffffffffffffffffffffff1663e024dc7f60e01b898060000190612ec49190615477565b836040518060400160405280600c81526020017f52656c61795265717565737400000000000000000000000000000000000000008152506040518060800160405280605d8152602001616051605d91396040518060e0016040528060a181526020016160ae60a19139604051602001612f3d9190614b5f565b604051602081830303815290604052604051602001612f5e93929190614b18565b60405160208183030381529060405280519060200120868c8c604051602401612f8c9695949392919061523d565b604051602081830303815290604052907bffffffffffffffffffffffffffffffffffffffffffffffffffffffff19166020820180517bffffffffffffffffffffffffffffffffffffffffffffffffffffffff8381831617835250505050604051612ff69190614b01565b6000604051808303816000865af19150503d8060008114613033576040519150601f19603f3d011682016040523d82523d6000602084013e613038565b606091505b5080945081965050508415613064578280602001905181019061305b91906139bd565b80945081955050505b61306d83612dec565b505093509350939050565b6000818361308691906156dd565b905092915050565b6000601f7fffffffffffffffffffffffffffffffffffffffffffffffffffffffffffffffff6130bd9190615768565b601f848490506130cd9190615687565b1660206130da9190615687565b905092915050565b80825111156130ef578082525b5050565b606061310d828060200190613108919061549f565b6131ec565b60405160200161311d9190614d42565b6040516020818303038152906040529050919050565b60006131e560405180608001604052806040518060400160405280601781526020017f47534e2052656c61796564205472616e73616374696f6e00000000000000000081525081526020016040518060400160405280600181526020017f320000000000000000000000000000000000000000000000000000000000000081525081526020016131c16132b6565b81526020018473ffffffffffffffffffffffffffffffffffffffff168152506132be565b9050919050565b60006040518060e0016040528060a181526020016160ae60a191398051906020012082600001358360200135846040013585606001602081019061323091906138d6565b86608001602081019061324391906138d6565b8760a001602081019061325691906138d6565b888060c001906132669190615414565b604051613274929190614ae8565b60405180910390208960e0013560405160200161329999989796959493929190614db0565b604051602081830303815290604052805190602001209050919050565b600046905090565b60007f8b73c3c69bb8fe3d512ecc4cf759cc79239f7b179b0ffacaa9a75d522b39400f82600001518051906020012083602001518051906020012084604001518560600151604051602001613317959493929190614d5d565b604051602081830303815290604052805190602001209050919050565b604051806101a0016040528060001515815260200160007bffffffffffffffffffffffffffffffffffffffffffffffffffffffff1916815260200160008152602001606081526020016060815260200161338c61347b565b8152602001600060068111156133a5576133a46159e5565b5b815260200160008152602001600081526020016000815260200160608152602001600073ffffffffffffffffffffffffffffffffffffffff168152602001600081525090565b6040518061012001604052806000815260200160008152602001600081526020016000815260200160008152602001600081526020016000815260200160008152602001600081525090565b6040518060e0016040528060008152602001600080191681526020016000151581526020016060815260200160608152602001606081526020016000151581525090565b6040518060800160405280600081526020016000815260200160008152602001600081525090565b60006134b66134b1846154ed565b6154c8565b9050828152602081018484840111156134d2576134d1615ad3565b5b6134dd84828561588e565b509392505050565b6000813590506134f481615fe4565b92915050565b60008135905061350981615ffb565b92915050565b60008151905061351e81615ffb565b92915050565b60008083601f84011261353a57613539615aab565b5b8235905067ffffffffffffffff81111561355757613556615aa6565b5b60208301915083602082028301111561357357613572615ac9565b5b9250929050565b60008151905061358981616012565b92915050565b60008083601f8401126135a5576135a4615aab565b5b8235905067ffffffffffffffff8111156135c2576135c1615aa6565b5b6020830191508360018202830111156135de576135dd615ac9565b5b9250929050565b600082601f8301126135fa576135f9615aab565b5b815161360a8482602086016134a3565b91505092915050565b60008151905061362281616029565b92915050565b60008083601f84011261363e5761363d615aab565b5b8235905067ffffffffffffffff81111561365b5761365a615aa6565b5b60208301915083600182028301111561367757613676615ac9565b5b9250929050565b60006080828403121561369457613693615ab5565b5b81905092915050565b6000608082840312156136b3576136b2615aba565b5b6136bd60806154c8565b905060006136cd848285016138c1565b60008301525060206136e1848285016138c1565b60208301525060406136f5848285016138c1565b6040830152506060613709848285016138c1565b60608301525092915050565b6000610100828403121561372c5761372b615ab5565b5b81905092915050565b6000610120828403121561374c5761374b615aba565b5b6137576101206154c8565b90506000613767848285016138ac565b600083015250602061377b848285016138ac565b602083015250604061378f848285016138ac565b60408301525060606137a3848285016138ac565b60608301525060806137b7848285016138ac565b60808301525060a06137cb848285016138ac565b60a08301525060c06137df848285016138ac565b60c08301525060e06137f3848285016138ac565b60e083015250610100613808848285016138ac565b6101008301525092915050565b60006040828403121561382b5761382a615ab5565b5b81905092915050565b60006080828403121561384a57613849615aba565b5b61385460806154c8565b90506000613864848285016138c1565b6000830152506020613878848285016138c1565b602083015250604061388c848285016138c1565b60408301525060606138a08482850161350f565b60608301525092915050565b6000813590506138bb81616039565b92915050565b6000815190506138d081616039565b92915050565b6000602082840312156138ec576138eb615ae2565b5b60006138fa848285016134e5565b91505092915050565b6000806040838503121561391a57613919615ae2565b5b6000613928858286016134e5565b9250506020613939858286016134fa565b9150509250929050565b6000806020838503121561395a57613959615ae2565b5b600083013567ffffffffffffffff81111561397857613977615ad8565b5b61398485828601613524565b92509250509250929050565b6000602082840312156139a6576139a5615ae2565b5b60006139b48482850161357a565b91505092915050565b600080604083850312156139d4576139d3615ae2565b5b60006139e28582860161357a565b925050602083015167ffffffffffffffff811115613a0357613a02615ad8565b5b613a0f858286016135e5565b9150509250929050565b60008060408385031215613a3057613a2f615ae2565b5b600083015167ffffffffffffffff811115613a4e57613a4d615ad8565b5b613a5a858286016135e5565b9250506020613a6b8582860161357a565b9150509250929050565b60008060408385031215613a8c57613a8b615ae2565b5b6000613a9a85828601613613565b925050602083015167ffffffffffffffff811115613abb57613aba615ad8565b5b613ac7858286016135e5565b9150509250929050565b600060808284031215613ae757613ae6615ae2565b5b6000613af58482850161369d565b91505092915050565b60006101208284031215613b1557613b14615ae2565b5b6000613b2384828501613735565b91505092915050565b600080600080600080600080610120898b031215613b4d57613b4c615ae2565b5b600089013567ffffffffffffffff811115613b6b57613b6a615ad8565b5b613b778b828c01613815565b985050602089013567ffffffffffffffff811115613b9857613b97615ad8565b5b613ba48b828c0161358f565b9750975050604089013567ffffffffffffffff811115613bc757613bc6615ad8565b5b613bd38b828c0161358f565b95509550506060613be68b828c0161367e565b93505060e0613bf78b828c016138ac565b925050610100613c098b828c016138ac565b9150509295985092959890939650565b600060808284031215613c2f57613c2e615ae2565b5b6000613c3d84828501613834565b91505092915050565b600060208284031215613c5c57613c5b615ae2565b5b6000613c6a848285016138ac565b91505092915050565b60008060408385031215613c8a57613c89615ae2565b5b6000613c98858286016138ac565b9250506020613ca9858286016134fa565b9150509250929050565b60008060408385031215613cca57613cc9615ae2565b5b6000613cd8858286016138ac565b925050602083013567ffffffffffffffff811115613cf957613cf8615ad8565b5b613d0585828601613715565b9150509250929050565b600080600080600080600060a0888a031215613d2e57613d2d615ae2565b5b6000613d3c8a828b016138ac565b975050602088013567ffffffffffffffff811115613d5d57613d5c615ad8565b5b613d698a828b01613815565b965050604088013567ffffffffffffffff811115613d8a57613d89615ad8565b5b613d968a828b0161358f565b9550955050606088013567ffffffffffffffff811115613db957613db8615ad8565b5b613dc58a828b0161358f565b93509350506080613dd88a828b016138ac565b91505092959891949750929550565b60008060008060608587031215613e0157613e00615ae2565b5b6000613e0f878288016138ac565b9450506020613e20878288016138ac565b935050604085013567ffffffffffffffff811115613e4157613e40615ad8565b5b613e4d87828801613628565b925092505092959194509250565b6000613e678383613e82565b60208301905092915050565b613e7c816157b8565b82525050565b613e8b816157a6565b82525050565b613e9a816157a6565b82525050565b6000613eac838561554b565b9350613eb78261551e565b8060005b85811015613ef057613ecd82846155a5565b613ed78882613e5b565b9750613ee28361553e565b925050600181019050613ebb565b5085925050509392505050565b613f06816157ca565b82525050565b613f15816157d6565b82525050565b613f24816157e0565b82525050565b6000613f36838561555c565b9350613f4383858461587f565b613f4c83615ae7565b840190509392505050565b6000613f63838561556d565b9350613f7083858461587f565b613f7983615ae7565b840190509392505050565b6000613f90838561557e565b9350613f9d83858461587f565b82840190509392505050565b6000613fb482615528565b613fbe818561556d565b9350613fce81856020860161588e565b613fd781615ae7565b840191505092915050565b6000613fed82615528565b613ff7818561557e565b935061400781856020860161588e565b80840191505092915050565b61401c81615849565b82525050565b61402b8161586d565b82525050565b600061403d8385615589565b935061404a83858461587f565b61405383615ae7565b840190509392505050565b600061406982615533565b6140738185615589565b935061408381856020860161588e565b61408c81615ae7565b840191505092915050565b60006140a282615533565b6140ac818561559a565b93506140bc81856020860161588e565b80840191505092915050565b60006140d5601483615589565b91506140e082615b05565b602082019050919050565b60006140f8600e83615589565b915061410382615b2e565b602082019050919050565b600061411b601883615589565b915061412682615b57565b602082019050919050565b600061413e601283615589565b915061414982615b80565b602082019050919050565b6000614161601983615589565b915061416c82615ba9565b602082019050919050565b6000614184602683615589565b915061418f82615bd2565b604082019050919050565b60006141a7601983615589565b91506141b282615c21565b602082019050919050565b60006141ca601a83615589565b91506141d582615c4a565b602082019050919050565b60006141ed60018361559a565b91506141f882615c73565b600182019050919050565b600061421060148361559a565b915061421b82615c9c565b601482019050919050565b6000614233601183615589565b915061423e82615cc5565b602082019050919050565b600061425660018361559a565b915061426182615cee565b600182019050919050565b6000614279600f83615589565b915061428482615d17565b602082019050919050565b600061429c601883615589565b91506142a782615d40565b602082019050919050565b60006142bf601883615589565b91506142ca82615d69565b602082019050919050565b60006142e2601083615589565b91506142ed82615d92565b602082019050919050565b6000614305601783615589565b915061431082615dbb565b602082019050919050565b6000614328600d83615589565b915061433382615de4565b602082019050919050565b600061434b602083615589565b915061435682615e0d565b602082019050919050565b600061436e601983615589565b915061437982615e36565b602082019050919050565b6000614391601083615589565b915061439c82615e5f565b602082019050919050565b60006143b4601a83615589565b91506143bf82615e88565b602082019050919050565b60006143d7601283615589565b91506143e282615eb1565b602082019050919050565b60006143fa601483615589565b915061440582615eda565b602082019050919050565b600061441d601283615589565b915061442882615f03565b602082019050919050565b6000614440601983615589565b915061444b82615f2c565b602082019050919050565b6000614463601883615589565b915061446e82615f55565b602082019050919050565b6000614486601a83615589565b915061449182615f7e565b602082019050919050565b60006144a9601483615589565b91506144b482615fa7565b602082019050919050565b600060e083016144d260008401846155a5565b6144df6000860182613e82565b506144ed60208401846155a5565b6144fa6020860182613e82565b506145086040840184615670565b6145156040860182614aca565b506145236060840184615670565b6145306060860182614aca565b5061453e6080840184615670565b61454b6080860182614aca565b5061455960a08401846155bc565b85830360a087015261456c838284613f2a565b9250505061457d60c0840184615670565b61458a60c0860182614aca565b508091505092915050565b600060e083016145a860008401846155a5565b6145b56000860182613e82565b506145c360208401846155a5565b6145d06020860182613e82565b506145de6040840184615670565b6145eb6040860182614aca565b506145f96060840184615670565b6146066060860182614aca565b506146146080840184615670565b6146216080860182614aca565b5061462f60a08401846155bc565b85830360a0870152614642838284613f2a565b9250505061465360c0840184615670565b61466060c0860182614aca565b508091505092915050565b6080820160008201516146816000850182614aca565b5060208201516146946020850182614aca565b5060408201516146a76040850182614aca565b5060608201516146ba6060850182614aca565b50505050565b600061010083016146d46000840184615670565b6146e16000860182614aca565b506146ef6020840184615670565b6146fc6020860182614aca565b5061470a6040840184615670565b6147176040860182614aca565b5061472560608401846155a5565b6147326060860182613e82565b5061474060808401846155a5565b61474d6080860182613e82565b5061475b60a08401846155a5565b61476860a0860182613e82565b5061477660c08401846155bc565b85830360c0870152614789838284613f2a565b9250505061479a60e0840184615670565b6147a760e0860182614aca565b508091505092915050565b600061010083016147c66000840184615670565b6147d36000860182614aca565b506147e16020840184615670565b6147ee6020860182614aca565b506147fc6040840184615670565b6148096040860182614aca565b5061481760608401846155a5565b6148246060860182613e82565b5061483260808401846155a5565b61483f6080860182613e82565b5061484d60a08401846155a5565b61485a60a0860182613e82565b5061486860c08401846155bc565b85830360c087015261487b838284613f2a565b9250505061488c60e0840184615670565b61489960e0860182614aca565b508091505092915050565b610120820160008201516148bb6000850182614aca565b5060208201516148ce6020850182614aca565b5060408201516148e16040850182614aca565b5060608201516148f46060850182614aca565b5060808201516149076080850182614aca565b5060a082015161491a60a0850182614aca565b5060c082015161492d60c0850182614aca565b5060e082015161494060e0850182614aca565b50610100820151614955610100850182614aca565b50505050565b61012082016000808301549050614971816158f3565b61497e6000860182614aca565b506001830154905061498f816158f3565b61499c6020860182614aca565b50600283015490506149ad816158f3565b6149ba6040860182614aca565b50600383015490506149cb816158f3565b6149d86060860182614aca565b50600483015490506149e9816158f3565b6149f66080860182614aca565b5060058301549050614a07816158f3565b614a1460a0860182614aca565b5060068301549050614a25816158f3565b614a3260c0860182614aca565b5060078301549050614a43816158f3565b614a5060e0860182614aca565b5060088301549050614a61816158f3565b614a6f610100860182614aca565b5050505050565b600060408301614a89600084018461561f565b8482036000860152614a9b82826144bf565b915050614aab6020840184615647565b8482036020860152614abd82826146c0565b9150508091505092915050565b614ad38161583f565b82525050565b614ae28161583f565b82525050565b6000614af5828486613f84565b91508190509392505050565b6000614b0d8284613fe2565b915081905092915050565b6000614b248286614097565b9150614b2f82614249565b9150614b3b8285614097565b9150614b46826141e0565b9150614b528284614097565b9150819050949350505050565b6000614b6a82614203565b9150614b768284613fe2565b915081905092915050565b6000602082019050614b966000830184613e91565b92915050565b6000606082019050614bb16000830186613e91565b614bbe6020830185613e73565b614bcb6040830184614ad9565b949350505050565b600060a082019050614be86000830188613e91565b614bf56020830187613e91565b614c026040830186613f1b565b614c0f6060830185614022565b614c1c6080830184614ad9565b9695505050505050565b600060a082019050614c3b6000830188613e91565b614c486020830187613e91565b614c556040830186613f1b565b614c626060830185614ad9565b8181036080830152614c748184613fa9565b90509695505050505050565b6000608082019050614c956000830187613e91565b614ca26020830186613e91565b614caf6040830185614ad9565b614cbc6060830184614ad9565b95945050505050565b60006040820190508181036000830152614ce0818587613ea0565b9050614cef6020830184614ad9565b949350505050565b6000602082019050614d0c6000830184613efd565b92915050565b6000604082019050614d276000830185613efd565b8181036020830152614d398184613fa9565b90509392505050565b6000602082019050614d576000830184613f0c565b92915050565b600060a082019050614d726000830188613f0c565b614d7f6020830187613f0c565b614d8c6040830186613f0c565b614d996060830185614ad9565b614da66080830184613e91565b9695505050505050565b600061012082019050614dc6600083018c613f0c565b614dd3602083018b614ad9565b614de0604083018a614ad9565b614ded6060830189614ad9565b614dfa6080830188613e91565b614e0760a0830187613e91565b614e1460c0830186613e91565b614e2160e0830185613f0c565b614e2f610100830184614ad9565b9a9950505050505050505050565b60006080820190508181036000830152614e578187613fa9565b9050614e666020830186613efd565b614e736040830185614ad9565b8181036060830152614e8581846147b2565b905095945050505050565b6000602082019050614ea56000830184614013565b92915050565b6000604082019050614ec06000830185614022565b8181036020830152614ed28184613fa9565b90509392505050565b60006020820190508181036000830152614ef5818461405e565b905092915050565b60006020820190508181036000830152614f16816140c8565b9050919050565b60006020820190508181036000830152614f36816140eb565b9050919050565b60006020820190508181036000830152614f568161410e565b9050919050565b60006020820190508181036000830152614f7681614131565b9050919050565b60006020820190508181036000830152614f9681614154565b9050919050565b60006020820190508181036000830152614fb681614177565b9050919050565b60006020820190508181036000830152614fd68161419a565b9050919050565b60006020820190508181036000830152614ff6816141bd565b9050919050565b6000602082019050818103600083015261501681614226565b9050919050565b600060208201905081810360008301526150368161426c565b9050919050565b600060208201905081810360008301526150568161428f565b9050919050565b60006020820190508181036000830152615076816142b2565b9050919050565b60006020820190508181036000830152615096816142d5565b9050919050565b600060208201905081810360008301526150b6816142f8565b9050919050565b600060208201905081810360008301526150d68161431b565b9050919050565b600060208201905081810360008301526150f68161433e565b9050919050565b6000602082019050818103600083015261511681614361565b9050919050565b6000602082019050818103600083015261513681614384565b9050919050565b60006020820190508181036000830152615156816143a7565b9050919050565b60006020820190508181036000830152615176816143ca565b9050919050565b60006020820190508181036000830152615196816143ed565b9050919050565b600060208201905081810360008301526151b681614410565b9050919050565b600060208201905081810360008301526151d681614433565b9050919050565b600060208201905081810360008301526151f681614456565b9050919050565b6000602082019050818103600083015261521681614479565b9050919050565b600060208201905081810360008301526152368161449c565b9050919050565b600060a08201905081810360008301526152578189614595565b90506152666020830188613f0c565b6152736040830187613f0c565b81810360608301526152858186613fa9565b9050818103608083015261529a818486613f57565b9050979650505050505050565b6000610120820190506152bd60008301846148a4565b92915050565b6000610120820190506152d9600083018461495b565b92915050565b60006101208201905081810360008301526152fa818b614a76565b9050818103602083015261530f81898b613f57565b90508181036040830152615324818789613f57565b9050615333606083018661466b565b61534060e0830185614ad9565b61534e610100830184614ad9565b9998505050505050505050565b600060808201905081810360008301526153758189614a76565b9050818103602083015261538a818789613f57565b9050818103604083015261539f818587613f57565b90506153ae6060830184614ad9565b979650505050505050565b60006020820190506153ce6000830184614ad9565b92915050565b60006060820190506153e96000830187614ad9565b6153f66020830186614ad9565b8181036040830152615409818486614031565b905095945050505050565b6000808335600160200384360303811261543157615430615abf565b5b80840192508235915067ffffffffffffffff82111561545357615452615ab0565b5b60208301925060018202360383131561546f5761546e615ace565b5b509250929050565b60008235600160e00383360303811261549357615492615abf565b5b80830191505092915050565b600082356001610100038336030381126154bc576154bb615abf565b5b80830191505092915050565b60006154d26154e3565b90506154de828261590d565b919050565b6000604051905090565b600067ffffffffffffffff82111561550857615507615a72565b5b61551182615ae7565b9050602081019050919050565b6000819050919050565b600081519050919050565b600081519050919050565b6000602082019050919050565b600082825260208201905092915050565b600082825260208201905092915050565b600082825260208201905092915050565b600081905092915050565b600082825260208201905092915050565b600081905092915050565b60006155b460208401846134e5565b905092915050565b600080833560016020038436030381126155d9576155d8615add565b5b83810192508235915060208301925067ffffffffffffffff82111561560157615600615aa1565b5b60018202360384131561561757615616615ac4565b5b509250929050565b60008235600160e00383360303811261563b5761563a615add565b5b82810191505092915050565b6000823560016101000383360303811261566457615663615add565b5b82810191505092915050565b600061567f60208401846138ac565b905092915050565b60006156928261583f565b915061569d8361583f565b9250827fffffffffffffffffffffffffffffffffffffffffffffffffffffffffffffffff038211156156d2576156d1615987565b5b828201905092915050565b60006156e88261583f565b91506156f38361583f565b925082615703576157026159b6565b5b828204905092915050565b60006157198261583f565b91506157248361583f565b9250817fffffffffffffffffffffffffffffffffffffffffffffffffffffffffffffffff048311821515161561575d5761575c615987565b5b828202905092915050565b60006157738261583f565b915061577e8361583f565b92508282101561579157615790615987565b5b828203905092915050565b6000819050919050565b60006157b18261581f565b9050919050565b60006157c38261581f565b9050919050565b60008115159050919050565b6000819050919050565b60007fffffffff0000000000000000000000000000000000000000000000000000000082169050919050565b600081905061581a82615fd0565b919050565b600073ffffffffffffffffffffffffffffffffffffffff82169050919050565b6000819050919050565b60006158548261585b565b9050919050565b60006158668261581f565b9050919050565b60006158788261580c565b9050919050565b82818337600083830152505050565b60005b838110156158ac578082015181840152602081019050615891565b838111156158bb576000848401525b50505050565b600060028204905060018216806158d957607f821691505b602082108114156158ed576158ec615a14565b5b50919050565b600061590661590183615af8565b61579c565b9050919050565b61591682615ae7565b810181811067ffffffffffffffff8211171561593557615934615a72565b5b80604052505050565b60006159498261583f565b91507fffffffffffffffffffffffffffffffffffffffffffffffffffffffffffffffff82141561597c5761597b615987565b5b600182019050919050565b7f4e487b7100000000000000000000000000000000000000000000000000000000600052601160045260246000fd5b7f4e487b7100000000000000000000000000000000000000000000000000000000600052601260045260246000fd5b7f4e487b7100000000000000000000000000000000000000000000000000000000600052602160045260246000fd5b7f4e487b7100000000000000000000000000000000000000000000000000000000600052602260045260246000fd5b7f4e487b7100000000000000000000000000000000000000000000000000000000600052603260045260246000fd5b7f4e487b7100000000000000000000000000000000000000000000000000000000600052604160045260246000fd5b600080fd5b600080fd5b600080fd5b600080fd5b600080fd5b600080fd5b600080fd5b600080fd5b600080fd5b600080fd5b600080fd5b600080fd5b600080fd5b600080fd5b6000601f19601f8301169050919050565b60008160001c9050919050565b7f496d706f737369626c6520676173206c696d6974000000000000000000000000600082015250565b7f6875622064657072656361746564000000000000000000000000000000000000600082015250565b7f696e76616c69642065787465726e616c4761734c696d69740000000000000000600082015250565b7f416c726561647920646570726563617465640000000000000000000000000000600082015250565b7f7468697320776f726b6572206861732061206d616e6167657200000000000000600082015250565b7f4f776e61626c653a206e6577206f776e657220697320746865207a65726f206160008201527f6464726573730000000000000000000000000000000000000000000000000000602082015250565b7f616363657074616e63652062756467657420746f6f206c6f7700000000000000600082015250565b7f4d7573742062652063616c6c65642062792052656c6179487562000000000000600082015250565b7f2c00000000000000000000000000000000000000000000000000000000000000600082015250565b7f52656c6179446174612072656c61794461746129000000000000000000000000600082015250565b7f496e76616c696420676173207072696365000000000000000000000000000000600082015250565b7f2800000000000000000000000000000000000000000000000000000000000000600082015250565b7f6465706f73697420746f6f206269670000000000000000000000000000000000600082015250565b7f72656c6179206d616e61676572206e6f74207374616b65640000000000000000600082015250565b7f72656c617920776f726b6572206d75737420626520454f410000000000000000600082015250565b7f6e6f2072656c617920776f726b65727300000000000000000000000000000000600082015250565b7f6d73672e64617461206578636565646564206c696d6974000000000000000000600082015250565b7f4e6f742070656e616c697a657200000000000000000000000000000000000000600082015250565b7f4f776e61626c653a2063616c6c6572206973206e6f7420746865206f776e6572600082015250565b7f6e6f2067617320666f7220696e6e657252656c617943616c6c00000000000000600082015250565b7f746f6f206d616e7920776f726b65727300000000000000000000000000000000600082015250565b7f616363657074616e63652062756467657420746f6f2068696768000000000000600082015250565b7f696e73756666696369656e742066756e64730000000000000000000000000000600082015250565b7f6578747261206d73672e64617461206279746573000000000000000000000000600082015250565b7f4e6f74206120726967687420776f726b65720000000000000000000000000000600082015250565b7f5061796d61737465722062616c616e636520746f6f206c6f7700000000000000600082015250565b7f696e76616c6964207369676e6174757265206c656e6774680000000000000000600082015250565b7f726561644279746573343a206461746120746f6f2073686f7274000000000000600082015250565b7f556e6b6e6f776e2072656c617920776f726b6572000000000000000000000000600082015250565b60078110615fe157615fe06159e5565b5b50565b615fed816157a6565b8114615ff857600080fd5b50565b616004816157b8565b811461600f57600080fd5b50565b61601b816157ca565b811461602657600080fd5b50565b6007811061603657600080fd5b50565b6160428161583f565b811461604d57600080fd5b5056fe616464726573732066726f6d2c6164647265737320746f2c75696e743235362076616c75652c75696e74323536206761732c75696e74323536206e6f6e63652c627974657320646174612c75696e743235362076616c6964556e74696c52656c6179446174612875696e743235362067617350726963652c75696e743235362070637452656c61794665652c75696e74323536206261736552656c61794665652c616464726573732072656c6179576f726b65722c61646472657373207061796d61737465722c6164647265737320666f727761726465722c6279746573207061796d6173746572446174612c75696e7432353620636c69656e74496429a2646970667358221220f13b09b41d54997dc651b1de843f3471d56d9888d644883cb2ab6ef0119e180464736f6c63430008060033",
  "immutableReferences": {
    "129": [
      {
        "length": 32,
        "start": 4970
      },
      {
        "length": 32,
        "start": 6695
      },
      {
        "length": 32,
        "start": 9488
      },
      {
        "length": 32,
        "start": 9730
      }
    ],
    "132": [
      {
        "length": 32,
        "start": 8604
      },
      {
        "length": 32,
        "start": 9132
      }
    ]
  },
  "source": "/* solhint-disable avoid-low-level-calls */\n/* solhint-disable no-inline-assembly */\n/* solhint-disable not-rely-on-time */\n/* solhint-disable avoid-tx-origin */\n/* solhint-disable bracket-align */\n// SPDX-License-Identifier: GPL-3.0-only\npragma solidity ^0.8.0;\npragma abicoder v2;\n\nimport \"./utils/MinLibBytes.sol\";\nimport \"@openzeppelin/contracts/utils/math/SafeMath.sol\";\nimport \"@openzeppelin/contracts/access/Ownable.sol\";\n\nimport \"./utils/GsnUtils.sol\";\nimport \"./utils/GsnEip712Library.sol\";\nimport \"./utils/RelayHubValidator.sol\";\nimport \"./utils/GsnTypes.sol\";\nimport \"./interfaces/IRelayHub.sol\";\nimport \"./interfaces/IPaymaster.sol\";\nimport \"./forwarder/IForwarder.sol\";\nimport \"./interfaces/IStakeManager.sol\";\n\ncontract RelayHub is IRelayHub, Ownable {\n    using SafeMath for uint256;\n\n    string public override versionHub = \"2.2.3+opengsn.hub.irelayhub\";\n\n    IStakeManager public immutable override stakeManager;\n    address public immutable override penalizer;\n\n    RelayHubConfig private config;\n\n    function getConfiguration() public override view returns (RelayHubConfig memory) {\n        return config;\n    }\n\n    function setConfiguration(RelayHubConfig memory _config) public override onlyOwner {\n        config = _config;\n        emit RelayHubConfigured(config);\n    }\n\n    uint256 public constant G_NONZERO = 16;\n\n    // maps relay worker's address to its manager's address\n    mapping(address => address) public override workerToManager;\n\n    // maps relay managers to the number of their workers\n    mapping(address => uint256) public override workerCount;\n\n    mapping(address => uint256) private balances;\n\n    uint256 public override deprecationBlock = type(uint).max;\n\n    constructor (\n        IStakeManager _stakeManager,\n        address _penalizer,\n        uint256 _maxWorkerCount,\n        uint256 _gasReserve,\n        uint256 _postOverhead,\n        uint256 _gasOverhead,\n        uint256 _maximumRecipientDeposit,\n        uint256 _minimumUnstakeDelay,\n        uint256 _minimumStake,\n        uint256 _dataGasCostPerByte,\n        uint256 _externalCallDataCostOverhead\n    ) {\n        stakeManager = _stakeManager;\n        penalizer = _penalizer;\n        setConfiguration(RelayHubConfig(\n            _maxWorkerCount,\n            _gasReserve,\n            _postOverhead,\n            _gasOverhead,\n            _maximumRecipientDeposit,\n            _minimumUnstakeDelay,\n            _minimumStake,\n            _dataGasCostPerByte,\n            _externalCallDataCostOverhead\n        ));\n    }\n\n    function registerRelayServer(uint256 baseRelayFee, uint256 pctRelayFee, string calldata url) external override {\n        address relayManager = msg.sender;\n        require(\n            isRelayManagerStaked(relayManager),\n            \"relay manager not staked\"\n        );\n        require(workerCount[relayManager] > 0, \"no relay workers\");\n        emit RelayServerRegistered(relayManager, baseRelayFee, pctRelayFee, url);\n    }\n\n    function addRelayWorkers(address[] calldata newRelayWorkers) external override {\n        address relayManager = msg.sender;\n        uint256 newWorkerCount = workerCount[relayManager] + newRelayWorkers.length;\n        workerCount[relayManager] = newWorkerCount;\n        require(newWorkerCount <= config.maxWorkerCount, \"too many workers\");\n\n        require(\n            isRelayManagerStaked(relayManager),\n            \"relay manager not staked\"\n        );\n\n        for (uint256 i = 0; i < newRelayWorkers.length; i++) {\n            require(workerToManager[newRelayWorkers[i]] == address(0), \"this worker has a manager\");\n            workerToManager[newRelayWorkers[i]] = relayManager;\n        }\n\n        emit RelayWorkersAdded(relayManager, newRelayWorkers, newWorkerCount);\n    }\n\n    function depositFor(address target) public override payable {\n        uint256 amount = msg.value;\n        require(amount <= config.maximumRecipientDeposit, \"deposit too big\");\n\n        balances[target] = balances[target].add(amount);\n\n        emit Deposited(target, msg.sender, amount);\n    }\n\n    function balanceOf(address target) external override view returns (uint256) {\n        return balances[target];\n    }\n\n    function withdraw(uint256 amount, address payable dest) public override {\n        address payable account = payable(msg.sender);\n        require(balances[account] >= amount, \"insufficient funds\");\n\n        balances[account] = balances[account].sub(amount);\n        dest.transfer(amount);\n\n        emit Withdrawn(account, dest, amount);\n    }\n\n    function calldataGasCost(uint256 length) public override view returns (uint256) {\n        return config.dataGasCostPerByte.mul(length);\n}\n\n    function verifyGasAndDataLimits(\n        uint256 maxAcceptanceBudget,\n        GsnTypes.RelayRequest calldata relayRequest,\n        uint256 initialGasLeft,\n        uint256 externalGasLimit\n    )\n    private\n    view\n    returns (IPaymaster.GasAndDataLimits memory gasAndDataLimits, uint256 maxPossibleGas) {\n        gasAndDataLimits =\n            IPaymaster(relayRequest.relayData.paymaster).getGasAndDataLimits{gas:50000}();\n        require(msg.data.length <= gasAndDataLimits.calldataSizeLimit, \"msg.data exceeded limit\" );\n        uint256 dataGasCost = calldataGasCost(msg.data.length);\n        uint256 externalCallDataCost = externalGasLimit - initialGasLeft - config.externalCallDataCostOverhead;\n        uint256 txDataCostPerByte = externalCallDataCost/msg.data.length;\n        require(txDataCostPerByte <= G_NONZERO, \"invalid externalGasLimit\");\n\n        require(maxAcceptanceBudget >= gasAndDataLimits.acceptanceBudget, \"acceptance budget too high\");\n        require(gasAndDataLimits.acceptanceBudget >= gasAndDataLimits.preRelayedCallGasLimit, \"acceptance budget too low\");\n\n        maxPossibleGas =\n            config.gasOverhead.add(\n            gasAndDataLimits.preRelayedCallGasLimit).add(\n            gasAndDataLimits.postRelayedCallGasLimit).add(\n            relayRequest.request.gas).add(\n            dataGasCost).add(\n            externalCallDataCost);\n\n        // This transaction must have enough gas to forward the call to the recipient with the requested amount, and not\n        // run out of gas later in this function.\n        require(\n            externalGasLimit >= maxPossibleGas,\n            \"no gas for innerRelayCall\");\n\n        uint256 maxPossibleCharge = calculateCharge(\n            maxPossibleGas,\n            relayRequest.relayData\n        );\n\n        // We don't yet know how much gas will be used by the recipient, so we make sure there are enough funds to pay\n        // for the maximum possible charge.\n        require(maxPossibleCharge <= balances[relayRequest.relayData.paymaster],\n            \"Paymaster balance too low\");\n    }\n\n    struct RelayCallData {\n        bool success;\n        bytes4 functionSelector;\n        uint256 initialGasLeft;\n        bytes recipientContext;\n        bytes relayedCallReturnValue;\n        IPaymaster.GasAndDataLimits gasAndDataLimits;\n        RelayCallStatus status;\n        uint256 innerGasUsed;\n        uint256 maxPossibleGas;\n        uint256 gasBeforeInner;\n        bytes retData;\n        address relayManager;\n        uint256 dataGasCost;\n    }\n\n    function relayCall(\n        uint maxAcceptanceBudget,\n        GsnTypes.RelayRequest calldata relayRequest,\n        bytes calldata signature,\n        bytes calldata approvalData,\n        uint externalGasLimit\n    )\n    external\n    override\n    returns (bool paymasterAccepted, bytes memory returnValue)\n    {\n        RelayCallData memory vars;\n        vars.initialGasLeft = gasleft();\n        require(!isDeprecated(), \"hub deprecated\");\n        vars.functionSelector = relayRequest.request.data.length>=4 ? MinLibBytes.readBytes4(relayRequest.request.data, 0) : bytes4(0);\n        require(msg.sender == tx.origin, \"relay worker must be EOA\");\n        vars.relayManager = workerToManager[msg.sender];\n        require(vars.relayManager != address(0), \"Unknown relay worker\");\n        require(relayRequest.relayData.relayWorker == msg.sender, \"Not a right worker\");\n        require(\n            isRelayManagerStaked(vars.relayManager),\n            \"relay manager not staked\"\n        );\n        require(relayRequest.relayData.gasPrice <= tx.gasprice, \"Invalid gas price\");\n        require(externalGasLimit <= block.gaslimit, \"Impossible gas limit\");\n\n        (vars.gasAndDataLimits, vars.maxPossibleGas) =\n             verifyGasAndDataLimits(maxAcceptanceBudget, relayRequest, vars.initialGasLeft, externalGasLimit);\n\n        RelayHubValidator.verifyTransactionPacking(relayRequest,signature,approvalData);\n\n    {\n\n        //How much gas to pass down to innerRelayCall. must be lower than the default 63/64\n        // actually, min(gasleft*63/64, gasleft-GAS_RESERVE) might be enough.\n        uint256 innerGasLimit = gasleft()*63/64- config.gasReserve;\n        vars.gasBeforeInner = gasleft();\n\n        uint256 _tmpInitialGas = innerGasLimit + externalGasLimit + config.gasOverhead + config.postOverhead;\n        // Calls to the recipient are performed atomically inside an inner transaction which may revert in case of\n        // errors in the recipient. In either case (revert or regular execution) the return data encodes the\n        // RelayCallStatus value.\n        (bool success, bytes memory relayCallStatus) = address(this).call{gas:innerGasLimit}(\n            abi.encodeWithSelector(RelayHub.innerRelayCall.selector, relayRequest, signature, approvalData, vars.gasAndDataLimits,\n                _tmpInitialGas - gasleft(),\n                vars.maxPossibleGas\n                )\n        );\n        vars.success = success;\n        vars.innerGasUsed = vars.gasBeforeInner-gasleft();\n        (vars.status, vars.relayedCallReturnValue) = abi.decode(relayCallStatus, (RelayCallStatus, bytes));\n        if ( vars.relayedCallReturnValue.length>0 ) {\n            emit TransactionResult(vars.status, vars.relayedCallReturnValue);\n        }\n    }\n    {\n        vars.dataGasCost = calldataGasCost(msg.data.length);\n        if (!vars.success) {\n            //Failure cases where the PM doesn't pay\n            if (vars.status == RelayCallStatus.RejectedByPreRelayed ||\n                    (vars.innerGasUsed <= vars.gasAndDataLimits.acceptanceBudget.add(vars.dataGasCost)) && (\n                    vars.status == RelayCallStatus.RejectedByForwarder ||\n                    vars.status == RelayCallStatus.RejectedByRecipientRevert  //can only be thrown if rejectOnRecipientRevert==true\n            )) {\n                paymasterAccepted=false;\n\n                emit TransactionRejectedByPaymaster(\n                    vars.relayManager,\n                    relayRequest.relayData.paymaster,\n                    relayRequest.request.from,\n                    relayRequest.request.to,\n                    msg.sender,\n                    vars.functionSelector,\n                    vars.innerGasUsed,\n                    vars.relayedCallReturnValue);\n                return (false, vars.relayedCallReturnValue);\n            }\n        }\n        // We now perform the actual charge calculation, based on the measured gas used\n        uint256 gasUsed = (externalGasLimit - gasleft()) + config.gasOverhead;\n        uint256 charge = calculateCharge(gasUsed, relayRequest.relayData);\n\n        balances[relayRequest.relayData.paymaster] = balances[relayRequest.relayData.paymaster].sub(charge);\n        balances[vars.relayManager] = balances[vars.relayManager].add(charge);\n\n        emit TransactionRelayed(\n            vars.relayManager,\n            msg.sender,\n            relayRequest.request.from,\n            relayRequest.request.to,\n            relayRequest.relayData.paymaster,\n            vars.functionSelector,\n            vars.status,\n            charge);\n        return (true, \"\");\n    }\n    }\n\n    struct InnerRelayCallData {\n        uint256 balanceBefore;\n        bytes32 preReturnValue;\n        bool relayedCallSuccess;\n        bytes relayedCallReturnValue;\n        bytes recipientContext;\n        bytes data;\n        bool rejectOnRecipientRevert;\n    }\n\n    function innerRelayCall(\n        GsnTypes.RelayRequest calldata relayRequest,\n        bytes calldata signature,\n        bytes calldata approvalData,\n        IPaymaster.GasAndDataLimits calldata gasAndDataLimits,\n        uint256 totalInitialGas,\n        uint256 maxPossibleGas\n    )\n    external\n    returns (RelayCallStatus, bytes memory)\n    {\n        InnerRelayCallData memory vars;\n        // A new gas measurement is performed inside innerRelayCall, since\n        // due to EIP150 available gas amounts cannot be directly compared across external calls\n\n        // This external function can only be called by RelayHub itself, creating an internal transaction. Calls to the\n        // recipient (preRelayedCall, the relayedCall, and postRelayedCall) are called from inside this transaction.\n        require(msg.sender == address(this), \"Must be called by RelayHub\");\n\n        // If either pre or post reverts, the whole internal transaction will be reverted, reverting all side effects on\n        // the recipient. The recipient will still be charged for the used gas by the relay.\n\n        // The paymaster is no allowed to withdraw balance from RelayHub during a relayed transaction. We check pre and\n        // post state to ensure this doesn't happen.\n        vars.balanceBefore = balances[relayRequest.relayData.paymaster];\n\n        // First preRelayedCall is executed.\n        // Note: we open a new block to avoid growing the stack too much.\n        vars.data = abi.encodeWithSelector(\n            IPaymaster.preRelayedCall.selector,\n                relayRequest, signature, approvalData, maxPossibleGas\n        );\n        {\n            bool success;\n            bytes memory retData;\n            (success, retData) = relayRequest.relayData.paymaster.call{gas:gasAndDataLimits.preRelayedCallGasLimit}(vars.data);\n            if (!success) {\n                GsnEip712Library.truncateInPlace(retData);\n                revertWithStatus(RelayCallStatus.RejectedByPreRelayed, retData);\n            }\n            (vars.recipientContext, vars.rejectOnRecipientRevert) = abi.decode(retData, (bytes,bool));\n        }\n\n        // The actual relayed call is now executed. The sender's address is appended at the end of the transaction data\n\n        {\n            bool forwarderSuccess;\n            (forwarderSuccess, vars.relayedCallSuccess, vars.relayedCallReturnValue) = GsnEip712Library.execute(relayRequest, signature);\n            if ( !forwarderSuccess ) {\n                revertWithStatus(RelayCallStatus.RejectedByForwarder, vars.relayedCallReturnValue);\n            }\n\n            if (vars.rejectOnRecipientRevert && !vars.relayedCallSuccess) {\n                // we trusted the recipient, but it reverted...\n                revertWithStatus(RelayCallStatus.RejectedByRecipientRevert, vars.relayedCallReturnValue);\n            }\n        }\n        // Finally, postRelayedCall is executed, with the relayedCall execution's status and a charge estimate\n        // We now determine how much the recipient will be charged, to pass this value to postRelayedCall for accurate\n        // accounting.\n        vars.data = abi.encodeWithSelector(\n            IPaymaster.postRelayedCall.selector,\n            vars.recipientContext,\n            vars.relayedCallSuccess,\n            totalInitialGas - gasleft(), /*gasUseWithoutPost*/\n            relayRequest.relayData\n        );\n\n        {\n        (bool successPost,bytes memory ret) = relayRequest.relayData.paymaster.call{gas:gasAndDataLimits.postRelayedCallGasLimit}(vars.data);\n\n        if (!successPost) {\n            revertWithStatus(RelayCallStatus.PostRelayedFailed, ret);\n        }\n        }\n\n        if (balances[relayRequest.relayData.paymaster] < vars.balanceBefore) {\n            revertWithStatus(RelayCallStatus.PaymasterBalanceChanged, \"\");\n        }\n\n        return (vars.relayedCallSuccess ? RelayCallStatus.OK : RelayCallStatus.RelayedCallFailed, vars.relayedCallReturnValue);\n    }\n\n    /**\n     * @dev Reverts the transaction with return data set to the ABI encoding of the status argument (and revert reason data)\n     */\n    function revertWithStatus(RelayCallStatus status, bytes memory ret) private pure {\n        bytes memory data = abi.encode(status, ret);\n        GsnEip712Library.truncateInPlace(data);\n\n        assembly {\n            let dataSize := mload(data)\n            let dataPtr := add(data, 32)\n\n            revert(dataPtr, dataSize)\n        }\n    }\n\n    function calculateCharge(uint256 gasUsed, GsnTypes.RelayData calldata relayData) public override virtual view returns (uint256) {\n        return relayData.baseRelayFee.add((gasUsed.mul(relayData.gasPrice).mul(relayData.pctRelayFee.add(100))).div(100));\n    }\n\n    function isRelayManagerStaked(address relayManager) public override view returns (bool) {\n        return stakeManager.isRelayManagerStaked(relayManager, address(this), config.minimumStake, config.minimumUnstakeDelay);\n    }\n\n    function deprecateHub(uint256 fromBlock) public override onlyOwner {\n        require(deprecationBlock > block.number, \"Already deprecated\");\n        deprecationBlock = fromBlock;\n        emit HubDeprecated(fromBlock);\n    }\n\n    function isDeprecated() public override view returns (bool) {\n        return block.number >= deprecationBlock;\n    }\n\n    modifier penalizerOnly () {\n        require(msg.sender == penalizer, \"Not penalizer\");\n        _;\n    }\n\n    function penalize(address relayWorker, address payable beneficiary) external override penalizerOnly {\n        address relayManager = workerToManager[relayWorker];\n        // The worker must be controlled by a manager with a locked stake\n        require(relayManager != address(0), \"Unknown relay worker\");\n        IStakeManager.StakeInfo memory stakeInfo = stakeManager.getStakeInfo(relayManager);\n        require(stakeInfo.stake > 0, \"relay manager not staked\");\n        stakeManager.penalizeRelayManager(relayManager, beneficiary, stakeInfo.stake);\n    }\n}\n",
  "sourcePath": "@opengsn/contracts/src/RelayHub.sol",
  "compiler": {
    "name": "solc",
    "version": "0.8.6+commit.11564f7e.Emscripten.clang"
  },
  "schemaVersion": "3.4.5",
  "updatedAt": "2022-02-27T09:03:59.875Z",
  "devdoc": {
    "kind": "dev",
    "methods": {
      "isRelayManagerStaked(address)": {
        "returns": {
          "_0": "true if stake size and delay satisfy all requirements"
        }
      },
      "owner()": {
        "details": "Returns the address of the current owner."
      },
      "relayCall(uint256,((address,address,uint256,uint256,uint256,bytes,uint256),(uint256,uint256,uint256,address,address,address,bytes,uint256)),bytes,bytes,uint256)": {
        "params": {
          "approvalData": ": dapp-specific data forwarded to preRelayedCall.        This value is *not* verified by the Hub. For example, it can be used to pass a signature to the Paymaster",
          "externalGasLimit": "- the value passed as gasLimit to the transaction. Emits a TransactionRelayed event.",
          "maxAcceptanceBudget": "- max valid value for paymaster.getGasLimits().acceptanceBudget",
          "relayRequest": "- all details of the requested relayed call",
          "signature": "- client's EIP-712 signature over the relayRequest struct"
        }
      },
      "renounceOwnership()": {
        "details": "Leaves the contract without owner. It will not be possible to call `onlyOwner` functions anymore. Can only be called by the current owner. NOTE: Renouncing ownership will leave the contract without an owner, thereby removing any functionality that is only available to the owner."
      },
      "transferOwnership(address)": {
        "details": "Transfers ownership of the contract to a new account (`newOwner`). Can only be called by the current owner."
      }
    },
    "stateVariables": {
      "versionHub": {
        "return": "a SemVer-compliant version of the hub contract",
        "returns": {
          "_0": "a SemVer-compliant version of the hub contract"
        }
      }
    },
    "version": 1
  },
  "userdoc": {
    "events": {
      "Deposited(address,address,uint256)": {
        "notice": "Emitted when depositFor is called, including the amount and account that was funded."
      },
      "RelayServerRegistered(address,uint256,uint256,string)": {
        "notice": "Emitted when a relay server registers or updates its details Looking at these events lets a client discover relay servers"
      },
      "RelayWorkersAdded(address,address[],uint256)": {
        "notice": "Emitted when relays are added by a relayManager"
      },
      "TransactionRejectedByPaymaster(address,address,address,address,address,bytes4,uint256,bytes)": {
        "notice": "Emitted when an attempt to relay a call fails and Paymaster does not accept the transaction. The actual relayed call was not executed, and the recipient not charged."
      },
      "TransactionRelayed(address,address,address,address,address,bytes4,uint8,uint256)": {
        "notice": "Emitted when a transaction is relayed. Note that the actual encoded function might be reverted: this will be indicated in the status field. Useful when monitoring a relay's operation and relayed calls to a contract. Charge is the ether value deducted from the recipient's balance, paid to the relay's manager."
      },
      "Withdrawn(address,address,uint256)": {
        "notice": "Emitted when an account withdraws funds from RelayHub."
      }
    },
    "kind": "user",
    "methods": {
      "addRelayWorkers(address[])": {
        "notice": "Add new worker addresses controlled by sender who must be a staked Relay Manager address. Emits a RelayWorkersAdded event. This function can be called multiple times, emitting new events"
      },
      "balanceOf(address)": {
        "notice": "Returns an account's deposits. It can be either a deposit of a paymaster, or a revenue of a relay manager."
      },
      "calculateCharge(uint256,(uint256,uint256,uint256,address,address,address,bytes,uint256))": {
        "notice": "The fee is expressed as a base fee in wei plus percentage on actual charge. E.g. a value of 40 stands for a 40% fee, so the recipient will be charged for 1.4 times the spent amount."
      },
      "depositFor(address)": {
        "notice": "Deposits ether for a contract, so that it can receive (and pay for) relayed transactions. Unused balance can only be withdrawn by the contract itself, by calling withdraw. Emits a Deposited event."
      },
      "getConfiguration()": {
        "notice": "Returns the whole hub configuration"
      },
      "isRelayManagerStaked(address)": {
        "notice": "Uses StakeManager info to decide if the Relay Manager can be considered staked"
      },
      "relayCall(uint256,((address,address,uint256,uint256,uint256,bytes,uint256),(uint256,uint256,uint256,address,address,address,bytes,uint256)),bytes,bytes,uint256)": {
        "notice": "Relays a transaction. For this to succeed, multiple conditions must be met:  - Paymaster's \"preRelayCall\" method must succeed and not revert  - the sender must be a registered Relay Worker that the user signed  - the transaction's gas price must be equal or larger than the one that was signed by the sender  - the transaction must have enough gas to run all internal transactions if they use all gas available to them  - the Paymaster must have enough balance to pay the Relay Worker for the scenario when all gas is spent If all conditions are met, the call will be relayed and the recipient charged. Arguments:"
      },
      "withdraw(uint256,address)": {
        "notice": "Withdraws from an account's balance, sending it back to it. Relay managers call this to retrieve their revenue, and contracts can also use it to reduce their funding. Emits a Withdrawn event."
      }
    },
    "version": 1
  }
}