{
  "contractName": "Set",
  "abi": [
    {
      "inputs": [
        {
          "internalType": "uint256",
          "name": "",
          "type": "uint256"
        }
      ],
      "name": "items",
      "outputs": [
        {
          "internalType": "string",
          "name": "",
          "type": "string"
        }
      ],
      "stateMutability": "view",
      "type": "function"
    },
    {
      "inputs": [
        {
          "internalType": "string",
          "name": "value",
          "type": "string"
        }
      ],
      "name": "add",
      "outputs": [],
      "stateMutability": "nonpayable",
      "type": "function"
    },
    {
      "inputs": [
        {
          "internalType": "string",
          "name": "value",
          "type": "string"
        }
      ],
      "name": "contains",
      "outputs": [
        {
          "internalType": "bool",
          "name": "",
          "type": "bool"
        }
      ],
      "stateMutability": "view",
      "type": "function"
    },
    {
      "inputs": [],
      "name": "getItems",
      "outputs": [
        {
          "internalType": "string[]",
          "name": "",
          "type": "string[]"
        }
      ],
      "stateMutability": "view",
      "type": "function"
    },
    {
      "inputs": [],
      "name": "count",
      "outputs": [
        {
          "internalType": "uint256",
          "name": "",
          "type": "uint256"
        }
      ],
      "stateMutability": "view",
      "type": "function"
    }
  ],
  "bytecode": "0x608060405234801561001057600080fd5b50610929806100206000396000f3fe608060405234801561001057600080fd5b50600436106100575760003560e01c806306661abd1461005c578063410d59cc1461007a5780636833d54f14610098578063b0c8f9dc146100c8578063bfb231d2146100e4575b600080fd5b610064610114565b60405161007191906106bc565b60405180910390f35b610082610120565b60405161008f919061065d565b60405180910390f35b6100b260048036038101906100ad9190610486565b6101f9565b6040516100bf919061067f565b60405180910390f35b6100e260048036038101906100dd9190610486565b610223565b005b6100fe60048036038101906100f991906104cf565b6102b2565b60405161010b919061069a565b60405180910390f35b60008080549050905090565b60606000805480602002602001604051908101604052809291908181526020016000905b828210156101f0578382906000526020600020018054610163906107f6565b80601f016020809104026020016040519081016040528092919081815260200182805461018f906107f6565b80156101dc5780601f106101b1576101008083540402835291602001916101dc565b820191906000526020600020905b8154815290600101906020018083116101bf57829003601f168201915b505050505081526020019060010190610144565b50505050905090565b60008060018360405161020c9190610646565b908152602001604051809103902054119050919050565b60006001826040516102359190610646565b90815260200160405180910390205414156102af5760008190806001815401808255809150506001900390600052602060002001600090919091909150908051906020019061028592919061035e565b5060008054905060018260405161029c9190610646565b9081526020016040518091039020819055505b50565b600081815481106102c257600080fd5b9060005260206000200160009150905080546102dd906107f6565b80601f0160208091040260200160405190810160405280929190818152602001828054610309906107f6565b80156103565780601f1061032b57610100808354040283529160200191610356565b820191906000526020600020905b81548152906001019060200180831161033957829003601f168201915b505050505081565b82805461036a906107f6565b90600052602060002090601f01602090048101928261038c57600085556103d3565b82601f106103a557805160ff19168380011785556103d3565b828001600101855582156103d3579182015b828111156103d25782518255916020019190600101906103b7565b5b5090506103e091906103e4565b5090565b5b808211156103fd5760008160009055506001016103e5565b5090565b600061041461040f846106fc565b6106d7565b9050828152602081018484840111156104305761042f6108bc565b5b61043b8482856107b4565b509392505050565b600082601f830112610458576104576108b7565b5b8135610468848260208601610401565b91505092915050565b600081359050610480816108dc565b92915050565b60006020828403121561049c5761049b6108c6565b5b600082013567ffffffffffffffff8111156104ba576104b96108c1565b5b6104c684828501610443565b91505092915050565b6000602082840312156104e5576104e46108c6565b5b60006104f384828501610471565b91505092915050565b60006105088383610594565b905092915050565b600061051b8261073d565b6105258185610760565b9350836020820285016105378561072d565b8060005b85811015610573578484038952815161055485826104fc565b945061055f83610753565b925060208a0199505060018101905061053b565b50829750879550505050505092915050565b61058e8161079e565b82525050565b600061059f82610748565b6105a98185610771565b93506105b98185602086016107c3565b6105c2816108cb565b840191505092915050565b60006105d882610748565b6105e28185610782565b93506105f28185602086016107c3565b6105fb816108cb565b840191505092915050565b600061061182610748565b61061b8185610793565b935061062b8185602086016107c3565b80840191505092915050565b610640816107aa565b82525050565b60006106528284610606565b915081905092915050565b600060208201905081810360008301526106778184610510565b905092915050565b60006020820190506106946000830184610585565b92915050565b600060208201905081810360008301526106b481846105cd565b905092915050565b60006020820190506106d16000830184610637565b92915050565b60006106e16106f2565b90506106ed8282610828565b919050565b6000604051905090565b600067ffffffffffffffff82111561071757610716610888565b5b610720826108cb565b9050602081019050919050565b6000819050602082019050919050565b600081519050919050565b600081519050919050565b6000602082019050919050565b600082825260208201905092915050565b600082825260208201905092915050565b600082825260208201905092915050565b600081905092915050565b60008115159050919050565b6000819050919050565b82818337600083830152505050565b60005b838110156107e15780820151818401526020810190506107c6565b838111156107f0576000848401525b50505050565b6000600282049050600182168061080e57607f821691505b6020821081141561082257610821610859565b5b50919050565b610831826108cb565b810181811067ffffffffffffffff821117156108505761084f610888565b5b80604052505050565b7f4e487b7100000000000000000000000000000000000000000000000000000000600052602260045260246000fd5b7f4e487b7100000000000000000000000000000000000000000000000000000000600052604160045260246000fd5b600080fd5b600080fd5b600080fd5b600080fd5b6000601f19601f8301169050919050565b6108e5816107aa565b81146108f057600080fd5b5056fea26469706673582212202c6e5f8c91df9bde89a962f1d43f2a307f0ff45eb4a6792a2ac321cd1f5ce3a364736f6c63430008060033",
  "immutableReferences": {},
  "source": "\npragma solidity >=0.4.22 <0.9.0;\npragma experimental ABIEncoderV2;\n\ncontract Set {\n    string[] public items;\n\n    // 1-based indexing into the array. 0 represents non-existence.\n    mapping(string => uint256) indexOf;\n\n    function add(string memory value) public {\n        if (indexOf[value] == 0) {\n            items.push(value);\n            indexOf[value] = items.length;\n        }\n    }\n\n\n    function contains(string memory value) public view returns (bool) {\n        return indexOf[value] > 0;\n    }\n\n    function getItems() public view returns (string[] memory) {\n        return items;\n    }\n\n    function count() public view returns (uint256) {\n        return items.length;\n    }\n}\n",
  "sourcePath": "/home/harshvardhan/Documents/Major_Project/smart-contract/contracts/unused/Set.sol",
  "compiler": {
    "name": "solc",
    "version": "0.8.6+commit.11564f7e.Emscripten.clang"
  },
  "schemaVersion": "3.4.5",
  "updatedAt": "2022-03-14T09:36:33.171Z",
  "devdoc": {
    "kind": "dev",
    "methods": {},
    "version": 1
  },
  "userdoc": {
    "kind": "user",
    "methods": {},
    "version": 1
  }
}