{
  "contractName": "Set",
  "abi": [
    {
      "constant": true,
      "inputs": [
        {
          "internalType": "uint256",
          "name": "",
          "type": "uint256"
        }
      ],
      "name": "items",
      "outputs": [
        {
          "internalType": "string",
          "name": "",
          "type": "string"
        }
      ],
      "payable": false,
      "stateMutability": "view",
      "type": "function"
    },
    {
      "constant": false,
      "inputs": [
        {
          "internalType": "string",
          "name": "value",
          "type": "string"
        }
      ],
      "name": "add",
      "outputs": [],
      "payable": false,
      "stateMutability": "nonpayable",
      "type": "function"
    },
    {
      "constant": true,
      "inputs": [
        {
          "internalType": "string",
          "name": "value",
          "type": "string"
        }
      ],
      "name": "contains",
      "outputs": [
        {
          "internalType": "bool",
          "name": "",
          "type": "bool"
        }
      ],
      "payable": false,
      "stateMutability": "view",
      "type": "function"
    },
    {
      "constant": true,
      "inputs": [],
      "name": "getItems",
      "outputs": [
        {
          "internalType": "string[]",
          "name": "",
          "type": "string[]"
        }
      ],
      "payable": false,
      "stateMutability": "view",
      "type": "function"
    },
    {
      "constant": true,
      "inputs": [],
      "name": "count",
      "outputs": [
        {
          "internalType": "uint256",
          "name": "",
          "type": "uint256"
        }
      ],
      "payable": false,
      "stateMutability": "view",
      "type": "function"
    }
  ],
  "bytecode": "0x608060405234801561001057600080fd5b50610869806100206000396000f3fe608060405234801561001057600080fd5b50600436106100575760003560e01c806306661abd1461005c578063410d59cc1461007a5780636833d54f14610098578063b0c8f9dc146100c8578063bfb231d2146100e4575b600080fd5b610064610114565b60405161007191906106b6565b60405180910390f35b610082610120565b60405161008f9190610657565b60405180910390f35b6100b260048036036100ad919081019061048c565b610209565b6040516100bf9190610679565b60405180910390f35b6100e260048036036100dd919081019061048c565b610233565b005b6100fe60048036036100f991908101906104cd565b6102c5565b60405161010b9190610694565b60405180910390f35b60008080549050905090565b60606000805480602002602001604051908101604052809291908181526020016000905b82821015610200578382906000526020600020018054600181600116156101000203166002900480601f0160208091040260200160405190810160405280929190818152602001828054600181600116156101000203166002900480156101ec5780601f106101c1576101008083540402835291602001916101ec565b820191906000526020600020905b8154815290600101906020018083116101cf57829003601f168201915b505050505081526020019060010190610144565b50505050905090565b60008060018360405161021c9190610640565b908152602001604051809103902054119050919050565b60006001826040516102459190610640565b90815260200160405180910390205414156102c257600081908060018154018082558091505090600182039060005260206000200160009091929091909150908051906020019061029792919061037e565b50506000805490506001826040516102af9190610640565b9081526020016040518091039020819055505b50565b600081815481106102d257fe5b906000526020600020016000915090508054600181600116156101000203166002900480601f0160208091040260200160405190810160405280929190818152602001828054600181600116156101000203166002900480156103765780601f1061034b57610100808354040283529160200191610376565b820191906000526020600020905b81548152906001019060200180831161035957829003601f168201915b505050505081565b828054600181600116156101000203166002900490600052602060002090601f016020900481019282601f106103bf57805160ff19168380011785556103ed565b828001600101855582156103ed579182015b828111156103ec5782518255916020019190600101906103d1565b5b5090506103fa91906103fe565b5090565b61042091905b8082111561041c576000816000905550600101610404565b5090565b90565b600082601f83011261043457600080fd5b8135610447610442826106fe565b6106d1565b9150808252602083016020830185838301111561046357600080fd5b61046e8382846107bc565b50505092915050565b6000813590506104868161080f565b92915050565b60006020828403121561049e57600080fd5b600082013567ffffffffffffffff8111156104b857600080fd5b6104c484828501610423565b91505092915050565b6000602082840312156104df57600080fd5b60006104ed84828501610477565b91505092915050565b600061050283836105bf565b905092915050565b60006105158261073a565b61051f8185610768565b9350836020820285016105318561072a565b8060005b8581101561056d578484038952815161054e85826104f6565b94506105598361075b565b925060208a01995050600181019050610535565b50829750879550505050505092915050565b610588816107a6565b82525050565b600061059982610750565b6105a3818561079b565b93506105b38185602086016107cb565b80840191505092915050565b60006105ca82610745565b6105d48185610779565b93506105e48185602086016107cb565b6105ed816107fe565b840191505092915050565b600061060382610745565b61060d818561078a565b935061061d8185602086016107cb565b610626816107fe565b840191505092915050565b61063a816107b2565b82525050565b600061064c828461058e565b915081905092915050565b60006020820190508181036000830152610671818461050a565b905092915050565b600060208201905061068e600083018461057f565b92915050565b600060208201905081810360008301526106ae81846105f8565b905092915050565b60006020820190506106cb6000830184610631565b92915050565b6000604051905081810181811067ffffffffffffffff821117156106f457600080fd5b8060405250919050565b600067ffffffffffffffff82111561071557600080fd5b601f19601f8301169050602081019050919050565b6000819050602082019050919050565b600081519050919050565b600081519050919050565b600081519050919050565b6000602082019050919050565b600082825260208201905092915050565b600082825260208201905092915050565b600082825260208201905092915050565b600081905092915050565b60008115159050919050565b6000819050919050565b82818337600083830152505050565b60005b838110156107e95780820151818401526020810190506107ce565b838111156107f8576000848401525b50505050565b6000601f19601f8301169050919050565b610818816107b2565b811461082357600080fd5b5056fea365627a7a723158204550a76023dff88d409340bf5295a504f4e010da921bf1d071182ad8565378c96c6578706572696d656e74616cf564736f6c63430005100040",
  "source": "\npragma solidity >=0.4.22 <0.9.0;\npragma experimental ABIEncoderV2;\n\ncontract Set {\n    string[] public items;\n\n    // 1-based indexing into the array. 0 represents non-existence.\n    mapping(string => uint256) indexOf;\n\n    function add(string memory value) public {\n        if (indexOf[value] == 0) {\n            items.push(value);\n            indexOf[value] = items.length;\n        }\n    }\n\n\n    function contains(string memory value) public view returns (bool) {\n        return indexOf[value] > 0;\n    }\n\n    function getItems() public view returns (string[] memory) {\n        return items;\n    }\n\n    function count() public view returns (uint256) {\n        return items.length;\n    }\n}\n",
  "sourcePath": "/home/harshvardhan/Documents/Major Project/smart-contract/contracts/Set.sol",
  "compiler": {
    "name": "solc",
    "version": "0.5.16+commit.9c3226ce.Emscripten.clang"
  },
  "schemaVersion": "3.4.3",
  "updatedAt": "2021-12-30T17:50:22.127Z",
  "devdoc": {
    "methods": {}
  },
  "userdoc": {
    "methods": {}
  }
}