{
  "contractName": "JaccardsSimilarity",
  "abi": [
    {
      "inputs": [
        {
          "internalType": "string",
          "name": "a",
          "type": "string"
        },
        {
          "internalType": "string",
          "name": "b",
          "type": "string"
        }
      ],
      "name": "compareStrings",
      "outputs": [
        {
          "internalType": "bool",
          "name": "",
          "type": "bool"
        }
      ],
      "stateMutability": "pure",
      "type": "function"
    },
    {
      "inputs": [
        {
          "internalType": "string[]",
          "name": "list1",
          "type": "string[]"
        },
        {
          "internalType": "string[]",
          "name": "list2",
          "type": "string[]"
        },
        {
          "internalType": "uint256",
          "name": "setLength1",
          "type": "uint256"
        },
        {
          "internalType": "uint256",
          "name": "setLength2",
          "type": "uint256"
        }
      ],
      "name": "getCommonElementsCount",
      "outputs": [
        {
          "internalType": "uint256",
          "name": "",
          "type": "uint256"
        }
      ],
      "stateMutability": "pure",
      "type": "function"
    },
    {
      "inputs": [
        {
          "internalType": "string[]",
          "name": "l1",
          "type": "string[]"
        },
        {
          "internalType": "string[]",
          "name": "l2",
          "type": "string[]"
        }
      ],
      "name": "calculateSimilarityScore",
      "outputs": [
        {
          "internalType": "uint256",
          "name": "",
          "type": "uint256"
        }
      ],
      "stateMutability": "pure",
      "type": "function"
    }
  ],
  "bytecode": "0x608060405234801561001057600080fd5b50610b0e806100206000396000f3fe608060405234801561001057600080fd5b50600436106100415760003560e01c80631320b2e514610046578063790ad0db14610076578063bed34bba146100a6575b600080fd5b610060600480360381019061005b919061058b565b6100d6565b60405161006d919061079b565b60405180910390f35b610090600480360381019061008b9190610603565b6102e7565b60405161009d919061079b565b60405180910390f35b6100c060048036038101906100bb91906106a2565b61038e565b6040516100cd9190610780565b60405180910390f35b600080835167ffffffffffffffff8111156100f4576100f3610a68565b5b60405190808252806020026020018201604052801561012757816020015b60608152602001906001900390816101125790505b5090506000835167ffffffffffffffff81111561014757610146610a68565b5b60405190808252806020026020018201604052801561017a57816020015b60608152602001906001900390816101655790505b50905060008060005b875181101561020f576101b0858983815181106101a3576101a2610a39565b5b60200260200101516103e7565b6101fc578781815181106101c7576101c6610a39565b5b60200260200101518584815181106101e2576101e1610a39565b5b602002602001018190525082806101f890610992565b9350505b808061020790610992565b915050610183565b5060005b865181101561029f576102408488838151811061023357610232610a39565b5b60200260200101516103e7565b61028c5786818151811061025757610256610a39565b5b602002602001015184838151811061027257610271610a39565b5b6020026020010181905250818061028890610992565b9250505b808061029790610992565b915050610213565b5060006102ae858685856102e7565b905060008188518a516102c1919061084e565b6102cb91906108d5565b905080826102d991906108a4565b965050505050505092915050565b6000806000905060005b848110156103815760005b8481101561036d5761034288838151811061031a57610319610a39565b5b602002602001015188838151811061033557610334610a39565b5b602002602001015161038e565b1561035a57828061035290610992565b93505061036d565b808061036590610992565b9150506102fc565b50808061037990610992565b9150506102f1565b5080915050949350505050565b6000816040516020016103a19190610769565b60405160208183030381529060405280519060200120836040516020016103c89190610769565b6040516020818303038152906040528051906020012014905092915050565b600080600090505b835181101561043e5761041c84828151811061040e5761040d610a39565b5b60200260200101518461038e565b1561042b576001915050610444565b808061043690610992565b9150506103ef565b50600090505b92915050565b600061045d610458846107db565b6107b6565b905080838252602082019050828560208602820111156104805761047f610a9c565b5b60005b858110156104ce57813567ffffffffffffffff8111156104a6576104a5610a97565b5b8086016104b38982610548565b85526020850194506020840193505050600181019050610483565b5050509392505050565b60006104eb6104e684610807565b6107b6565b90508281526020810184848401111561050757610506610aa1565b5b61051284828561091f565b509392505050565b600082601f83011261052f5761052e610a97565b5b813561053f84826020860161044a565b91505092915050565b600082601f83011261055d5761055c610a97565b5b813561056d8482602086016104d8565b91505092915050565b60008135905061058581610ac1565b92915050565b600080604083850312156105a2576105a1610aab565b5b600083013567ffffffffffffffff8111156105c0576105bf610aa6565b5b6105cc8582860161051a565b925050602083013567ffffffffffffffff8111156105ed576105ec610aa6565b5b6105f98582860161051a565b9150509250929050565b6000806000806080858703121561061d5761061c610aab565b5b600085013567ffffffffffffffff81111561063b5761063a610aa6565b5b6106478782880161051a565b945050602085013567ffffffffffffffff81111561066857610667610aa6565b5b6106748782880161051a565b935050604061068587828801610576565b925050606061069687828801610576565b91505092959194509250565b600080604083850312156106b9576106b8610aab565b5b600083013567ffffffffffffffff8111156106d7576106d6610aa6565b5b6106e385828601610548565b925050602083013567ffffffffffffffff81111561070457610703610aa6565b5b61071085828601610548565b9150509250929050565b61072381610909565b82525050565b600061073482610838565b61073e8185610843565b935061074e81856020860161092e565b80840191505092915050565b61076381610915565b82525050565b60006107758284610729565b915081905092915050565b6000602082019050610795600083018461071a565b92915050565b60006020820190506107b0600083018461075a565b92915050565b60006107c06107d1565b90506107cc8282610961565b919050565b6000604051905090565b600067ffffffffffffffff8211156107f6576107f5610a68565b5b602082029050602081019050919050565b600067ffffffffffffffff82111561082257610821610a68565b5b61082b82610ab0565b9050602081019050919050565b600081519050919050565b600081905092915050565b600061085982610915565b915061086483610915565b9250827fffffffffffffffffffffffffffffffffffffffffffffffffffffffffffffffff03821115610899576108986109db565b5b828201905092915050565b60006108af82610915565b91506108ba83610915565b9250826108ca576108c9610a0a565b5b828204905092915050565b60006108e082610915565b91506108eb83610915565b9250828210156108fe576108fd6109db565b5b828203905092915050565b60008115159050919050565b6000819050919050565b82818337600083830152505050565b60005b8381101561094c578082015181840152602081019050610931565b8381111561095b576000848401525b50505050565b61096a82610ab0565b810181811067ffffffffffffffff8211171561098957610988610a68565b5b80604052505050565b600061099d82610915565b91507fffffffffffffffffffffffffffffffffffffffffffffffffffffffffffffffff8214156109d0576109cf6109db565b5b600182019050919050565b7f4e487b7100000000000000000000000000000000000000000000000000000000600052601160045260246000fd5b7f4e487b7100000000000000000000000000000000000000000000000000000000600052601260045260246000fd5b7f4e487b7100000000000000000000000000000000000000000000000000000000600052603260045260246000fd5b7f4e487b7100000000000000000000000000000000000000000000000000000000600052604160045260246000fd5b600080fd5b600080fd5b600080fd5b600080fd5b600080fd5b6000601f19601f8301169050919050565b610aca81610915565b8114610ad557600080fd5b5056fea26469706673582212207cd4c300ca745e40c63372f471ae3b09730750563aec9453301559f4b64119fa64736f6c63430008060033",
  "immutableReferences": {},
  "source": "\npragma solidity >=0.4.22 <0.9.0;\npragma experimental ABIEncoderV2;\n\nimport \"./Set.sol\";\ncontract JaccardsSimilarity {\n    \n   \n    function compareStrings(string memory a, string memory b) public pure returns (bool) {\n        return (keccak256(abi.encodePacked((a))) == keccak256(abi.encodePacked((b))));\n    }\n\n    function getCommonElementsCount(string[] memory list1, string[] memory list2,uint setLength1,uint setLength2) public pure returns (uint){\n        uint commonElementsCount=0;\n        for(uint i=0;i< setLength1;i++){\n            for(uint j=0;j<setLength2;j++){\n                if(compareStrings(list1[i],list2[j])){\n                    commonElementsCount++;\n                    break;\n                }\n            }\n        }\n        return commonElementsCount;\n    }\n\n    function isPresent(string[] memory l1,string memory ele)private pure returns (bool){\n        for(uint i=0;i<l1.length;i++){\n          if(compareStrings(l1[i],ele)){\n            return true;\n          }\n        }\n        return false;\n    }\n    function calculateSimilarityScore(string[] memory l1, string[] memory l2) public pure returns(uint){\n\n      string[] memory list1 = new string[](l1.length);   \n      string[] memory list2 = new string[](l2.length);   \n\n      uint setLength1=0;\n      uint setLength2=0;\n\n        for(uint i=0;i<l1.length;i++){\n            if (!isPresent(list1,l1[i])) {\n              list1[setLength1]=l1[i];\n              setLength1++;\n            }\n        } \n  \n        for(uint i=0;i<l2.length;i++){\n            if (!isPresent(list2,l2[i])) {\n              list2[setLength2]=l2[i];\n              setLength2++;\n            }\n        } \n\n        uint commonElementsCount = getCommonElementsCount(list1,list1,setLength1,setLength2);\n        uint unionCount=l1.length+l2.length-commonElementsCount;        \n        \n        return commonElementsCount/unionCount;\n    } \n\n\n}\n",
  "sourcePath": "/home/harshvardhan/Documents/Major_Project/smart-contract/contracts/unused/JaccardsSimilarity.sol",
  "compiler": {
    "name": "solc",
    "version": "0.8.6+commit.11564f7e.Emscripten.clang"
  },
  "schemaVersion": "3.4.5",
  "updatedAt": "2022-02-27T09:03:59.993Z",
  "devdoc": {
    "kind": "dev",
    "methods": {},
    "version": 1
  },
  "userdoc": {
    "kind": "user",
    "methods": {},
    "version": 1
  }
}