{
  "contractName": "PlagiarismContract",
  "abi": [
    {
      "anonymous": false,
      "inputs": [
        {
          "indexed": false,
          "internalType": "uint256",
          "name": "fileId",
          "type": "uint256"
        },
        {
          "indexed": false,
          "internalType": "uint256",
          "name": "fileSize",
          "type": "uint256"
        },
        {
          "indexed": false,
          "internalType": "string",
          "name": "fileIPFSHash",
          "type": "string"
        },
        {
          "indexed": false,
          "internalType": "string",
          "name": "fileName",
          "type": "string"
        },
        {
          "indexed": false,
          "internalType": "string",
          "name": "fileDescription",
          "type": "string"
        },
        {
          "indexed": false,
          "internalType": "address",
          "name": "codeAuthor",
          "type": "address"
        },
        {
          "indexed": false,
          "internalType": "uint256",
          "name": "timeUploaded",
          "type": "uint256"
        },
        {
          "indexed": false,
          "internalType": "string",
          "name": "codeFingerPrint",
          "type": "string"
        },
        {
          "indexed": false,
          "internalType": "bytes16[]",
          "name": "hashSet",
          "type": "bytes16[]"
        },
        {
          "indexed": false,
          "internalType": "uint256",
          "name": "hashSetLength",
          "type": "uint256"
        }
      ],
      "name": "CodeFileUploadEvent",
      "type": "event"
    },
    {
      "anonymous": false,
      "inputs": [
        {
          "indexed": false,
          "internalType": "bool",
          "name": "plagiarisedResult",
          "type": "bool"
        }
      ],
      "name": "PlagiarismResult",
      "type": "event"
    },
    {
      "inputs": [],
      "name": "fileCount",
      "outputs": [
        {
          "internalType": "uint256",
          "name": "",
          "type": "uint256"
        }
      ],
      "stateMutability": "view",
      "type": "function",
      "constant": true
    },
    {
      "inputs": [
        {
          "internalType": "uint256",
          "name": "",
          "type": "uint256"
        }
      ],
      "name": "filesMap",
      "outputs": [
        {
          "internalType": "uint256",
          "name": "fileId",
          "type": "uint256"
        },
        {
          "internalType": "uint256",
          "name": "fileSize",
          "type": "uint256"
        },
        {
          "internalType": "string",
          "name": "fileIPFSHash",
          "type": "string"
        },
        {
          "internalType": "string",
          "name": "fileName",
          "type": "string"
        },
        {
          "internalType": "string",
          "name": "fileDescription",
          "type": "string"
        },
        {
          "internalType": "address",
          "name": "codeAuthor",
          "type": "address"
        },
        {
          "internalType": "uint256",
          "name": "timeUploaded",
          "type": "uint256"
        },
        {
          "internalType": "string",
          "name": "codeFingerPrint",
          "type": "string"
        },
        {
          "internalType": "uint256",
          "name": "hashSetLength",
          "type": "uint256"
        }
      ],
      "stateMutability": "view",
      "type": "function",
      "constant": true
    },
    {
      "inputs": [
        {
          "internalType": "uint256",
          "name": "_fileSize",
          "type": "uint256"
        },
        {
          "internalType": "string",
          "name": "_fileIPFSHash",
          "type": "string"
        },
        {
          "internalType": "string",
          "name": "_fileName",
          "type": "string"
        },
        {
          "internalType": "string",
          "name": "_fileDescription",
          "type": "string"
        },
        {
          "internalType": "string",
          "name": "_codeFingerPrint",
          "type": "string"
        },
        {
          "internalType": "bytes16[]",
          "name": "_hashSet",
          "type": "bytes16[]"
        },
        {
          "internalType": "uint256",
          "name": "hashSetLength",
          "type": "uint256"
        }
      ],
      "name": "uploadFile",
      "outputs": [],
      "stateMutability": "nonpayable",
      "type": "function"
    },
    {
      "inputs": [
        {
          "internalType": "uint256",
          "name": "_fileIndex",
          "type": "uint256"
        }
      ],
      "name": "getFileByIndex",
      "outputs": [
        {
          "components": [
            {
              "internalType": "uint256",
              "name": "fileId",
              "type": "uint256"
            },
            {
              "internalType": "uint256",
              "name": "fileSize",
              "type": "uint256"
            },
            {
              "internalType": "string",
              "name": "fileIPFSHash",
              "type": "string"
            },
            {
              "internalType": "string",
              "name": "fileName",
              "type": "string"
            },
            {
              "internalType": "string",
              "name": "fileDescription",
              "type": "string"
            },
            {
              "internalType": "address",
              "name": "codeAuthor",
              "type": "address"
            },
            {
              "internalType": "uint256",
              "name": "timeUploaded",
              "type": "uint256"
            },
            {
              "internalType": "string",
              "name": "codeFingerPrint",
              "type": "string"
            },
            {
              "internalType": "bytes16[]",
              "name": "hashSet",
              "type": "bytes16[]"
            },
            {
              "internalType": "uint256",
              "name": "hashSetLength",
              "type": "uint256"
            }
          ],
          "internalType": "struct PlagiarismContract.CodeFile",
          "name": "records",
          "type": "tuple"
        }
      ],
      "stateMutability": "view",
      "type": "function",
      "constant": true
    },
    {
      "inputs": [
        {
          "internalType": "bytes16[]",
          "name": "_hashSet",
          "type": "bytes16[]"
        },
        {
          "internalType": "uint256",
          "name": "hashSetLength",
          "type": "uint256"
        }
      ],
      "name": "checkIfPlagiarised",
      "outputs": [
        {
          "internalType": "bool",
          "name": "",
          "type": "bool"
        }
      ],
      "stateMutability": "view",
      "type": "function",
      "constant": true
    },
    {
      "inputs": [
        {
          "internalType": "bytes16[]",
          "name": "_hashSet",
          "type": "bytes16[]"
        },
        {
          "internalType": "uint256",
          "name": "oriHashSetLength",
          "type": "uint256"
        }
      ],
      "name": "getMaximumSimilarityScore",
      "outputs": [
        {
          "internalType": "uint256",
          "name": "",
          "type": "uint256"
        }
      ],
      "stateMutability": "view",
      "type": "function",
      "constant": true
    },
    {
      "inputs": [
        {
          "internalType": "bytes16[]",
          "name": "list1",
          "type": "bytes16[]"
        },
        {
          "internalType": "bytes16[]",
          "name": "list2",
          "type": "bytes16[]"
        },
        {
          "internalType": "uint256",
          "name": "setLength1",
          "type": "uint256"
        },
        {
          "internalType": "uint256",
          "name": "setLength2",
          "type": "uint256"
        }
      ],
      "name": "getCommonElementsCount",
      "outputs": [
        {
          "internalType": "uint256",
          "name": "",
          "type": "uint256"
        }
      ],
      "stateMutability": "pure",
      "type": "function",
      "constant": true
    },
    {
      "inputs": [
        {
          "internalType": "bytes16[]",
          "name": "l1",
          "type": "bytes16[]"
        },
        {
          "internalType": "bytes16[]",
          "name": "l2",
          "type": "bytes16[]"
        },
        {
          "internalType": "uint256",
          "name": "l1OriLength",
          "type": "uint256"
        },
        {
          "internalType": "uint256",
          "name": "l2OriLength",
          "type": "uint256"
        }
      ],
      "name": "calculateSimilarityScore",
      "outputs": [
        {
          "internalType": "uint256",
          "name": "",
          "type": "uint256"
        }
      ],
      "stateMutability": "pure",
      "type": "function",
      "constant": true
    }
  ],
  "bytecode": "0x60806040526000805534801561001457600080fd5b50611b50806100246000396000f3fe608060405234801561001057600080fd5b50600436106100885760003560e01c806358ae2ae71161005b57806358ae2ae71461013b5780639ecefadc14610157578063c93bcd9114610187578063dbb373ee146101bf57610088565b8063097694e11461008d5780630d665ad1146100bd57806331631b64146100ed578063439535191461011d575b600080fd5b6100a760048036038101906100a291906110b6565b6101ef565b6040516100b491906114c2565b60405180910390f35b6100d760048036038101906100d29190610fbb565b610571565b6040516100e491906114e4565b60405180910390f35b6101076004803603810190610102919061105a565b6105c3565b60405161011491906114a7565b60405180910390f35b6101256105f8565b60405161013291906114e4565b60405180910390f35b610155600480360381019061015091906110e3565b6105fe565b005b610171600480360381019061016c9190610fbb565b61082d565b60405161017e91906114e4565b60405180910390f35b6101a1600480360381019061019c91906110b6565b6108f3565b6040516101b6999897969594939291906115be565b60405180910390f35b6101d960048036038101906101d4919061105a565b610b81565b6040516101e691906114e4565b60405180910390f35b6101f7610cb2565b6001600083815260200190815260200160002060405180610140016040529081600082015481526020016001820154815260200160028201805461023a9061192b565b80601f01602080910402602001604051908101604052809291908181526020018280546102669061192b565b80156102b35780601f10610288576101008083540402835291602001916102b3565b820191906000526020600020905b81548152906001019060200180831161029657829003601f168201915b505050505081526020016003820180546102cc9061192b565b80601f01602080910402602001604051908101604052809291908181526020018280546102f89061192b565b80156103455780601f1061031a57610100808354040283529160200191610345565b820191906000526020600020905b81548152906001019060200180831161032857829003601f168201915b5050505050815260200160048201805461035e9061192b565b80601f016020809104026020016040519081016040528092919081815260200182805461038a9061192b565b80156103d75780601f106103ac576101008083540402835291602001916103d7565b820191906000526020600020905b8154815290600101906020018083116103ba57829003601f168201915b505050505081526020016005820160009054906101000a900473ffffffffffffffffffffffffffffffffffffffff1673ffffffffffffffffffffffffffffffffffffffff1673ffffffffffffffffffffffffffffffffffffffff168152602001600682015481526020016007820180546104509061192b565b80601f016020809104026020016040519081016040528092919081815260200182805461047c9061192b565b80156104c95780601f1061049e576101008083540402835291602001916104c9565b820191906000526020600020905b8154815290600101906020018083116104ac57829003601f168201915b505050505081526020016008820180548060200260200160405190810160405280929190818152602001828054801561055757602002820191906000526020600020906000905b82829054906101000a900460801b6fffffffffffffffffffffffffffffffff191681526020019060100190602082600f010492830192600103820291508084116105105790505b505050505081526020016009820154815250509050919050565b60008061058286868851885161082d565b905060008184866105939190611760565b61059d9190611841565b9050806064836105ad91906117e7565b6105b791906117b6565b92505050949350505050565b6000806105d08484610b81565b90506000601e9050808211156105eb576001925050506105f2565b6000925050505b92915050565b60005481565b61060882826105c3565b1561064a577f711784307b11c5f98f3bc25170dfd6d229d797a0891cb2dd54b1fd406e60fc6d600160405161063d91906114a7565b60405180910390a1610824565b60008081548092919061065c9061198e565b919050555060405180610140016040528060005481526020018881526020018781526020018681526020018581526020013373ffffffffffffffffffffffffffffffffffffffff16815260200142815260200184815260200183815260200182815250600160008054815260200190815260200160002060008201518160000155602082015181600101556040820151816002019080519060200190610703929190610d1b565b506060820151816003019080519060200190610720929190610d1b565b50608082015181600401908051906020019061073d929190610d1b565b5060a08201518160050160006101000a81548173ffffffffffffffffffffffffffffffffffffffff021916908373ffffffffffffffffffffffffffffffffffffffff16021790555060c0820151816006015560e08201518160070190805190602001906107ab929190610d1b565b506101008201518160080190805190602001906107c9929190610da1565b5061012082015181600901559050507f2cb3b83cdd1534b844c5d0a1492ed9e146aba3d1a63aee4e5bd0d3f8e85212456000548888888833428a8a8a60405161081b9a999897969594939291906114ff565b60405180910390a15b50505050505050565b6000806000905060005b848110156108e65760005b848110156108d25786818151811061085d5761085c611a64565b5b60200260200101516fffffffffffffffffffffffffffffffff191688838151811061088b5761088a611a64565b5b60200260200101516fffffffffffffffffffffffffffffffff191614156108bf5782806108b79061198e565b9350506108d2565b80806108ca9061198e565b915050610842565b5080806108de9061198e565b915050610837565b5080915050949350505050565b60016020528060005260406000206000915090508060000154908060010154908060020180546109229061192b565b80601f016020809104026020016040519081016040528092919081815260200182805461094e9061192b565b801561099b5780601f106109705761010080835404028352916020019161099b565b820191906000526020600020905b81548152906001019060200180831161097e57829003601f168201915b5050505050908060030180546109b09061192b565b80601f01602080910402602001604051908101604052809291908181526020018280546109dc9061192b565b8015610a295780601f106109fe57610100808354040283529160200191610a29565b820191906000526020600020905b815481529060010190602001808311610a0c57829003601f168201915b505050505090806004018054610a3e9061192b565b80601f0160208091040260200160405190810160405280929190818152602001828054610a6a9061192b565b8015610ab75780601f10610a8c57610100808354040283529160200191610ab7565b820191906000526020600020905b815481529060010190602001808311610a9a57829003601f168201915b5050505050908060050160009054906101000a900473ffffffffffffffffffffffffffffffffffffffff1690806006015490806007018054610af89061192b565b80601f0160208091040260200160405190810160405280929190818152602001828054610b249061192b565b8015610b715780601f10610b4657610100808354040283529160200191610b71565b820191906000526020600020905b815481529060010190602001808311610b5457829003601f168201915b5050505050908060090154905089565b60008060009050600080600190505b6000548111610be2576000610ba482610bee565b90506000610bb183610c92565b9050610bbf88838984610571565b935084841115610bcd578394505b50508080610bda9061198e565b915050610b90565b50819250505092915050565b606060016000838152602001908152602001600020600801805480602002602001604051908101604052809291908181526020018280548015610c8657602002820191906000526020600020906000905b82829054906101000a900460801b6fffffffffffffffffffffffffffffffff191681526020019060100190602082600f01049283019260010382029150808411610c3f5790505b50505050509050919050565b600060016000838152602001908152602001600020600901549050919050565b6040518061014001604052806000815260200160008152602001606081526020016060815260200160608152602001600073ffffffffffffffffffffffffffffffffffffffff168152602001600081526020016060815260200160608152602001600081525090565b828054610d279061192b565b90600052602060002090601f016020900481019282610d495760008555610d90565b82601f10610d6257805160ff1916838001178555610d90565b82800160010185558215610d90579182015b82811115610d8f578251825591602001919060010190610d74565b5b509050610d9d9190610e66565b5090565b82805482825590600052602060002090600101600290048101928215610e555791602002820160005b83821115610e1757835183826101000a8154816fffffffffffffffffffffffffffffffff021916908360801c02179055509260200192601001602081600f01049283019260010302610dca565b8015610e535782816101000a8154906fffffffffffffffffffffffffffffffff0219169055601001602081600f01049283019260010302610e17565b505b509050610e629190610e66565b5090565b5b80821115610e7f576000816000905550600101610e67565b5090565b6000610e96610e918461168c565b611667565b90508083825260208201905082856020860282011115610eb957610eb8611ac7565b5b60005b85811015610ee95781610ecf8882610f63565b845260208401935060208301925050600181019050610ebc565b5050509392505050565b6000610f06610f01846116b8565b611667565b905082815260208101848484011115610f2257610f21611acc565b5b610f2d8482856118e9565b509392505050565b600082601f830112610f4a57610f49611ac2565b5b8135610f5a848260208601610e83565b91505092915050565b600081359050610f7281611aec565b92915050565b600082601f830112610f8d57610f8c611ac2565b5b8135610f9d848260208601610ef3565b91505092915050565b600081359050610fb581611b03565b92915050565b60008060008060808587031215610fd557610fd4611ad6565b5b600085013567ffffffffffffffff811115610ff357610ff2611ad1565b5b610fff87828801610f35565b945050602085013567ffffffffffffffff8111156110205761101f611ad1565b5b61102c87828801610f35565b935050604061103d87828801610fa6565b925050606061104e87828801610fa6565b91505092959194509250565b6000806040838503121561107157611070611ad6565b5b600083013567ffffffffffffffff81111561108f5761108e611ad1565b5b61109b85828601610f35565b92505060206110ac85828601610fa6565b9150509250929050565b6000602082840312156110cc576110cb611ad6565b5b60006110da84828501610fa6565b91505092915050565b600080600080600080600060e0888a03121561110257611101611ad6565b5b60006111108a828b01610fa6565b975050602088013567ffffffffffffffff81111561113157611130611ad1565b5b61113d8a828b01610f78565b965050604088013567ffffffffffffffff81111561115e5761115d611ad1565b5b61116a8a828b01610f78565b955050606088013567ffffffffffffffff81111561118b5761118a611ad1565b5b6111978a828b01610f78565b945050608088013567ffffffffffffffff8111156111b8576111b7611ad1565b5b6111c48a828b01610f78565b93505060a088013567ffffffffffffffff8111156111e5576111e4611ad1565b5b6111f18a828b01610f35565b92505060c06112028a828b01610fa6565b91505092959891949750929550565b600061121d8383611312565b60208301905092915050565b61123281611875565b82525050565b61124181611875565b82525050565b6000611252826116f9565b61125c818561171c565b9350611267836116e9565b8060005b8381101561129857815161127f8882611211565b975061128a8361170f565b92505060018101905061126b565b5085935050505092915050565b60006112b0826116f9565b6112ba818561172d565b93506112c5836116e9565b8060005b838110156112f65781516112dd8882611211565b97506112e88361170f565b9250506001810190506112c9565b5085935050505092915050565b61130c81611887565b82525050565b61131b81611893565b82525050565b600061132c82611704565b611336818561173e565b93506113468185602086016118f8565b61134f81611adb565b840191505092915050565b600061136582611704565b61136f818561174f565b935061137f8185602086016118f8565b61138881611adb565b840191505092915050565b6000610140830160008301516113ac6000860182611489565b5060208301516113bf6020860182611489565b50604083015184820360408601526113d78282611321565b915050606083015184820360608601526113f18282611321565b9150506080830151848203608086015261140b8282611321565b91505060a083015161142060a0860182611229565b5060c083015161143360c0860182611489565b5060e083015184820360e086015261144b8282611321565b9150506101008301518482036101008601526114678282611247565b91505061012083015161147e610120860182611489565b508091505092915050565b611492816118df565b82525050565b6114a1816118df565b82525050565b60006020820190506114bc6000830184611303565b92915050565b600060208201905081810360008301526114dc8184611393565b905092915050565b60006020820190506114f96000830184611498565b92915050565b600061014082019050611515600083018d611498565b611522602083018c611498565b8181036040830152611534818b61135a565b90508181036060830152611548818a61135a565b9050818103608083015261155c818961135a565b905061156b60a0830188611238565b61157860c0830187611498565b81810360e083015261158a818661135a565b905081810361010083015261159f81856112a5565b90506115af610120830184611498565b9b9a5050505050505050505050565b6000610120820190506115d4600083018c611498565b6115e1602083018b611498565b81810360408301526115f3818a61135a565b90508181036060830152611607818961135a565b9050818103608083015261161b818861135a565b905061162a60a0830187611238565b61163760c0830186611498565b81810360e0830152611649818561135a565b9050611659610100830184611498565b9a9950505050505050505050565b6000611671611682565b905061167d828261195d565b919050565b6000604051905090565b600067ffffffffffffffff8211156116a7576116a6611a93565b5b602082029050602081019050919050565b600067ffffffffffffffff8211156116d3576116d2611a93565b5b6116dc82611adb565b9050602081019050919050565b6000819050602082019050919050565b600081519050919050565b600081519050919050565b6000602082019050919050565b600082825260208201905092915050565b600082825260208201905092915050565b600082825260208201905092915050565b600082825260208201905092915050565b600061176b826118df565b9150611776836118df565b9250827fffffffffffffffffffffffffffffffffffffffffffffffffffffffffffffffff038211156117ab576117aa6119d7565b5b828201905092915050565b60006117c1826118df565b91506117cc836118df565b9250826117dc576117db611a06565b5b828204905092915050565b60006117f2826118df565b91506117fd836118df565b9250817fffffffffffffffffffffffffffffffffffffffffffffffffffffffffffffffff0483118215151615611836576118356119d7565b5b828202905092915050565b600061184c826118df565b9150611857836118df565b92508282101561186a576118696119d7565b5b828203905092915050565b6000611880826118bf565b9050919050565b60008115159050919050565b60007fffffffffffffffffffffffffffffffff0000000000000000000000000000000082169050919050565b600073ffffffffffffffffffffffffffffffffffffffff82169050919050565b6000819050919050565b82818337600083830152505050565b60005b838110156119165780820151818401526020810190506118fb565b83811115611925576000848401525b50505050565b6000600282049050600182168061194357607f821691505b6020821081141561195757611956611a35565b5b50919050565b61196682611adb565b810181811067ffffffffffffffff8211171561198557611984611a93565b5b80604052505050565b6000611999826118df565b91507fffffffffffffffffffffffffffffffffffffffffffffffffffffffffffffffff8214156119cc576119cb6119d7565b5b600182019050919050565b7f4e487b7100000000000000000000000000000000000000000000000000000000600052601160045260246000fd5b7f4e487b7100000000000000000000000000000000000000000000000000000000600052601260045260246000fd5b7f4e487b7100000000000000000000000000000000000000000000000000000000600052602260045260246000fd5b7f4e487b7100000000000000000000000000000000000000000000000000000000600052603260045260246000fd5b7f4e487b7100000000000000000000000000000000000000000000000000000000600052604160045260246000fd5b600080fd5b600080fd5b600080fd5b600080fd5b600080fd5b6000601f19601f8301169050919050565b611af581611893565b8114611b0057600080fd5b50565b611b0c816118df565b8114611b1757600080fd5b5056fea264697066735822122032de11b48b57348fadd92dd759ef83a1af70b90f8a6cef19dc82d6cd592d5a7064736f6c63430008060033",
  "immutableReferences": {},
  "source": "// SPDX-License-Identifier: MIT\npragma solidity >=0.4.22 <0.9.0;\n// import \"@opengsn/contracts/src/BaseRelayRecipient.sol\";\n\n\n\n\ncontract PlagiarismContract// is BaseRelayRecipient \n{\n\n    // function versionRecipient() external override view returns (bytes16 memory) {\n    //     return \"2.0.0\";\n    // }\n\n  struct CodeFile{\n    uint fileId;\n    uint fileSize;\n    string fileIPFSHash;\n    string fileName;\n    string fileDescription;\n    address codeAuthor;\n    uint timeUploaded;    \n    string codeFingerPrint;\n    bytes16 [] hashSet;\n    uint hashSetLength;\n  }\n\n  uint public fileCount = 0;\n  mapping(uint=>CodeFile) public filesMap;\n\n\n  event CodeFileUploadEvent(\n    uint fileId,\n    uint fileSize,\n    string fileIPFSHash,\n    string fileName,\n    string fileDescription,\n    address codeAuthor,\n    uint timeUploaded ,\n    string codeFingerPrint,\n    bytes16 [] hashSet,\n    uint hashSetLength\n  ) ;\n\n  event PlagiarismResult(\n    bool plagiarisedResult\n  );\n\n    // function acceptRelayedCall(\n    //     address relay,\n    //     address from,\n    //     bytes calldata encodedFunction,\n    //     uint256 transactionFee,\n    //     uint256 gasPrice,\n    //     uint256 gasLimit,\n    //     uint256 nonce,\n    //     bytes calldata approvalData,\n    //     uint256 maxPossibleCharge\n    // ) external view returns (uint256, bytes memory) {\n    //     return _approveRelayedCall();\n    // }\n\n//getUploaded files\n// different maps for different langiages\n// map to check if same file\n//reject if any file has higher similarity score than threshold\n\n    \n  function uploadFile(uint _fileSize, string memory  _fileIPFSHash, string memory  _fileName,string memory  _fileDescription, string memory  _codeFingerPrint, bytes16 [] memory _hashSet, uint hashSetLength) public {\n\n    if(checkIfPlagiarised(_hashSet,hashSetLength)){\n      emit PlagiarismResult(true);\n    }\n    else{\n      fileCount++;\n\n      filesMap[fileCount] = CodeFile(fileCount,_fileSize,_fileIPFSHash, _fileName, _fileDescription,msg.sender/*_msgSender()*/,block.timestamp,_codeFingerPrint,_hashSet,hashSetLength);\n\n      emit CodeFileUploadEvent(fileCount,_fileSize,_fileIPFSHash, _fileName, _fileDescription,msg.sender/*_msgSender()*/,block.timestamp,_codeFingerPrint,_hashSet,hashSetLength);\n    }\n  }\n\n    function getFileByIndex(uint _fileIndex)\n        public\n        view\n        returns (CodeFile memory records)\n    {\n        return filesMap[_fileIndex];\n    }\n\n    function getFileHashSet(uint _fileIndex) private\n        view\n        returns (bytes16 [] memory )\n    {\n        return filesMap[_fileIndex].hashSet;\n    }\n\n    function getFileHashSetLength(uint _fileIndex) private\n        view\n        returns (uint )\n    {\n        return filesMap[_fileIndex].hashSetLength;\n    }\n    function checkIfPlagiarised( bytes16 [] memory _hashSet, uint hashSetLength)public view returns(bool){\n      uint similarityScore = getMaximumSimilarityScore(_hashSet,hashSetLength);\n\n      uint thresholdSimilarity=30;\n      if(similarityScore>thresholdSimilarity)\n        return true;\n      else\n        return false;\n    }\n\n    function getMaximumSimilarityScore( bytes16 [] memory _hashSet, uint oriHashSetLength) public view returns (uint){\n      uint maxSimilarity=0;\n      uint similarity=0;\n      // similarity=calculateSimilarityScore(_hashSet,_hashSet);\n\n      for(uint i=1;i<=fileCount;i++){\n        bytes16 [] memory existingFilehashSet=getFileHashSet(i);\n        uint existingFilehashSetLength=getFileHashSetLength(i);\n        // for(uint j=1;j<=existingFilehashSet.length;j++){\n          similarity=calculateSimilarityScore(_hashSet,existingFilehashSet,oriHashSetLength,existingFilehashSetLength);\n          if(similarity>maxSimilarity){\n            maxSimilarity=similarity;\n          }\n        // }\n      }\n      return maxSimilarity;\n    }\n\n \n    \n// function comparebytes16s(bytes16  a, bytes16  b) private pure returns (bool) {\n//       return a==b;\n//         // return (keccak256(abi.encodePacked((a))) == keccak256(abi.encodePacked((b))));\n//     }\n    function getCommonElementsCount(bytes16[] memory list1, bytes16[] memory list2,uint setLength1,uint setLength2) public pure returns (uint){\n\n        uint commonElementsCount=0;\n        for(uint i=0;i< setLength1;i++){\n            for(uint j=0;j<setLength2;j++){\n                if(list1[i]==list2[j]/*(keccak256(abi.encodePacked((list1[i]))) == keccak256(abi.encodePacked((list2[j]))))*/){\n                    commonElementsCount++;\n                    break;\n                }\n            }\n        }\n        return commonElementsCount;\n    }\n\n    // function isPresent(bytes16[] memory l1,bytes16 ele)private pure returns (bool){\n    //     for(uint i=0;i<l1.length;i++){\n    //       if(comparebytes16s(l1[i],ele)){\n    //         return true;\n    //       }\n    //     }\n    //     return false;\n    // }\n    function calculateSimilarityScore(bytes16[] memory l1, bytes16[] memory l2, uint l1OriLength, uint l2OriLength) public pure returns(uint){\n\n\n      // bytes16[] memory list1 = new bytes16[](l1.length);   \n      // bytes16[] memory list2 = new bytes16[](l2.length);   \n\n      // uint setLength1=0;\n      // uint setLength2=0;\n\n      //   for(uint i=0;i<l1.length;i++){\n      //       if (!isPresent(list1,l1[i])) {\n      //         list1[setLength1]=l1[i];\n      //         setLength1++;\n      //       }\n      //   } \n  \n      //   for(uint i=0;i<l2.length;i++){\n      //       if (!isPresent(list2,l2[i])) {\n      //         list2[setLength2]=l2[i];\n      //         setLength2++;\n      //       }\n      //   } \n\n        // uint commonElementsCount = getCommonElementsCount(list1,list1,setLength1,setLength2);\n        uint commonElementsCount = getCommonElementsCount(l1,l2,l1.length,l2.length);\n        uint unionCount=l1OriLength+l2OriLength-commonElementsCount;        \n        \n        return commonElementsCount*100/unionCount;\n    } \n}",
  "sourcePath": "/home/harshvardhan/Documents/Major_Project/smart-contract/contracts/PlagiarismContract.sol",
  "compiler": {
    "name": "solc",
    "version": "0.8.6+commit.11564f7e.Emscripten.clang"
  },
  "schemaVersion": "3.4.5",
  "updatedAt": "2022-03-14T09:37:16.616Z",
  "networkType": "ethereum",
  "devdoc": {
    "kind": "dev",
    "methods": {},
    "version": 1
  },
  "userdoc": {
    "kind": "user",
    "methods": {},
    "version": 1
  }
}