{
  "contractName": "PlagiarismContract",
  "abi": [
    {
      "anonymous": false,
      "inputs": [
        {
          "indexed": false,
          "internalType": "uint256",
          "name": "timeUploaded",
          "type": "uint256"
        },
        {
          "indexed": false,
          "internalType": "string",
          "name": "fileName",
          "type": "string"
        },
        {
          "indexed": false,
          "internalType": "uint256",
          "name": "language",
          "type": "uint256"
        }
      ],
      "name": "CheckingPlagiarism",
      "type": "event"
    },
    {
      "anonymous": false,
      "inputs": [
        {
          "indexed": false,
          "internalType": "uint256",
          "name": "fileId",
          "type": "uint256"
        },
        {
          "indexed": false,
          "internalType": "uint256",
          "name": "fileSize",
          "type": "uint256"
        },
        {
          "indexed": false,
          "internalType": "string",
          "name": "fileIPFSCID",
          "type": "string"
        },
        {
          "indexed": false,
          "internalType": "string",
          "name": "fileName",
          "type": "string"
        },
        {
          "indexed": false,
          "internalType": "string",
          "name": "fileDescription",
          "type": "string"
        },
        {
          "indexed": false,
          "internalType": "address",
          "name": "codeAuthor",
          "type": "address"
        },
        {
          "indexed": false,
          "internalType": "uint256",
          "name": "timeUploaded",
          "type": "uint256"
        },
        {
          "indexed": false,
          "internalType": "string",
          "name": "codeFingerPrint",
          "type": "string"
        },
        {
          "indexed": false,
          "internalType": "bytes16[]",
          "name": "hashSet",
          "type": "bytes16[]"
        },
        {
          "indexed": false,
          "internalType": "uint256",
          "name": "hashSetLength",
          "type": "uint256"
        },
        {
          "indexed": false,
          "internalType": "uint256",
          "name": "language",
          "type": "uint256"
        }
      ],
      "name": "CodeFileUploadEvent",
      "type": "event"
    },
    {
      "anonymous": false,
      "inputs": [
        {
          "indexed": false,
          "internalType": "uint256",
          "name": "timeUploaded",
          "type": "uint256"
        },
        {
          "indexed": false,
          "internalType": "string",
          "name": "fileName",
          "type": "string"
        },
        {
          "indexed": false,
          "internalType": "uint256",
          "name": "language",
          "type": "uint256"
        }
      ],
      "name": "CodeSubmitted",
      "type": "event"
    },
    {
      "anonymous": false,
      "inputs": [
        {
          "components": [
            {
              "internalType": "uint256",
              "name": "fileId",
              "type": "uint256"
            },
            {
              "internalType": "uint256",
              "name": "fileSize",
              "type": "uint256"
            },
            {
              "internalType": "string",
              "name": "fileIPFSCID",
              "type": "string"
            },
            {
              "internalType": "string",
              "name": "fileName",
              "type": "string"
            },
            {
              "internalType": "string",
              "name": "fileDescription",
              "type": "string"
            },
            {
              "internalType": "address",
              "name": "codeAuthor",
              "type": "address"
            },
            {
              "internalType": "uint256",
              "name": "timeUploaded",
              "type": "uint256"
            },
            {
              "internalType": "string",
              "name": "codeFingerPrint",
              "type": "string"
            },
            {
              "internalType": "bytes16[]",
              "name": "hashSet",
              "type": "bytes16[]"
            },
            {
              "internalType": "uint256",
              "name": "hashSetLength",
              "type": "uint256"
            },
            {
              "internalType": "uint256",
              "name": "language",
              "type": "uint256"
            }
          ],
          "indexed": false,
          "internalType": "struct PlagiarismContract.CodeFile[]",
          "name": "codefiles",
          "type": "tuple[]"
        }
      ],
      "name": "GetFilesEvent",
      "type": "event"
    },
    {
      "anonymous": false,
      "inputs": [
        {
          "indexed": false,
          "internalType": "string",
          "name": "fileName",
          "type": "string"
        },
        {
          "indexed": false,
          "internalType": "uint256",
          "name": "similarity",
          "type": "uint256"
        },
        {
          "indexed": false,
          "internalType": "string",
          "name": "fileIPFSCID",
          "type": "string"
        }
      ],
      "name": "PlagiarismReport",
      "type": "event"
    },
    {
      "anonymous": false,
      "inputs": [
        {
          "indexed": false,
          "internalType": "bool",
          "name": "plagiarisedResult",
          "type": "bool"
        },
        {
          "indexed": false,
          "internalType": "uint256",
          "name": "timeUploaded",
          "type": "uint256"
        }
      ],
      "name": "PlagiarismResult",
      "type": "event"
    },
    {
      "inputs": [
        {
          "internalType": "uint256",
          "name": "",
          "type": "uint256"
        }
      ],
      "name": "fileCountByLanguage",
      "outputs": [
        {
          "internalType": "uint256",
          "name": "",
          "type": "uint256"
        }
      ],
      "stateMutability": "view",
      "type": "function",
      "constant": true
    },
    {
      "inputs": [
        {
          "internalType": "uint256",
          "name": "",
          "type": "uint256"
        },
        {
          "internalType": "uint256",
          "name": "",
          "type": "uint256"
        }
      ],
      "name": "filesMapByLanguage",
      "outputs": [
        {
          "internalType": "uint256",
          "name": "fileId",
          "type": "uint256"
        },
        {
          "internalType": "uint256",
          "name": "fileSize",
          "type": "uint256"
        },
        {
          "internalType": "string",
          "name": "fileIPFSCID",
          "type": "string"
        },
        {
          "internalType": "string",
          "name": "fileName",
          "type": "string"
        },
        {
          "internalType": "string",
          "name": "fileDescription",
          "type": "string"
        },
        {
          "internalType": "address",
          "name": "codeAuthor",
          "type": "address"
        },
        {
          "internalType": "uint256",
          "name": "timeUploaded",
          "type": "uint256"
        },
        {
          "internalType": "string",
          "name": "codeFingerPrint",
          "type": "string"
        },
        {
          "internalType": "uint256",
          "name": "hashSetLength",
          "type": "uint256"
        },
        {
          "internalType": "uint256",
          "name": "language",
          "type": "uint256"
        }
      ],
      "stateMutability": "view",
      "type": "function",
      "constant": true
    },
    {
      "inputs": [
        {
          "internalType": "string",
          "name": "",
          "type": "string"
        },
        {
          "internalType": "address",
          "name": "",
          "type": "address"
        }
      ],
      "name": "hasPermissionsMap",
      "outputs": [
        {
          "internalType": "bool",
          "name": "",
          "type": "bool"
        }
      ],
      "stateMutability": "view",
      "type": "function",
      "constant": true
    },
    {
      "inputs": [
        {
          "internalType": "uint256",
          "name": "",
          "type": "uint256"
        }
      ],
      "name": "threshold",
      "outputs": [
        {
          "internalType": "uint256",
          "name": "",
          "type": "uint256"
        }
      ],
      "stateMutability": "view",
      "type": "function",
      "constant": true
    },
    {
      "inputs": [],
      "name": "totalFileCount",
      "outputs": [
        {
          "internalType": "uint256",
          "name": "",
          "type": "uint256"
        }
      ],
      "stateMutability": "view",
      "type": "function",
      "constant": true
    },
    {
      "inputs": [
        {
          "internalType": "address",
          "name": "",
          "type": "address"
        },
        {
          "internalType": "uint256",
          "name": "",
          "type": "uint256"
        },
        {
          "internalType": "uint256",
          "name": "",
          "type": "uint256"
        }
      ],
      "name": "userFilesIndexByLanguage",
      "outputs": [
        {
          "internalType": "uint256",
          "name": "",
          "type": "uint256"
        }
      ],
      "stateMutability": "view",
      "type": "function",
      "constant": true
    },
    {
      "inputs": [
        {
          "internalType": "string",
          "name": "cid",
          "type": "string"
        },
        {
          "internalType": "address",
          "name": "userAddress",
          "type": "address"
        }
      ],
      "name": "doesUserHavePermission",
      "outputs": [
        {
          "internalType": "bool",
          "name": "",
          "type": "bool"
        }
      ],
      "stateMutability": "view",
      "type": "function",
      "constant": true
    },
    {
      "inputs": [
        {
          "internalType": "string",
          "name": "cid",
          "type": "string"
        }
      ],
      "name": "addPermission",
      "outputs": [],
      "stateMutability": "nonpayable",
      "type": "function"
    },
    {
      "inputs": [
        {
          "internalType": "string",
          "name": "cid",
          "type": "string"
        }
      ],
      "name": "removePermission",
      "outputs": [],
      "stateMutability": "nonpayable",
      "type": "function"
    },
    {
      "inputs": [],
      "name": "getFileCount",
      "outputs": [
        {
          "internalType": "uint256",
          "name": "",
          "type": "uint256"
        }
      ],
      "stateMutability": "view",
      "type": "function",
      "constant": true
    },
    {
      "inputs": [],
      "name": "getFilesUploadedByUser",
      "outputs": [
        {
          "components": [
            {
              "internalType": "uint256",
              "name": "fileId",
              "type": "uint256"
            },
            {
              "internalType": "uint256",
              "name": "fileSize",
              "type": "uint256"
            },
            {
              "internalType": "string",
              "name": "fileIPFSCID",
              "type": "string"
            },
            {
              "internalType": "string",
              "name": "fileName",
              "type": "string"
            },
            {
              "internalType": "string",
              "name": "fileDescription",
              "type": "string"
            },
            {
              "internalType": "address",
              "name": "codeAuthor",
              "type": "address"
            },
            {
              "internalType": "uint256",
              "name": "timeUploaded",
              "type": "uint256"
            },
            {
              "internalType": "string",
              "name": "codeFingerPrint",
              "type": "string"
            },
            {
              "internalType": "bytes16[]",
              "name": "hashSet",
              "type": "bytes16[]"
            },
            {
              "internalType": "uint256",
              "name": "hashSetLength",
              "type": "uint256"
            },
            {
              "internalType": "uint256",
              "name": "language",
              "type": "uint256"
            }
          ],
          "internalType": "struct PlagiarismContract.CodeFile[]",
          "name": "",
          "type": "tuple[]"
        }
      ],
      "stateMutability": "view",
      "type": "function",
      "constant": true
    },
    {
      "inputs": [
        {
          "internalType": "string",
          "name": "_fileIPFSCID",
          "type": "string"
        }
      ],
      "name": "fileInIPFS",
      "outputs": [
        {
          "internalType": "bool",
          "name": "",
          "type": "bool"
        }
      ],
      "stateMutability": "view",
      "type": "function",
      "constant": true
    },
    {
      "inputs": [
        {
          "internalType": "uint256",
          "name": "_fileSize",
          "type": "uint256"
        },
        {
          "internalType": "string",
          "name": "_fileIPFSCID",
          "type": "string"
        },
        {
          "internalType": "string",
          "name": "_fileName",
          "type": "string"
        },
        {
          "internalType": "string",
          "name": "_fileDescription",
          "type": "string"
        },
        {
          "internalType": "string",
          "name": "_codeFingerPrint",
          "type": "string"
        },
        {
          "internalType": "bytes16[]",
          "name": "_hashSet",
          "type": "bytes16[]"
        },
        {
          "internalType": "uint256",
          "name": "hashSetLength",
          "type": "uint256"
        },
        {
          "internalType": "uint256",
          "name": "language",
          "type": "uint256"
        }
      ],
      "name": "uploadFile",
      "outputs": [],
      "stateMutability": "nonpayable",
      "type": "function"
    },
    {
      "inputs": [
        {
          "internalType": "uint256",
          "name": "_fileIndex",
          "type": "uint256"
        },
        {
          "internalType": "uint256",
          "name": "language",
          "type": "uint256"
        }
      ],
      "name": "getFileByIndex",
      "outputs": [
        {
          "components": [
            {
              "internalType": "uint256",
              "name": "fileId",
              "type": "uint256"
            },
            {
              "internalType": "uint256",
              "name": "fileSize",
              "type": "uint256"
            },
            {
              "internalType": "string",
              "name": "fileIPFSCID",
              "type": "string"
            },
            {
              "internalType": "string",
              "name": "fileName",
              "type": "string"
            },
            {
              "internalType": "string",
              "name": "fileDescription",
              "type": "string"
            },
            {
              "internalType": "address",
              "name": "codeAuthor",
              "type": "address"
            },
            {
              "internalType": "uint256",
              "name": "timeUploaded",
              "type": "uint256"
            },
            {
              "internalType": "string",
              "name": "codeFingerPrint",
              "type": "string"
            },
            {
              "internalType": "bytes16[]",
              "name": "hashSet",
              "type": "bytes16[]"
            },
            {
              "internalType": "uint256",
              "name": "hashSetLength",
              "type": "uint256"
            },
            {
              "internalType": "uint256",
              "name": "language",
              "type": "uint256"
            }
          ],
          "internalType": "struct PlagiarismContract.CodeFile",
          "name": "records",
          "type": "tuple"
        }
      ],
      "stateMutability": "view",
      "type": "function",
      "constant": true
    },
    {
      "inputs": [
        {
          "internalType": "string",
          "name": "_fileName",
          "type": "string"
        },
        {
          "internalType": "bytes16[]",
          "name": "_hashSet",
          "type": "bytes16[]"
        },
        {
          "internalType": "uint256",
          "name": "hashSetLength",
          "type": "uint256"
        },
        {
          "internalType": "uint256",
          "name": "language",
          "type": "uint256"
        }
      ],
      "name": "checkIfPlagiarised",
      "outputs": [
        {
          "internalType": "bool",
          "name": "",
          "type": "bool"
        }
      ],
      "stateMutability": "nonpayable",
      "type": "function"
    },
    {
      "inputs": [
        {
          "internalType": "bytes16[]",
          "name": "list1",
          "type": "bytes16[]"
        },
        {
          "internalType": "bytes16[]",
          "name": "list2",
          "type": "bytes16[]"
        },
        {
          "internalType": "uint256",
          "name": "setLength1",
          "type": "uint256"
        },
        {
          "internalType": "uint256",
          "name": "setLength2",
          "type": "uint256"
        }
      ],
      "name": "getCommonElementsCount",
      "outputs": [
        {
          "internalType": "uint256",
          "name": "",
          "type": "uint256"
        }
      ],
      "stateMutability": "pure",
      "type": "function",
      "constant": true
    },
    {
      "inputs": [
        {
          "internalType": "bytes16[]",
          "name": "l1",
          "type": "bytes16[]"
        },
        {
          "internalType": "bytes16[]",
          "name": "l2",
          "type": "bytes16[]"
        },
        {
          "internalType": "uint256",
          "name": "l1OriLength",
          "type": "uint256"
        },
        {
          "internalType": "uint256",
          "name": "l2OriLength",
          "type": "uint256"
        }
      ],
      "name": "calculateSimilarityScore",
      "outputs": [
        {
          "internalType": "uint256",
          "name": "",
          "type": "uint256"
        }
      ],
      "stateMutability": "pure",
      "type": "function",
      "constant": true
    }
  ],
  "bytecode": "0x60806040526040518060600160405280600060ff168152602001600060ff168152602001600060ff1681525060009060036200003d92919062000091565b5060006001556040518060600160405280601e60ff168152602001602560ff168152602001601e60ff1681525060029060036200007c92919062000091565b503480156200008a57600080fd5b5062000107565b828054828255906000526020600020908101928215620000d5579160200282015b82811115620000d4578251829060ff16905591602001919060010190620000b2565b5b509050620000e49190620000e8565b5090565b5b8082111562000103576000816000905550600101620000e9565b5090565b612ad480620001176000396000f3fe608060405234801561001057600080fd5b506004361061010b5760003560e01c806397f42b1a116100a2578063a988080211610071578063a98808021461030d578063bab50cc91461033d578063ca749bec1461035b578063d11e44d614610377578063ee7e64f7146103a75761010b565b806397f42b1a1461024d5780639e1995661461027d5780639ecefadc146102ad578063a89796cc146102dd5761010b565b806351887b71116100de57806351887b71146101bc5780635836e03d146101da57806360ff2aac146101f65780637f9d4b4a1461022f5761010b565b80630641e449146101105780630d665ad11461014057806331eb7a1a146101705780634217649f146101a0575b600080fd5b61012a6004803603810190610125919061197e565b6103d7565b60405161013791906119ba565b60405180910390f35b61015a60048036038101906101559190611b86565b6103fb565b60405161016791906119ba565b60405180910390f35b61018a6004803603810190610185919061197e565b61044d565b60405161019791906119ba565b60405180910390f35b6101ba60048036038101906101b59190611cda565b610471565b005b6101c46104e8565b6040516101d19190612086565b60405180910390f35b6101f460048036038101906101ef9190611cda565b6108b6565b005b610210600480360381019061020b91906120a8565b61092d565b6040516102269a99989796959493929190612141565b60405180910390f35b610237610bce565b60405161024491906119ba565b60405180910390f35b61026760048036038101906102629190612225565b610bd4565b60405161027491906119ba565b60405180910390f35b61029760048036038101906102929190612278565b610c12565b6040516102a491906122ef565b60405180910390f35b6102c760048036038101906102c29190611b86565b610c57565b6040516102d491906119ba565b60405180910390f35b6102f760048036038101906102f29190612278565b610d1c565b60405161030491906122ef565b60405180910390f35b61032760048036038101906103229190611cda565b610d8f565b60405161033491906122ef565b60405180910390f35b610345610dc4565b60405161035291906119ba565b60405180910390f35b6103756004803603810190610370919061230a565b610dce565b005b610391600480360381019061038c919061244c565b611187565b60405161039e91906122ef565b60405180910390f35b6103c160048036038101906103bc91906120a8565b6112d6565b6040516103ce91906125f6565b60405180910390f35b600081815481106103e757600080fd5b906000526020600020016000915090505481565b60008061040c868688518851610c57565b9050600081848661041d9190612647565b610427919061269d565b90508060648361043791906126d1565b610441919061275a565b92505050949350505050565b6002818154811061045d57600080fd5b906000526020600020016000915090505481565b600060068260405161048391906127c7565b908152602001604051809103902060003373ffffffffffffffffffffffffffffffffffffffff1673ffffffffffffffffffffffffffffffffffffffff16815260200190815260200160002060006101000a81548160ff02191690831515021790555050565b60606000600460003373ffffffffffffffffffffffffffffffffffffffff1673ffffffffffffffffffffffffffffffffffffffff16815260200190815260200160002060008081526020019081526020016000208054905090506000600460003373ffffffffffffffffffffffffffffffffffffffff1673ffffffffffffffffffffffffffffffffffffffff1681526020019081526020016000206000600181526020019081526020016000208054905090506000600460003373ffffffffffffffffffffffffffffffffffffffff1673ffffffffffffffffffffffffffffffffffffffff16815260200190815260200160002060006002815260200190815260200160002080549050905060008184846106039190612647565b61060d9190612647565b67ffffffffffffffff811115610626576106256119eb565b5b60405190808252806020026020018201604052801561065f57816020015b61064c61175c565b8152602001906001900390816106445790505b5090506000805b85811015610724576106e5600460003373ffffffffffffffffffffffffffffffffffffffff1673ffffffffffffffffffffffffffffffffffffffff168152602001908152602001600020600080815260200190815260200160002082815481106106d3576106d26127de565b5b906000526020600020015460006112d6565b8383815181106106f8576106f76127de565b5b6020026020010181905250818061070e9061280d565b925050808061071c9061280d565b915050610666565b5060005b848110156107e7576107a8600460003373ffffffffffffffffffffffffffffffffffffffff1673ffffffffffffffffffffffffffffffffffffffff1681526020019081526020016000206000600181526020019081526020016000208281548110610796576107956127de565b5b906000526020600020015460016112d6565b8383815181106107bb576107ba6127de565b5b602002602001018190525081806107d19061280d565b92505080806107df9061280d565b915050610728565b5060005b838110156108aa5761086b600460003373ffffffffffffffffffffffffffffffffffffffff1673ffffffffffffffffffffffffffffffffffffffff1681526020019081526020016000206000600281526020019081526020016000208281548110610859576108586127de565b5b906000526020600020015460026112d6565b83838151811061087e5761087d6127de565b5b602002602001018190525081806108949061280d565b92505080806108a29061280d565b9150506107eb565b50819550505050505090565b60016006826040516108c891906127c7565b908152602001604051809103902060003373ffffffffffffffffffffffffffffffffffffffff1673ffffffffffffffffffffffffffffffffffffffff16815260200190815260200160002060006101000a81548160ff02191690831515021790555050565b60036020528160005260406000206020528060005260406000206000915091505080600001549080600101549080600201805461096990612884565b80601f016020809104026020016040519081016040528092919081815260200182805461099590612884565b80156109e25780601f106109b7576101008083540402835291602001916109e2565b820191906000526020600020905b8154815290600101906020018083116109c557829003601f168201915b5050505050908060030180546109f790612884565b80601f0160208091040260200160405190810160405280929190818152602001828054610a2390612884565b8015610a705780601f10610a4557610100808354040283529160200191610a70565b820191906000526020600020905b815481529060010190602001808311610a5357829003601f168201915b505050505090806004018054610a8590612884565b80601f0160208091040260200160405190810160405280929190818152602001828054610ab190612884565b8015610afe5780601f10610ad357610100808354040283529160200191610afe565b820191906000526020600020905b815481529060010190602001808311610ae157829003601f168201915b5050505050908060050160009054906101000a900473ffffffffffffffffffffffffffffffffffffffff1690806006015490806007018054610b3f90612884565b80601f0160208091040260200160405190810160405280929190818152602001828054610b6b90612884565b8015610bb85780601f10610b8d57610100808354040283529160200191610bb8565b820191906000526020600020905b815481529060010190602001808311610b9b57829003601f168201915b50505050509080600901549080600a015490508a565b60015481565b60046020528260005260406000206020528160005260406000208181548110610bfc57600080fd5b9060005260206000200160009250925050505481565b6006828051602081018201805184825260208301602085012081835280955050505050506020528060005260406000206000915091509054906101000a900460ff1681565b6000806000905060005b84811015610d0f5760005b84811015610cfb57868181518110610c8757610c866127de565b5b60200260200101516fffffffffffffffffffffffffffffffff1916888381518110610cb557610cb46127de565b5b60200260200101516fffffffffffffffffffffffffffffffff191603610ce8578280610ce09061280d565b935050610cfb565b8080610cf39061280d565b915050610c6c565b508080610d079061280d565b915050610c61565b5080915050949350505050565b6000600683604051610d2e91906127c7565b908152602001604051809103902060008373ffffffffffffffffffffffffffffffffffffffff1673ffffffffffffffffffffffffffffffffffffffff16815260200190815260200160002060009054906101000a900460ff16905092915050565b6000600582604051610da191906127c7565b908152602001604051809103902060009054906101000a900460ff169050919050565b6000600154905090565b7f90a4de5c450d2bbdd8a9564fb9646ea0df44cf5dbb8e4bed1c6f806b7b37e57e428783604051610e01939291906128b5565b60405180910390a1610e1586848484611187565b15610e59577f33baf730752a6c778112e3ee4c2e8bd128e07d02117675aa7c7feec6dd8b51db600142604051610e4c9291906128f3565b60405180910390a161117d565b610e62876108b6565b60008181548110610e7657610e756127de565b5b906000526020600020016000815480929190610e919061280d565b919050555060016000815480929190610ea99061280d565b91905055506001600588604051610ec091906127c7565b908152602001604051809103902060006101000a81548160ff02191690831515021790555060405180610160016040528060015481526020018981526020018881526020018781526020018681526020013373ffffffffffffffffffffffffffffffffffffffff16815260200142815260200185815260200184815260200183815260200182815250600360008381526020019081526020016000206000808481548110610f7157610f706127de565b5b9060005260206000200154815260200190815260200160002060008201518160000155602082015181600101556040820151816002019080519060200190610fba9291906117cc565b506060820151816003019080519060200190610fd79291906117cc565b506080820151816004019080519060200190610ff49291906117cc565b5060a08201518160050160006101000a81548173ffffffffffffffffffffffffffffffffffffffff021916908373ffffffffffffffffffffffffffffffffffffffff16021790555060c0820151816006015560e08201518160070190805190602001906110629291906117cc565b50610100820151816008019080519060200190611080929190611852565b50610120820151816009015561014082015181600a0155905050600460003373ffffffffffffffffffffffffffffffffffffffff1673ffffffffffffffffffffffffffffffffffffffff1681526020019081526020016000206000828152602001908152602001600020600082815481106110fe576110fd6127de565b5b906000526020600020015490806001815401808255809150506001900390600052602060002001600090919091909150557f3f57d78cc64cf92f6e3395a2500653142d55d8ccce3c2822cc104fc2f7aa7fbb6001548989898933428b8b8b8b6040516111749b9a9998979695949392919061298b565b60405180910390a15b5050505050505050565b6000806000905060007f07ecc4d2c84ccebeededec1ffd783fb95395d34ea2aec93c939cd704166d409b4288866040516111c3939291906128b5565b60405180910390a16000600190505b600085815481106111e6576111e56127de565b5b906000526020600020015481116112b35760006112038287611674565b90506000611211838861172a565b905061121f89838a846103fb565b945060028781548110611235576112346127de565b5b906000526020600020015485111561129e57600061125384896112d6565b90507f26286c29038090672da1b9316179073034472dcdace7de43a986717de067048a816060015187836040015160405161129093929190612a59565b60405180910390a160019450505b505080806112ab9061280d565b9150506111d2565b50600181036112c7576001925050506112ce565b6000925050505b949350505050565b6112de61175c565b60036000838152602001908152602001600020600084815260200190815260200160002060405180610160016040529081600082015481526020016001820154815260200160028201805461133290612884565b80601f016020809104026020016040519081016040528092919081815260200182805461135e90612884565b80156113ab5780601f10611380576101008083540402835291602001916113ab565b820191906000526020600020905b81548152906001019060200180831161138e57829003601f168201915b505050505081526020016003820180546113c490612884565b80601f01602080910402602001604051908101604052809291908181526020018280546113f090612884565b801561143d5780601f106114125761010080835404028352916020019161143d565b820191906000526020600020905b81548152906001019060200180831161142057829003601f168201915b5050505050815260200160048201805461145690612884565b80601f016020809104026020016040519081016040528092919081815260200182805461148290612884565b80156114cf5780601f106114a4576101008083540402835291602001916114cf565b820191906000526020600020905b8154815290600101906020018083116114b257829003601f168201915b505050505081526020016005820160009054906101000a900473ffffffffffffffffffffffffffffffffffffffff1673ffffffffffffffffffffffffffffffffffffffff1673ffffffffffffffffffffffffffffffffffffffff1681526020016006820154815260200160078201805461154890612884565b80601f016020809104026020016040519081016040528092919081815260200182805461157490612884565b80156115c15780601f10611596576101008083540402835291602001916115c1565b820191906000526020600020905b8154815290600101906020018083116115a457829003601f168201915b505050505081526020016008820180548060200260200160405190810160405280929190818152602001828054801561164f57602002820191906000526020600020906000905b82829054906101000a900460801b6fffffffffffffffffffffffffffffffff191681526020019060100190602082600f010492830192600103820291508084116116085790505b5050505050815260200160098201548152602001600a82015481525050905092915050565b606060036000838152602001908152602001600020600084815260200190815260200160002060080180548060200260200160405190810160405280929190818152602001828054801561171d57602002820191906000526020600020906000905b82829054906101000a900460801b6fffffffffffffffffffffffffffffffff191681526020019060100190602082600f010492830192600103820291508084116116d65790505b5050505050905092915050565b600060036000838152602001908152602001600020600084815260200190815260200160002060090154905092915050565b6040518061016001604052806000815260200160008152602001606081526020016060815260200160608152602001600073ffffffffffffffffffffffffffffffffffffffff16815260200160008152602001606081526020016060815260200160008152602001600081525090565b8280546117d890612884565b90600052602060002090601f0160209004810192826117fa5760008555611841565b82601f1061181357805160ff1916838001178555611841565b82800160010185558215611841579182015b82811115611840578251825591602001919060010190611825565b5b50905061184e9190611917565b5090565b828054828255906000526020600020906001016002900481019282156119065791602002820160005b838211156118c857835183826101000a8154816fffffffffffffffffffffffffffffffff021916908360801c02179055509260200192601001602081600f0104928301926001030261187b565b80156119045782816101000a8154906fffffffffffffffffffffffffffffffff0219169055601001602081600f010492830192600103026118c8565b505b5090506119139190611917565b5090565b5b80821115611930576000816000905550600101611918565b5090565b6000604051905090565b600080fd5b600080fd5b6000819050919050565b61195b81611948565b811461196657600080fd5b50565b60008135905061197881611952565b92915050565b6000602082840312156119945761199361193e565b5b60006119a284828501611969565b91505092915050565b6119b481611948565b82525050565b60006020820190506119cf60008301846119ab565b92915050565b600080fd5b6000601f19601f8301169050919050565b7f4e487b7100000000000000000000000000000000000000000000000000000000600052604160045260246000fd5b611a23826119da565b810181811067ffffffffffffffff82111715611a4257611a416119eb565b5b80604052505050565b6000611a55611934565b9050611a618282611a1a565b919050565b600067ffffffffffffffff821115611a8157611a806119eb565b5b602082029050602081019050919050565b600080fd5b60007fffffffffffffffffffffffffffffffff0000000000000000000000000000000082169050919050565b611acc81611a97565b8114611ad757600080fd5b50565b600081359050611ae981611ac3565b92915050565b6000611b02611afd84611a66565b611a4b565b90508083825260208201905060208402830185811115611b2557611b24611a92565b5b835b81811015611b4e5780611b3a8882611ada565b845260208401935050602081019050611b27565b5050509392505050565b600082601f830112611b6d57611b6c6119d5565b5b8135611b7d848260208601611aef565b91505092915050565b60008060008060808587031215611ba057611b9f61193e565b5b600085013567ffffffffffffffff811115611bbe57611bbd611943565b5b611bca87828801611b58565b945050602085013567ffffffffffffffff811115611beb57611bea611943565b5b611bf787828801611b58565b9350506040611c0887828801611969565b9250506060611c1987828801611969565b91505092959194509250565b600080fd5b600067ffffffffffffffff821115611c4557611c446119eb565b5b611c4e826119da565b9050602081019050919050565b82818337600083830152505050565b6000611c7d611c7884611c2a565b611a4b565b905082815260208101848484011115611c9957611c98611c25565b5b611ca4848285611c5b565b509392505050565b600082601f830112611cc157611cc06119d5565b5b8135611cd1848260208601611c6a565b91505092915050565b600060208284031215611cf057611cef61193e565b5b600082013567ffffffffffffffff811115611d0e57611d0d611943565b5b611d1a84828501611cac565b91505092915050565b600081519050919050565b600082825260208201905092915050565b6000819050602082019050919050565b611d5881611948565b82525050565b600081519050919050565b600082825260208201905092915050565b60005b83811015611d98578082015181840152602081019050611d7d565b83811115611da7576000848401525b50505050565b6000611db882611d5e565b611dc28185611d69565b9350611dd2818560208601611d7a565b611ddb816119da565b840191505092915050565b600073ffffffffffffffffffffffffffffffffffffffff82169050919050565b6000611e1182611de6565b9050919050565b611e2181611e06565b82525050565b600081519050919050565b600082825260208201905092915050565b6000819050602082019050919050565b611e5c81611a97565b82525050565b6000611e6e8383611e53565b60208301905092915050565b6000602082019050919050565b6000611e9282611e27565b611e9c8185611e32565b9350611ea783611e43565b8060005b83811015611ed8578151611ebf8882611e62565b9750611eca83611e7a565b925050600181019050611eab565b5085935050505092915050565b600061016083016000830151611efe6000860182611d4f565b506020830151611f116020860182611d4f565b5060408301518482036040860152611f298282611dad565b91505060608301518482036060860152611f438282611dad565b91505060808301518482036080860152611f5d8282611dad565b91505060a0830151611f7260a0860182611e18565b5060c0830151611f8560c0860182611d4f565b5060e083015184820360e0860152611f9d8282611dad565b915050610100830151848203610100860152611fb98282611e87565b915050610120830151611fd0610120860182611d4f565b50610140830151611fe5610140860182611d4f565b508091505092915050565b6000611ffc8383611ee5565b905092915050565b6000602082019050919050565b600061201c82611d23565b6120268185611d2e565b93508360208202850161203885611d3f565b8060005b8581101561207457848403895281516120558582611ff0565b945061206083612004565b925060208a0199505060018101905061203c565b50829750879550505050505092915050565b600060208201905081810360008301526120a08184612011565b905092915050565b600080604083850312156120bf576120be61193e565b5b60006120cd85828601611969565b92505060206120de85828601611969565b9150509250929050565b600082825260208201905092915050565b600061210482611d5e565b61210e81856120e8565b935061211e818560208601611d7a565b612127816119da565b840191505092915050565b61213b81611e06565b82525050565b600061014082019050612157600083018d6119ab565b612164602083018c6119ab565b8181036040830152612176818b6120f9565b9050818103606083015261218a818a6120f9565b9050818103608083015261219e81896120f9565b90506121ad60a0830188612132565b6121ba60c08301876119ab565b81810360e08301526121cc81866120f9565b90506121dc6101008301856119ab565b6121ea6101208301846119ab565b9b9a5050505050505050505050565b61220281611e06565b811461220d57600080fd5b50565b60008135905061221f816121f9565b92915050565b60008060006060848603121561223e5761223d61193e565b5b600061224c86828701612210565b935050602061225d86828701611969565b925050604061226e86828701611969565b9150509250925092565b6000806040838503121561228f5761228e61193e565b5b600083013567ffffffffffffffff8111156122ad576122ac611943565b5b6122b985828601611cac565b92505060206122ca85828601612210565b9150509250929050565b60008115159050919050565b6122e9816122d4565b82525050565b600060208201905061230460008301846122e0565b92915050565b600080600080600080600080610100898b03121561232b5761232a61193e565b5b60006123398b828c01611969565b985050602089013567ffffffffffffffff81111561235a57612359611943565b5b6123668b828c01611cac565b975050604089013567ffffffffffffffff81111561238757612386611943565b5b6123938b828c01611cac565b965050606089013567ffffffffffffffff8111156123b4576123b3611943565b5b6123c08b828c01611cac565b955050608089013567ffffffffffffffff8111156123e1576123e0611943565b5b6123ed8b828c01611cac565b94505060a089013567ffffffffffffffff81111561240e5761240d611943565b5b61241a8b828c01611b58565b93505060c061242b8b828c01611969565b92505060e061243c8b828c01611969565b9150509295985092959890939650565b600080600080608085870312156124665761246561193e565b5b600085013567ffffffffffffffff81111561248457612483611943565b5b61249087828801611cac565b945050602085013567ffffffffffffffff8111156124b1576124b0611943565b5b6124bd87828801611b58565b93505060406124ce87828801611969565b92505060606124df87828801611969565b91505092959194509250565b6000610160830160008301516125046000860182611d4f565b5060208301516125176020860182611d4f565b506040830151848203604086015261252f8282611dad565b915050606083015184820360608601526125498282611dad565b915050608083015184820360808601526125638282611dad565b91505060a083015161257860a0860182611e18565b5060c083015161258b60c0860182611d4f565b5060e083015184820360e08601526125a38282611dad565b9150506101008301518482036101008601526125bf8282611e87565b9150506101208301516125d6610120860182611d4f565b506101408301516125eb610140860182611d4f565b508091505092915050565b6000602082019050818103600083015261261081846124eb565b905092915050565b7f4e487b7100000000000000000000000000000000000000000000000000000000600052601160045260246000fd5b600061265282611948565b915061265d83611948565b9250827fffffffffffffffffffffffffffffffffffffffffffffffffffffffffffffffff0382111561269257612691612618565b5b828201905092915050565b60006126a882611948565b91506126b383611948565b9250828210156126c6576126c5612618565b5b828203905092915050565b60006126dc82611948565b91506126e783611948565b9250817fffffffffffffffffffffffffffffffffffffffffffffffffffffffffffffffff04831182151516156127205761271f612618565b5b828202905092915050565b7f4e487b7100000000000000000000000000000000000000000000000000000000600052601260045260246000fd5b600061276582611948565b915061277083611948565b9250826127805761277f61272b565b5b828204905092915050565b600081905092915050565b60006127a182611d5e565b6127ab818561278b565b93506127bb818560208601611d7a565b80840191505092915050565b60006127d38284612796565b915081905092915050565b7f4e487b7100000000000000000000000000000000000000000000000000000000600052603260045260246000fd5b600061281882611948565b91507fffffffffffffffffffffffffffffffffffffffffffffffffffffffffffffffff820361284a57612849612618565b5b600182019050919050565b7f4e487b7100000000000000000000000000000000000000000000000000000000600052602260045260246000fd5b6000600282049050600182168061289c57607f821691505b6020821081036128af576128ae612855565b5b50919050565b60006060820190506128ca60008301866119ab565b81810360208301526128dc81856120f9565b90506128eb60408301846119ab565b949350505050565b600060408201905061290860008301856122e0565b61291560208301846119ab565b9392505050565b600082825260208201905092915050565b600061293882611e27565b612942818561291c565b935061294d83611e43565b8060005b8381101561297e5781516129658882611e62565b975061297083611e7a565b925050600181019050612951565b5085935050505092915050565b6000610160820190506129a1600083018e6119ab565b6129ae602083018d6119ab565b81810360408301526129c0818c6120f9565b905081810360608301526129d4818b6120f9565b905081810360808301526129e8818a6120f9565b90506129f760a0830189612132565b612a0460c08301886119ab565b81810360e0830152612a1681876120f9565b9050818103610100830152612a2b818661292d565b9050612a3b6101208301856119ab565b612a496101408301846119ab565b9c9b505050505050505050505050565b60006060820190508181036000830152612a7381866120f9565b9050612a8260208301856119ab565b8181036040830152612a9481846120f9565b905094935050505056fea2646970667358221220cef41cd6d8500b767a8000afa22365c13efc3c8b96025afc25e3662843fed03564736f6c634300080d0033",
  "immutableReferences": {},
  "source": "// SPDX-License-Identifier: MIT\npragma solidity >=0.4.22 <0.9.0;\n\n\n\n\ncontract PlagiarismContract \n{\n/**\nlanguages\n0: CPP\n1: Java\n2: JavaScript\n */\n\n  struct CodeFile{\n    uint fileId;\n    uint fileSize;\n    string fileIPFSCID;\n    string fileName;\n    string fileDescription;\n    address codeAuthor;\n    uint timeUploaded;    \n    string codeFingerPrint;\n    bytes16 [] hashSet;\n    uint hashSetLength;\n    uint language;\n  }\n  uint[] public fileCountByLanguage = [0,0,0];\n  uint public totalFileCount=0;\n\n\n  //TODO: Use actual threshold\n  uint[] public threshold=[30,37,30];\n\n\n  mapping(uint=>mapping(uint=>CodeFile)) public filesMapByLanguage;\n\n  mapping(address=>mapping(uint=>uint[])) public userFilesIndexByLanguage;\n\n  mapping(string=>bool)IPFSCIDsMap;\n\n  event CodeSubmitted(\n    uint timeUploaded ,\n    string fileName,\n    uint language\n  ) ;\n\n\n  event CodeFileUploadEvent(\n    uint fileId,\n    uint fileSize,\n    string fileIPFSCID,\n    string fileName,\n    string fileDescription,\n    address codeAuthor,\n    uint timeUploaded ,\n    string codeFingerPrint,\n    bytes16 [] hashSet,\n    uint hashSetLength,\n    uint language\n  ) ;\n\n  event PlagiarismReport(\n    string fileName,\n    uint similarity,\n    string fileIPFSCID\n    );\n\n\n  event GetFilesEvent(\n    CodeFile[] codefiles\n  );\n\n  event PlagiarismResult(\n    bool plagiarisedResult,\n    uint timeUploaded\n  );\n\n   event CheckingPlagiarism(\n  \n    uint timeUploaded,\n  string fileName,\n    uint language\n  );\n\n  mapping(string=>mapping(address=>bool)) public hasPermissionsMap;\n\n    function doesUserHavePermission(string memory cid, address userAddress)\n        public\n        view\n        returns (bool)\n    {\n        return hasPermissionsMap[cid][userAddress];\n    }\n\n    function addPermission(string memory cid)\n        public\n    {\n        hasPermissionsMap[cid][msg.sender]=true;\n    }\n\n    function removePermission(string memory cid)\n        public\n    {\n        hasPermissionsMap[cid][msg.sender]=false;\n    }\n\n//getUploaded files\n// different maps for different langiages\n// map to check if same file\n//reject if any file has higher similarity score than threshold\n\n  function getFileCount()public view returns(uint){\n    return totalFileCount;\n  }\n\n  function getFilesUploadedByUser()public view returns (CodeFile[] memory){\n    uint javaFileCount=userFilesIndexByLanguage[msg.sender][0].length;\n    uint cppFileCount=userFilesIndexByLanguage[msg.sender][1].length;\n    uint javaScriptFileCount=userFilesIndexByLanguage[msg.sender][2].length;\n\n    CodeFile[] memory listOfFiles = new CodeFile[](cppFileCount+javaFileCount+javaScriptFileCount);   \n\n    uint currentCount=0;\n    for(uint i=0;i<javaFileCount;i++){\n      listOfFiles[currentCount]=getFileByIndex(userFilesIndexByLanguage[msg.sender][0][i],0);\n      currentCount++;\n    }\n    for(uint i=0;i<cppFileCount;i++){\n      listOfFiles[currentCount]=getFileByIndex(userFilesIndexByLanguage[msg.sender][1][i],1);\n      currentCount++;\n    }    \n    for(uint i=0;i<javaScriptFileCount;i++){\n      listOfFiles[currentCount]=getFileByIndex(userFilesIndexByLanguage[msg.sender][2][i],2);\n      currentCount++;\n    }\n    return listOfFiles;\n\n  }\n\n  function fileInIPFS(string memory _fileIPFSCID) public view returns(bool){\n      return IPFSCIDsMap[_fileIPFSCID];\n  }\n\n  function uploadFile(uint _fileSize, string memory  _fileIPFSCID, string memory  _fileName,string memory  _fileDescription, string memory  _codeFingerPrint, bytes16 [] memory _hashSet, uint hashSetLength, uint language) public {\n\n    // Returns if same file is uploaded\n    emit CodeSubmitted(block.timestamp,_fileName,language);\n    if(checkIfPlagiarised(_fileName,_hashSet,hashSetLength,language)){\n      emit PlagiarismResult(true,block.timestamp);\n    }\n    else\n    {\n      addPermission(_fileIPFSCID);\n      fileCountByLanguage[language]++;\n      totalFileCount++;\n      IPFSCIDsMap[_fileIPFSCID]=true;\n      filesMapByLanguage[language][fileCountByLanguage[language]] = CodeFile(totalFileCount,_fileSize,_fileIPFSCID, _fileName, _fileDescription,msg.sender,block.timestamp,_codeFingerPrint,_hashSet,hashSetLength,language);\n      userFilesIndexByLanguage[msg.sender][language].push(fileCountByLanguage[language]);\n      emit CodeFileUploadEvent(totalFileCount,_fileSize,_fileIPFSCID, _fileName, _fileDescription,msg.sender,block.timestamp,_codeFingerPrint,_hashSet,hashSetLength,language);\n    }\n  }\n\n    function getFileByIndex(uint _fileIndex,uint language)\n        public\n        view\n        returns (CodeFile memory records)\n    {\n        return filesMapByLanguage[language][_fileIndex];\n    }\n\n    function getFileHashSet(uint _fileIndex, uint language) private\n        view\n        returns (bytes16 [] memory )\n    {\n        return filesMapByLanguage[language][_fileIndex].hashSet;\n    }\n\n    function getFileHashSetLength(uint _fileIndex,uint language) private\n        view\n        returns (uint )\n    {\n        return filesMapByLanguage[language][_fileIndex].hashSetLength;\n    }\n    function checkIfPlagiarised( string memory  _fileName, bytes16 [] memory _hashSet, uint hashSetLength,uint language)public returns(bool){\n\n      uint similarity=0;\n      uint flag=0;\n    emit CheckingPlagiarism(block.timestamp,_fileName,language);\n      for(uint i=1;i<=fileCountByLanguage[language];i++){\n        bytes16 [] memory existingFilehashSet=getFileHashSet(i,language);\n        uint existingFilehashSetLength=getFileHashSetLength(i,language);\n        similarity=calculateSimilarityScore(_hashSet,existingFilehashSet,hashSetLength,existingFilehashSetLength);\n        if(similarity>threshold[language]){\n          CodeFile memory file=getFileByIndex(i, language);\n          emit PlagiarismReport(file.fileName,similarity,file.fileIPFSCID);\n          flag=1;\n        }\n      }\n        if(flag==1){\n          return true;\n        }\n\n      \n      return false;\n    }\n\n    // function getMaximumSimilarityScore( bytes16 [] memory _hashSet, uint oriHashSetLength,uint language) public view returns (uint){\n    //   uint similarity=0;\n\n    //   for(uint i=1;i<=fileCountByLanguage[language];i++){\n    //     bytes16 [] memory existingFilehashSet=getFileHashSet(i,language);\n    //     uint existingFilehashSetLength=getFileHashSetLength(i,language);\n    //     similarity=calculateSimilarityScore(_hashSet,existingFilehashSet,oriHashSetLength,existingFilehashSetLength);\n    //     if(similarity>threshold){\n    //       break;\n    //     }\n    //   }\n    //   return similarity;\n    // }\n\n \n    \n    function getCommonElementsCount(bytes16[] memory list1, bytes16[] memory list2,uint setLength1,uint setLength2) public pure returns (uint){\n\n        uint commonElementsCount=0;\n        for(uint i=0;i< setLength1;i++){\n            for(uint j=0;j<setLength2;j++){\n                if(list1[i]==list2[j]){\n                    commonElementsCount++;\n                    break;\n                }\n            }\n        }\n        return commonElementsCount;\n    }\n\n    function calculateSimilarityScore(bytes16[] memory l1, bytes16[] memory l2, uint l1OriLength, uint l2OriLength) public pure returns(uint){\n\n      uint commonElementsCount = getCommonElementsCount(l1,l2,l1.length,l2.length);\n      uint unionCount=l1OriLength+l2OriLength-commonElementsCount;        \n      \n      return commonElementsCount*100/unionCount;\n    } \n}",
  "sourcePath": "/home/deep/Desktop/Projects/MP/truffle-react/contracts/PlagiarismContract.sol",
  "compiler": {
    "name": "solc",
    "version": "0.8.13+commit.abaa5c0e.Emscripten.clang"
  },
  "schemaVersion": "3.4.4",
  "updatedAt": "2022-03-30T13:26:42.267Z",
  "networkType": "ethereum",
  "devdoc": {
    "kind": "dev",
    "methods": {},
    "version": 1
  },
  "userdoc": {
    "kind": "user",
    "methods": {},
    "version": 1
  }
}