{
  "contractName": "PlagiarismContract",
  "abi": [
    {
      "anonymous": false,
      "inputs": [
        {
          "indexed": false,
          "internalType": "uint256",
          "name": "fileId",
          "type": "uint256"
        },
        {
          "indexed": false,
          "internalType": "uint256",
          "name": "fileSize",
          "type": "uint256"
        },
        {
          "indexed": false,
          "internalType": "string",
          "name": "fileIPFSHash",
          "type": "string"
        },
        {
          "indexed": false,
          "internalType": "string",
          "name": "fileName",
          "type": "string"
        },
        {
          "indexed": false,
          "internalType": "string",
          "name": "fileDescription",
          "type": "string"
        },
        {
          "indexed": false,
          "internalType": "address",
          "name": "codeAuthor",
          "type": "address"
        },
        {
          "indexed": false,
          "internalType": "uint256",
          "name": "timeUploaded",
          "type": "uint256"
        },
        {
          "indexed": false,
          "internalType": "string",
          "name": "codeFingerPrint",
          "type": "string"
        },
        {
          "indexed": false,
          "internalType": "string[]",
          "name": "hashSet",
          "type": "string[]"
        }
      ],
      "name": "CodeFileUploadEvent",
      "type": "event"
    },
    {
      "anonymous": false,
      "inputs": [
        {
          "indexed": false,
          "internalType": "bool",
          "name": "plagiarisedResult",
          "type": "bool"
        }
      ],
      "name": "PlagiarismResult",
      "type": "event"
    },
    {
      "inputs": [],
      "name": "fileCount",
      "outputs": [
        {
          "internalType": "uint256",
          "name": "",
          "type": "uint256"
        }
      ],
      "stateMutability": "view",
      "type": "function",
      "constant": true
    },
    {
      "inputs": [
        {
          "internalType": "uint256",
          "name": "",
          "type": "uint256"
        }
      ],
      "name": "filesMap",
      "outputs": [
        {
          "internalType": "uint256",
          "name": "fileId",
          "type": "uint256"
        },
        {
          "internalType": "uint256",
          "name": "fileSize",
          "type": "uint256"
        },
        {
          "internalType": "string",
          "name": "fileIPFSHash",
          "type": "string"
        },
        {
          "internalType": "string",
          "name": "fileName",
          "type": "string"
        },
        {
          "internalType": "string",
          "name": "fileDescription",
          "type": "string"
        },
        {
          "internalType": "address",
          "name": "codeAuthor",
          "type": "address"
        },
        {
          "internalType": "uint256",
          "name": "timeUploaded",
          "type": "uint256"
        },
        {
          "internalType": "string",
          "name": "codeFingerPrint",
          "type": "string"
        }
      ],
      "stateMutability": "view",
      "type": "function",
      "constant": true
    },
    {
      "inputs": [
        {
          "internalType": "address",
          "name": "forwarder",
          "type": "address"
        }
      ],
      "name": "isTrustedForwarder",
      "outputs": [
        {
          "internalType": "bool",
          "name": "",
          "type": "bool"
        }
      ],
      "stateMutability": "view",
      "type": "function",
      "constant": true
    },
    {
      "inputs": [],
      "name": "trustedForwarder",
      "outputs": [
        {
          "internalType": "address",
          "name": "",
          "type": "address"
        }
      ],
      "stateMutability": "view",
      "type": "function",
      "constant": true
    },
    {
      "inputs": [],
      "name": "versionRecipient",
      "outputs": [
        {
          "internalType": "string",
          "name": "",
          "type": "string"
        }
      ],
      "stateMutability": "view",
      "type": "function",
      "constant": true
    },
    {
      "inputs": [
        {
          "internalType": "uint256",
          "name": "_fileSize",
          "type": "uint256"
        },
        {
          "internalType": "string",
          "name": "_fileIPFSHash",
          "type": "string"
        },
        {
          "internalType": "string",
          "name": "_fileName",
          "type": "string"
        },
        {
          "internalType": "string",
          "name": "_fileDescription",
          "type": "string"
        },
        {
          "internalType": "string",
          "name": "_codeFingerPrint",
          "type": "string"
        },
        {
          "internalType": "string[]",
          "name": "_hashSet",
          "type": "string[]"
        }
      ],
      "name": "uploadFile",
      "outputs": [],
      "stateMutability": "nonpayable",
      "type": "function"
    },
    {
      "inputs": [
        {
          "internalType": "uint256",
          "name": "_fileIndex",
          "type": "uint256"
        }
      ],
      "name": "getFileByIndex",
      "outputs": [
        {
          "components": [
            {
              "internalType": "uint256",
              "name": "fileId",
              "type": "uint256"
            },
            {
              "internalType": "uint256",
              "name": "fileSize",
              "type": "uint256"
            },
            {
              "internalType": "string",
              "name": "fileIPFSHash",
              "type": "string"
            },
            {
              "internalType": "string",
              "name": "fileName",
              "type": "string"
            },
            {
              "internalType": "string",
              "name": "fileDescription",
              "type": "string"
            },
            {
              "internalType": "address",
              "name": "codeAuthor",
              "type": "address"
            },
            {
              "internalType": "uint256",
              "name": "timeUploaded",
              "type": "uint256"
            },
            {
              "internalType": "string",
              "name": "codeFingerPrint",
              "type": "string"
            },
            {
              "internalType": "string[]",
              "name": "hashSet",
              "type": "string[]"
            }
          ],
          "internalType": "struct PlagiarismContract.CodeFile",
          "name": "records",
          "type": "tuple"
        }
      ],
      "stateMutability": "view",
      "type": "function",
      "constant": true
    },
    {
      "inputs": [
        {
          "internalType": "string[]",
          "name": "_hashSet",
          "type": "string[]"
        }
      ],
      "name": "getMaximumSimilarityScore",
      "outputs": [
        {
          "internalType": "uint256",
          "name": "",
          "type": "uint256"
        }
      ],
      "stateMutability": "view",
      "type": "function",
      "constant": true
    },
    {
      "inputs": [
        {
          "internalType": "string[]",
          "name": "list1",
          "type": "string[]"
        },
        {
          "internalType": "string[]",
          "name": "list2",
          "type": "string[]"
        },
        {
          "internalType": "uint256",
          "name": "setLength1",
          "type": "uint256"
        },
        {
          "internalType": "uint256",
          "name": "setLength2",
          "type": "uint256"
        }
      ],
      "name": "getCommonElementsCount",
      "outputs": [
        {
          "internalType": "uint256",
          "name": "",
          "type": "uint256"
        }
      ],
      "stateMutability": "pure",
      "type": "function",
      "constant": true
    },
    {
      "inputs": [
        {
          "internalType": "string[]",
          "name": "l1",
          "type": "string[]"
        },
        {
          "internalType": "string[]",
          "name": "l2",
          "type": "string[]"
        }
      ],
      "name": "calculateSimilarityScore",
      "outputs": [
        {
          "internalType": "uint256",
          "name": "",
          "type": "uint256"
        }
      ],
      "stateMutability": "pure",
      "type": "function",
      "constant": true
    }
  ],
  "bytecode": "0x6080604052600060015534801561001557600080fd5b5061230b806100256000396000f3fe608060405234801561001057600080fd5b506004361061009e5760003560e01c8063572b6c0511610066578063572b6c051461015b578063790ad0db1461018b5780637da0a877146101bb5780639b73aa9a146101d9578063c93bcd91146102095761009e565b8063097694e1146100a35780631320b2e5146100d3578063254f7d2d14610103578063439535191461011f578063486ff0cd1461013d575b600080fd5b6100bd60048036038101906100b8919061168a565b610240565b6040516100ca9190611c18565b60405180910390f35b6100ed60048036038101906100e89190611573565b610603565b6040516100fa9190611c3a565b60405180910390f35b61011d600480360381019061011891906116b7565b610820565b005b610127610b59565b6040516101349190611c3a565b60405180910390f35b610145610b5f565b6040516101529190611b76565b60405180910390f35b610175600480360381019061017091906114fd565b610b9c565b6040516101829190611b5b565b60405180910390f35b6101a560048036038101906101a091906115eb565b610bf5565b6040516101b29190611c3a565b60405180910390f35b6101c3610c9c565b6040516101d09190611b40565b60405180910390f35b6101f360048036038101906101ee919061152a565b610cc5565b6040516102009190611c3a565b60405180910390f35b610223600480360381019061021e919061168a565b610d45565b604051610237989796959493929190611c55565b60405180910390f35b6102486111de565b6002600083815260200190815260200160002060405180610120016040529081600082015481526020016001820154815260200160028201805461028b90612042565b80601f01602080910402602001604051908101604052809291908181526020018280546102b790612042565b80156103045780601f106102d957610100808354040283529160200191610304565b820191906000526020600020905b8154815290600101906020018083116102e757829003601f168201915b5050505050815260200160038201805461031d90612042565b80601f016020809104026020016040519081016040528092919081815260200182805461034990612042565b80156103965780601f1061036b57610100808354040283529160200191610396565b820191906000526020600020905b81548152906001019060200180831161037957829003601f168201915b505050505081526020016004820180546103af90612042565b80601f01602080910402602001604051908101604052809291908181526020018280546103db90612042565b80156104285780601f106103fd57610100808354040283529160200191610428565b820191906000526020600020905b81548152906001019060200180831161040b57829003601f168201915b505050505081526020016005820160009054906101000a900473ffffffffffffffffffffffffffffffffffffffff1673ffffffffffffffffffffffffffffffffffffffff1673ffffffffffffffffffffffffffffffffffffffff168152602001600682015481526020016007820180546104a190612042565b80601f01602080910402602001604051908101604052809291908181526020018280546104cd90612042565b801561051a5780601f106104ef5761010080835404028352916020019161051a565b820191906000526020600020905b8154815290600101906020018083116104fd57829003601f168201915b5050505050815260200160088201805480602002602001604051908101604052809291908181526020016000905b828210156105f457838290600052602060002001805461056790612042565b80601f016020809104026020016040519081016040528092919081815260200182805461059390612042565b80156105e05780601f106105b5576101008083540402835291602001916105e0565b820191906000526020600020905b8154815290600101906020018083116105c357829003601f168201915b505050505081526020019060010190610548565b50505050815250509050919050565b600080835167ffffffffffffffff811115610621576106206121aa565b5b60405190808252806020026020018201604052801561065457816020015b606081526020019060019003908161063f5790505b5090506000835167ffffffffffffffff811115610674576106736121aa565b5b6040519080825280602002602001820160405280156106a757816020015b60608152602001906001900390816106925790505b50905060008060005b875181101561073c576106dd858983815181106106d0576106cf61217b565b5b6020026020010151610fcd565b610729578781815181106106f4576106f361217b565b5b602002602001015185848151811061070f5761070e61217b565b5b60200260200101819052508280610725906120a5565b9350505b8080610734906120a5565b9150506106b0565b5060005b86518110156107cc5761076d848883815181106107605761075f61217b565b5b6020026020010151610fcd565b6107b9578681815181106107845761078361217b565b5b602002602001015184838151811061079f5761079e61217b565b5b602002602001018190525081806107b5906120a5565b9250505b80806107c4906120a5565b915050610740565b5060006107db85868585610bf5565b905060008188518a516107ee9190611ea3565b6107f89190611f84565b9050806064836108089190611f2a565b6108129190611ef9565b965050505050505092915050565b6000855111610864576040517f08c379a000000000000000000000000000000000000000000000000000000000815260040161085b90611bb8565b60405180910390fd5b60008351116108a8576040517f08c379a000000000000000000000000000000000000000000000000000000000815260040161089f90611bf8565b60405180910390fd5b60008451116108ec576040517f08c379a00000000000000000000000000000000000000000000000000000000081526004016108e390611bd8565b60405180910390fd5b6000861161092f576040517f08c379a000000000000000000000000000000000000000000000000000000000815260040161092690611b98565b60405180910390fd5b61093881611030565b1561097a577f711784307b11c5f98f3bc25170dfd6d229d797a0891cb2dd54b1fd406e60fc6d600160405161096d9190611b5b565b60405180910390a1610b51565b6001600081548092919061098d906120a5565b919050555060405180610120016040528060015481526020018781526020018681526020018581526020018481526020016109c661105f565b73ffffffffffffffffffffffffffffffffffffffff1681526020014281526020018381526020018281525060026000600154815260200190815260200160002060008201518160000155602082015181600101556040820151816002019080519060200190610a36929190611240565b506060820151816003019080519060200190610a53929190611240565b506080820151816004019080519060200190610a70929190611240565b5060a08201518160050160006101000a81548173ffffffffffffffffffffffffffffffffffffffff021916908373ffffffffffffffffffffffffffffffffffffffff16021790555060c0820151816006015560e0820151816007019080519060200190610ade929190611240565b50610100820151816008019080519060200190610afc9291906112c6565b509050507f13a353a011afea10f3f02988cf68745c8d65c39e4d9ba5ed33ea73114c76d85b60015487878787610b3061105f565b428989604051610b4899989796959493929190611cef565b60405180910390a15b505050505050565b60015481565b60606040518060400160405280600581526020017f322e302e30000000000000000000000000000000000000000000000000000000815250905090565b60008060009054906101000a900473ffffffffffffffffffffffffffffffffffffffff1673ffffffffffffffffffffffffffffffffffffffff168273ffffffffffffffffffffffffffffffffffffffff16149050919050565b6000806000905060005b84811015610c8f5760005b84811015610c7b57610c50888381518110610c2857610c2761217b565b5b6020026020010151888381518110610c4357610c4261217b565b5b6020026020010151611096565b15610c68578280610c60906120a5565b935050610c7b565b8080610c73906120a5565b915050610c0a565b508080610c87906120a5565b915050610bff565b5080915050949350505050565b60008060009054906101000a900473ffffffffffffffffffffffffffffffffffffffff16905090565b600080600090506000610cd88485610603565b90506000600190505b6001548111610d3a576000610cf5826110ef565b90506000600190505b81518111610d255784841115610d12578394505b8080610d1d906120a5565b915050610cfe565b50508080610d32906120a5565b915050610ce1565b508192505050919050565b6002602052806000526040600020600091509050806000015490806001015490806002018054610d7490612042565b80601f0160208091040260200160405190810160405280929190818152602001828054610da090612042565b8015610ded5780601f10610dc257610100808354040283529160200191610ded565b820191906000526020600020905b815481529060010190602001808311610dd057829003601f168201915b505050505090806003018054610e0290612042565b80601f0160208091040260200160405190810160405280929190818152602001828054610e2e90612042565b8015610e7b5780601f10610e5057610100808354040283529160200191610e7b565b820191906000526020600020905b815481529060010190602001808311610e5e57829003601f168201915b505050505090806004018054610e9090612042565b80601f0160208091040260200160405190810160405280929190818152602001828054610ebc90612042565b8015610f095780601f10610ede57610100808354040283529160200191610f09565b820191906000526020600020905b815481529060010190602001808311610eec57829003601f168201915b5050505050908060050160009054906101000a900473ffffffffffffffffffffffffffffffffffffffff1690806006015490806007018054610f4a90612042565b80601f0160208091040260200160405190810160405280929190818152602001828054610f7690612042565b8015610fc35780601f10610f9857610100808354040283529160200191610fc3565b820191906000526020600020905b815481529060010190602001808311610fa657829003601f168201915b5050505050905088565b600080600090505b835181101561102457611002848281518110610ff457610ff361217b565b5b602002602001015184611096565b1561101157600191505061102a565b808061101c906120a5565b915050610fd5565b50600090505b92915050565b60008061103c83610cc5565b90506000808211156110535760019250505061105a565b6000925050505b919050565b6000601460003690501015801561107b575061107a33610b9c565b5b1561108f57601436033560601c9050611093565b3390505b90565b6000816040516020016110a99190611b29565b60405160208183030381529060405280519060200120836040516020016110d09190611b29565b6040516020818303038152906040528051906020012014905092915050565b606060026000838152602001908152602001600020600801805480602002602001604051908101604052809291908181526020016000905b828210156111d357838290600052602060002001805461114690612042565b80601f016020809104026020016040519081016040528092919081815260200182805461117290612042565b80156111bf5780601f10611194576101008083540402835291602001916111bf565b820191906000526020600020905b8154815290600101906020018083116111a257829003601f168201915b505050505081526020019060010190611127565b505050509050919050565b6040518061012001604052806000815260200160008152602001606081526020016060815260200160608152602001600073ffffffffffffffffffffffffffffffffffffffff1681526020016000815260200160608152602001606081525090565b82805461124c90612042565b90600052602060002090601f01602090048101928261126e57600085556112b5565b82601f1061128757805160ff19168380011785556112b5565b828001600101855582156112b5579182015b828111156112b4578251825591602001919060010190611299565b5b5090506112c29190611326565b5090565b828054828255906000526020600020908101928215611315579160200282015b82811115611314578251829080519060200190611304929190611240565b50916020019190600101906112e6565b5b5090506113229190611343565b5090565b5b8082111561133f576000816000905550600101611327565b5090565b5b80821115611363576000818161135a9190611367565b50600101611344565b5090565b50805461137390612042565b6000825580601f1061138557506113a4565b601f0160209004906000526020600020908101906113a39190611326565b5b50565b60006113ba6113b584611dc4565b611d9f565b905080838252602082019050828560208602820111156113dd576113dc6121de565b5b60005b8581101561142b57813567ffffffffffffffff811115611403576114026121d9565b5b80860161141089826114ba565b855260208501945060208401935050506001810190506113e0565b5050509392505050565b600061144861144384611df0565b611d9f565b905082815260208101848484011115611464576114636121e3565b5b61146f848285612000565b509392505050565b600081359050611486816122a7565b92915050565b600082601f8301126114a1576114a06121d9565b5b81356114b18482602086016113a7565b91505092915050565b600082601f8301126114cf576114ce6121d9565b5b81356114df848260208601611435565b91505092915050565b6000813590506114f7816122be565b92915050565b600060208284031215611513576115126121ed565b5b600061152184828501611477565b91505092915050565b6000602082840312156115405761153f6121ed565b5b600082013567ffffffffffffffff81111561155e5761155d6121e8565b5b61156a8482850161148c565b91505092915050565b6000806040838503121561158a576115896121ed565b5b600083013567ffffffffffffffff8111156115a8576115a76121e8565b5b6115b48582860161148c565b925050602083013567ffffffffffffffff8111156115d5576115d46121e8565b5b6115e18582860161148c565b9150509250929050565b60008060008060808587031215611605576116046121ed565b5b600085013567ffffffffffffffff811115611623576116226121e8565b5b61162f8782880161148c565b945050602085013567ffffffffffffffff8111156116505761164f6121e8565b5b61165c8782880161148c565b935050604061166d878288016114e8565b925050606061167e878288016114e8565b91505092959194509250565b6000602082840312156116a05761169f6121ed565b5b60006116ae848285016114e8565b91505092915050565b60008060008060008060c087890312156116d4576116d36121ed565b5b60006116e289828a016114e8565b965050602087013567ffffffffffffffff811115611703576117026121e8565b5b61170f89828a016114ba565b955050604087013567ffffffffffffffff8111156117305761172f6121e8565b5b61173c89828a016114ba565b945050606087013567ffffffffffffffff81111561175d5761175c6121e8565b5b61176989828a016114ba565b935050608087013567ffffffffffffffff81111561178a576117896121e8565b5b61179689828a016114ba565b92505060a087013567ffffffffffffffff8111156117b7576117b66121e8565b5b6117c389828a0161148c565b9150509295509295509295565b60006117dc83836118fb565b905092915050565b6117ed81611fb8565b82525050565b6117fc81611fb8565b82525050565b600061180d82611e31565b6118178185611e54565b93508360208202850161182985611e21565b8060005b85811015611865578484038952815161184685826117d0565b945061185183611e47565b925060208a0199505060018101905061182d565b50829750879550505050505092915050565b600061188282611e31565b61188c8185611e65565b93508360208202850161189e85611e21565b8060005b858110156118da57848403895281516118bb85826117d0565b94506118c683611e47565b925060208a019950506001810190506118a2565b50829750879550505050505092915050565b6118f581611fca565b82525050565b600061190682611e3c565b6119108185611e76565b935061192081856020860161200f565b611929816121f2565b840191505092915050565b600061193f82611e3c565b6119498185611e87565b935061195981856020860161200f565b611962816121f2565b840191505092915050565b600061197882611e3c565b6119828185611e98565b935061199281856020860161200f565b80840191505092915050565b60006119ab601283611e87565b91506119b682612203565b602082019050919050565b60006119ce601683611e87565b91506119d98261222c565b602082019050919050565b60006119f1601683611e87565b91506119fc82612255565b602082019050919050565b6000611a14601d83611e87565b9150611a1f8261227e565b602082019050919050565b600061012083016000830151611a436000860182611b0b565b506020830151611a566020860182611b0b565b5060408301518482036040860152611a6e82826118fb565b91505060608301518482036060860152611a8882826118fb565b91505060808301518482036080860152611aa282826118fb565b91505060a0830151611ab760a08601826117e4565b5060c0830151611aca60c0860182611b0b565b5060e083015184820360e0860152611ae282826118fb565b915050610100830151848203610100860152611afe8282611802565b9150508091505092915050565b611b1481611ff6565b82525050565b611b2381611ff6565b82525050565b6000611b35828461196d565b915081905092915050565b6000602082019050611b5560008301846117f3565b92915050565b6000602082019050611b7060008301846118ec565b92915050565b60006020820190508181036000830152611b908184611934565b905092915050565b60006020820190508181036000830152611bb18161199e565b9050919050565b60006020820190508181036000830152611bd1816119c1565b9050919050565b60006020820190508181036000830152611bf1816119e4565b9050919050565b60006020820190508181036000830152611c1181611a07565b9050919050565b60006020820190508181036000830152611c328184611a2a565b905092915050565b6000602082019050611c4f6000830184611b1a565b92915050565b600061010082019050611c6b600083018b611b1a565b611c78602083018a611b1a565b8181036040830152611c8a8189611934565b90508181036060830152611c9e8188611934565b90508181036080830152611cb28187611934565b9050611cc160a08301866117f3565b611cce60c0830185611b1a565b81810360e0830152611ce08184611934565b90509998505050505050505050565b600061012082019050611d05600083018c611b1a565b611d12602083018b611b1a565b8181036040830152611d24818a611934565b90508181036060830152611d388189611934565b90508181036080830152611d4c8188611934565b9050611d5b60a08301876117f3565b611d6860c0830186611b1a565b81810360e0830152611d7a8185611934565b9050818103610100830152611d8f8184611877565b90509a9950505050505050505050565b6000611da9611dba565b9050611db58282612074565b919050565b6000604051905090565b600067ffffffffffffffff821115611ddf57611dde6121aa565b5b602082029050602081019050919050565b600067ffffffffffffffff821115611e0b57611e0a6121aa565b5b611e14826121f2565b9050602081019050919050565b6000819050602082019050919050565b600081519050919050565b600081519050919050565b6000602082019050919050565b600082825260208201905092915050565b600082825260208201905092915050565b600082825260208201905092915050565b600082825260208201905092915050565b600081905092915050565b6000611eae82611ff6565b9150611eb983611ff6565b9250827fffffffffffffffffffffffffffffffffffffffffffffffffffffffffffffffff03821115611eee57611eed6120ee565b5b828201905092915050565b6000611f0482611ff6565b9150611f0f83611ff6565b925082611f1f57611f1e61211d565b5b828204905092915050565b6000611f3582611ff6565b9150611f4083611ff6565b9250817fffffffffffffffffffffffffffffffffffffffffffffffffffffffffffffffff0483118215151615611f7957611f786120ee565b5b828202905092915050565b6000611f8f82611ff6565b9150611f9a83611ff6565b925082821015611fad57611fac6120ee565b5b828203905092915050565b6000611fc382611fd6565b9050919050565b60008115159050919050565b600073ffffffffffffffffffffffffffffffffffffffff82169050919050565b6000819050919050565b82818337600083830152505050565b60005b8381101561202d578082015181840152602081019050612012565b8381111561203c576000848401525b50505050565b6000600282049050600182168061205a57607f821691505b6020821081141561206e5761206d61214c565b5b50919050565b61207d826121f2565b810181811067ffffffffffffffff8211171561209c5761209b6121aa565b5b80604052505050565b60006120b082611ff6565b91507fffffffffffffffffffffffffffffffffffffffffffffffffffffffffffffffff8214156120e3576120e26120ee565b5b600182019050919050565b7f4e487b7100000000000000000000000000000000000000000000000000000000600052601160045260246000fd5b7f4e487b7100000000000000000000000000000000000000000000000000000000600052601260045260246000fd5b7f4e487b7100000000000000000000000000000000000000000000000000000000600052602260045260246000fd5b7f4e487b7100000000000000000000000000000000000000000000000000000000600052603260045260246000fd5b7f4e487b7100000000000000000000000000000000000000000000000000000000600052604160045260246000fd5b600080fd5b600080fd5b600080fd5b600080fd5b600080fd5b6000601f19601f8301169050919050565b7f436f646546696c652073697a6520697320300000000000000000000000000000600082015250565b7f436f646546696c65204861736820697320656d70747900000000000000000000600082015250565b7f436f646546696c65206e616d6520697320656d70747900000000000000000000600082015250565b7f436f646546696c65206465736372697074696f6e20697320656d707479000000600082015250565b6122b081611fb8565b81146122bb57600080fd5b50565b6122c781611ff6565b81146122d257600080fd5b5056fea2646970667358221220cac8c295b9b572316c1ec3df2b85eb2388010afc19182b7d6e5b27fa482f493864736f6c63430008060033",
  "immutableReferences": {},
  "source": "// SPDX-License-Identifier: MIT\npragma solidity >=0.4.22 <0.9.0;\nimport \"@opengsn/contracts/src/BaseRelayRecipient.sol\";\n\n\n// import \"@openzeppelin/contracts-ethereum-package/contracts/GSN/GSNRecipient.sol\";\n\n\ncontract PlagiarismContract is BaseRelayRecipient \n{\n\t// string public override versionRecipient = \"2.0.0\";\n\n    function versionRecipient() external override view returns (string memory) {\n        return \"2.0.0\";\n    }\n\n  struct CodeFile{\n    uint fileId;\n    uint fileSize;\n    string fileIPFSHash;\n    string fileName;\n    string fileDescription;\n    address codeAuthor;\n    uint timeUploaded;    \n    string codeFingerPrint;\n    string [] hashSet;\n  }\n\n  uint public fileCount = 0;\n  mapping(uint=>CodeFile) public filesMap;\n\n\n  event CodeFileUploadEvent(\n    uint fileId,\n    uint fileSize,\n    string fileIPFSHash,\n    string fileName,\n    string fileDescription,\n    address codeAuthor,\n    uint timeUploaded ,\n    string codeFingerPrint,\n    string [] hashSet\n  ) ;\n\n  event PlagiarismResult(\n    bool plagiarisedResult\n  );\n\n    // function acceptRelayedCall(\n    //     address relay,\n    //     address from,\n    //     bytes calldata encodedFunction,\n    //     uint256 transactionFee,\n    //     uint256 gasPrice,\n    //     uint256 gasLimit,\n    //     uint256 nonce,\n    //     bytes calldata approvalData,\n    //     uint256 maxPossibleCharge\n    // ) external view returns (uint256, bytes memory) {\n    //     return _approveRelayedCall();\n    // }\n\n    \n  function uploadFile(uint _fileSize, string memory _fileIPFSHash, string memory _fileName,string memory _fileDescription, string memory _codeFingerPrint, string [] memory _hashSet) public {\n    require(bytes(_fileIPFSHash).length > 0, \"CodeFile Hash is empty\");\n\n    require(bytes(_fileDescription).length > 0, \"CodeFile description is empty\");\n\n    require(bytes(_fileName).length > 0, \"CodeFile name is empty\");\n\n    require(_fileSize>0, \"CodeFile size is 0\");\n\n    if(checkIfPlagiarised(_hashSet)){\n      emit PlagiarismResult(true);\n    }\n    else{\n      fileCount++;\n\n      filesMap[fileCount] = CodeFile(fileCount,_fileSize,_fileIPFSHash, _fileName, _fileDescription,_msgSender(),block.timestamp,_codeFingerPrint,_hashSet);\n\n      emit CodeFileUploadEvent(fileCount,_fileSize,_fileIPFSHash, _fileName, _fileDescription,_msgSender(),block.timestamp,_codeFingerPrint,_hashSet);\n    }\n  }\n\n    function getFileByIndex(uint _fileIndex)\n        public\n        view\n        returns (CodeFile memory records)\n    {\n        return filesMap[_fileIndex];\n    }\n\n    function getFileHashSet(uint _fileIndex) private\n        view\n        returns (string [] memory )\n    {\n        return filesMap[_fileIndex].hashSet;\n    }\n\n    function checkIfPlagiarised( string [] memory _hashSet)private view returns(bool){\n      uint similarityScore = getMaximumSimilarityScore(_hashSet);\n\n      uint thresholdSimilarity=0;\n      if(similarityScore>thresholdSimilarity)\n        return true;\n      else\n        return false;\n    }\n\n    function getMaximumSimilarityScore( string [] memory _hashSet) public view returns (uint){\n      uint maxSimilarity=0;\n      uint similarity=0;\n                similarity=calculateSimilarityScore(_hashSet,_hashSet);\n\n      for(uint i=1;i<=fileCount;i++){\n        string [] memory existingFilehashSet=getFileHashSet(i);\n        for(uint j=1;j<=existingFilehashSet.length;j++){\n          // similarity=calculateSimilarityScore(_hashSet,_hashSet);\n          if(similarity>maxSimilarity){\n            maxSimilarity=similarity;\n          }\n        }\n      }\n      return maxSimilarity;\n    }\n\n \n    \n\n// function increase() public {\n//         value += 1;\n//     }\n\n//     function acceptRelayedCall(\n//         address relay,\n//         address from,\n//         bytes calldata encodedFunction,\n//         uint256 transactionFee,\n//         uint256 gasPrice,\n//         uint256 gasLimit,\n//         uint256 nonce,\n//         bytes calldata approvalData,\n//         uint256 maxPossibleCharge\n//     ) external view returns (uint256, bytes memory) {\n//         return _approveRelayedCall();\n//     }\n\n\nfunction compareStrings(string memory a, string memory b) private pure returns (bool) {\n        return (keccak256(abi.encodePacked((a))) == keccak256(abi.encodePacked((b))));\n    }\n    function getCommonElementsCount(string[] memory list1, string[] memory list2,uint setLength1,uint setLength2) public pure returns (uint){\n\n        uint commonElementsCount=0;\n        for(uint i=0;i< setLength1;i++){\n            for(uint j=0;j<setLength2;j++){\n                if(compareStrings(list1[i],list2[j])){\n                    commonElementsCount++;\n                    break;\n                }\n            }\n        }\n        return commonElementsCount;\n    }\n\n    function isPresent(string[] memory l1,string memory ele)private pure returns (bool){\n        for(uint i=0;i<l1.length;i++){\n          if(compareStrings(l1[i],ele)){\n            return true;\n          }\n        }\n        return false;\n    }\n    function calculateSimilarityScore(string[] memory l1, string[] memory l2) public pure returns(uint){\n\n\n      string[] memory list1 = new string[](l1.length);   \n      string[] memory list2 = new string[](l2.length);   \n\n      uint setLength1=0;\n      uint setLength2=0;\n\n        for(uint i=0;i<l1.length;i++){\n            if (!isPresent(list1,l1[i])) {\n              list1[setLength1]=l1[i];\n              setLength1++;\n            }\n        } \n  \n        for(uint i=0;i<l2.length;i++){\n            if (!isPresent(list2,l2[i])) {\n              list2[setLength2]=l2[i];\n              setLength2++;\n            }\n        } \n\n        uint commonElementsCount = getCommonElementsCount(list1,list1,setLength1,setLength2);\n        uint unionCount=l1.length+l2.length-commonElementsCount;        \n        \n        return commonElementsCount*100/unionCount;\n    } \n}",
  "sourcePath": "/home/harshvardhan/Documents/Major_Project/smart-contract/contracts/PlagiarismContract.sol",
  "compiler": {
    "name": "solc",
    "version": "0.8.6+commit.11564f7e.Emscripten.clang"
  },
  "schemaVersion": "3.4.5",
  "updatedAt": "2022-02-27T09:04:03.338Z",
  "networkType": "ethereum",
  "devdoc": {
    "kind": "dev",
    "methods": {},
    "version": 1
  },
  "userdoc": {
    "kind": "user",
    "methods": {
      "isTrustedForwarder(address)": {
        "notice": "return if the forwarder is trusted to forward relayed transactions to us. the forwarder is required to verify the sender's signature, and verify the call is not a replay."
      }
    },
    "version": 1
  }
}