{
  "contractName": "PlagiarismContract",
  "abi": [
    {
      "anonymous": false,
      "inputs": [
        {
          "indexed": false,
          "internalType": "uint256",
          "name": "fileId",
          "type": "uint256"
        },
        {
          "indexed": false,
          "internalType": "uint256",
          "name": "fileSize",
          "type": "uint256"
        },
        {
          "indexed": false,
          "internalType": "string",
          "name": "fileIPFSHash",
          "type": "string"
        },
        {
          "indexed": false,
          "internalType": "string",
          "name": "fileName",
          "type": "string"
        },
        {
          "indexed": false,
          "internalType": "string",
          "name": "fileDescription",
          "type": "string"
        },
        {
          "indexed": false,
          "internalType": "address",
          "name": "codeAuthor",
          "type": "address"
        },
        {
          "indexed": false,
          "internalType": "uint256",
          "name": "timeUploaded",
          "type": "uint256"
        },
        {
          "indexed": false,
          "internalType": "string",
          "name": "codeFingerPrint",
          "type": "string"
        },
        {
          "indexed": false,
          "internalType": "string[]",
          "name": "hashSet",
          "type": "string[]"
        }
      ],
      "name": "CodeFileUploadEvent",
      "type": "event"
    },
    {
      "anonymous": false,
      "inputs": [
        {
          "indexed": false,
          "internalType": "bool",
          "name": "plagiarisedResult",
          "type": "bool"
        }
      ],
      "name": "PlagiarismResult",
      "type": "event"
    },
    {
      "constant": true,
      "inputs": [],
      "name": "fileCount",
      "outputs": [
        {
          "internalType": "uint256",
          "name": "",
          "type": "uint256"
        }
      ],
      "payable": false,
      "stateMutability": "view",
      "type": "function"
    },
    {
      "constant": true,
      "inputs": [
        {
          "internalType": "uint256",
          "name": "",
          "type": "uint256"
        }
      ],
      "name": "filesMap",
      "outputs": [
        {
          "internalType": "uint256",
          "name": "fileId",
          "type": "uint256"
        },
        {
          "internalType": "uint256",
          "name": "fileSize",
          "type": "uint256"
        },
        {
          "internalType": "string",
          "name": "fileIPFSHash",
          "type": "string"
        },
        {
          "internalType": "string",
          "name": "fileName",
          "type": "string"
        },
        {
          "internalType": "string",
          "name": "fileDescription",
          "type": "string"
        },
        {
          "internalType": "address",
          "name": "codeAuthor",
          "type": "address"
        },
        {
          "internalType": "uint256",
          "name": "timeUploaded",
          "type": "uint256"
        },
        {
          "internalType": "string",
          "name": "codeFingerPrint",
          "type": "string"
        }
      ],
      "payable": false,
      "stateMutability": "view",
      "type": "function"
    },
    {
      "constant": false,
      "inputs": [
        {
          "internalType": "uint256",
          "name": "_fileSize",
          "type": "uint256"
        },
        {
          "internalType": "string",
          "name": "_fileIPFSHash",
          "type": "string"
        },
        {
          "internalType": "string",
          "name": "_fileName",
          "type": "string"
        },
        {
          "internalType": "string",
          "name": "_fileDescription",
          "type": "string"
        },
        {
          "internalType": "string",
          "name": "_codeFingerPrint",
          "type": "string"
        },
        {
          "internalType": "string[]",
          "name": "_hashSet",
          "type": "string[]"
        }
      ],
      "name": "uploadFile",
      "outputs": [],
      "payable": false,
      "stateMutability": "nonpayable",
      "type": "function"
    },
    {
      "constant": true,
      "inputs": [
        {
          "internalType": "uint256",
          "name": "_fileIndex",
          "type": "uint256"
        }
      ],
      "name": "getFileByIndex",
      "outputs": [
        {
          "components": [
            {
              "internalType": "uint256",
              "name": "fileId",
              "type": "uint256"
            },
            {
              "internalType": "uint256",
              "name": "fileSize",
              "type": "uint256"
            },
            {
              "internalType": "string",
              "name": "fileIPFSHash",
              "type": "string"
            },
            {
              "internalType": "string",
              "name": "fileName",
              "type": "string"
            },
            {
              "internalType": "string",
              "name": "fileDescription",
              "type": "string"
            },
            {
              "internalType": "address",
              "name": "codeAuthor",
              "type": "address"
            },
            {
              "internalType": "uint256",
              "name": "timeUploaded",
              "type": "uint256"
            },
            {
              "internalType": "string",
              "name": "codeFingerPrint",
              "type": "string"
            },
            {
              "internalType": "string[]",
              "name": "hashSet",
              "type": "string[]"
            }
          ],
          "internalType": "struct PlagiarismContract.CodeFile",
          "name": "records",
          "type": "tuple"
        }
      ],
      "payable": false,
      "stateMutability": "view",
      "type": "function"
    },
    {
      "constant": true,
      "inputs": [
        {
          "internalType": "string[]",
          "name": "_hashSet",
          "type": "string[]"
        }
      ],
      "name": "getMaximumSimilarityScore",
      "outputs": [
        {
          "internalType": "uint256",
          "name": "",
          "type": "uint256"
        }
      ],
      "payable": false,
      "stateMutability": "view",
      "type": "function"
    },
    {
      "constant": true,
      "inputs": [
        {
          "internalType": "string[]",
          "name": "list1",
          "type": "string[]"
        },
        {
          "internalType": "string[]",
          "name": "list2",
          "type": "string[]"
        },
        {
          "internalType": "uint256",
          "name": "setLength1",
          "type": "uint256"
        },
        {
          "internalType": "uint256",
          "name": "setLength2",
          "type": "uint256"
        }
      ],
      "name": "getCommonElementsCount",
      "outputs": [
        {
          "internalType": "uint256",
          "name": "",
          "type": "uint256"
        }
      ],
      "payable": false,
      "stateMutability": "pure",
      "type": "function"
    },
    {
      "constant": true,
      "inputs": [
        {
          "internalType": "string[]",
          "name": "l1",
          "type": "string[]"
        },
        {
          "internalType": "string[]",
          "name": "l2",
          "type": "string[]"
        }
      ],
      "name": "calculateSimilarityScore",
      "outputs": [
        {
          "internalType": "uint256",
          "name": "",
          "type": "uint256"
        }
      ],
      "payable": false,
      "stateMutability": "pure",
      "type": "function"
    }
  ],
  "bytecode": "0x60806040526000805534801561001457600080fd5b50611e86806100246000396000f3fe608060405234801561001057600080fd5b506004361061007d5760003560e01c8063439535191161005b57806343953519146100fe578063790ad0db1461011c5780639b73aa9a1461014c578063c93bcd911461017c5761007d565b8063097694e1146100825780631320b2e5146100b2578063254f7d2d146100e2575b600080fd5b61009c60048036036100979190810190611481565b6101b3565b6040516100a99190611a72565b60405180910390f35b6100cc60048036036100c79190810190611382565b6105c6565b6040516100d99190611a94565b60405180910390f35b6100fc60048036036100f791908101906114aa565b610760565b005b610106610a83565b6040516101139190611a94565b60405180910390f35b610136600480360361013191908101906113ee565b610a89565b6040516101439190611a94565b60405180910390f35b61016660048036036101619190810190611341565b610b16565b6040516101739190611a94565b60405180910390f35b61019660048036036101919190810190611481565b610b8d565b6040516101aa989796959493929190611b5f565b60405180910390f35b6101bb611035565b60016000838152602001908152602001600020604051806101200160405290816000820154815260200160018201548152602001600282018054600181600116156101000203166002900480601f0160208091040260200160405190810160405280929190818152602001828054600181600116156101000203166002900480156102875780601f1061025c57610100808354040283529160200191610287565b820191906000526020600020905b81548152906001019060200180831161026a57829003601f168201915b50505050508152602001600382018054600181600116156101000203166002900480601f0160208091040260200160405190810160405280929190818152602001828054600181600116156101000203166002900480156103295780601f106102fe57610100808354040283529160200191610329565b820191906000526020600020905b81548152906001019060200180831161030c57829003601f168201915b50505050508152602001600482018054600181600116156101000203166002900480601f0160208091040260200160405190810160405280929190818152602001828054600181600116156101000203166002900480156103cb5780601f106103a0576101008083540402835291602001916103cb565b820191906000526020600020905b8154815290600101906020018083116103ae57829003601f168201915b505050505081526020016005820160009054906101000a900473ffffffffffffffffffffffffffffffffffffffff1673ffffffffffffffffffffffffffffffffffffffff1673ffffffffffffffffffffffffffffffffffffffff16815260200160068201548152602001600782018054600181600116156101000203166002900480601f0160208091040260200160405190810160405280929190818152602001828054600181600116156101000203166002900480156104cd5780601f106104a2576101008083540402835291602001916104cd565b820191906000526020600020905b8154815290600101906020018083116104b057829003601f168201915b5050505050815260200160088201805480602002602001604051908101604052809291908181526020016000905b828210156105b7578382906000526020600020018054600181600116156101000203166002900480601f0160208091040260200160405190810160405280929190818152602001828054600181600116156101000203166002900480156105a35780601f10610578576101008083540402835291602001916105a3565b820191906000526020600020905b81548152906001019060200180831161058657829003601f168201915b5050505050815260200190600101906104fb565b50505050815250509050919050565b6000606083516040519080825280602002602001820160405280156105ff57816020015b60608152602001906001900390816105ea5790505b5090506060835160405190808252806020026020018201604052801561063957816020015b60608152602001906001900390816106245790505b5090506000809050600080905060008090505b87518110156106b7576106728589838151811061066557fe5b6020026020010151610e55565b6106aa5787818151811061068257fe5b602002602001015185848151811061069657fe5b602002602001018190525082806001019350505b808060010191505061064c565b5060008090505b8651811015610729576106e4848883815181106106d757fe5b6020026020010151610e55565b61071c578681815181106106f457fe5b602002602001015184838151811061070857fe5b602002602001018190525081806001019250505b80806001019150506106be565b50600061073885868585610a89565b905060008188518a510103905080606483028161075157fe5b04965050505050505092915050565b60008551116107a4576040517f08c379a000000000000000000000000000000000000000000000000000000000815260040161079b90611a12565b60405180910390fd5b60008351116107e8576040517f08c379a00000000000000000000000000000000000000000000000000000000081526004016107df90611a52565b60405180910390fd5b600084511161082c576040517f08c379a000000000000000000000000000000000000000000000000000000000815260040161082390611a32565b60405180910390fd5b6000861161086f576040517f08c379a0000000000000000000000000000000000000000000000000000000008152600401610866906119f2565b60405180910390fd5b61087881610eab565b156108ba577f711784307b11c5f98f3bc25170dfd6d229d797a0891cb2dd54b1fd406e60fc6d60016040516108ad91906119d7565b60405180910390a1610a7b565b600080815480929190600101919050555060405180610120016040528060005481526020018781526020018681526020018581526020018481526020013373ffffffffffffffffffffffffffffffffffffffff16815260200142815260200183815260200182815250600160008054815260200190815260200160002060008201518160000155602082015181600101556040820151816002019080519060200190610967929190611097565b506060820151816003019080519060200190610984929190611097565b5060808201518160040190805190602001906109a1929190611097565b5060a08201518160050160006101000a81548173ffffffffffffffffffffffffffffffffffffffff021916908373ffffffffffffffffffffffffffffffffffffffff16021790555060c0820151816006015560e0820151816007019080519060200190610a0f929190611097565b50610100820151816008019080519060200190610a2d929190611117565b509050507f13a353a011afea10f3f02988cf68745c8d65c39e4d9ba5ed33ea73114c76d85b6000548787878733428989604051610a7299989796959493929190611aaf565b60405180910390a15b505050505050565b60005481565b6000806000905060008090505b84811015610b095760008090505b84811015610afb57610adc888381518110610abb57fe5b6020026020010151888381518110610acf57fe5b6020026020010151610edd565b15610aee578280600101935050610afb565b8080600101915050610aa4565b508080600101915050610a96565b5080915050949350505050565b600080600090506000809050610b2c84856105c6565b90506000600190505b6000548111610b82576060610b4982610f36565b90506000600190505b81518111610b735784841115610b66578394505b8080600101915050610b52565b50508080600101915050610b35565b508192505050919050565b6001602052806000526040600020600091509050806000015490806001015490806002018054600181600116156101000203166002900480601f016020809104026020016040519081016040528092919081815260200182805460018160011615610100020316600290048015610c455780601f10610c1a57610100808354040283529160200191610c45565b820191906000526020600020905b815481529060010190602001808311610c2857829003601f168201915b505050505090806003018054600181600116156101000203166002900480601f016020809104026020016040519081016040528092919081815260200182805460018160011615610100020316600290048015610ce35780601f10610cb857610100808354040283529160200191610ce3565b820191906000526020600020905b815481529060010190602001808311610cc657829003601f168201915b505050505090806004018054600181600116156101000203166002900480601f016020809104026020016040519081016040528092919081815260200182805460018160011615610100020316600290048015610d815780601f10610d5657610100808354040283529160200191610d81565b820191906000526020600020905b815481529060010190602001808311610d6457829003601f168201915b5050505050908060050160009054906101000a900473ffffffffffffffffffffffffffffffffffffffff1690806006015490806007018054600181600116156101000203166002900480601f016020809104026020016040519081016040528092919081815260200182805460018160011615610100020316600290048015610e4b5780601f10610e2057610100808354040283529160200191610e4b565b820191906000526020600020905b815481529060010190602001808311610e2e57829003601f168201915b5050505050905088565b600080600090505b8351811015610e9f57610e83848281518110610e7557fe5b602002602001015184610edd565b15610e92576001915050610ea5565b8080600101915050610e5d565b50600090505b92915050565b600080610eb783610b16565b9050600080905080821115610ed157600192505050610ed8565b6000925050505b919050565b600081604051602001610ef091906119c0565b6040516020818303038152906040528051906020012083604051602001610f1791906119c0565b6040516020818303038152906040528051906020012014905092915050565b606060016000838152602001908152602001600020600801805480602002602001604051908101604052809291908181526020016000905b8282101561102a578382906000526020600020018054600181600116156101000203166002900480601f0160208091040260200160405190810160405280929190818152602001828054600181600116156101000203166002900480156110165780601f10610feb57610100808354040283529160200191611016565b820191906000526020600020905b815481529060010190602001808311610ff957829003601f168201915b505050505081526020019060010190610f6e565b505050509050919050565b6040518061012001604052806000815260200160008152602001606081526020016060815260200160608152602001600073ffffffffffffffffffffffffffffffffffffffff1681526020016000815260200160608152602001606081525090565b828054600181600116156101000203166002900490600052602060002090601f016020900481019282601f106110d857805160ff1916838001178555611106565b82800160010185558215611106579182015b828111156111055782518255916020019190600101906110ea565b5b5090506111139190611177565b5090565b828054828255906000526020600020908101928215611166579160200282015b82811115611165578251829080519060200190611155929190611097565b5091602001919060010190611137565b5b509050611173919061119c565b5090565b61119991905b8082111561119557600081600090555060010161117d565b5090565b90565b6111c591905b808211156111c157600081816111b891906111c8565b506001016111a2565b5090565b90565b50805460018160011615610100020316600290046000825580601f106111ee575061120d565b601f01602090049060005260206000209081019061120c9190611177565b5b50565b600082601f83011261122157600080fd5b813561123461122f82611c26565b611bf9565b9150818183526020840193506020810190508360005b8381101561127a57813586016112608882611284565b84526020840193506020830192505060018101905061124a565b5050505092915050565b600082601f83011261129557600080fd5b81356112a86112a382611c4e565b611bf9565b915080825260208301602083018583830111156112c457600080fd5b6112cf838284611dd9565b50505092915050565b600082601f8301126112e957600080fd5b81356112fc6112f782611c7a565b611bf9565b9150808252602083016020830185838301111561131857600080fd5b611323838284611dd9565b50505092915050565b60008135905061133b81611e2c565b92915050565b60006020828403121561135357600080fd5b600082013567ffffffffffffffff81111561136d57600080fd5b61137984828501611210565b91505092915050565b6000806040838503121561139557600080fd5b600083013567ffffffffffffffff8111156113af57600080fd5b6113bb85828601611210565b925050602083013567ffffffffffffffff8111156113d857600080fd5b6113e485828601611210565b9150509250929050565b6000806000806080858703121561140457600080fd5b600085013567ffffffffffffffff81111561141e57600080fd5b61142a87828801611210565b945050602085013567ffffffffffffffff81111561144757600080fd5b61145387828801611210565b93505060406114648782880161132c565b92505060606114758782880161132c565b91505092959194509250565b60006020828403121561149357600080fd5b60006114a18482850161132c565b91505092915050565b60008060008060008060c087890312156114c357600080fd5b60006114d189828a0161132c565b965050602087013567ffffffffffffffff8111156114ee57600080fd5b6114fa89828a016112d8565b955050604087013567ffffffffffffffff81111561151757600080fd5b61152389828a016112d8565b945050606087013567ffffffffffffffff81111561154057600080fd5b61154c89828a016112d8565b935050608087013567ffffffffffffffff81111561156957600080fd5b61157589828a016112d8565b92505060a087013567ffffffffffffffff81111561159257600080fd5b61159e89828a01611210565b9150509295509295509295565b60006115b7838361174f565b905092915050565b6115c881611da3565b82525050565b6115d781611d5b565b82525050565b6115e681611d5b565b82525050565b60006115f782611cd1565b6116018185611d1d565b93508360208202850161161385611cb6565b8060005b8581101561164f578484038952815161163085826115ab565b945061163b83611cff565b925060208a01995050600181019050611617565b50829750879550505050505092915050565b600061166c82611cc6565b6116768185611d0c565b93508360208202850161168885611ca6565b8060005b858110156116c457848403895281516116a585826115ab565b94506116b083611cf2565b925060208a0199505060018101905061168c565b50829750879550505050505092915050565b6116df81611d6d565b82525050565b60006116f082611ce7565b6116fa8185611d3f565b935061170a818560208601611de8565b61171381611e1b565b840191505092915050565b600061172982611ce7565b6117338185611d50565b9350611743818560208601611de8565b80840191505092915050565b600061175a82611cdc565b6117648185611d2e565b9350611774818560208601611de8565b61177d81611e1b565b840191505092915050565b600061179382611cdc565b61179d8185611d3f565b93506117ad818560208601611de8565b6117b681611e1b565b840191505092915050565b60006117ce601283611d3f565b91507f436f646546696c652073697a65206973203000000000000000000000000000006000830152602082019050919050565b600061180e601683611d3f565b91507f436f646546696c65204861736820697320656d707479000000000000000000006000830152602082019050919050565b600061184e601683611d3f565b91507f436f646546696c65206e616d6520697320656d707479000000000000000000006000830152602082019050919050565b600061188e601d83611d3f565b91507f436f646546696c65206465736372697074696f6e20697320656d7074790000006000830152602082019050919050565b6000610120830160008301516118da60008601826119a2565b5060208301516118ed60208601826119a2565b5060408301518482036040860152611905828261174f565b9150506060830151848203606086015261191f828261174f565b91505060808301518482036080860152611939828261174f565b91505060a083015161194e60a08601826115ce565b5060c083015161196160c08601826119a2565b5060e083015184820360e0860152611979828261174f565b9150506101008301518482036101008601526119958282611661565b9150508091505092915050565b6119ab81611d99565b82525050565b6119ba81611d99565b82525050565b60006119cc828461171e565b915081905092915050565b60006020820190506119ec60008301846116d6565b92915050565b60006020820190508181036000830152611a0b816117c1565b9050919050565b60006020820190508181036000830152611a2b81611801565b9050919050565b60006020820190508181036000830152611a4b81611841565b9050919050565b60006020820190508181036000830152611a6b81611881565b9050919050565b60006020820190508181036000830152611a8c81846118c1565b905092915050565b6000602082019050611aa960008301846119b1565b92915050565b600061012082019050611ac5600083018c6119b1565b611ad2602083018b6119b1565b8181036040830152611ae4818a6116e5565b90508181036060830152611af881896116e5565b90508181036080830152611b0c81886116e5565b9050611b1b60a08301876115bf565b611b2860c08301866119b1565b81810360e0830152611b3a81856116e5565b9050818103610100830152611b4f81846115ec565b90509a9950505050505050505050565b600061010082019050611b75600083018b6119b1565b611b82602083018a6119b1565b8181036040830152611b948189611788565b90508181036060830152611ba88188611788565b90508181036080830152611bbc8187611788565b9050611bcb60a08301866115dd565b611bd860c08301856119b1565b81810360e0830152611bea8184611788565b90509998505050505050505050565b6000604051905081810181811067ffffffffffffffff82111715611c1c57600080fd5b8060405250919050565b600067ffffffffffffffff821115611c3d57600080fd5b602082029050602081019050919050565b600067ffffffffffffffff821115611c6557600080fd5b601f19601f8301169050602081019050919050565b600067ffffffffffffffff821115611c9157600080fd5b601f19601f8301169050602081019050919050565b6000819050602082019050919050565b6000819050602082019050919050565b600081519050919050565b600081519050919050565b600081519050919050565b600081519050919050565b6000602082019050919050565b6000602082019050919050565b600082825260208201905092915050565b600082825260208201905092915050565b600082825260208201905092915050565b600082825260208201905092915050565b600081905092915050565b6000611d6682611d79565b9050919050565b60008115159050919050565b600073ffffffffffffffffffffffffffffffffffffffff82169050919050565b6000819050919050565b6000611dae82611db5565b9050919050565b6000611dc082611dc7565b9050919050565b6000611dd282611d79565b9050919050565b82818337600083830152505050565b60005b83811015611e06578082015181840152602081019050611deb565b83811115611e15576000848401525b50505050565b6000601f19601f8301169050919050565b611e3581611d99565b8114611e4057600080fd5b5056fea365627a7a72315820c60b9e36d36b7a6c6c8ff26d1bfe6d814d859c82bec831288d70bea8b2e4b6a86c6578706572696d656e74616cf564736f6c63430005100040",
  "source": "// SPDX-License-Identifier: MIT\npragma solidity >=0.4.22 <0.9.0;\npragma experimental ABIEncoderV2;\n\n\n// import \"@openzeppelin/contracts-ethereum-package/contracts/GSN/GSNRecipient.sol\";\n\n\ncontract PlagiarismContract  {\n\n  struct CodeFile{\n    uint fileId;\n    uint fileSize;\n    string fileIPFSHash;\n    string fileName;\n    string fileDescription;\n    address codeAuthor;\n    uint timeUploaded;    \n    string codeFingerPrint;\n    string [] hashSet;\n  }\n\n  uint public fileCount = 0;\n  mapping(uint=>CodeFile) public filesMap;\n\n\n  event CodeFileUploadEvent(\n    uint fileId,\n    uint fileSize,\n    string fileIPFSHash,\n    string fileName,\n    string fileDescription,\n    address codeAuthor,\n    uint timeUploaded ,\n    string codeFingerPrint,\n    string [] hashSet\n  ) ;\n\n  event PlagiarismResult(\n    bool plagiarisedResult\n  );\n\n\n  function uploadFile(uint _fileSize, string memory _fileIPFSHash, string memory _fileName,string memory _fileDescription, string memory _codeFingerPrint, string [] memory _hashSet) public {\n    require(bytes(_fileIPFSHash).length > 0, \"CodeFile Hash is empty\");\n\n    require(bytes(_fileDescription).length > 0, \"CodeFile description is empty\");\n\n    require(bytes(_fileName).length > 0, \"CodeFile name is empty\");\n\n    require(_fileSize>0, \"CodeFile size is 0\");\n\n    if(checkIfPlagiarised(_hashSet)){\n      emit PlagiarismResult(true);\n    }\n    else{\n      fileCount++;\n\n      filesMap[fileCount] = CodeFile(fileCount,_fileSize,_fileIPFSHash, _fileName, _fileDescription,msg.sender,block.timestamp,_codeFingerPrint,_hashSet);\n\n      emit CodeFileUploadEvent(fileCount,_fileSize,_fileIPFSHash, _fileName, _fileDescription,msg.sender,block.timestamp,_codeFingerPrint,_hashSet);\n    }\n  }\n\n    function getFileByIndex(uint _fileIndex)\n        public\n        view\n        returns (CodeFile memory records)\n    {\n        return filesMap[_fileIndex];\n    }\n\n    function getFileHashSet(uint _fileIndex) private\n        view\n        returns (string [] memory )\n    {\n        return filesMap[_fileIndex].hashSet;\n    }\n\n    function checkIfPlagiarised( string [] memory _hashSet)private view returns(bool){\n      uint similarityScore = getMaximumSimilarityScore(_hashSet);\n\n      uint thresholdSimilarity=0;\n      if(similarityScore>thresholdSimilarity)\n        return true;\n      else\n        return false;\n    }\n\n    function getMaximumSimilarityScore( string [] memory _hashSet) public view returns (uint){\n      uint maxSimilarity=0;\n      uint similarity=0;\n                similarity=calculateSimilarityScore(_hashSet,_hashSet);\n\n      for(uint i=1;i<=fileCount;i++){\n        string [] memory existingFilehashSet=getFileHashSet(i);\n        for(uint j=1;j<=existingFilehashSet.length;j++){\n          // similarity=calculateSimilarityScore(_hashSet,_hashSet);\n          if(similarity>maxSimilarity){\n            maxSimilarity=similarity;\n          }\n        }\n      }\n      return maxSimilarity;\n    }\n\n \n    \n\n// function increase() public {\n//         value += 1;\n//     }\n\n//     function acceptRelayedCall(\n//         address relay,\n//         address from,\n//         bytes calldata encodedFunction,\n//         uint256 transactionFee,\n//         uint256 gasPrice,\n//         uint256 gasLimit,\n//         uint256 nonce,\n//         bytes calldata approvalData,\n//         uint256 maxPossibleCharge\n//     ) external view returns (uint256, bytes memory) {\n//         return _approveRelayedCall();\n//     }\n\n\nfunction compareStrings(string memory a, string memory b) private pure returns (bool) {\n        return (keccak256(abi.encodePacked((a))) == keccak256(abi.encodePacked((b))));\n    }\n    function getCommonElementsCount(string[] memory list1, string[] memory list2,uint setLength1,uint setLength2) public pure returns (uint){\n\n        uint commonElementsCount=0;\n        for(uint i=0;i< setLength1;i++){\n            for(uint j=0;j<setLength2;j++){\n                if(compareStrings(list1[i],list2[j])){\n                    commonElementsCount++;\n                    break;\n                }\n            }\n        }\n        return commonElementsCount;\n    }\n\n    function isPresent(string[] memory l1,string memory ele)private pure returns (bool){\n        for(uint i=0;i<l1.length;i++){\n          if(compareStrings(l1[i],ele)){\n            return true;\n          }\n        }\n        return false;\n    }\n    function calculateSimilarityScore(string[] memory l1, string[] memory l2) public pure returns(uint){\n\n\n      string[] memory list1 = new string[](l1.length);   \n      string[] memory list2 = new string[](l2.length);   \n\n      uint setLength1=0;\n      uint setLength2=0;\n\n        for(uint i=0;i<l1.length;i++){\n            if (!isPresent(list1,l1[i])) {\n              list1[setLength1]=l1[i];\n              setLength1++;\n            }\n        } \n  \n        for(uint i=0;i<l2.length;i++){\n            if (!isPresent(list2,l2[i])) {\n              list2[setLength2]=l2[i];\n              setLength2++;\n            }\n        } \n\n        uint commonElementsCount = getCommonElementsCount(list1,list1,setLength1,setLength2);\n        uint unionCount=l1.length+l2.length-commonElementsCount;        \n        \n        return commonElementsCount*100/unionCount;\n    } \n}",
  "sourcePath": "/home/harshvardhan/Documents/Major_Project/smart-contract/contracts/PlagiarismContract.sol",
  "compiler": {
    "name": "solc",
    "version": "0.5.16+commit.9c3226ce.Emscripten.clang"
  },
  "schemaVersion": "3.4.3",
  "updatedAt": "2022-02-11T15:54:15.518Z",
  "networkType": "ethereum",
  "devdoc": {
    "methods": {}
  },
  "userdoc": {
    "methods": {}
  }
}