{
  "contractName": "PlagiarismContract",
  "abi": [
    {
      "anonymous": false,
      "inputs": [
        {
          "indexed": false,
          "internalType": "uint256",
          "name": "fileId",
          "type": "uint256"
        },
        {
          "indexed": false,
          "internalType": "uint256",
          "name": "fileSize",
          "type": "uint256"
        },
        {
          "indexed": false,
          "internalType": "string",
          "name": "fileIPFSHash",
          "type": "string"
        },
        {
          "indexed": false,
          "internalType": "string",
          "name": "fileName",
          "type": "string"
        },
        {
          "indexed": false,
          "internalType": "string",
          "name": "fileDescription",
          "type": "string"
        },
        {
          "indexed": false,
          "internalType": "address",
          "name": "codeAuthor",
          "type": "address"
        },
        {
          "indexed": false,
          "internalType": "uint256",
          "name": "timeUploaded",
          "type": "uint256"
        },
        {
          "indexed": false,
          "internalType": "string",
          "name": "codeFingerPrint",
          "type": "string"
        },
        {
          "indexed": false,
          "internalType": "bytes16[]",
          "name": "hashSet",
          "type": "bytes16[]"
        },
        {
          "indexed": false,
          "internalType": "uint256",
          "name": "hashSetLength",
          "type": "uint256"
        }
      ],
      "name": "CodeFileUploadEvent",
      "type": "event"
    },
    {
      "anonymous": false,
      "inputs": [
        {
          "indexed": false,
          "internalType": "bool",
          "name": "plagiarisedResult",
          "type": "bool"
        }
      ],
      "name": "PlagiarismResult",
      "type": "event"
    },
    {
      "inputs": [],
      "name": "fileCount",
      "outputs": [
        {
          "internalType": "uint256",
          "name": "",
          "type": "uint256"
        }
      ],
      "stateMutability": "view",
      "type": "function",
      "constant": true
    },
    {
      "inputs": [
        {
          "internalType": "uint256",
          "name": "",
          "type": "uint256"
        }
      ],
      "name": "filesMap",
      "outputs": [
        {
          "internalType": "uint256",
          "name": "fileId",
          "type": "uint256"
        },
        {
          "internalType": "uint256",
          "name": "fileSize",
          "type": "uint256"
        },
        {
          "internalType": "string",
          "name": "fileIPFSHash",
          "type": "string"
        },
        {
          "internalType": "string",
          "name": "fileName",
          "type": "string"
        },
        {
          "internalType": "string",
          "name": "fileDescription",
          "type": "string"
        },
        {
          "internalType": "address",
          "name": "codeAuthor",
          "type": "address"
        },
        {
          "internalType": "uint256",
          "name": "timeUploaded",
          "type": "uint256"
        },
        {
          "internalType": "string",
          "name": "codeFingerPrint",
          "type": "string"
        },
        {
          "internalType": "uint256",
          "name": "hashSetLength",
          "type": "uint256"
        }
      ],
      "stateMutability": "view",
      "type": "function",
      "constant": true
    },
    {
      "inputs": [],
      "name": "inc",
      "outputs": [],
      "stateMutability": "nonpayable",
      "type": "function"
    },
    {
      "inputs": [
        {
          "internalType": "uint256",
          "name": "_fileSize",
          "type": "uint256"
        },
        {
          "internalType": "string",
          "name": "_fileIPFSHash",
          "type": "string"
        },
        {
          "internalType": "string",
          "name": "_fileName",
          "type": "string"
        },
        {
          "internalType": "string",
          "name": "_fileDescription",
          "type": "string"
        },
        {
          "internalType": "string",
          "name": "_codeFingerPrint",
          "type": "string"
        },
        {
          "internalType": "bytes16[]",
          "name": "_hashSet",
          "type": "bytes16[]"
        },
        {
          "internalType": "uint256",
          "name": "hashSetLength",
          "type": "uint256"
        }
      ],
      "name": "uploadFile",
      "outputs": [],
      "stateMutability": "nonpayable",
      "type": "function"
    },
    {
      "inputs": [
        {
          "internalType": "uint256",
          "name": "_fileIndex",
          "type": "uint256"
        }
      ],
      "name": "getFileByIndex",
      "outputs": [
        {
          "components": [
            {
              "internalType": "uint256",
              "name": "fileId",
              "type": "uint256"
            },
            {
              "internalType": "uint256",
              "name": "fileSize",
              "type": "uint256"
            },
            {
              "internalType": "string",
              "name": "fileIPFSHash",
              "type": "string"
            },
            {
              "internalType": "string",
              "name": "fileName",
              "type": "string"
            },
            {
              "internalType": "string",
              "name": "fileDescription",
              "type": "string"
            },
            {
              "internalType": "address",
              "name": "codeAuthor",
              "type": "address"
            },
            {
              "internalType": "uint256",
              "name": "timeUploaded",
              "type": "uint256"
            },
            {
              "internalType": "string",
              "name": "codeFingerPrint",
              "type": "string"
            },
            {
              "internalType": "bytes16[]",
              "name": "hashSet",
              "type": "bytes16[]"
            },
            {
              "internalType": "uint256",
              "name": "hashSetLength",
              "type": "uint256"
            }
          ],
          "internalType": "struct PlagiarismContract.CodeFile",
          "name": "records",
          "type": "tuple"
        }
      ],
      "stateMutability": "view",
      "type": "function",
      "constant": true
    },
    {
      "inputs": [
        {
          "internalType": "bytes16[]",
          "name": "_hashSet",
          "type": "bytes16[]"
        },
        {
          "internalType": "uint256",
          "name": "hashSetLength",
          "type": "uint256"
        }
      ],
      "name": "checkIfPlagiarised",
      "outputs": [
        {
          "internalType": "bool",
          "name": "",
          "type": "bool"
        }
      ],
      "stateMutability": "view",
      "type": "function",
      "constant": true
    },
    {
      "inputs": [
        {
          "internalType": "bytes16[]",
          "name": "_hashSet",
          "type": "bytes16[]"
        },
        {
          "internalType": "uint256",
          "name": "oriHashSetLength",
          "type": "uint256"
        }
      ],
      "name": "getMaximumSimilarityScore",
      "outputs": [
        {
          "internalType": "uint256",
          "name": "",
          "type": "uint256"
        }
      ],
      "stateMutability": "view",
      "type": "function",
      "constant": true
    },
    {
      "inputs": [
        {
          "internalType": "bytes16[]",
          "name": "list1",
          "type": "bytes16[]"
        },
        {
          "internalType": "bytes16[]",
          "name": "list2",
          "type": "bytes16[]"
        },
        {
          "internalType": "uint256",
          "name": "setLength1",
          "type": "uint256"
        },
        {
          "internalType": "uint256",
          "name": "setLength2",
          "type": "uint256"
        }
      ],
      "name": "getCommonElementsCount",
      "outputs": [
        {
          "internalType": "uint256",
          "name": "",
          "type": "uint256"
        }
      ],
      "stateMutability": "pure",
      "type": "function",
      "constant": true
    },
    {
      "inputs": [
        {
          "internalType": "bytes16[]",
          "name": "l1",
          "type": "bytes16[]"
        },
        {
          "internalType": "bytes16[]",
          "name": "l2",
          "type": "bytes16[]"
        },
        {
          "internalType": "uint256",
          "name": "l1OriLength",
          "type": "uint256"
        },
        {
          "internalType": "uint256",
          "name": "l2OriLength",
          "type": "uint256"
        }
      ],
      "name": "calculateSimilarityScore",
      "outputs": [
        {
          "internalType": "uint256",
          "name": "",
          "type": "uint256"
        }
      ],
      "stateMutability": "pure",
      "type": "function",
      "constant": true
    }
  ],
  "bytecode": "0x608060405260008055600060015534801561001957600080fd5b50611b7f806100296000396000f3fe608060405234801561001057600080fd5b50600436106100935760003560e01c80634395351911610066578063439535191461013257806358ae2ae7146101505780639ecefadc1461016c578063c93bcd911461019c578063dbb373ee146101d457610093565b8063097694e1146100985780630d665ad1146100c857806331631b64146100f8578063371303c014610128575b600080fd5b6100b260048036038101906100ad91906110e5565b610204565b6040516100bf91906114f1565b60405180910390f35b6100e260048036038101906100dd9190610fea565b610586565b6040516100ef9190611513565b60405180910390f35b610112600480360381019061010d9190611089565b6105d8565b60405161011f91906114d6565b60405180910390f35b61013061060d565b005b61013a610627565b6040516101479190611513565b60405180910390f35b61016a60048036038101906101659190611112565b61062d565b005b61018660048036038101906101819190610fea565b61085c565b6040516101939190611513565b60405180910390f35b6101b660048036038101906101b191906110e5565b610922565b6040516101cb999897969594939291906115ed565b60405180910390f35b6101ee60048036038101906101e99190611089565b610bb0565b6040516101fb9190611513565b60405180910390f35b61020c610ce1565b6002600083815260200190815260200160002060405180610140016040529081600082015481526020016001820154815260200160028201805461024f9061195a565b80601f016020809104026020016040519081016040528092919081815260200182805461027b9061195a565b80156102c85780601f1061029d576101008083540402835291602001916102c8565b820191906000526020600020905b8154815290600101906020018083116102ab57829003601f168201915b505050505081526020016003820180546102e19061195a565b80601f016020809104026020016040519081016040528092919081815260200182805461030d9061195a565b801561035a5780601f1061032f5761010080835404028352916020019161035a565b820191906000526020600020905b81548152906001019060200180831161033d57829003601f168201915b505050505081526020016004820180546103739061195a565b80601f016020809104026020016040519081016040528092919081815260200182805461039f9061195a565b80156103ec5780601f106103c1576101008083540402835291602001916103ec565b820191906000526020600020905b8154815290600101906020018083116103cf57829003601f168201915b505050505081526020016005820160009054906101000a900473ffffffffffffffffffffffffffffffffffffffff1673ffffffffffffffffffffffffffffffffffffffff1673ffffffffffffffffffffffffffffffffffffffff168152602001600682015481526020016007820180546104659061195a565b80601f01602080910402602001604051908101604052809291908181526020018280546104919061195a565b80156104de5780601f106104b3576101008083540402835291602001916104de565b820191906000526020600020905b8154815290600101906020018083116104c157829003601f168201915b505050505081526020016008820180548060200260200160405190810160405280929190818152602001828054801561056c57602002820191906000526020600020906000905b82829054906101000a900460801b6fffffffffffffffffffffffffffffffff191681526020019060100190602082600f010492830192600103820291508084116105255790505b505050505081526020016009820154815250509050919050565b60008061059786868851885161085c565b905060008184866105a8919061178f565b6105b29190611870565b9050806064836105c29190611816565b6105cc91906117e5565b92505050949350505050565b6000806105e58484610bb0565b90506000601e90508082111561060057600192505050610607565b6000925050505b92915050565b60016000815480929190610620906119bd565b9190505550565b60005481565b61063782826105d8565b15610679577f711784307b11c5f98f3bc25170dfd6d229d797a0891cb2dd54b1fd406e60fc6d600160405161066c91906114d6565b60405180910390a1610853565b60008081548092919061068b906119bd565b919050555060405180610140016040528060005481526020018881526020018781526020018681526020018581526020013373ffffffffffffffffffffffffffffffffffffffff16815260200142815260200184815260200183815260200182815250600260008054815260200190815260200160002060008201518160000155602082015181600101556040820151816002019080519060200190610732929190610d4a565b50606082015181600301908051906020019061074f929190610d4a565b50608082015181600401908051906020019061076c929190610d4a565b5060a08201518160050160006101000a81548173ffffffffffffffffffffffffffffffffffffffff021916908373ffffffffffffffffffffffffffffffffffffffff16021790555060c0820151816006015560e08201518160070190805190602001906107da929190610d4a565b506101008201518160080190805190602001906107f8929190610dd0565b5061012082015181600901559050507f2cb3b83cdd1534b844c5d0a1492ed9e146aba3d1a63aee4e5bd0d3f8e85212456000548888888833428a8a8a60405161084a9a9998979695949392919061152e565b60405180910390a15b50505050505050565b6000806000905060005b848110156109155760005b848110156109015786818151811061088c5761088b611a93565b5b60200260200101516fffffffffffffffffffffffffffffffff19168883815181106108ba576108b9611a93565b5b60200260200101516fffffffffffffffffffffffffffffffff191614156108ee5782806108e6906119bd565b935050610901565b80806108f9906119bd565b915050610871565b50808061090d906119bd565b915050610866565b5080915050949350505050565b60026020528060005260406000206000915090508060000154908060010154908060020180546109519061195a565b80601f016020809104026020016040519081016040528092919081815260200182805461097d9061195a565b80156109ca5780601f1061099f576101008083540402835291602001916109ca565b820191906000526020600020905b8154815290600101906020018083116109ad57829003601f168201915b5050505050908060030180546109df9061195a565b80601f0160208091040260200160405190810160405280929190818152602001828054610a0b9061195a565b8015610a585780601f10610a2d57610100808354040283529160200191610a58565b820191906000526020600020905b815481529060010190602001808311610a3b57829003601f168201915b505050505090806004018054610a6d9061195a565b80601f0160208091040260200160405190810160405280929190818152602001828054610a999061195a565b8015610ae65780601f10610abb57610100808354040283529160200191610ae6565b820191906000526020600020905b815481529060010190602001808311610ac957829003601f168201915b5050505050908060050160009054906101000a900473ffffffffffffffffffffffffffffffffffffffff1690806006015490806007018054610b279061195a565b80601f0160208091040260200160405190810160405280929190818152602001828054610b539061195a565b8015610ba05780601f10610b7557610100808354040283529160200191610ba0565b820191906000526020600020905b815481529060010190602001808311610b8357829003601f168201915b5050505050908060090154905089565b60008060009050600080600190505b6000548111610c11576000610bd382610c1d565b90506000610be083610cc1565b9050610bee88838984610586565b935084841115610bfc578394505b50508080610c09906119bd565b915050610bbf565b50819250505092915050565b606060026000838152602001908152602001600020600801805480602002602001604051908101604052809291908181526020018280548015610cb557602002820191906000526020600020906000905b82829054906101000a900460801b6fffffffffffffffffffffffffffffffff191681526020019060100190602082600f01049283019260010382029150808411610c6e5790505b50505050509050919050565b600060026000838152602001908152602001600020600901549050919050565b6040518061014001604052806000815260200160008152602001606081526020016060815260200160608152602001600073ffffffffffffffffffffffffffffffffffffffff168152602001600081526020016060815260200160608152602001600081525090565b828054610d569061195a565b90600052602060002090601f016020900481019282610d785760008555610dbf565b82601f10610d9157805160ff1916838001178555610dbf565b82800160010185558215610dbf579182015b82811115610dbe578251825591602001919060010190610da3565b5b509050610dcc9190610e95565b5090565b82805482825590600052602060002090600101600290048101928215610e845791602002820160005b83821115610e4657835183826101000a8154816fffffffffffffffffffffffffffffffff021916908360801c02179055509260200192601001602081600f01049283019260010302610df9565b8015610e825782816101000a8154906fffffffffffffffffffffffffffffffff0219169055601001602081600f01049283019260010302610e46565b505b509050610e919190610e95565b5090565b5b80821115610eae576000816000905550600101610e96565b5090565b6000610ec5610ec0846116bb565b611696565b90508083825260208201905082856020860282011115610ee857610ee7611af6565b5b60005b85811015610f185781610efe8882610f92565b845260208401935060208301925050600181019050610eeb565b5050509392505050565b6000610f35610f30846116e7565b611696565b905082815260208101848484011115610f5157610f50611afb565b5b610f5c848285611918565b509392505050565b600082601f830112610f7957610f78611af1565b5b8135610f89848260208601610eb2565b91505092915050565b600081359050610fa181611b1b565b92915050565b600082601f830112610fbc57610fbb611af1565b5b8135610fcc848260208601610f22565b91505092915050565b600081359050610fe481611b32565b92915050565b6000806000806080858703121561100457611003611b05565b5b600085013567ffffffffffffffff81111561102257611021611b00565b5b61102e87828801610f64565b945050602085013567ffffffffffffffff81111561104f5761104e611b00565b5b61105b87828801610f64565b935050604061106c87828801610fd5565b925050606061107d87828801610fd5565b91505092959194509250565b600080604083850312156110a05761109f611b05565b5b600083013567ffffffffffffffff8111156110be576110bd611b00565b5b6110ca85828601610f64565b92505060206110db85828601610fd5565b9150509250929050565b6000602082840312156110fb576110fa611b05565b5b600061110984828501610fd5565b91505092915050565b600080600080600080600060e0888a03121561113157611130611b05565b5b600061113f8a828b01610fd5565b975050602088013567ffffffffffffffff8111156111605761115f611b00565b5b61116c8a828b01610fa7565b965050604088013567ffffffffffffffff81111561118d5761118c611b00565b5b6111998a828b01610fa7565b955050606088013567ffffffffffffffff8111156111ba576111b9611b00565b5b6111c68a828b01610fa7565b945050608088013567ffffffffffffffff8111156111e7576111e6611b00565b5b6111f38a828b01610fa7565b93505060a088013567ffffffffffffffff81111561121457611213611b00565b5b6112208a828b01610f64565b92505060c06112318a828b01610fd5565b91505092959891949750929550565b600061124c8383611341565b60208301905092915050565b611261816118a4565b82525050565b611270816118a4565b82525050565b600061128182611728565b61128b818561174b565b935061129683611718565b8060005b838110156112c75781516112ae8882611240565b97506112b98361173e565b92505060018101905061129a565b5085935050505092915050565b60006112df82611728565b6112e9818561175c565b93506112f483611718565b8060005b8381101561132557815161130c8882611240565b97506113178361173e565b9250506001810190506112f8565b5085935050505092915050565b61133b816118b6565b82525050565b61134a816118c2565b82525050565b600061135b82611733565b611365818561176d565b9350611375818560208601611927565b61137e81611b0a565b840191505092915050565b600061139482611733565b61139e818561177e565b93506113ae818560208601611927565b6113b781611b0a565b840191505092915050565b6000610140830160008301516113db60008601826114b8565b5060208301516113ee60208601826114b8565b50604083015184820360408601526114068282611350565b915050606083015184820360608601526114208282611350565b9150506080830151848203608086015261143a8282611350565b91505060a083015161144f60a0860182611258565b5060c083015161146260c08601826114b8565b5060e083015184820360e086015261147a8282611350565b9150506101008301518482036101008601526114968282611276565b9150506101208301516114ad6101208601826114b8565b508091505092915050565b6114c18161190e565b82525050565b6114d08161190e565b82525050565b60006020820190506114eb6000830184611332565b92915050565b6000602082019050818103600083015261150b81846113c2565b905092915050565b600060208201905061152860008301846114c7565b92915050565b600061014082019050611544600083018d6114c7565b611551602083018c6114c7565b8181036040830152611563818b611389565b90508181036060830152611577818a611389565b9050818103608083015261158b8189611389565b905061159a60a0830188611267565b6115a760c08301876114c7565b81810360e08301526115b98186611389565b90508181036101008301526115ce81856112d4565b90506115de6101208301846114c7565b9b9a5050505050505050505050565b600061012082019050611603600083018c6114c7565b611610602083018b6114c7565b8181036040830152611622818a611389565b905081810360608301526116368189611389565b9050818103608083015261164a8188611389565b905061165960a0830187611267565b61166660c08301866114c7565b81810360e08301526116788185611389565b90506116886101008301846114c7565b9a9950505050505050505050565b60006116a06116b1565b90506116ac828261198c565b919050565b6000604051905090565b600067ffffffffffffffff8211156116d6576116d5611ac2565b5b602082029050602081019050919050565b600067ffffffffffffffff82111561170257611701611ac2565b5b61170b82611b0a565b9050602081019050919050565b6000819050602082019050919050565b600081519050919050565b600081519050919050565b6000602082019050919050565b600082825260208201905092915050565b600082825260208201905092915050565b600082825260208201905092915050565b600082825260208201905092915050565b600061179a8261190e565b91506117a58361190e565b9250827fffffffffffffffffffffffffffffffffffffffffffffffffffffffffffffffff038211156117da576117d9611a06565b5b828201905092915050565b60006117f08261190e565b91506117fb8361190e565b92508261180b5761180a611a35565b5b828204905092915050565b60006118218261190e565b915061182c8361190e565b9250817fffffffffffffffffffffffffffffffffffffffffffffffffffffffffffffffff048311821515161561186557611864611a06565b5b828202905092915050565b600061187b8261190e565b91506118868361190e565b92508282101561189957611898611a06565b5b828203905092915050565b60006118af826118ee565b9050919050565b60008115159050919050565b60007fffffffffffffffffffffffffffffffff0000000000000000000000000000000082169050919050565b600073ffffffffffffffffffffffffffffffffffffffff82169050919050565b6000819050919050565b82818337600083830152505050565b60005b8381101561194557808201518184015260208101905061192a565b83811115611954576000848401525b50505050565b6000600282049050600182168061197257607f821691505b6020821081141561198657611985611a64565b5b50919050565b61199582611b0a565b810181811067ffffffffffffffff821117156119b4576119b3611ac2565b5b80604052505050565b60006119c88261190e565b91507fffffffffffffffffffffffffffffffffffffffffffffffffffffffffffffffff8214156119fb576119fa611a06565b5b600182019050919050565b7f4e487b7100000000000000000000000000000000000000000000000000000000600052601160045260246000fd5b7f4e487b7100000000000000000000000000000000000000000000000000000000600052601260045260246000fd5b7f4e487b7100000000000000000000000000000000000000000000000000000000600052602260045260246000fd5b7f4e487b7100000000000000000000000000000000000000000000000000000000600052603260045260246000fd5b7f4e487b7100000000000000000000000000000000000000000000000000000000600052604160045260246000fd5b600080fd5b600080fd5b600080fd5b600080fd5b600080fd5b6000601f19601f8301169050919050565b611b24816118c2565b8114611b2f57600080fd5b50565b611b3b8161190e565b8114611b4657600080fd5b5056fea2646970667358221220027ce57cd062fa15ee008a4599406063973094b0acf25ce6191e4011a7562cd864736f6c63430008060033",
  "immutableReferences": {},
  "source": "// SPDX-License-Identifier: MIT\npragma solidity >=0.4.22 <0.9.0;\n// import \"@opengsn/contracts/src/BaseRelayRecipient.sol\";\n\n\n\n\ncontract PlagiarismContract// is BaseRelayRecipient \n{\n\n    // function versionRecipient() external override view returns (bytes16 memory) {\n    //     return \"2.0.0\";\n    // }\n\n  struct CodeFile{\n    uint fileId;\n    uint fileSize;\n    string fileIPFSHash;\n    string fileName;\n    string fileDescription;\n    address codeAuthor;\n    uint timeUploaded;    \n    string codeFingerPrint;\n    bytes16 [] hashSet;\n    uint hashSetLength;\n  }\n\n  uint public fileCount = 0;\n  uint temp=0;\n  mapping(uint=>CodeFile) public filesMap;\n\n\n  event CodeFileUploadEvent(\n    uint fileId,\n    uint fileSize,\n    string fileIPFSHash,\n    string fileName,\n    string fileDescription,\n    address codeAuthor,\n    uint timeUploaded ,\n    string codeFingerPrint,\n    bytes16 [] hashSet,\n    uint hashSetLength\n  ) ;\n\n  event PlagiarismResult(\n    bool plagiarisedResult\n  );\n\n    // function acceptRelayedCall(\n    //     address relay,\n    //     address from,\n    //     bytes calldata encodedFunction,\n    //     uint256 transactionFee,\n    //     uint256 gasPrice,\n    //     uint256 gasLimit,\n    //     uint256 nonce,\n    //     bytes calldata approvalData,\n    //     uint256 maxPossibleCharge\n    // ) external view returns (uint256, bytes memory) {\n    //     return _approveRelayedCall();\n    // }\n\n//getUploaded files\n// different maps for different langiages\n// map to check if same file\n//reject if any file has higher similarity score than threshold\n\n  function inc() public{\n    temp++;\n  }\n    \n  function uploadFile(uint _fileSize, string memory  _fileIPFSHash, string memory  _fileName,string memory  _fileDescription, string memory  _codeFingerPrint, bytes16 [] memory _hashSet, uint hashSetLength) public {\n\n    if(checkIfPlagiarised(_hashSet,hashSetLength)){\n      emit PlagiarismResult(true);\n    }\n    else{\n      fileCount++;\n\n      filesMap[fileCount] = CodeFile(fileCount,_fileSize,_fileIPFSHash, _fileName, _fileDescription,msg.sender/*_msgSender()*/,block.timestamp,_codeFingerPrint,_hashSet,hashSetLength);\n\n      emit CodeFileUploadEvent(fileCount,_fileSize,_fileIPFSHash, _fileName, _fileDescription,msg.sender/*_msgSender()*/,block.timestamp,_codeFingerPrint,_hashSet,hashSetLength);\n    }\n  }\n\n    function getFileByIndex(uint _fileIndex)\n        public\n        view\n        returns (CodeFile memory records)\n    {\n        return filesMap[_fileIndex];\n    }\n\n    function getFileHashSet(uint _fileIndex) private\n        view\n        returns (bytes16 [] memory )\n    {\n        return filesMap[_fileIndex].hashSet;\n    }\n\n    function getFileHashSetLength(uint _fileIndex) private\n        view\n        returns (uint )\n    {\n        return filesMap[_fileIndex].hashSetLength;\n    }\n    function checkIfPlagiarised( bytes16 [] memory _hashSet, uint hashSetLength)public view returns(bool){\n      uint similarityScore = getMaximumSimilarityScore(_hashSet,hashSetLength);\n\n      uint thresholdSimilarity=30;\n      if(similarityScore>thresholdSimilarity)\n        return true;\n      else\n        return false;\n    }\n\n    function getMaximumSimilarityScore( bytes16 [] memory _hashSet, uint oriHashSetLength) public view returns (uint){\n      uint maxSimilarity=0;\n      uint similarity=0;\n      // similarity=calculateSimilarityScore(_hashSet,_hashSet);\n\n      for(uint i=1;i<=fileCount;i++){\n        bytes16 [] memory existingFilehashSet=getFileHashSet(i);\n        uint existingFilehashSetLength=getFileHashSetLength(i);\n        // for(uint j=1;j<=existingFilehashSet.length;j++){\n          similarity=calculateSimilarityScore(_hashSet,existingFilehashSet,oriHashSetLength,existingFilehashSetLength);\n          if(similarity>maxSimilarity){\n            maxSimilarity=similarity;\n          }\n        // }\n      }\n      return maxSimilarity;\n    }\n\n \n    \n// function comparebytes16s(bytes16  a, bytes16  b) private pure returns (bool) {\n//       return a==b;\n//         // return (keccak256(abi.encodePacked((a))) == keccak256(abi.encodePacked((b))));\n//     }\n    function getCommonElementsCount(bytes16[] memory list1, bytes16[] memory list2,uint setLength1,uint setLength2) public pure returns (uint){\n\n        uint commonElementsCount=0;\n        for(uint i=0;i< setLength1;i++){\n            for(uint j=0;j<setLength2;j++){\n                if(list1[i]==list2[j]/*(keccak256(abi.encodePacked((list1[i]))) == keccak256(abi.encodePacked((list2[j]))))*/){\n                    commonElementsCount++;\n                    break;\n                }\n            }\n        }\n        return commonElementsCount;\n    }\n\n    // function isPresent(bytes16[] memory l1,bytes16 ele)private pure returns (bool){\n    //     for(uint i=0;i<l1.length;i++){\n    //       if(comparebytes16s(l1[i],ele)){\n    //         return true;\n    //       }\n    //     }\n    //     return false;\n    // }\n    function calculateSimilarityScore(bytes16[] memory l1, bytes16[] memory l2, uint l1OriLength, uint l2OriLength) public pure returns(uint){\n\n\n      // bytes16[] memory list1 = new bytes16[](l1.length);   \n      // bytes16[] memory list2 = new bytes16[](l2.length);   \n\n      // uint setLength1=0;\n      // uint setLength2=0;\n\n      //   for(uint i=0;i<l1.length;i++){\n      //       if (!isPresent(list1,l1[i])) {\n      //         list1[setLength1]=l1[i];\n      //         setLength1++;\n      //       }\n      //   } \n  \n      //   for(uint i=0;i<l2.length;i++){\n      //       if (!isPresent(list2,l2[i])) {\n      //         list2[setLength2]=l2[i];\n      //         setLength2++;\n      //       }\n      //   } \n\n        // uint commonElementsCount = getCommonElementsCount(list1,list1,setLength1,setLength2);\n        uint commonElementsCount = getCommonElementsCount(l1,l2,l1.length,l2.length);\n        uint unionCount=l1OriLength+l2OriLength-commonElementsCount;        \n        \n        return commonElementsCount*100/unionCount;\n    } \n}",
  "sourcePath": "/home/harshvardhan/Documents/Major_Project/smart-contract/contracts/PlagiarismContract.sol",
  "compiler": {
    "name": "solc",
    "version": "0.8.6+commit.11564f7e.Emscripten.clang"
  },
  "schemaVersion": "3.4.5",
  "updatedAt": "2022-03-19T13:24:50.400Z",
  "networkType": "ethereum",
  "devdoc": {
    "kind": "dev",
    "methods": {},
    "version": 1
  },
  "userdoc": {
    "kind": "user",
    "methods": {},
    "version": 1
  }
}